{
  "contractName": "City",
  "abi": [
    {
      "constant": true,
      "inputs": [],
      "name": "name",
      "outputs": [
        {
          "name": "",
          "type": "string"
        }
      ],
      "payable": false,
      "stateMutability": "view",
      "type": "function"
    },
    {
      "constant": true,
      "inputs": [
        {
          "name": "_operator",
          "type": "address"
        },
        {
          "name": "_role",
          "type": "string"
        }
      ],
      "name": "checkRole",
      "outputs": [],
      "payable": false,
      "stateMutability": "view",
      "type": "function"
    },
    {
      "constant": true,
      "inputs": [
        {
          "name": "",
          "type": "address"
        }
      ],
      "name": "participants",
      "outputs": [
        {
          "name": "",
          "type": "bool"
        }
      ],
      "payable": false,
      "stateMutability": "view",
      "type": "function"
    },
    {
      "constant": true,
      "inputs": [
        {
          "name": "_operator",
          "type": "address"
        },
        {
          "name": "_role",
          "type": "string"
        }
      ],
      "name": "hasRole",
      "outputs": [
        {
          "name": "",
          "type": "bool"
        }
      ],
      "payable": false,
      "stateMutability": "view",
      "type": "function"
    },
    {
      "constant": true,
      "inputs": [],
      "name": "confirmsToParticipation",
      "outputs": [
        {
          "name": "",
          "type": "uint256"
        }
      ],
      "payable": false,
      "stateMutability": "view",
      "type": "function"
    },
    {
      "constant": true,
      "inputs": [],
      "name": "symbol",
      "outputs": [
        {
          "name": "",
          "type": "string"
        }
      ],
      "payable": false,
      "stateMutability": "view",
      "type": "function"
    },
    {
      "constant": true,
      "inputs": [],
      "name": "CITY_MANAGER_ROLE",
      "outputs": [
        {
          "name": "",
          "type": "string"
        }
      ],
      "payable": false,
      "stateMutability": "view",
      "type": "function"
    },
    {
      "constant": true,
      "inputs": [],
      "name": "maxSupply",
      "outputs": [
        {
          "name": "",
          "type": "uint256"
        }
      ],
      "payable": false,
      "stateMutability": "view",
      "type": "function"
    },
    {
      "inputs": [
        {
          "name": "_maxSupply",
          "type": "uint256"
        },
        {
          "name": "_name",
          "type": "string"
        },
        {
          "name": "_symbol",
          "type": "string"
        }
      ],
      "payable": false,
      "stateMutability": "nonpayable",
      "type": "constructor"
    },
    {
      "payable": true,
      "stateMutability": "payable",
      "type": "fallback"
    },
    {
      "anonymous": false,
      "inputs": [
        {
          "indexed": false,
          "name": "id",
          "type": "bytes32"
        },
        {
          "indexed": false,
          "name": "title",
          "type": "string"
        },
        {
          "indexed": false,
          "name": "payment",
          "type": "uint256"
        },
        {
          "indexed": false,
          "name": "paymentPeriod",
          "type": "uint256"
        },
        {
          "indexed": false,
          "name": "currency",
          "type": "uint8"
        },
        {
          "indexed": false,
          "name": "currencyAddress",
          "type": "address"
        }
      ],
      "name": "TariffCreated",
      "type": "event"
    },
    {
      "anonymous": false,
      "inputs": [
        {
          "indexed": false,
          "name": "id",
          "type": "bytes32"
        },
        {
          "indexed": false,
          "name": "title",
          "type": "string"
        },
        {
          "indexed": false,
          "name": "payment",
          "type": "uint256"
        },
        {
          "indexed": false,
          "name": "paymentPeriod",
          "type": "uint256"
        },
        {
          "indexed": false,
          "name": "currency",
          "type": "uint8"
        },
        {
          "indexed": false,
          "name": "currencyAddress",
          "type": "address"
        }
      ],
      "name": "TariffEdited",
      "type": "event"
    },
    {
      "anonymous": false,
      "inputs": [
        {
          "indexed": false,
          "name": "id",
          "type": "bytes32"
        },
        {
          "indexed": false,
          "name": "active",
          "type": "bool"
        }
      ],
      "name": "TariffActiveChanged",
      "type": "event"
    },
    {
      "anonymous": false,
      "inputs": [
        {
          "indexed": false,
          "name": "requested",
          "type": "address"
        }
      ],
      "name": "ParticipationRequest",
      "type": "event"
    },
    {
      "anonymous": false,
      "inputs": [
        {
          "indexed": false,
          "name": "requested",
          "type": "address"
        },
        {
          "indexed": false,
          "name": "confirmed",
          "type": "address"
        },
        {
          "indexed": false,
          "name": "fully",
          "type": "bool"
        }
      ],
      "name": "ParticipationConfirm",
      "type": "event"
    },
    {
      "anonymous": false,
      "inputs": [
        {
          "indexed": false,
          "name": "cityManager",
          "type": "address"
        },
        {
          "indexed": false,
          "name": "member",
          "type": "address"
        },
        {
          "indexed": false,
          "name": "tariff",
          "type": "bytes32"
        }
      ],
      "name": "ParticipationAdded",
      "type": "event"
    },
    {
      "anonymous": false,
      "inputs": [
        {
          "indexed": false,
          "name": "cityManager",
          "type": "address"
        },
        {
          "indexed": false,
          "name": "member",
          "type": "address"
        },
        {
          "indexed": false,
          "name": "tariff",
          "type": "bytes32"
        }
      ],
      "name": "ParticipationTariffChanged",
      "type": "event"
    },
    {
      "anonymous": false,
      "inputs": [
        {
          "indexed": true,
          "name": "operator",
          "type": "address"
        },
        {
          "indexed": false,
          "name": "role",
          "type": "string"
        }
      ],
      "name": "RoleAdded",
      "type": "event"
    },
    {
      "anonymous": false,
      "inputs": [
        {
          "indexed": true,
          "name": "operator",
          "type": "address"
        },
        {
          "indexed": false,
          "name": "role",
          "type": "string"
        }
      ],
      "name": "RoleRemoved",
      "type": "event"
    },
    {
      "constant": false,
      "inputs": [
        {
          "name": "_title",
          "type": "string"
        },
        {
          "name": "_payment",
          "type": "uint256"
        },
        {
          "name": "_paymentPeriod",
          "type": "uint256"
        },
        {
          "name": "_mintForPeriods",
          "type": "uint256"
        },
        {
          "name": "_currency",
          "type": "uint8"
        },
        {
          "name": "_currencyAddress",
          "type": "address"
        }
      ],
      "name": "createTariff",
      "outputs": [
        {
          "name": "",
          "type": "bytes32"
        }
      ],
      "payable": false,
      "stateMutability": "nonpayable",
      "type": "function"
    },
    {
      "constant": false,
      "inputs": [
        {
          "name": "_id",
          "type": "bytes32"
        },
        {
          "name": "_active",
          "type": "bool"
        }
      ],
      "name": "setTariffActive",
      "outputs": [],
      "payable": false,
      "stateMutability": "nonpayable",
      "type": "function"
    },
    {
      "constant": false,
      "inputs": [
        {
          "name": "_id",
          "type": "bytes32"
        },
        {
          "name": "_title",
          "type": "string"
        },
        {
          "name": "_payment",
          "type": "uint256"
        },
        {
          "name": "_paymentPeriod",
          "type": "uint256"
        },
        {
          "name": "_mintForPeriods",
          "type": "uint256"
        },
        {
          "name": "_currency",
          "type": "uint8"
        },
        {
          "name": "_currencyAddress",
          "type": "address"
        }
      ],
      "name": "editTariff",
      "outputs": [],
      "payable": false,
      "stateMutability": "nonpayable",
      "type": "function"
    },
    {
      "constant": false,
      "inputs": [
        {
          "name": "_maxSupply",
          "type": "uint256"
        }
      ],
      "name": "setMaxSupply",
      "outputs": [],
      "payable": false,
      "stateMutability": "nonpayable",
      "type": "function"
    },
    {
      "constant": false,
      "inputs": [
        {
          "name": "_confirmsToParticipation",
          "type": "uint256"
        }
      ],
      "name": "setConfirmsToParticipation",
      "outputs": [],
      "payable": false,
      "stateMutability": "nonpayable",
      "type": "function"
    },
    {
      "constant": false,
      "inputs": [
        {
          "name": "claimFor",
          "type": "address"
        },
        {
          "name": "periodsNumber",
          "type": "uint256"
        }
      ],
      "name": "claimPayment",
      "outputs": [
        {
          "name": "nextDate",
          "type": "uint256"
        }
      ],
      "payable": false,
      "stateMutability": "nonpayable",
      "type": "function"
    },
    {
      "constant": true,
      "inputs": [
        {
          "name": "_address",
          "type": "address"
        }
      ],
      "name": "isParticipant",
      "outputs": [
        {
          "name": "",
          "type": "bool"
        }
      ],
      "payable": false,
      "stateMutability": "view",
      "type": "function"
    },
    {
      "constant": false,
      "inputs": [
        {
          "name": "_address",
          "type": "address"
        },
        {
          "name": "_tariff",
          "type": "bytes32"
        }
      ],
      "name": "addParticipation",
      "outputs": [],
      "payable": false,
      "stateMutability": "nonpayable",
      "type": "function"
    },
    {
      "constant": false,
      "inputs": [
        {
          "name": "_address",
          "type": "address"
        },
        {
          "name": "_tariff",
          "type": "bytes32"
        }
      ],
      "name": "changeParticipationTariff",
      "outputs": [],
      "payable": false,
      "stateMutability": "nonpayable",
      "type": "function"
    },
    {
      "constant": false,
      "inputs": [
        {
          "name": "_tariff",
          "type": "bytes32"
        }
      ],
      "name": "requestParticipation",
      "outputs": [],
      "payable": false,
      "stateMutability": "nonpayable",
      "type": "function"
    },
    {
      "constant": false,
      "inputs": [
        {
          "name": "_requested",
          "type": "address"
        }
      ],
      "name": "confirmParticipation",
      "outputs": [
        {
          "name": "count",
          "type": "uint256"
        }
      ],
      "payable": false,
      "stateMutability": "nonpayable",
      "type": "function"
    },
    {
      "constant": true,
      "inputs": [
        {
          "name": "_requested",
          "type": "address"
        }
      ],
      "name": "confirmsOf",
      "outputs": [
        {
          "name": "",
          "type": "uint256"
        }
      ],
      "payable": false,
      "stateMutability": "view",
      "type": "function"
    },
    {
      "constant": false,
      "inputs": [
        {
          "name": "_participant",
          "type": "address"
        }
      ],
      "name": "kickParticipation",
      "outputs": [],
      "payable": false,
      "stateMutability": "nonpayable",
      "type": "function"
    },
    {
      "constant": false,
      "inputs": [],
      "name": "leaveParticipation",
      "outputs": [],
      "payable": false,
      "stateMutability": "nonpayable",
      "type": "function"
    },
    {
      "constant": false,
      "inputs": [
        {
          "name": "_operator",
          "type": "address"
        },
        {
          "name": "_role",
          "type": "string"
        }
      ],
      "name": "addRoleTo",
      "outputs": [],
      "payable": false,
      "stateMutability": "nonpayable",
      "type": "function"
    },
    {
      "constant": false,
      "inputs": [
        {
          "name": "_operator",
          "type": "address"
        },
        {
          "name": "_role",
          "type": "string"
        }
      ],
      "name": "removeRoleFrom",
      "outputs": [],
      "payable": false,
      "stateMutability": "nonpayable",
      "type": "function"
    },
    {
      "constant": true,
      "inputs": [],
      "name": "getAllTariffs",
      "outputs": [
        {
          "name": "",
          "type": "bytes32[]"
        }
      ],
      "payable": false,
      "stateMutability": "view",
      "type": "function"
    },
    {
      "constant": true,
      "inputs": [],
      "name": "getActiveTariffs",
      "outputs": [
        {
          "name": "",
          "type": "bytes32[]"
        }
      ],
      "payable": false,
      "stateMutability": "view",
      "type": "function"
    },
    {
      "constant": true,
      "inputs": [
        {
          "name": "_id",
          "type": "bytes32"
        }
      ],
      "name": "getTariff",
      "outputs": [
        {
          "name": "title",
          "type": "string"
        },
        {
          "name": "active",
          "type": "bool"
        },
        {
          "name": "payment",
          "type": "uint256"
        },
        {
          "name": "paymentPeriod",
          "type": "uint256"
        },
        {
          "name": "mintForPeriods",
          "type": "uint256"
        },
        {
          "name": "totalMinted",
          "type": "uint256"
        },
        {
          "name": "totalBurned",
          "type": "uint256"
        },
        {
          "name": "paymentSent",
          "type": "uint256"
        },
        {
          "name": "currency",
          "type": "uint8"
        },
        {
          "name": "currencyAddress",
          "type": "address"
        }
      ],
      "payable": false,
      "stateMutability": "view",
      "type": "function"
    },
    {
      "constant": true,
      "inputs": [],
      "name": "getAllParticipants",
      "outputs": [
        {
          "name": "",
          "type": "address[]"
        }
      ],
      "payable": false,
      "stateMutability": "view",
      "type": "function"
    },
    {
      "constant": true,
      "inputs": [],
      "name": "getActiveParticipants",
      "outputs": [
        {
          "name": "",
          "type": "address[]"
        }
      ],
      "payable": false,
      "stateMutability": "view",
      "type": "function"
    },
    {
      "constant": true,
      "inputs": [],
      "name": "getActiveParticipantsCount",
      "outputs": [
        {
          "name": "",
          "type": "uint256"
        }
      ],
      "payable": false,
      "stateMutability": "view",
      "type": "function"
    },
    {
      "constant": true,
      "inputs": [
        {
          "name": "_participant",
          "type": "address"
        }
      ],
      "name": "getParticipantInfo",
      "outputs": [
        {
          "name": "active",
          "type": "bool"
        },
        {
          "name": "tariff",
          "type": "bytes32"
        },
        {
          "name": "claimed",
          "type": "uint256"
        },
        {
          "name": "minted",
          "type": "uint256"
        },
        {
          "name": "lastTimestamp",
          "type": "uint256"
        }
      ],
      "payable": false,
      "stateMutability": "view",
      "type": "function"
    },
    {
      "constant": false,
      "inputs": [
        {
          "name": "tokenAddress",
          "type": "address"
        },
        {
          "name": "mintAmount",
          "type": "uint256"
        }
      ],
      "name": "mintTokens",
      "outputs": [],
      "payable": false,
      "stateMutability": "nonpayable",
      "type": "function"
    }
  ],
  "bytecode": "0x60806040523480156200001157600080fd5b50604051620056a3380380620056a38339810180604052810190808051906020019092919080518201929190602001805182019291905050508260038190555081600190805190602001906200006992919062000290565b5080600290805190602001906200008292919062000290565b506001600481905550620000e0336040805190810160405280600c81526020017f636974795f6d616e616765720000000000000000000000000000000000000000815250620000e96401000000000262004b65176401000000009004565b5050506200033f565b62000178826000836040518082805190602001908083835b60208310151562000128578051825260208201915060208101905060208303925062000101565b6001836020036101000a0380198251168184511680821785525050505050509050019150509081526020016040518091039020620002326401000000000262005083179091906401000000009004565b8173ffffffffffffffffffffffffffffffffffffffff167fbfec83d64eaa953f2708271a023ab9ee82057f8f3578d548c1a4ba0b5b700489826040518080602001828103825283818151815260200191508051906020019080838360005b83811015620001f3578082015181840152602081019050620001d6565b50505050905090810190601f168015620002215780820380516001836020036101000a031916815260200191505b509250505060405180910390a25050565b60018260000160008373ffffffffffffffffffffffffffffffffffffffff1673ffffffffffffffffffffffffffffffffffffffff16815260200190815260200160002060006101000a81548160ff0219169083151502179055505050565b828054600181600116156101000203166002900490600052602060002090601f016020900481019282601f10620002d357805160ff191683800117855562000304565b8280016001018555821562000304579182015b8281111562000303578251825591602001919060010190620002e6565b5b50905062000313919062000317565b5090565b6200033c91905b80821115620003385760008160009055506001016200031e565b5090565b90565b615354806200034f6000396000f300608060405260043610610196576000357c0100000000000000000000000000000000000000000000000000000000900463ffffffff168063066d7e641461019857806306fdde03146102045780630988ca8c1461029457806309e69ede1461031d5780630cd7947b146103785780630d31e2ea146103cf5780630fb0d1e514610458578063195ec9ee14610489578063217fe6c6146104f55780632c3b481014610596578063361ec9aa14610666578063430d07b0146106bd57806356c4490a1461070e5780635a09a8db146107d05780636e0f5ec1146107e75780636f8b44b01461081257806371bdce551461083f578063726661c3146108be578063790c731614610947578063929066f5146109b357806395d89b4114610a0e5780639ca42fe314610a9e578063bb74868114610ac9578063bcc73d5d14610b1a578063c4e158aa14610b5d578063d376ed2f14610bed578063d5abeb0114610c59578063e97c41d914610c84578063f0dda65c14610dab578063fab4bdf814610df8578063fb1dc11714610e25578063ff264b1614610e62575b005b3480156101a457600080fd5b506101ad610ec3565b6040518080602001828103825283818151815260200191508051906020019060200280838360005b838110156101f05780820151818401526020810190506101d5565b505050509050019250505060405180910390f35b34801561021057600080fd5b50610219610ed4565b6040518080602001828103825283818151815260200191508051906020019080838360005b8381101561025957808201518184015260208101905061023e565b50505050905090810190601f1680156102865780820380516001836020036101000a031916815260200191505b509250505060405180910390f35b3480156102a057600080fd5b5061031b600480360381019080803573ffffffffffffffffffffffffffffffffffffffff169060200190929190803590602001908201803590602001908080601f0160208091040260200160405190810160405280939291908181526020018383808284378201915050505050509192919290505050610f72565b005b34801561032957600080fd5b5061035e600480360381019080803573ffffffffffffffffffffffffffffffffffffffff169060200190929190505050610ff3565b604051808215151515815260200191505060405180910390f35b34801561038457600080fd5b506103b9600480360381019080803573ffffffffffffffffffffffffffffffffffffffff169060200190929190505050611013565b6040518082815260200191505060405180910390f35b3480156103db57600080fd5b50610456600480360381019080803573ffffffffffffffffffffffffffffffffffffffff169060200190929190803590602001908201803590602001908080601f0160208091040260200160405190810160405280939291908181526020018383808284378201915050505050509192919290505050611826565b005b34801561046457600080fd5b5061048760048036038101908080356000191690602001909291905050506118e7565b005b34801561049557600080fd5b5061049e611c33565b6040518080602001828103825283818151815260200191508051906020019060200280838360005b838110156104e15780820151818401526020810190506104c6565b505050509050019250505060405180910390f35b34801561050157600080fd5b5061057c600480360381019080803573ffffffffffffffffffffffffffffffffffffffff169060200190929190803590602001908201803590602001908080601f0160208091040260200160405190810160405280939291908181526020018383808284378201915050505050509192919290505050611cc1565b604051808215151515815260200191505060405180910390f35b3480156105a257600080fd5b50610648600480360381019080803590602001908201803590602001908080601f0160208091040260200160405190810160405280939291908181526020018383808284378201915050505050509192919290803590602001909291908035906020019092919080359060200190929190803560ff169060200190929190803573ffffffffffffffffffffffffffffffffffffffff169060200190929190505050611d48565b60405180826000191660001916815260200191505060405180910390f35b34801561067257600080fd5b506106a7600480360381019080803573ffffffffffffffffffffffffffffffffffffffff169060200190929190505050612285565b6040518082815260200191505060405180910390f35b3480156106c957600080fd5b5061070c600480360381019080803573ffffffffffffffffffffffffffffffffffffffff16906020019092919080356000191690602001909291905050506122d1565b005b34801561071a57600080fd5b506107ce6004803603810190808035600019169060200190929190803590602001908201803590602001908080601f0160208091040260200160405190810160405280939291908181526020018383808284378201915050505050509192919290803590602001909291908035906020019092919080359060200190929190803560ff169060200190929190803573ffffffffffffffffffffffffffffffffffffffff1690602001909291905050506124fb565b005b3480156107dc57600080fd5b506107e56127f8565b005b3480156107f357600080fd5b506107fc6128c4565b6040518082815260200191505060405180910390f35b34801561081e57600080fd5b5061083d600480360381019080803590602001909291905050506128ca565b005b34801561084b57600080fd5b50610880600480360381019080803573ffffffffffffffffffffffffffffffffffffffff169060200190929190505050612987565b604051808615151515815260200185600019166000191681526020018481526020018381526020018281526020019550505050505060405180910390f35b3480156108ca57600080fd5b50610945600480360381019080803573ffffffffffffffffffffffffffffffffffffffff169060200190929190803590602001908201803590602001908080601f0160208091040260200160405190810160405280939291908181526020018383808284378201915050505050509192919290505050612a46565b005b34801561095357600080fd5b5061095c612b07565b6040518080602001828103825283818151815260200191508051906020019060200280838360005b8381101561099f578082015181840152602081019050610984565b505050509050019250505060405180910390f35b3480156109bf57600080fd5b506109f4600480360381019080803573ffffffffffffffffffffffffffffffffffffffff169060200190929190505050612b63565b604051808215151515815260200191505060405180910390f35b348015610a1a57600080fd5b50610a23612bb9565b6040518080602001828103825283818151815260200191508051906020019080838360005b83811015610a63578082015181840152602081019050610a48565b50505050905090810190601f168015610a905780820380516001836020036101000a031916815260200191505b509250505060405180910390f35b348015610aaa57600080fd5b50610ab3612c57565b6040518082815260200191505060405180910390f35b348015610ad557600080fd5b50610b18600480360381019080803573ffffffffffffffffffffffffffffffffffffffff1690602001909291908035600019169060200190929190505050612c68565b005b348015610b2657600080fd5b50610b5b600480360381019080803573ffffffffffffffffffffffffffffffffffffffff169060200190929190505050612e59565b005b348015610b6957600080fd5b50610b72612fd9565b6040518080602001828103825283818151815260200191508051906020019080838360005b83811015610bb2578082015181840152602081019050610b97565b50505050905090810190601f168015610bdf5780820380516001836020036101000a031916815260200191505b509250505060405180910390f35b348015610bf957600080fd5b50610c02613012565b6040518080602001828103825283818151815260200191508051906020019060200280838360005b83811015610c45578082015181840152602081019050610c2a565b505050509050019250505060405180910390f35b348015610c6557600080fd5b50610c6e613023565b6040518082815260200191505060405180910390f35b348015610c9057600080fd5b50610cb36004803603810190808035600019169060200190929190505050613029565b60405180806020018b1515151581526020018a8152602001898152602001888152602001878152602001868152602001858152602001846001811115610cf557fe5b60ff1681526020018373ffffffffffffffffffffffffffffffffffffffff1673ffffffffffffffffffffffffffffffffffffffff16815260200182810382528c818151815260200191508051906020019080838360005b83811015610d67578082015181840152602081019050610d4c565b50505050905090810190601f168015610d945780820380516001836020036101000a031916815260200191505b509b50505050505050505050505060405180910390f35b348015610db757600080fd5b50610df6600480360381019080803573ffffffffffffffffffffffffffffffffffffffff16906020019092919080359060200190929190505050613180565b005b348015610e0457600080fd5b50610e2360048036038101908080359060200190929190505050613316565b005b348015610e3157600080fd5b50610e6060048036038101908080356000191690602001909291908035151590602001909291905050506133d3565b005b348015610e6e57600080fd5b50610ead600480360381019080803573ffffffffffffffffffffffffffffffffffffffff169060200190929190803590602001909291905050506135e6565b6040518082815260200191505060405180910390f35b6060610ecf6006613e9d565b905090565b60018054600181600116156101000203166002900480601f016020809104026020016040519081016040528092919081815260200182805460018160011615610100020316600290048015610f6a5780601f10610f3f57610100808354040283529160200191610f6a565b820191906000526020600020905b815481529060010190602001808311610f4d57829003601f168201915b505050505081565b610fef826000836040518082805190602001908083835b602083101515610fae5780518252602082019150602081019050602083039250610f89565b6001836020036101000a0380198251168184511680821785525050505050509050019150509081526020016040518091039020613f2f90919063ffffffff16565b5050565b60056020528060005260406000206000915054906101000a900460ff1681565b6000611054336040805190810160405280600c81526020017f636974795f6d616e616765720000000000000000000000000000000000000000815250611cc1565b15156110c8576040517f08c379a00000000000000000000000000000000000000000000000000000000081526004018080602001828103825260118152602001807f4f6e6c792063697479206d616e6167657200000000000000000000000000000081525060200191505060405180910390fd5b6003546110d56006613f48565b10151561114a576040517f08c379a00000000000000000000000000000000000000000000000000000000081526004018080602001828103825260118152602001807f4e6f7420656e6f75676820737570706c7900000000000000000000000000000081525060200191505060405180910390fd5b600560008373ffffffffffffffffffffffffffffffffffffffff1673ffffffffffffffffffffffffffffffffffffffff16815260200190815260200160002060009054906101000a900460ff1615151561120c576040517f08c379a00000000000000000000000000000000000000000000000000000000081526004018080602001828103825260138152602001807f416c7265616479207061727469636970616e740000000000000000000000000081525060200191505060405180910390fd5b600b60008373ffffffffffffffffffffffffffffffffffffffff1673ffffffffffffffffffffffffffffffffffffffff16815260200190815260200160002060010160009054906101000a900460ff1615156112d0576040517f08c379a00000000000000000000000000000000000000000000000000000000081526004018080602001828103825260088152602001807f4e6f742073656e7400000000000000000000000000000000000000000000000081525060200191505060405180910390fd5b600b60008373ffffffffffffffffffffffffffffffffffffffff1673ffffffffffffffffffffffffffffffffffffffff16815260200190815260200160002060010160019054906101000a900460ff16151515611395576040517f08c379a00000000000000000000000000000000000000000000000000000000081526004018080602001828103825260118152602001807f416c726561647920636f6e6669726d656400000000000000000000000000000081525060200191505060405180910390fd5b60001515600b60008473ffffffffffffffffffffffffffffffffffffffff1673ffffffffffffffffffffffffffffffffffffffff16815260200190815260200160002060030160003373ffffffffffffffffffffffffffffffffffffffff1673ffffffffffffffffffffffffffffffffffffffff16815260200190815260200160002060009054906101000a900460ff16151514151561149d576040517f08c379a00000000000000000000000000000000000000000000000000000000081526004018080602001828103825260168152602001807f596f752063616e7420636f6e6669726d2074776963650000000000000000000081525060200191505060405180910390fd5b6001600b60008473ffffffffffffffffffffffffffffffffffffffff1673ffffffffffffffffffffffffffffffffffffffff16815260200190815260200160002060030160003373ffffffffffffffffffffffffffffffffffffffff1673ffffffffffffffffffffffffffffffffffffffff16815260200190815260200160002060006101000a81548160ff0219169083151502179055506001600b60008473ffffffffffffffffffffffffffffffffffffffff1673ffffffffffffffffffffffffffffffffffffffff16815260200190815260200160002060020160008282540192505081905550600454600b60008473ffffffffffffffffffffffffffffffffffffffff1673ffffffffffffffffffffffffffffffffffffffff16815260200190815260200160002060020154101515611737576001600b60008473ffffffffffffffffffffffffffffffffffffffff1673ffffffffffffffffffffffffffffffffffffffff16815260200190815260200160002060010160016101000a81548160ff02191690831515021790555061164282600c613f5990919063ffffffff16565b61168e82600b60008573ffffffffffffffffffffffffffffffffffffffff1673ffffffffffffffffffffffffffffffffffffffff168152602001908152602001600020600001546142cb565b7f1c770a93731be70342e4d215a67c2d277f8c1ca326da36fa3ec3c6e022706a4682336001604051808473ffffffffffffffffffffffffffffffffffffffff1673ffffffffffffffffffffffffffffffffffffffff1681526020018373ffffffffffffffffffffffffffffffffffffffff1673ffffffffffffffffffffffffffffffffffffffff16815260200182151515158152602001935050505060405180910390a16117dc565b7f1c770a93731be70342e4d215a67c2d277f8c1ca326da36fa3ec3c6e022706a4682336000604051808473ffffffffffffffffffffffffffffffffffffffff1673ffffffffffffffffffffffffffffffffffffffff1681526020018373ffffffffffffffffffffffffffffffffffffffff1673ffffffffffffffffffffffffffffffffffffffff16815260200182151515158152602001935050505060405180910390a15b600b60008373ffffffffffffffffffffffffffffffffffffffff1673ffffffffffffffffffffffffffffffffffffffff168152602001908152602001600020600201549050919050565b611865336040805190810160405280600c81526020017f636974795f6d616e616765720000000000000000000000000000000000000000815250611cc1565b15156118d9576040517f08c379a00000000000000000000000000000000000000000000000000000000081526004018080602001828103825260118152602001807f4f6e6c792063697479206d616e6167657200000000000000000000000000000081525060200191505060405180910390fd5b6118e382826146cf565b5050565b6003546118f46006613f48565b101515611969576040517f08c379a00000000000000000000000000000000000000000000000000000000081526004018080602001828103825260118152602001807f4e6f7420656e6f75676820737570706c7900000000000000000000000000000081525060200191505060405180910390fd5b600560003373ffffffffffffffffffffffffffffffffffffffff1673ffffffffffffffffffffffffffffffffffffffff16815260200190815260200160002060009054906101000a900460ff16151515611a2b576040517f08c379a00000000000000000000000000000000000000000000000000000000081526004018080602001828103825260138152602001807f416c7265616479207061727469636970616e740000000000000000000000000081525060200191505060405180910390fd5b600b60003373ffffffffffffffffffffffffffffffffffffffff1673ffffffffffffffffffffffffffffffffffffffff16815260200190815260200160002060010160009054906101000a900460ff16151515611af0576040517f08c379a000000000000000000000000000000000000000000000000000000000815260040180806020018281038252600c8152602001807f416c72656164792073656e74000000000000000000000000000000000000000081525060200191505060405180910390fd5b608060405190810160405280826000191681526020016001151581526020016000151581526020016000815250600b60003373ffffffffffffffffffffffffffffffffffffffff1673ffffffffffffffffffffffffffffffffffffffff1681526020019081526020016000206000820151816000019060001916905560208201518160010160006101000a81548160ff02191690831515021790555060408201518160010160016101000a81548160ff02191690831515021790555060608201518160020155905050611bcd33600c61480390919063ffffffff16565b7f1397ce7201c0e8ab68be45be2eac362cd7fbbb9a82a909bbc6bb49a1e4545ca633604051808273ffffffffffffffffffffffffffffffffffffffff1673ffffffffffffffffffffffffffffffffffffffff16815260200191505060405180910390a150565b60606009805480602002602001604051908101604052809291908181526020018280548015611cb757602002820191906000526020600020905b8160009054906101000a900473ffffffffffffffffffffffffffffffffffffffff1673ffffffffffffffffffffffffffffffffffffffff1681526020019060010190808311611c6d575b5050505050905090565b6000611d40836000846040518082805190602001908083835b602083101515611cff5780518252602082019150602081019050602083039250611cda565b6001836020036101000a03801982511681845116808217855250505050505090500191505090815260200160405180910390206149e090919063ffffffff16565b905092915050565b600080611d8a336040805190810160405280600c81526020017f636974795f6d616e616765720000000000000000000000000000000000000000815250611cc1565b1515611dfe576040517f08c379a00000000000000000000000000000000000000000000000000000000081526004018080602001828103825260118152602001807f4f6e6c792063697479206d616e6167657200000000000000000000000000000081525060200191505060405180910390fd5b3342888886604051602001808673ffffffffffffffffffffffffffffffffffffffff1673ffffffffffffffffffffffffffffffffffffffff166c010000000000000000000000000281526014018581526020018481526020018381526020018273ffffffffffffffffffffffffffffffffffffffff1673ffffffffffffffffffffffffffffffffffffffff166c01000000000000000000000000028152601401955050505050506040516020818303038152906040526040518082805190602001908083835b602083101515611ee95780518252602082019150602081019050602083039250611ec4565b6001836020036101000a03801982511681845116808217855250505050505090500191505060405180910390209050600f6000826000191660001916815260200190815260200160002060010160009054906101000a900460ff16151515611fb9576040517f08c379a00000000000000000000000000000000000000000000000000000000081526004018080602001828103825260168152602001807f54617269666620616c726561647920637265617465640000000000000000000081525060200191505060405180910390fd5b87600f600083600019166000191681526020019081526020016000206000019080519060200190611feb929190615206565b5086600f600083600019166000191681526020019081526020016000206002018190555085600f600083600019166000191681526020019081526020016000206003018190555084600f600083600019166000191681526020019081526020016000206007018190555083600f6000836000191660001916815260200190815260200160002060080160006101000a81548160ff0219169083600181111561208f57fe5b021790555082600f6000836000191660001916815260200190815260200160002060080160016101000a81548173ffffffffffffffffffffffffffffffffffffffff021916908373ffffffffffffffffffffffffffffffffffffffff1602179055506001600f6000836000191660001916815260200190815260200160002060010160006101000a81548160ff02191690831515021790555061213c816010614a3990919063ffffffff16565b60138190806001815401808255809150509060018203906000526020600020016000909192909190915090600019169055507f665d1d006c6253aaaea35061cb23bca87e46289812605e066def7c765fa0542a8189898988600181111561219f57fe5b88604051808760001916600019168152602001806020018681526020018581526020018460ff1660ff1681526020018373ffffffffffffffffffffffffffffffffffffffff1673ffffffffffffffffffffffffffffffffffffffff168152602001828103825287818151815260200191508051906020019080838360005b8381101561223857808201518184015260208101905061221d565b50505050905090810190601f1680156122655780820380516001836020036101000a031916815260200191505b5097505050505050505060405180910390a1809150509695505050505050565b6000600b60008373ffffffffffffffffffffffffffffffffffffffff1673ffffffffffffffffffffffffffffffffffffffff168152602001908152602001600020600201549050919050565b612310336040805190810160405280600c81526020017f636974795f6d616e616765720000000000000000000000000000000000000000815250611cc1565b1515612384576040517f08c379a00000000000000000000000000000000000000000000000000000000081526004018080602001828103825260118152602001807f4f6e6c792063697479206d616e6167657200000000000000000000000000000081525060200191505060405180910390fd5b600560008373ffffffffffffffffffffffffffffffffffffffff1673ffffffffffffffffffffffffffffffffffffffff16815260200190815260200160002060009054906101000a900460ff16151515612446576040517f08c379a00000000000000000000000000000000000000000000000000000000081526004018080602001828103825260138152602001807f416c7265616479207061727469636970616e740000000000000000000000000081525060200191505060405180910390fd5b61245082826142cb565b7fba5fe7468094ee0772588103af3bff67a6a41f671684a5081caf6cbb7c6c4b85338383604051808473ffffffffffffffffffffffffffffffffffffffff1673ffffffffffffffffffffffffffffffffffffffff1681526020018373ffffffffffffffffffffffffffffffffffffffff1673ffffffffffffffffffffffffffffffffffffffff1681526020018260001916600019168152602001935050505060405180910390a15050565b61253a336040805190810160405280600c81526020017f636974795f6d616e616765720000000000000000000000000000000000000000815250611cc1565b15156125ae576040517f08c379a00000000000000000000000000000000000000000000000000000000081526004018080602001828103825260118152602001807f4f6e6c792063697479206d616e6167657200000000000000000000000000000081525060200191505060405180910390fd5b85600f6000896000191660001916815260200190815260200160002060000190805190602001906125e0929190615206565b5084600f600089600019166000191681526020019081526020016000206002018190555083600f600089600019166000191681526020019081526020016000206003018190555082600f600089600019166000191681526020019081526020016000206007018190555081600f6000896000191660001916815260200190815260200160002060080160006101000a81548160ff0219169083600181111561268457fe5b021790555080600f6000896000191660001916815260200190815260200160002060080160016101000a81548173ffffffffffffffffffffffffffffffffffffffff021916908373ffffffffffffffffffffffffffffffffffffffff1602179055507ffdc8ac7f63e39d6ab84a96a650333013eec6a444dd3aab4a9673742dcaee8e878787878786600181111561271757fe5b86604051808760001916600019168152602001806020018681526020018581526020018460ff1660ff1681526020018373ffffffffffffffffffffffffffffffffffffffff1673ffffffffffffffffffffffffffffffffffffffff168152602001828103825287818151815260200191508051906020019080838360005b838110156127b0578082015181840152602081019050612795565b50505050905090810190601f1680156127dd5780820380516001836020036101000a031916815260200191505b5097505050505050505060405180910390a150505050505050565b600560003373ffffffffffffffffffffffffffffffffffffffff1673ffffffffffffffffffffffffffffffffffffffff16815260200190815260200160002060009054906101000a900460ff1615156128b9576040517f08c379a000000000000000000000000000000000000000000000000000000000815260040180806020018281038252600f8152602001807f4e6f74207061727469636970616e74000000000000000000000000000000000081525060200191505060405180910390fd5b6128c233614aed565b565b60045481565b612909336040805190810160405280600c81526020017f636974795f6d616e616765720000000000000000000000000000000000000000815250611cc1565b151561297d576040517f08c379a00000000000000000000000000000000000000000000000000000000081526004018080602001828103825260118152602001807f4f6e6c792063697479206d616e6167657200000000000000000000000000000081525060200191505060405180910390fd5b8060038190555050565b600080600080600080600a60008873ffffffffffffffffffffffffffffffffffffffff1673ffffffffffffffffffffffffffffffffffffffff1681526020019081526020016000209050600560008873ffffffffffffffffffffffffffffffffffffffff1673ffffffffffffffffffffffffffffffffffffffff16815260200190815260200160002060009054906101000a900460ff168160000154826003015483600201548460010154955095509550955095505091939590929450565b612a85336040805190810160405280600c81526020017f636974795f6d616e616765720000000000000000000000000000000000000000815250611cc1565b1515612af9576040517f08c379a00000000000000000000000000000000000000000000000000000000081526004018080602001828103825260118152602001807f4f6e6c792063697479206d616e6167657200000000000000000000000000000081525060200191505060405180910390fd5b612b038282614b65565b5050565b60606013805480602002602001604051908101604052809291908181526020018280548015612b5957602002820191906000526020600020905b81546000191681526020019060010190808311612b41575b5050505050905090565b6000600560008373ffffffffffffffffffffffffffffffffffffffff1673ffffffffffffffffffffffffffffffffffffffff16815260200190815260200160002060009054906101000a900460ff169050919050565b60028054600181600116156101000203166002900480601f016020809104026020016040519081016040528092919081815260200182805460018160011615610100020316600290048015612c4f5780601f10612c2457610100808354040283529160200191612c4f565b820191906000526020600020905b815481529060010190602001808311612c3257829003601f168201915b505050505081565b6000612c636006613f48565b905090565b612ca7336040805190810160405280600c81526020017f636974795f6d616e616765720000000000000000000000000000000000000000815250611cc1565b1515612d1b576040517f08c379a00000000000000000000000000000000000000000000000000000000081526004018080602001828103825260118152602001807f4f6e6c792063697479206d616e6167657200000000000000000000000000000081525060200191505060405180910390fd5b80600a60008473ffffffffffffffffffffffffffffffffffffffff1673ffffffffffffffffffffffffffffffffffffffff16815260200190815260200160002060000181600019169055506000600a60008473ffffffffffffffffffffffffffffffffffffffff1673ffffffffffffffffffffffffffffffffffffffff168152602001908152602001600020600301819055507f2ae11b2542b9c52a503600c53dbd51085a55ff4d85b5678f3684f04e4607bcb4338383604051808473ffffffffffffffffffffffffffffffffffffffff1673ffffffffffffffffffffffffffffffffffffffff1681526020018373ffffffffffffffffffffffffffffffffffffffff1673ffffffffffffffffffffffffffffffffffffffff1681526020018260001916600019168152602001935050505060405180910390a15050565b612e98336040805190810160405280600c81526020017f636974795f6d616e616765720000000000000000000000000000000000000000815250611cc1565b1515612f0c576040517f08c379a00000000000000000000000000000000000000000000000000000000081526004018080602001828103825260118152602001807f4f6e6c792063697479206d616e6167657200000000000000000000000000000081525060200191505060405180910390fd5b600560008273ffffffffffffffffffffffffffffffffffffffff1673ffffffffffffffffffffffffffffffffffffffff16815260200190815260200160002060009054906101000a900460ff161515612fcd576040517f08c379a000000000000000000000000000000000000000000000000000000000815260040180806020018281038252600f8152602001807f4e6f74207061727469636970616e74000000000000000000000000000000000081525060200191505060405180910390fd5b612fd681614aed565b50565b6040805190810160405280600c81526020017f636974795f6d616e61676572000000000000000000000000000000000000000081525081565b606061301e6010614c99565b905090565b60035481565b6060600080600080600080600080600080600f60008d600019166000191681526020019081526020016000209050806000018160010160009054906101000a900460ff168260020154836003015484600701548560050154866006015487600401548860080160009054906101000a900460ff168960080160019054906101000a900473ffffffffffffffffffffffffffffffffffffffff16898054600181600116156101000203166002900480601f0160208091040260200160405190810160405280929190818152602001828054600181600116156101000203166002900480156131575780601f1061312c57610100808354040283529160200191613157565b820191906000526020600020905b81548152906001019060200180831161313a57829003601f168201915b505050505099509a509a509a509a509a509a509a509a509a509a50509193959799509193959799565b6131bf336040805190810160405280600c81526020017f636974795f6d616e616765720000000000000000000000000000000000000000815250611cc1565b1515613233576040517f08c379a00000000000000000000000000000000000000000000000000000000081526004018080602001828103825260118152602001807f4f6e6c792063697479206d616e6167657200000000000000000000000000000081525060200191505060405180910390fd5b8173ffffffffffffffffffffffffffffffffffffffff166340c10f1930836040518363ffffffff167c0100000000000000000000000000000000000000000000000000000000028152600401808373ffffffffffffffffffffffffffffffffffffffff1673ffffffffffffffffffffffffffffffffffffffff16815260200182815260200192505050602060405180830381600087803b1580156132d657600080fd5b505af11580156132ea573d6000803e3d6000fd5b505050506040513d602081101561330057600080fd5b8101908080519060200190929190505050505050565b613355336040805190810160405280600c81526020017f636974795f6d616e616765720000000000000000000000000000000000000000815250611cc1565b15156133c9576040517f08c379a00000000000000000000000000000000000000000000000000000000081526004018080602001828103825260118152602001807f4f6e6c792063697479206d616e6167657200000000000000000000000000000081525060200191505060405180910390fd5b8060048190555050565b613412336040805190810160405280600c81526020017f636974795f6d616e616765720000000000000000000000000000000000000000815250611cc1565b1515613486576040517f08c379a00000000000000000000000000000000000000000000000000000000081526004018080602001828103825260118152602001807f4f6e6c792063697479206d616e6167657200000000000000000000000000000081525060200191505060405180910390fd5b801515600f6000846000191660001916815260200190815260200160002060010160009054906101000a900460ff1615151415151561352d576040517f08c379a000000000000000000000000000000000000000000000000000000000815260040180806020018281038252600b8152602001807f53616d652073746174757300000000000000000000000000000000000000000081525060200191505060405180910390fd5b80600f6000846000191660001916815260200190815260200160002060010160006101000a81548160ff02191690831515021790555080156135825761357d826010614a3990919063ffffffff16565b613597565b613596826010614cf990919063ffffffff16565b5b7fa468e8808de226695127eb52b091b945527354830cff5358eddf58444fe0e2918282604051808360001916600019168152602001821515151581526020019250505060405180910390a15050565b600080600080600a60008773ffffffffffffffffffffffffffffffffffffffff1673ffffffffffffffffffffffffffffffffffffffff1681526020019081526020016000209250600f600084600001546000191660001916815260200190815260200160002091508160010160009054906101000a900460ff1615156136d4576040517f08c379a00000000000000000000000000000000000000000000000000000000081526004018080602001828103825260118152602001807f546172696666206e6f742061637469766500000000000000000000000000000081525060200191505060405180910390fd5b6000826002015414151515613751576040517f08c379a00000000000000000000000000000000000000000000000000000000081526004018080602001828103825260168152602001807f546172696666207061796d656e74206973206e756c6c0000000000000000000081525060200191505060405180910390fd5b60008260030154141515156137ce576040517f08c379a000000000000000000000000000000000000000000000000000000000815260040180806020018281038252601d8152602001807f546172696666207061796d656e7420706572696f64206973206e756c6c00000081525060200191505060405180910390fd5b600560008773ffffffffffffffffffffffffffffffffffffffff1673ffffffffffffffffffffffffffffffffffffffff16815260200190815260200160002060009054906101000a900460ff16151561388f576040517f08c379a000000000000000000000000000000000000000000000000000000000815260040180806020018281038252600a8152602001807f4e6f74206163746976650000000000000000000000000000000000000000000081525060200191505060405180910390fd5b4285836003015402600a60008973ffffffffffffffffffffffffffffffffffffffff1673ffffffffffffffffffffffffffffffffffffffff168152602001908152602001600020600101540111151515613951576040517f08c379a00000000000000000000000000000000000000000000000000000000081526004018080602001828103825260088152602001807f546f6f20736f6f6e00000000000000000000000000000000000000000000000081525060200191505060405180910390fd5b6000600a60008873ffffffffffffffffffffffffffffffffffffffff1673ffffffffffffffffffffffffffffffffffffffff1681526020019081526020016000206001015414156139e85742600a60008873ffffffffffffffffffffffffffffffffffffffff1673ffffffffffffffffffffffffffffffffffffffff16815260200190815260200160002060010181905550613a3f565b84826003015402600a60008873ffffffffffffffffffffffffffffffffffffffff1673ffffffffffffffffffffffffffffffffffffffff168152602001908152602001600020600101600082825401925050819055505b84826002015402600a60008873ffffffffffffffffffffffffffffffffffffffff1673ffffffffffffffffffffffffffffffffffffffff1681526020019081526020016000206003016000828254019250508190555060006001811115613aa257fe5b8260080160009054906101000a900460ff166001811115613abf57fe5b1415613b17578573ffffffffffffffffffffffffffffffffffffffff166108fc868460020154029081150290604051600060405180830381858888f19350505050158015613b11573d6000803e3d6000fd5b50613e31565b8160080160019054906101000a900473ffffffffffffffffffffffffffffffffffffffff1673ffffffffffffffffffffffffffffffffffffffff1663a9059cbb87878560020154026040518363ffffffff167c0100000000000000000000000000000000000000000000000000000000028152600401808373ffffffffffffffffffffffffffffffffffffffff1673ffffffffffffffffffffffffffffffffffffffff16815260200182815260200192505050602060405180830381600087803b158015613be457600080fd5b505af1158015613bf8573d6000803e3d6000fd5b505050506040513d6020811015613c0e57600080fd5b81019080805190602001909291905050505060008260070154118015613cb85750600a60008773ffffffffffffffffffffffffffffffffffffffff1673ffffffffffffffffffffffffffffffffffffffff16815260200190815260200160002060020154600a60008873ffffffffffffffffffffffffffffffffffffffff1673ffffffffffffffffffffffffffffffffffffffff1681526020019081526020016000206003015410155b15613e3057816002015482600701540290508160080160019054906101000a900473ffffffffffffffffffffffffffffffffffffffff1673ffffffffffffffffffffffffffffffffffffffff166340c10f1930836040518363ffffffff167c0100000000000000000000000000000000000000000000000000000000028152600401808373ffffffffffffffffffffffffffffffffffffffff1673ffffffffffffffffffffffffffffffffffffffff16815260200182815260200192505050602060405180830381600087803b158015613d9157600080fd5b505af1158015613da5573d6000803e3d6000fd5b505050506040513d6020811015613dbb57600080fd5b81019080805190602001909291905050505080600a60008873ffffffffffffffffffffffffffffffffffffffff1673ffffffffffffffffffffffffffffffffffffffff168152602001908152602001600020600201600082825401925050819055508082600501600082825401925050819055505b5b8482600201540282600401600082825401925050819055508160030154600a60008873ffffffffffffffffffffffffffffffffffffffff1673ffffffffffffffffffffffffffffffffffffffff1681526020019081526020016000206001015401935050505092915050565b606081600001805480602002602001604051908101604052809291908181526020018280548015613f2357602002820191906000526020600020905b8160009054906101000a900473ffffffffffffffffffffffffffffffffffffffff1673ffffffffffffffffffffffffffffffffffffffff1681526020019060010190808311613ed9575b50505050509050919050565b613f3982826149e0565b1515613f4457600080fd5b5050565b600081600001805490509050919050565b6000806000808560000180549050111515613fdc576040517f08c379a000000000000000000000000000000000000000000000000000000000815260040180806020018281038252600e8152602001807f417272617920697320656d70747900000000000000000000000000000000000081525060200191505060405180910390fd5b600115158560020160008673ffffffffffffffffffffffffffffffffffffffff1673ffffffffffffffffffffffffffffffffffffffff16815260200190815260200160002060009054906101000a900460ff1615151415156140a6576040517f08c379a00000000000000000000000000000000000000000000000000000000081526004018080602001828103825260158152602001807f456c656d656e7420646f65736e2774206578697374000000000000000000000081525060200191505060405180910390fd5b600185600001805490500392508460010160008573ffffffffffffffffffffffffffffffffffffffff1673ffffffffffffffffffffffffffffffffffffffff168152602001908152602001600020549150846000018381548110151561410857fe5b9060005260206000200160009054906101000a900473ffffffffffffffffffffffffffffffffffffffff16905080856000018381548110151561414757fe5b9060005260206000200160006101000a81548173ffffffffffffffffffffffffffffffffffffffff021916908373ffffffffffffffffffffffffffffffffffffffff16021790555084600001838154811015156141a057fe5b9060005260206000200160006101000a81549073ffffffffffffffffffffffffffffffffffffffff0219169055600185600001805490500385600001816141e79190615286565b508460010160008573ffffffffffffffffffffffffffffffffffffffff1673ffffffffffffffffffffffffffffffffffffffff168152602001908152602001600020600090558460020160008573ffffffffffffffffffffffffffffffffffffffff1673ffffffffffffffffffffffffffffffffffffffff16815260200190815260200160002060006101000a81549060ff0219169055818560010160008373ffffffffffffffffffffffffffffffffffffffff1673ffffffffffffffffffffffffffffffffffffffff168152602001908152602001600020819055505050505050565b60006001600560008573ffffffffffffffffffffffffffffffffffffffff1673ffffffffffffffffffffffffffffffffffffffff16815260200190815260200160002060006101000a81548160ff02191690831515021790555061433983600661480390919063ffffffff16565b60098390806001815401808255809150509060018203906000526020600020016000909192909190916101000a81548173ffffffffffffffffffffffffffffffffffffffff021916908373ffffffffffffffffffffffffffffffffffffffff16021790555050600073ffffffffffffffffffffffffffffffffffffffff16600f6000846000191660001916815260200190815260200160002060080160019054906101000a900473ffffffffffffffffffffffffffffffffffffffff1673ffffffffffffffffffffffffffffffffffffffff161415801561443857506000600f6000846000191660001916815260200190815260200160002060070154115b1561461857600f6000836000191660001916815260200190815260200160002060020154600f6000846000191660001916815260200190815260200160002060070154029050600f6000836000191660001916815260200190815260200160002060080160019054906101000a900473ffffffffffffffffffffffffffffffffffffffff1673ffffffffffffffffffffffffffffffffffffffff166340c10f1930836040518363ffffffff167c0100000000000000000000000000000000000000000000000000000000028152600401808373ffffffffffffffffffffffffffffffffffffffff1673ffffffffffffffffffffffffffffffffffffffff16815260200182815260200192505050602060405180830381600087803b15801561455f57600080fd5b505af1158015614573573d6000803e3d6000fd5b505050506040513d602081101561458957600080fd5b81019080805190602001909291905050505080600a60008573ffffffffffffffffffffffffffffffffffffffff1673ffffffffffffffffffffffffffffffffffffffff1681526020019081526020016000206002016000828254019250508190555080600f60008460001916600019168152602001908152602001600020600501600082825401925050819055505b81600a60008573ffffffffffffffffffffffffffffffffffffffff1673ffffffffffffffffffffffffffffffffffffffff1681526020019081526020016000206000018160001916905550600f60008360001916600019168152602001908152602001600020600301544203600a60008573ffffffffffffffffffffffffffffffffffffffff1673ffffffffffffffffffffffffffffffffffffffff16815260200190815260200160002060010181905550505050565b61474c826000836040518082805190602001908083835b60208310151561470b57805182526020820191506020810190506020830392506146e6565b6001836020036101000a0380198251168184511680821785525050505050509050019150509081526020016040518091039020614e2c90919063ffffffff16565b8173ffffffffffffffffffffffffffffffffffffffff167fd211483f91fc6eff862467f8de606587a30c8fc9981056f051b897a418df803a826040518080602001828103825283818151815260200191508051906020019080838360005b838110156147c55780820151818401526020810190506147aa565b50505050905090810190601f1680156147f25780820380516001836020036101000a031916815260200191505b509250505060405180910390a25050565b600015158260020160008373ffffffffffffffffffffffffffffffffffffffff1673ffffffffffffffffffffffffffffffffffffffff16815260200190815260200160002060009054906101000a900460ff1615151415156148cd576040517f08c379a00000000000000000000000000000000000000000000000000000000081526004018080602001828103825260168152602001807f456c656d656e7420616c7265616479206578697374730000000000000000000081525060200191505060405180910390fd5b81600001805490508260010160008373ffffffffffffffffffffffffffffffffffffffff1673ffffffffffffffffffffffffffffffffffffffff1681526020019081526020016000208190555060018260020160008373ffffffffffffffffffffffffffffffffffffffff1673ffffffffffffffffffffffffffffffffffffffff16815260200190815260200160002060006101000a81548160ff021916908315150217905550816000018190806001815401808255809150509060018203906000526020600020016000909192909190916101000a81548173ffffffffffffffffffffffffffffffffffffffff021916908373ffffffffffffffffffffffffffffffffffffffff160217905550505050565b60008260000160008373ffffffffffffffffffffffffffffffffffffffff1673ffffffffffffffffffffffffffffffffffffffff16815260200190815260200160002060009054906101000a900460ff16905092915050565b60001515826002016000836000191660001916815260200190815260200160002060009054906101000a900460ff161515141515614adf576040517f08c379a00000000000000000000000000000000000000000000000000000000081526004018080602001828103825260168152602001807f456c656d656e7420616c7265616479206578697374730000000000000000000081525060200191505060405180910390fd5b614ae98282614e8a565b5050565b6000600560008373ffffffffffffffffffffffffffffffffffffffff1673ffffffffffffffffffffffffffffffffffffffff16815260200190815260200160002060006101000a81548160ff021916908315150217905550614b59816006613f5990919063ffffffff16565b614b6281614f21565b50565b614be2826000836040518082805190602001908083835b602083101515614ba15780518252602082019150602081019050602083039250614b7c565b6001836020036101000a038019825116818451168082178552505050505050905001915050908152602001604051809103902061508390919063ffffffff16565b8173ffffffffffffffffffffffffffffffffffffffff167fbfec83d64eaa953f2708271a023ab9ee82057f8f3578d548c1a4ba0b5b700489826040518080602001828103825283818151815260200191508051906020019080838360005b83811015614c5b578082015181840152602081019050614c40565b50505050905090810190601f168015614c885780820380516001836020036101000a031916815260200191505b509250505060405180910390a25050565b606081600001805480602002602001604051908101604052809291908181526020018280548015614ced57602002820191906000526020600020905b81546000191681526020019060010190808311614cd5575b50505050509050919050565b60008260000180549050111515614d78576040517f08c379a000000000000000000000000000000000000000000000000000000000815260040180806020018281038252600e8152602001807f417272617920697320656d70747900000000000000000000000000000000000081525060200191505060405180910390fd5b60011515826002016000836000191660001916815260200190815260200160002060009054906101000a900460ff161515141515614e1e576040517f08c379a00000000000000000000000000000000000000000000000000000000081526004018080602001828103825260158152602001807f456c656d656e7420646f65736e2774206578697374000000000000000000000081525060200191505060405180910390fd5b614e2882826150e1565b5050565b60008260000160008373ffffffffffffffffffffffffffffffffffffffff1673ffffffffffffffffffffffffffffffffffffffff16815260200190815260200160002060006101000a81548160ff0219169083151502179055505050565b81600001805490508260010160008360001916600019168152602001908152602001600020819055506001826002016000836000191660001916815260200190815260200160002060006101000a81548160ff021916908315150217905550816000018190806001815401808255809150509060018203906000526020600020016000909192909190915090600019169055505050565b6000806000600a60008573ffffffffffffffffffffffffffffffffffffffff1673ffffffffffffffffffffffffffffffffffffffff1681526020019081526020016000209250600f6000846000015460001916600019168152602001908152602001600020915082600301548360020154118015614fad57508160010160009054906101000a900460ff165b1561507d57826003015483600201540390508160080160019054906101000a900473ffffffffffffffffffffffffffffffffffffffff1673ffffffffffffffffffffffffffffffffffffffff166342966c68826040518263ffffffff167c010000000000000000000000000000000000000000000000000000000002815260040180828152602001915050600060405180830381600087803b15801561505257600080fd5b505af1158015615066573d6000803e3d6000fd5b505050508082600601600082825401925050819055505b50505050565b60018260000160008373ffffffffffffffffffffffffffffffffffffffff1673ffffffffffffffffffffffffffffffffffffffff16815260200190815260200160002060006101000a81548160ff0219169083151502179055505050565b6000806000600185600001805490500392508460010160008560001916600019168152602001908152602001600020549150846000018381548110151561512457fe5b9060005260206000200154905080856000018381548110151561514357fe5b906000526020600020018160001916905550846000018381548110151561516657fe5b90600052602060002001600090556001856000018054905003856000018161518e91906152b2565b50846001016000856000191660001916815260200190815260200160002060009055846002016000856000191660001916815260200190815260200160002060006101000a81549060ff0219169055818560010160008360001916600019168152602001908152602001600020819055505050505050565b828054600181600116156101000203166002900490600052602060002090601f016020900481019282601f1061524757805160ff1916838001178555615275565b82800160010185558215615275579182015b82811115615274578251825591602001919060010190615259565b5b50905061528291906152de565b5090565b8154818355818111156152ad578183600052602060002091820191016152ac91906152de565b5b505050565b8154818355818111156152d9578183600052602060002091820191016152d89190615303565b5b505050565b61530091905b808211156152fc5760008160009055506001016152e4565b5090565b90565b61532591905b80821115615321576000816000905550600101615309565b5090565b905600a165627a7a723058209596abeb86e2baa503434500a0335e4422114ca0aadc7037c351030d1a868d0c0029",
  "source": "/*\n * Copyright  2018 GaltSpace Society Construction and Terraforming Company\n * (Founded by [Nikolai Popeka](https://github.com/npopeka),\n * [Dima Starodubcev](https://github.com/xhipster),\n * [Valery Litvin](https://github.com/litvintech) by\n * [Basic Agreement](http://cyb.ai/QmSAWEG5u5aSsUyMNYuX2A2Eaz4kEuoYWUkVBRdmu9qmct:ipfs)).\n *\n * Copyright  2018 GaltCore Blockchain Company\n * (Founded by [Nikolai Popeka](https://github.com/npopeka) and\n * GaltSpace Society Construction and Terraforming Company by\n * [Basic Agreement](http://cyb.ai/QmaCiXUmSrP16Gz8Jdzq6AJESY1EAANmmwha15uR3c1bsS:ipfs)).\n */\n\npragma solidity 0.4.24;\npragma experimental \"v0.5.0\";\n\nimport \"openzeppelin-solidity/contracts/token/ERC20/MintableToken.sol\";\nimport \"openzeppelin-solidity/contracts/token/ERC20/BurnableToken.sol\";\nimport \"openzeppelin-solidity/contracts/token/ERC20/ERC20.sol\";\nimport \"openzeppelin-solidity/contracts/ownership/rbac/RBAC.sol\";\nimport \"./utils/ArraySet.sol\";\n\nlibrary CityLibrary {\n    struct Payment {\n        bytes32 tariff;\n        uint256 lastTimestamp;\n        uint256 minted;\n        uint256 claimed;\n    }\n    struct ParticipationRequest {\n        bytes32 tariff;\n        bool sent;\n        bool confirmed;\n        uint256 confirmationsCount;\n        mapping (address => bool) confirmations;\n    }\n    struct Tariff {\n        string title;\n        bool active;\n        uint256 payment;\n        uint256 paymentPeriod;\n        uint256 paymentSent;\n        uint256 totalMinted;\n        uint256 totalBurned;\n        uint256 mintForPeriods;\n        TariffCurrency currency;\n        address currencyAddress;\n        ArraySet.AddressSet activeParticipants;\n    }\n    enum TariffCurrency {\n        ETH,\n        ERC20\n    }\n}\n\ncontract City is RBAC {\n    using ArraySet for ArraySet.AddressSet;\n    using ArraySet for ArraySet.Bytes32Set;\n\n    string public constant CITY_MANAGER_ROLE = \"city_manager\";\n    \n    string public name;\n    string public symbol;\n    uint256 public maxSupply;\n    uint256 public confirmsToParticipation;\n\n    event TariffCreated(bytes32 id, string title, uint256 payment, uint256 paymentPeriod, uint8 currency, address currencyAddress);\n    event TariffEdited(bytes32 id, string title, uint256 payment, uint256 paymentPeriod, uint8 currency, address currencyAddress);\n    event TariffActiveChanged(bytes32 id, bool active);\n    event ParticipationRequest(address requested);\n    event ParticipationConfirm(address requested, address confirmed, bool fully);\n    event ParticipationAdded(address cityManager, address member, bytes32 tariff);\n    event ParticipationTariffChanged(address cityManager, address member, bytes32 tariff);\n\n    mapping (address => bool) public participants;\n    ArraySet.AddressSet activeParticipants;\n    address[] allParticipants;\n\n    mapping (address => CityLibrary.Payment) private payments;\n    mapping (address => CityLibrary.ParticipationRequest) private participationRequests;\n    ArraySet.AddressSet activeRequests;\n\n    mapping (bytes32 => CityLibrary.Tariff) private tariffs;\n    ArraySet.Bytes32Set activeTariffs;\n    bytes32[] allTariffs;\n\n    constructor(uint256 _maxSupply, string _name, string _symbol) public {\n        maxSupply = _maxSupply;\n        name = _name;\n        symbol = _symbol;\n\n        confirmsToParticipation = 1;\n\n        super.addRole(msg.sender, CITY_MANAGER_ROLE);\n    }\n\n    function() external payable { }\n\n    modifier onlyCityManager() {\n        require(hasRole(msg.sender, CITY_MANAGER_ROLE), \"Only city manager\");\n        _;\n    }\n    \n    function createTariff(string _title, uint256 _payment, uint256 _paymentPeriod, uint256 _mintForPeriods, CityLibrary.TariffCurrency _currency, address _currencyAddress) public onlyCityManager returns(bytes32) {\n        bytes32 _id = keccak256(\n            abi.encodePacked(\n                msg.sender,\n                block.timestamp,\n                _payment,\n                _paymentPeriod,\n                _currencyAddress\n            )\n        );\n        require(!tariffs[_id].active, \"Tariff already created\");\n        \n        tariffs[_id].title = _title;\n        tariffs[_id].payment = _payment;\n        tariffs[_id].paymentPeriod = _paymentPeriod;\n        tariffs[_id].mintForPeriods = _mintForPeriods;\n        tariffs[_id].currency = _currency;\n        tariffs[_id].currencyAddress = _currencyAddress;\n        tariffs[_id].active = true;\n\n        activeTariffs.add(_id);\n        allTariffs.push(_id);\n        \n        emit TariffCreated(_id, _title, _payment, _paymentPeriod, uint8(_currency), _currencyAddress);\n        return _id;\n    }\n    \n    function setTariffActive(bytes32 _id, bool _active) public onlyCityManager {\n        require(tariffs[_id].active != _active, \"Same status\");\n        \n        tariffs[_id].active = _active;\n        \n        if(_active) {\n            activeTariffs.add(_id);\n        } else {\n            activeTariffs.remove(_id);\n        }\n        \n        emit TariffActiveChanged(_id, _active);\n    }\n    \n    function editTariff(bytes32 _id, string _title, uint256 _payment, uint256 _paymentPeriod, uint256 _mintForPeriods, CityLibrary.TariffCurrency _currency, address _currencyAddress) public onlyCityManager {\n        tariffs[_id].title = _title;\n        tariffs[_id].payment = _payment;\n        tariffs[_id].paymentPeriod = _paymentPeriod;\n        tariffs[_id].mintForPeriods = _mintForPeriods;\n        tariffs[_id].currency = _currency;\n        tariffs[_id].currencyAddress = _currencyAddress;\n        \n        emit TariffEdited(_id, _title, _payment, _paymentPeriod, uint8(_currency), _currencyAddress);\n    }\n\n    function setMaxSupply(uint256 _maxSupply) public onlyCityManager {\n        maxSupply = _maxSupply;\n    }\n\n    function setConfirmsToParticipation(uint256 _confirmsToParticipation) public onlyCityManager {\n        confirmsToParticipation = _confirmsToParticipation;\n    }\n\n    function claimPayment(address claimFor, uint256 periodsNumber) public returns (uint256 nextDate) {\n        CityLibrary.Payment storage payment = payments[claimFor];\n        CityLibrary.Tariff storage tariff = tariffs[payment.tariff];\n        require(tariff.active, \"Tariff not active\");\n        require(tariff.payment != 0, \"Tariff payment is null\");\n        require(tariff.paymentPeriod != 0, \"Tariff payment period is null\");\n\n        require(participants[claimFor], \"Not active\");\n        require(payments[claimFor].lastTimestamp + (tariff.paymentPeriod * periodsNumber) <= now, \"Too soon\");\n        \n        if(payments[claimFor].lastTimestamp == 0) {\n            payments[claimFor].lastTimestamp = now;\n        } else {\n            payments[claimFor].lastTimestamp += tariff.paymentPeriod * periodsNumber;\n        }\n        \n        payments[claimFor].claimed += tariff.payment * periodsNumber;\n\n        if(tariff.currency == CityLibrary.TariffCurrency.ETH) {\n            claimFor.transfer(tariff.payment * periodsNumber);\n        } else {\n            ERC20(tariff.currencyAddress).transfer(claimFor, tariff.payment * periodsNumber);\n\n            if(tariff.mintForPeriods > 0 && payments[claimFor].claimed >= payments[claimFor].minted) {\n                uint256 mintAmount = tariff.mintForPeriods * tariff.payment;\n                MintableToken(tariff.currencyAddress).mint(address(this), mintAmount);\n                payments[claimFor].minted += mintAmount;\n                tariff.totalMinted += mintAmount;\n            }\n        }\n\n        tariff.paymentSent += tariff.payment * periodsNumber;\n\n        return payments[claimFor].lastTimestamp + tariff.paymentPeriod;\n    }\n\n    function isParticipant(address _address) public view returns (bool) {\n        return participants[_address];\n    }\n    \n    function addParticipation(address _address, bytes32 _tariff) public onlyCityManager {\n        require(!participants[_address], \"Already participant\");\n\n        addParticipationUnsafe(_address, _tariff);\n\n        emit ParticipationAdded(msg.sender, _address, _tariff);\n    }\n    \n    function addParticipationUnsafe(address _address, bytes32 _tariff) internal {\n        participants[_address] = true;\n        activeParticipants.add(_address);\n        allParticipants.push(_address);\n        \n        if(tariffs[_tariff].currencyAddress != address(0) && tariffs[_tariff].mintForPeriods > 0) {\n            uint256 mintAmount = tariffs[_tariff].mintForPeriods * tariffs[_tariff].payment;\n            MintableToken(tariffs[_tariff].currencyAddress).mint(address(this), mintAmount);\n            payments[_address].minted += mintAmount;\n            tariffs[_tariff].totalMinted += mintAmount;\n        }\n        \n        payments[_address].tariff = _tariff;\n        payments[_address].lastTimestamp = now - tariffs[_tariff].paymentPeriod;\n    }\n    \n    function changeParticipationTariff(address _address, bytes32 _tariff) public onlyCityManager {\n        payments[_address].tariff = _tariff;\n        payments[_address].claimed = 0;\n        \n        emit ParticipationTariffChanged(msg.sender, _address, _tariff);\n    }\n\n    function requestParticipation(bytes32 _tariff) public {\n        require(activeParticipants.size() < maxSupply, \"Not enough supply\");\n        require(!participants[msg.sender], \"Already participant\");\n        require(!participationRequests[msg.sender].sent, \"Already sent\");\n\n        participationRequests[msg.sender] = CityLibrary.ParticipationRequest({ sent: true, confirmed: false, confirmationsCount: 0, tariff: _tariff });\n        activeRequests.add(msg.sender);\n        \n        emit ParticipationRequest(msg.sender);\n    }\n\n    function confirmParticipation(address _requested) public onlyCityManager returns (uint256 count) {\n        require(activeParticipants.size() < maxSupply, \"Not enough supply\");\n        require(!participants[_requested], \"Already participant\");\n        require(participationRequests[_requested].sent, \"Not sent\");\n        require(!participationRequests[_requested].confirmed, \"Already confirmed\");\n\n        require(participationRequests[_requested].confirmations[msg.sender] == false, \"You cant confirm twice\");\n\n        participationRequests[_requested].confirmations[msg.sender] = true;\n        participationRequests[_requested].confirmationsCount += 1;\n\n        if(participationRequests[_requested].confirmationsCount >= confirmsToParticipation){\n            participationRequests[_requested].confirmed = true;\n            activeRequests.remove(_requested);\n            addParticipationUnsafe(_requested, participationRequests[_requested].tariff);\n            emit ParticipationConfirm(_requested, msg.sender, true);\n        } else {\n            emit ParticipationConfirm(_requested, msg.sender, false);\n        }\n\n        return participationRequests[_requested].confirmationsCount;\n    }\n\n    function confirmsOf(address _requested) public view returns (uint256) {\n        return participationRequests[_requested].confirmationsCount;\n    }\n\n    function kickParticipation(address _participant) public onlyCityManager {\n        require(participants[_participant], \"Not participant\");\n\n        removeParticipationUnsafe(_participant);\n    }\n\n    function leaveParticipation() public {\n        require(participants[msg.sender], \"Not participant\");\n\n        removeParticipationUnsafe(msg.sender);\n    }\n\n    function removeParticipationUnsafe(address _participant) internal {\n        participants[_participant] = false;\n        activeParticipants.remove(_participant);\n        \n        burnRemainingFor(_participant);\n    }\n\n    function burnRemainingFor(address _participant) internal {\n        CityLibrary.Payment storage payment = payments[_participant];\n        CityLibrary.Tariff storage tariff = tariffs[payment.tariff];\n\n        if(payment.minted > payment.claimed && tariff.active) {\n            uint256 burnAmount = payment.minted - payment.claimed;\n            BurnableToken(tariff.currencyAddress).burn(burnAmount);\n            tariff.totalBurned += burnAmount;\n        }\n    }\n\n    function addRoleTo(address _operator, string _role) public onlyCityManager {\n        super.addRole(_operator, _role);\n    }\n\n    function removeRoleFrom(address _operator, string _role) public onlyCityManager {\n        super.removeRole(_operator, _role);\n    }\n    \n    function getAllTariffs() public view returns(bytes32[]) {\n        return allTariffs;\n    }\n\n    function getActiveTariffs() public view returns(bytes32[]) {\n        return activeTariffs.elements();\n    }\n    \n    function getTariff(bytes32 _id) public view returns(\n        string title,\n        bool active,\n        uint256 payment,\n        uint256 paymentPeriod,\n        uint256 mintForPeriods,\n        uint256 totalMinted,\n        uint256 totalBurned,\n        uint256 paymentSent,\n        CityLibrary.TariffCurrency currency,\n        address currencyAddress\n    )\n    {\n        CityLibrary.Tariff storage t = tariffs[_id];\n        return (\n            t.title,\n            t.active,\n            t.payment,\n            t.paymentPeriod,\n            t.mintForPeriods,\n            t.totalMinted,\n            t.totalBurned,\n            t.paymentSent,\n            t.currency,\n            t.currencyAddress\n        );\n    }\n    \n    function getAllParticipants() public view returns(address[]) {\n        return allParticipants;\n    }\n\n    function getActiveParticipants() public view returns(address[]) {\n        return activeParticipants.elements();\n    }\n\n    function getActiveParticipantsCount() public view returns(uint256) {\n        return activeParticipants.size();\n    }\n    \n    function getParticipantInfo(address _participant) public view returns\n    (\n        bool active, \n        bytes32 tariff, \n        uint256 claimed,\n        uint256 minted,\n        uint256 lastTimestamp\n    ) {\n        CityLibrary.Payment storage p = payments[_participant];\n        return (\n            participants[_participant],\n            p.tariff,\n            p.claimed,\n            p.minted,\n            p.lastTimestamp\n        );\n    }\n    \n    function mintTokens(address tokenAddress, uint256 mintAmount) public onlyCityManager {\n        MintableToken(tokenAddress).mint(address(this), mintAmount);\n    }\n}\n",
  "sourcePath": "/Users/jonybang/workspace/dcity/contracts/City.sol",
  "compiler": {
    "name": "solc",
    "version": "0.4.24+commit.e67f0147.Emscripten.clang"
  },
  "schemaVersion": "2.0.1",
  "updatedAt": "2019-03-12T13:01:32.337Z"
}