{
  "contractName": "City",
  "abi": [
    {
      "inputs": [
        {
          "internalType": "uint256",
          "name": "_maxSupply",
          "type": "uint256"
        },
        {
          "internalType": "string",
          "name": "_name",
          "type": "string"
        },
        {
          "internalType": "string",
          "name": "_symbol",
          "type": "string"
        }
      ],
      "payable": false,
      "stateMutability": "nonpayable",
      "type": "constructor"
    },
    {
      "anonymous": false,
      "inputs": [
        {
          "indexed": true,
          "internalType": "address",
          "name": "previousOwner",
          "type": "address"
        },
        {
          "indexed": true,
          "internalType": "address",
          "name": "newOwner",
          "type": "address"
        }
      ],
      "name": "OwnershipTransferred",
      "type": "event"
    },
    {
      "anonymous": false,
      "inputs": [
        {
          "indexed": false,
          "internalType": "address",
          "name": "cityManager",
          "type": "address"
        },
        {
          "indexed": false,
          "internalType": "address",
          "name": "member",
          "type": "address"
        },
        {
          "indexed": false,
          "internalType": "bytes32",
          "name": "tariff",
          "type": "bytes32"
        }
      ],
      "name": "ParticipationAdded",
      "type": "event"
    },
    {
      "anonymous": false,
      "inputs": [
        {
          "indexed": false,
          "internalType": "address",
          "name": "requested",
          "type": "address"
        },
        {
          "indexed": false,
          "internalType": "address",
          "name": "confirmed",
          "type": "address"
        },
        {
          "indexed": false,
          "internalType": "bool",
          "name": "fully",
          "type": "bool"
        }
      ],
      "name": "ParticipationConfirm",
      "type": "event"
    },
    {
      "anonymous": false,
      "inputs": [
        {
          "indexed": false,
          "internalType": "address",
          "name": "requested",
          "type": "address"
        }
      ],
      "name": "ParticipationRequest",
      "type": "event"
    },
    {
      "anonymous": false,
      "inputs": [
        {
          "indexed": false,
          "internalType": "address",
          "name": "cityManager",
          "type": "address"
        },
        {
          "indexed": false,
          "internalType": "address",
          "name": "member",
          "type": "address"
        },
        {
          "indexed": false,
          "internalType": "bytes32",
          "name": "tariff",
          "type": "bytes32"
        }
      ],
      "name": "ParticipationTariffRemoved",
      "type": "event"
    },
    {
      "anonymous": false,
      "inputs": [
        {
          "indexed": true,
          "internalType": "address",
          "name": "account",
          "type": "address"
        },
        {
          "indexed": false,
          "internalType": "string",
          "name": "role",
          "type": "string"
        }
      ],
      "name": "RoleAdded",
      "type": "event"
    },
    {
      "anonymous": false,
      "inputs": [
        {
          "indexed": true,
          "internalType": "address",
          "name": "account",
          "type": "address"
        },
        {
          "indexed": false,
          "internalType": "string",
          "name": "role",
          "type": "string"
        }
      ],
      "name": "RoleRemoved",
      "type": "event"
    },
    {
      "anonymous": false,
      "inputs": [
        {
          "indexed": false,
          "internalType": "bytes32",
          "name": "id",
          "type": "bytes32"
        },
        {
          "indexed": false,
          "internalType": "bool",
          "name": "active",
          "type": "bool"
        }
      ],
      "name": "TariffActiveChanged",
      "type": "event"
    },
    {
      "anonymous": false,
      "inputs": [
        {
          "indexed": false,
          "internalType": "bytes32",
          "name": "id",
          "type": "bytes32"
        },
        {
          "indexed": false,
          "internalType": "string",
          "name": "title",
          "type": "string"
        },
        {
          "indexed": false,
          "internalType": "uint256",
          "name": "payment",
          "type": "uint256"
        },
        {
          "indexed": false,
          "internalType": "uint256",
          "name": "paymentPeriod",
          "type": "uint256"
        },
        {
          "indexed": false,
          "internalType": "uint8",
          "name": "currency",
          "type": "uint8"
        },
        {
          "indexed": false,
          "internalType": "address",
          "name": "currencyAddress",
          "type": "address"
        }
      ],
      "name": "TariffCreated",
      "type": "event"
    },
    {
      "anonymous": false,
      "inputs": [
        {
          "indexed": false,
          "internalType": "bytes32",
          "name": "id",
          "type": "bytes32"
        },
        {
          "indexed": false,
          "internalType": "string",
          "name": "title",
          "type": "string"
        },
        {
          "indexed": false,
          "internalType": "uint256",
          "name": "payment",
          "type": "uint256"
        },
        {
          "indexed": false,
          "internalType": "uint256",
          "name": "paymentPeriod",
          "type": "uint256"
        },
        {
          "indexed": false,
          "internalType": "uint8",
          "name": "currency",
          "type": "uint8"
        },
        {
          "indexed": false,
          "internalType": "address",
          "name": "currencyAddress",
          "type": "address"
        }
      ],
      "name": "TariffEdited",
      "type": "event"
    },
    {
      "payable": true,
      "stateMutability": "payable",
      "type": "fallback"
    },
    {
      "constant": true,
      "inputs": [],
      "name": "MEMBER_JOIN_MANAGER_ROLE",
      "outputs": [
        {
          "internalType": "string",
          "name": "",
          "type": "string"
        }
      ],
      "payable": false,
      "stateMutability": "view",
      "type": "function"
    },
    {
      "constant": true,
      "inputs": [],
      "name": "MEMBER_LEAVE_MANAGER_ROLE",
      "outputs": [
        {
          "internalType": "string",
          "name": "",
          "type": "string"
        }
      ],
      "payable": false,
      "stateMutability": "view",
      "type": "function"
    },
    {
      "constant": true,
      "inputs": [],
      "name": "RATE_MANAGER_ROLE",
      "outputs": [
        {
          "internalType": "string",
          "name": "",
          "type": "string"
        }
      ],
      "payable": false,
      "stateMutability": "view",
      "type": "function"
    },
    {
      "constant": true,
      "inputs": [],
      "name": "ROLE_ROLE_MANAGER",
      "outputs": [
        {
          "internalType": "string",
          "name": "",
          "type": "string"
        }
      ],
      "payable": false,
      "stateMutability": "view",
      "type": "function"
    },
    {
      "constant": false,
      "inputs": [
        {
          "internalType": "address",
          "name": "_account",
          "type": "address"
        },
        {
          "internalType": "string",
          "name": "_role",
          "type": "string"
        }
      ],
      "name": "addRoleTo",
      "outputs": [],
      "payable": false,
      "stateMutability": "nonpayable",
      "type": "function"
    },
    {
      "constant": true,
      "inputs": [],
      "name": "confirmsToParticipation",
      "outputs": [
        {
          "internalType": "uint256",
          "name": "",
          "type": "uint256"
        }
      ],
      "payable": false,
      "stateMutability": "view",
      "type": "function"
    },
    {
      "constant": true,
      "inputs": [
        {
          "internalType": "address",
          "name": "_account",
          "type": "address"
        },
        {
          "internalType": "string",
          "name": "_role",
          "type": "string"
        }
      ],
      "name": "hasRole",
      "outputs": [
        {
          "internalType": "bool",
          "name": "",
          "type": "bool"
        }
      ],
      "payable": false,
      "stateMutability": "view",
      "type": "function"
    },
    {
      "constant": true,
      "inputs": [],
      "name": "isOwner",
      "outputs": [
        {
          "internalType": "bool",
          "name": "",
          "type": "bool"
        }
      ],
      "payable": false,
      "stateMutability": "view",
      "type": "function"
    },
    {
      "constant": true,
      "inputs": [],
      "name": "maxSupply",
      "outputs": [
        {
          "internalType": "uint256",
          "name": "",
          "type": "uint256"
        }
      ],
      "payable": false,
      "stateMutability": "view",
      "type": "function"
    },
    {
      "constant": true,
      "inputs": [],
      "name": "name",
      "outputs": [
        {
          "internalType": "string",
          "name": "",
          "type": "string"
        }
      ],
      "payable": false,
      "stateMutability": "view",
      "type": "function"
    },
    {
      "constant": true,
      "inputs": [],
      "name": "owner",
      "outputs": [
        {
          "internalType": "address",
          "name": "",
          "type": "address"
        }
      ],
      "payable": false,
      "stateMutability": "view",
      "type": "function"
    },
    {
      "constant": true,
      "inputs": [
        {
          "internalType": "address",
          "name": "",
          "type": "address"
        }
      ],
      "name": "participants",
      "outputs": [
        {
          "internalType": "bool",
          "name": "",
          "type": "bool"
        }
      ],
      "payable": false,
      "stateMutability": "view",
      "type": "function"
    },
    {
      "constant": false,
      "inputs": [
        {
          "internalType": "address",
          "name": "_account",
          "type": "address"
        },
        {
          "internalType": "string",
          "name": "_role",
          "type": "string"
        }
      ],
      "name": "removeRoleFrom",
      "outputs": [],
      "payable": false,
      "stateMutability": "nonpayable",
      "type": "function"
    },
    {
      "constant": false,
      "inputs": [],
      "name": "renounceOwnership",
      "outputs": [],
      "payable": false,
      "stateMutability": "nonpayable",
      "type": "function"
    },
    {
      "constant": true,
      "inputs": [
        {
          "internalType": "address",
          "name": "_account",
          "type": "address"
        },
        {
          "internalType": "string",
          "name": "_role",
          "type": "string"
        }
      ],
      "name": "requireRole",
      "outputs": [],
      "payable": false,
      "stateMutability": "view",
      "type": "function"
    },
    {
      "constant": true,
      "inputs": [],
      "name": "symbol",
      "outputs": [
        {
          "internalType": "string",
          "name": "",
          "type": "string"
        }
      ],
      "payable": false,
      "stateMutability": "view",
      "type": "function"
    },
    {
      "constant": false,
      "inputs": [
        {
          "internalType": "address",
          "name": "newOwner",
          "type": "address"
        }
      ],
      "name": "transferOwnership",
      "outputs": [],
      "payable": false,
      "stateMutability": "nonpayable",
      "type": "function"
    },
    {
      "constant": false,
      "inputs": [
        {
          "internalType": "string",
          "name": "_title",
          "type": "string"
        },
        {
          "internalType": "uint256",
          "name": "_payment",
          "type": "uint256"
        },
        {
          "internalType": "uint256",
          "name": "_paymentPeriod",
          "type": "uint256"
        },
        {
          "internalType": "uint256",
          "name": "_mintForPeriods",
          "type": "uint256"
        },
        {
          "internalType": "enum CityLibrary.TariffCurrency",
          "name": "_currency",
          "type": "uint8"
        },
        {
          "internalType": "address",
          "name": "_currencyAddress",
          "type": "address"
        }
      ],
      "name": "createTariff",
      "outputs": [
        {
          "internalType": "bytes32",
          "name": "",
          "type": "bytes32"
        }
      ],
      "payable": false,
      "stateMutability": "nonpayable",
      "type": "function"
    },
    {
      "constant": false,
      "inputs": [
        {
          "internalType": "bytes32",
          "name": "_id",
          "type": "bytes32"
        },
        {
          "internalType": "bool",
          "name": "_active",
          "type": "bool"
        }
      ],
      "name": "setTariffActive",
      "outputs": [],
      "payable": false,
      "stateMutability": "nonpayable",
      "type": "function"
    },
    {
      "constant": false,
      "inputs": [
        {
          "internalType": "bytes32",
          "name": "_id",
          "type": "bytes32"
        },
        {
          "internalType": "string",
          "name": "_title",
          "type": "string"
        },
        {
          "internalType": "uint256",
          "name": "_payment",
          "type": "uint256"
        },
        {
          "internalType": "uint256",
          "name": "_paymentPeriod",
          "type": "uint256"
        },
        {
          "internalType": "uint256",
          "name": "_mintForPeriods",
          "type": "uint256"
        },
        {
          "internalType": "enum CityLibrary.TariffCurrency",
          "name": "_currency",
          "type": "uint8"
        },
        {
          "internalType": "address",
          "name": "_currencyAddress",
          "type": "address"
        }
      ],
      "name": "editTariff",
      "outputs": [],
      "payable": false,
      "stateMutability": "nonpayable",
      "type": "function"
    },
    {
      "constant": false,
      "inputs": [
        {
          "internalType": "uint256",
          "name": "_maxSupply",
          "type": "uint256"
        }
      ],
      "name": "setMaxSupply",
      "outputs": [],
      "payable": false,
      "stateMutability": "nonpayable",
      "type": "function"
    },
    {
      "constant": false,
      "inputs": [
        {
          "internalType": "uint256",
          "name": "_confirmsToParticipation",
          "type": "uint256"
        }
      ],
      "name": "setConfirmsToParticipation",
      "outputs": [],
      "payable": false,
      "stateMutability": "nonpayable",
      "type": "function"
    },
    {
      "constant": false,
      "inputs": [
        {
          "internalType": "address payable",
          "name": "_claimFor",
          "type": "address"
        },
        {
          "internalType": "bytes32",
          "name": "_tariffId",
          "type": "bytes32"
        },
        {
          "internalType": "uint256",
          "name": "_periodsNumber",
          "type": "uint256"
        }
      ],
      "name": "claimPayment",
      "outputs": [
        {
          "internalType": "uint256",
          "name": "nextDate",
          "type": "uint256"
        }
      ],
      "payable": false,
      "stateMutability": "nonpayable",
      "type": "function"
    },
    {
      "constant": false,
      "inputs": [
        {
          "internalType": "address",
          "name": "_address",
          "type": "address"
        },
        {
          "internalType": "bytes32",
          "name": "_tariff",
          "type": "bytes32"
        }
      ],
      "name": "addParticipation",
      "outputs": [],
      "payable": false,
      "stateMutability": "nonpayable",
      "type": "function"
    },
    {
      "constant": false,
      "inputs": [
        {
          "internalType": "bytes32",
          "name": "_tariffId",
          "type": "bytes32"
        }
      ],
      "name": "requestParticipation",
      "outputs": [],
      "payable": false,
      "stateMutability": "nonpayable",
      "type": "function"
    },
    {
      "constant": false,
      "inputs": [
        {
          "internalType": "address",
          "name": "_requested",
          "type": "address"
        },
        {
          "internalType": "bytes32",
          "name": "_tariffId",
          "type": "bytes32"
        }
      ],
      "name": "confirmParticipation",
      "outputs": [
        {
          "internalType": "uint256",
          "name": "count",
          "type": "uint256"
        }
      ],
      "payable": false,
      "stateMutability": "nonpayable",
      "type": "function"
    },
    {
      "constant": true,
      "inputs": [
        {
          "internalType": "address",
          "name": "_requested",
          "type": "address"
        },
        {
          "internalType": "bytes32",
          "name": "_tariffId",
          "type": "bytes32"
        }
      ],
      "name": "confirmsOf",
      "outputs": [
        {
          "internalType": "uint256",
          "name": "",
          "type": "uint256"
        }
      ],
      "payable": false,
      "stateMutability": "view",
      "type": "function"
    },
    {
      "constant": false,
      "inputs": [
        {
          "internalType": "address",
          "name": "_member",
          "type": "address"
        }
      ],
      "name": "kickAllParticipation",
      "outputs": [],
      "payable": false,
      "stateMutability": "nonpayable",
      "type": "function"
    },
    {
      "constant": false,
      "inputs": [
        {
          "internalType": "address",
          "name": "_member",
          "type": "address"
        },
        {
          "internalType": "bytes32",
          "name": "_tariffId",
          "type": "bytes32"
        }
      ],
      "name": "kickTariffParticipation",
      "outputs": [],
      "payable": false,
      "stateMutability": "nonpayable",
      "type": "function"
    },
    {
      "constant": false,
      "inputs": [],
      "name": "leaveAllParticipation",
      "outputs": [],
      "payable": false,
      "stateMutability": "nonpayable",
      "type": "function"
    },
    {
      "constant": false,
      "inputs": [
        {
          "internalType": "bytes32",
          "name": "_tariffId",
          "type": "bytes32"
        }
      ],
      "name": "leaveAllParticipation",
      "outputs": [],
      "payable": false,
      "stateMutability": "nonpayable",
      "type": "function"
    },
    {
      "constant": true,
      "inputs": [],
      "name": "getAllTariffs",
      "outputs": [
        {
          "internalType": "bytes32[]",
          "name": "",
          "type": "bytes32[]"
        }
      ],
      "payable": false,
      "stateMutability": "view",
      "type": "function"
    },
    {
      "constant": true,
      "inputs": [],
      "name": "getActiveTariffs",
      "outputs": [
        {
          "internalType": "bytes32[]",
          "name": "",
          "type": "bytes32[]"
        }
      ],
      "payable": false,
      "stateMutability": "view",
      "type": "function"
    },
    {
      "constant": true,
      "inputs": [
        {
          "internalType": "bytes32",
          "name": "_id",
          "type": "bytes32"
        }
      ],
      "name": "getTariff",
      "outputs": [
        {
          "internalType": "string",
          "name": "title",
          "type": "string"
        },
        {
          "internalType": "bool",
          "name": "active",
          "type": "bool"
        },
        {
          "internalType": "uint256",
          "name": "payment",
          "type": "uint256"
        },
        {
          "internalType": "uint256",
          "name": "paymentPeriod",
          "type": "uint256"
        },
        {
          "internalType": "uint256",
          "name": "mintForPeriods",
          "type": "uint256"
        },
        {
          "internalType": "uint256",
          "name": "totalMinted",
          "type": "uint256"
        },
        {
          "internalType": "uint256",
          "name": "totalBurned",
          "type": "uint256"
        },
        {
          "internalType": "uint256",
          "name": "paymentSent",
          "type": "uint256"
        },
        {
          "internalType": "enum CityLibrary.TariffCurrency",
          "name": "currency",
          "type": "uint8"
        },
        {
          "internalType": "address",
          "name": "currencyAddress",
          "type": "address"
        }
      ],
      "payable": false,
      "stateMutability": "view",
      "type": "function"
    },
    {
      "constant": true,
      "inputs": [],
      "name": "getAllParticipants",
      "outputs": [
        {
          "internalType": "address[]",
          "name": "",
          "type": "address[]"
        }
      ],
      "payable": false,
      "stateMutability": "view",
      "type": "function"
    },
    {
      "constant": true,
      "inputs": [],
      "name": "getActiveParticipants",
      "outputs": [
        {
          "internalType": "address[]",
          "name": "",
          "type": "address[]"
        }
      ],
      "payable": false,
      "stateMutability": "view",
      "type": "function"
    },
    {
      "constant": true,
      "inputs": [],
      "name": "getActiveParticipantsCount",
      "outputs": [
        {
          "internalType": "uint256",
          "name": "",
          "type": "uint256"
        }
      ],
      "payable": false,
      "stateMutability": "view",
      "type": "function"
    },
    {
      "constant": true,
      "inputs": [
        {
          "internalType": "bytes32",
          "name": "_tariffId",
          "type": "bytes32"
        }
      ],
      "name": "getTariffActiveParticipants",
      "outputs": [
        {
          "internalType": "address[]",
          "name": "",
          "type": "address[]"
        }
      ],
      "payable": false,
      "stateMutability": "view",
      "type": "function"
    },
    {
      "constant": true,
      "inputs": [
        {
          "internalType": "bytes32",
          "name": "_tariffId",
          "type": "bytes32"
        }
      ],
      "name": "getTariffActiveParticipantsCount",
      "outputs": [
        {
          "internalType": "uint256",
          "name": "",
          "type": "uint256"
        }
      ],
      "payable": false,
      "stateMutability": "view",
      "type": "function"
    },
    {
      "constant": true,
      "inputs": [
        {
          "internalType": "address",
          "name": "_address",
          "type": "address"
        }
      ],
      "name": "isParticipant",
      "outputs": [
        {
          "internalType": "bool",
          "name": "",
          "type": "bool"
        }
      ],
      "payable": false,
      "stateMutability": "view",
      "type": "function"
    },
    {
      "constant": true,
      "inputs": [
        {
          "internalType": "address",
          "name": "_member",
          "type": "address"
        }
      ],
      "name": "getParticipantInfo",
      "outputs": [
        {
          "internalType": "bool",
          "name": "active",
          "type": "bool"
        },
        {
          "internalType": "bytes32[]",
          "name": "tariffs",
          "type": "bytes32[]"
        }
      ],
      "payable": false,
      "stateMutability": "view",
      "type": "function"
    },
    {
      "constant": true,
      "inputs": [
        {
          "internalType": "address",
          "name": "_member",
          "type": "address"
        },
        {
          "internalType": "bytes32",
          "name": "_tariff",
          "type": "bytes32"
        }
      ],
      "name": "getParticipantTariffInfo",
      "outputs": [
        {
          "internalType": "bool",
          "name": "active",
          "type": "bool"
        },
        {
          "internalType": "uint256",
          "name": "claimed",
          "type": "uint256"
        },
        {
          "internalType": "uint256",
          "name": "minted",
          "type": "uint256"
        },
        {
          "internalType": "uint256",
          "name": "lastTimestamp",
          "type": "uint256"
        }
      ],
      "payable": false,
      "stateMutability": "view",
      "type": "function"
    }
  ],
  "bytecode": "0x60806040523480156200001157600080fd5b50604051620041f4380380620041f4833981810160405260608110156200003757600080fd5b8151602083018051604051929492938301929190846401000000008211156200005f57600080fd5b9083019060208201858111156200007557600080fd5b82516401000000008111828201881017156200009057600080fd5b82525081516020918201929091019080838360005b83811015620000bf578181015183820152602001620000a5565b50505050905090810190601f168015620000ed5780820380516001836020036101000a031916815260200191505b50604052602001805160405193929190846401000000008211156200011157600080fd5b9083019060208201858111156200012757600080fd5b82516401000000008111828201881017156200014257600080fd5b82525081516020918201929091019080838360005b838110156200017157818101518382015260200162000157565b50505050905090810190601f1680156200019f5780820380516001836020036101000a031916815260200191505b5060408181019052600c81527f726f6c655f6d616e6167657200000000000000000000000000000000000000006020820152620001eb935033925090506001600160e01b036200036516565b6000620002006001600160e01b036200048816565b600180546001600160a01b0319166001600160a01b038316908117909155604051919250906000907f8be0079c531659141344cd1fd0a4f28419497f9722a3daafe3b4186f6b6457e0908290a3506004839055815162000268906002906020850190620005b7565b5080516200027e906003906020840190620005b7565b50600160055560408051808201909152600c81527f726174655f6d616e6167657200000000000000000000000000000000000000006020820152620002ce9033906001600160e01b036200036516565b62000315336040518060400160405280601381526020017f6d656d6265725f6a6f696e5f6d616e61676572000000000000000000000000008152506200036560201b60201c565b6200035c336040518060400160405280601481526020017f6d656d6265725f6c656176655f6d616e616765720000000000000000000000008152506200036560201b60201c565b50505062000659565b620003de826000836040518082805190602001908083835b602083106200039e5780518252601f1990920191602091820191016200037d565b51815160209384036101000a600019018019909216911617905292019485525060405193849003810190932093926200048d811b6200388217901c915050565b816001600160a01b03167fbfec83d64eaa953f2708271a023ab9ee82057f8f3578d548c1a4ba0b5b700489826040518080602001828103825283818151815260200191508051906020019080838360005b83811015620004495781810151838201526020016200042f565b50505050905090810190601f168015620004775780820380516001836020036101000a031916815260200191505b509250505060405180910390a25050565b335b90565b620004a282826001600160e01b036200053416565b156200050f57604080517f08c379a000000000000000000000000000000000000000000000000000000000815260206004820152601f60248201527f526f6c65733a206163636f756e7420616c72656164792068617320726f6c6500604482015290519081900360640190fd5b6001600160a01b0316600090815260209190915260409020805460ff19166001179055565b60006001600160a01b03821662000597576040517f08c379a0000000000000000000000000000000000000000000000000000000008152600401808060200182810382526022815260200180620041d26022913960400191505060405180910390fd5b506001600160a01b03166000908152602091909152604090205460ff1690565b828054600181600116156101000203166002900490600052602060002090601f016020900481019282601f10620005fa57805160ff19168380011785556200062a565b828001600101855582156200062a579182015b828111156200062a5782518255916020019190600101906200060d565b50620006389291506200063c565b5090565b6200048a91905b8082111562000638576000815560010162000643565b613b6980620006696000396000f3fe6080604052600436106102515760003560e01c806388ffc75d11610139578063be287afa116100b6578063e97c41d91161007a578063e97c41d914610bf9578063f1ad38e214610cfe578063f2fde38b14610d37578063f3c6eb0a14610d6a578063fab4bdf814610e2b578063fb1dc11714610e5557610251565b8063be287afa14610b57578063cb327b8b14610b81578063d376ed2f14610b96578063d5abeb0114610bab578063e01d5f5d14610bc057610251565b806395d89b41116100fd57806395d89b4114610ad95780639ca42fe314610aee578063a3ffc1dc14610b03578063a5d362c914610b18578063a670cb2d14610b4257610251565b806388ffc75d14610a185780638cd666cd14610a4b5780638da5cb5b14610a605780638f32d59b14610a91578063929066f514610aa657610251565b8063430d07b0116101d25780636f8b44b0116101965780636f8b44b014610847578063715018a614610871578063716b3ce51461088657806371bdce55146108b0578063726661c314610942578063790c731614610a0357610251565b8063430d07b01461067e5780634edd6b1a146106b757806356c4490a146106f65780636c2b532c146107d15780636e0f5ec11461083257610251565b80630d31e2ea116102195780630d31e2ea146103e95780630fb0d1e5146104aa578063195ec9ee146104d4578063217fe6c6146104e95780632c3b4810146105aa57610251565b8063066d7e641461025357806306bfcf4e146102b857806306fdde0314610342578063073886081461035757806309e69ede146103a2575b005b34801561025f57600080fd5b50610268610e87565b60408051602080825283518183015283519192839290830191858101910280838360005b838110156102a457818101518382015260200161028c565b505050509050019250505060405180910390f35b3480156102c457600080fd5b506102cd610ef2565b6040805160208082528351818301528351919283929083019185019080838360005b838110156103075781810151838201526020016102ef565b50505050905090810190601f1680156103345780820380516001836020036101000a031916815260200191505b509250505060405180910390f35b34801561034e57600080fd5b506102cd610f22565b34801561036357600080fd5b506103906004803603604081101561037a57600080fd5b506001600160a01b038135169060200135610fad565b60408051918252519081900360200190f35b3480156103ae57600080fd5b506103d5600480360360208110156103c557600080fd5b50356001600160a01b0316611321565b604080519115158252519081900360200190f35b3480156103f557600080fd5b506102516004803603604081101561040c57600080fd5b6001600160a01b038235169190810190604081016020820135600160201b81111561043657600080fd5b82018360208201111561044857600080fd5b803590602001918460018302840111600160201b8311171561046957600080fd5b91908080601f016020809104026020016040519081016040528093929190818152602001838380828437600092019190915250929550611336945050505050565b3480156104b657600080fd5b50610251600480360360208110156104cd57600080fd5b5035611414565b3480156104e057600080fd5b506102686115e0565b3480156104f557600080fd5b506103d56004803603604081101561050c57600080fd5b6001600160a01b038235169190810190604081016020820135600160201b81111561053657600080fd5b82018360208201111561054857600080fd5b803590602001918460018302840111600160201b8311171561056957600080fd5b91908080601f016020809104026020016040519081016040528093929190818152602001838380828437600092019190915250929550611640945050505050565b3480156105b657600080fd5b50610390600480360360c08110156105cd57600080fd5b810190602081018135600160201b8111156105e757600080fd5b8201836020820111156105f957600080fd5b803590602001918460018302840111600160201b8311171561061a57600080fd5b91908080601f01602080910402602001604051908101604052809392919081815260200183838082843760009201919091525092955050823593505050602081013590604081013590606081013560ff1690608001356001600160a01b031661167e565b34801561068a57600080fd5b50610251600480360360408110156106a157600080fd5b506001600160a01b038135169060200135611980565b3480156106c357600080fd5b50610390600480360360608110156106da57600080fd5b506001600160a01b038135169060208101359060400135611a57565b34801561070257600080fd5b50610251600480360360e081101561071957600080fd5b81359190810190604081016020820135600160201b81111561073a57600080fd5b82018360208201111561074c57600080fd5b803590602001918460018302840111600160201b8311171561076d57600080fd5b91908080601f01602080910402602001604051908101604052809392919081815260200183838082843760009201919091525092955050823593505050602081013590604081013590606081013560ff1690608001356001600160a01b0316611e8b565b3480156107dd57600080fd5b5061080a600480360360408110156107f457600080fd5b506001600160a01b03813516906020013561207b565b6040805194151585526020850193909352838301919091526060830152519081900360800190f35b34801561083e57600080fd5b506103906120bd565b34801561085357600080fd5b506102516004803603602081101561086a57600080fd5b50356120c3565b34801561087d57600080fd5b5061025161210f565b34801561089257600080fd5b50610268600480360360208110156108a957600080fd5b50356121a0565b3480156108bc57600080fd5b506108e3600480360360208110156108d357600080fd5b50356001600160a01b031661221d565b604051808315151515815260200180602001828103825283818151815260200191508051906020019060200280838360005b8381101561092d578181015183820152602001610915565b50505050905001935050505060405180910390f35b34801561094e57600080fd5b506102516004803603604081101561096557600080fd5b6001600160a01b038235169190810190604081016020820135600160201b81111561098f57600080fd5b8201836020820111156109a157600080fd5b803590602001918460018302840111600160201b831117156109c257600080fd5b91908080601f0160208091040260200160405190810160405280939291908181526020018383808284376000920191909152509295506122a7945050505050565b348015610a0f57600080fd5b5061026861234b565b348015610a2457600080fd5b5061025160048036036020811015610a3b57600080fd5b50356001600160a01b03166123a2565b348015610a5757600080fd5b50610251612490565b348015610a6c57600080fd5b50610a756124f1565b604080516001600160a01b039092168252519081900360200190f35b348015610a9d57600080fd5b506103d5612500565b348015610ab257600080fd5b506103d560048036036020811015610ac957600080fd5b50356001600160a01b0316612526565b348015610ae557600080fd5b506102cd612544565b348015610afa57600080fd5b5061039061259f565b348015610b0f57600080fd5b506102cd6125b0565b348015610b2457600080fd5b5061025160048036036020811015610b3b57600080fd5b50356125df565b348015610b4e57600080fd5b506102cd61263f565b348015610b6357600080fd5b5061039060048036036020811015610b7a57600080fd5b5035612667565b348015610b8d57600080fd5b506102cd612681565b348015610ba257600080fd5b506102686126a9565b348015610bb757600080fd5b50610390612707565b348015610bcc57600080fd5b5061039060048036036040811015610be357600080fd5b506001600160a01b03813516906020013561270d565b348015610c0557600080fd5b50610c2360048036036020811015610c1c57600080fd5b5035612738565b60405180806020018b1515151581526020018a8152602001898152602001888152602001878152602001868152602001858152602001846001811115610c6557fe5b60ff168152602001836001600160a01b03166001600160a01b0316815260200182810382528c818151815260200191508051906020019080838360005b83811015610cba578181015183820152602001610ca2565b50505050905090810190601f168015610ce75780820380516001836020036101000a031916815260200191505b509b50505050505050505050505060405180910390f35b348015610d0a57600080fd5b5061025160048036036040811015610d2157600080fd5b506001600160a01b03813516906020013561287a565b348015610d4357600080fd5b5061025160048036036020811015610d5a57600080fd5b50356001600160a01b031661296a565b348015610d7657600080fd5b5061025160048036036040811015610d8d57600080fd5b6001600160a01b038235169190810190604081016020820135600160201b811115610db757600080fd5b820183602082011115610dc957600080fd5b803590602001918460018302840111600160201b83111715610dea57600080fd5b91908080601f0160208091040260200160405190810160405280939291908181526020018383808284376000920191909152509295506129ba945050505050565b348015610e3757600080fd5b5061025160048036036020811015610e4e57600080fd5b5035612a2f565b348015610e6157600080fd5b5061025160048036036040811015610e7857600080fd5b50803590602001351515612a7b565b6060610e936007610eef565b805480602002602001604051908101604052809291908181526020018280548015610ee757602002820191906000526020600020905b81546001600160a01b03168152600190910190602001808311610ec9575b505050505090505b90565b6040518060400160405280601481526020017336b2b6b132b92fb632b0bb32afb6b0b730b3b2b960611b81525081565b6002805460408051602060018416156101000260001901909316849004601f81018490048402820184019092528181529291830182828015610fa55780601f10610f7a57610100808354040283529160200191610fa5565b820191906000526020600020905b815481529060010190602001808311610f8857829003601f168201915b505050505081565b6000610fe4336040518060400160405280601381526020017236b2b6b132b92fb537b4b72fb6b0b730b3b2b960691b815250611640565b611030576040805162461bcd60e51b815260206004820152601860248201527727b7363c9036b2b6b132b9103537b4b71036b0b730b3b2b960411b604482015290519081900360640190fd5b60045461103d6007612bd6565b10611083576040805162461bcd60e51b81526020600482015260116024820152704e6f7420656e6f75676820737570706c7960781b604482015290519081900360640190fd5b6001600160a01b03831660009081526006602052604090205460ff16156110e7576040805162461bcd60e51b8152602060048201526013602482015272105b1c9958591e481c185c9d1a58da5c185b9d606a1b604482015290519081900360640190fd5b6001600160a01b0383166000908152600e602090815260408083208584529091529020805460ff1661114b576040805162461bcd60e51b8152602060048201526008602482015267139bdd081cd95b9d60c21b604482015290519081900360640190fd5b8054610100900460ff161561119b576040805162461bcd60e51b8152602060048201526011602482015270105b1c9958591e4818dbdb999a5c9b5959607a1b604482015290519081900360640190fd5b33600090815260028201602052604090205460ff16156111fb576040805162461bcd60e51b8152602060048201526016602482015275596f752063616e7420636f6e6669726d20747769636560501b604482015290519081900360640190fd5b3360009081526002820160205260409020805460ff19166001908117909155818101805490910190819055600554116112cb57805461ff00191661010017815561124c600f8563ffffffff612bda16565b6001600160a01b0384166000908152600d60205260409020611274908463ffffffff612c9416565b61127e8484612d44565b604080516001600160a01b038616815233602082015260018183015290517f1c770a93731be70342e4d215a67c2d277f8c1ca326da36fa3ec3c6e022706a469181900360600190a1611314565b604080516001600160a01b038616815233602082015260008183015290517f1c770a93731be70342e4d215a67c2d277f8c1ca326da36fa3ec3c6e022706a469181900360600190a15b6001015490505b92915050565b60066020526000908152604090205460ff1681565b6040518060400160405280600c81526020016b3937b632afb6b0b730b3b2b960a11b8152506113c5336000836040518082805190602001908083835b602083106113915780518252601f199092019160209182019101611372565b51815160209384036101000a6000190180199092169116179052920194855250604051938490030190922092915050612fa9565b611405576040805162461bcd60e51b815260206004820152600c60248201526b496e76616c696420726f6c6560a01b604482015290519081900360640190fd5b61140f8383613010565b505050565b6004546114216007612bd6565b10611467576040805162461bcd60e51b81526020600482015260116024820152704e6f7420656e6f75676820737570706c7960781b604482015290519081900360640190fd5b3360009081526006602052604090205460ff16156114c2576040805162461bcd60e51b8152602060048201526013602482015272105b1c9958591e481c185c9d1a58da5c185b9d606a1b604482015290519081900360640190fd5b336000908152600e6020908152604080832084845290915290205460ff1615611521576040805162461bcd60e51b815260206004820152600c60248201526b105b1c9958591e481cd95b9d60a21b604482015290519081900360640190fd5b6040805160608101825260018082526000602080840182815284860183815233808552600e8452878520898652845287852096518754935115156101000261ff001991151560ff199095169490941716929092178655519490930193909355908152600d90915220611599908263ffffffff61312116565b6115aa600f3363ffffffff612bda16565b6040805133815290517f1397ce7201c0e8ab68be45be2eac362cd7fbbb9a82a909bbc6bb49a1e4545ca69181900360200190a150565b6060600a805480602002602001604051908101604052809291908181526020018280548015610ee7576020028201919060005260206000209081546001600160a01b03168152600190910190602001808311610ec9575050505050905090565b600061167783600084604051808280519060200190808383602083106113915780518252601f199092019160209182019101611372565b9392505050565b60006116ae336040518060400160405280600c81526020016b3930ba32afb6b0b730b3b2b960a11b815250611640565b6116f3576040805162461bcd60e51b815260206004820152601160248201527027b7363c903930ba329036b0b730b3b2b960791b604482015290519081900360640190fd5b6040805133606090811b602080840191909152426034840152605483018a9052607483018990529085901b6bffffffffffffffffffffffff191660948301528251808303608801815260a89092018352815191810191909120600081815260129092529190206001015460ff16156117ab576040805162461bcd60e51b815260206004820152601660248201527515185c9a599988185b1c9958591e4818dc99585d195960521b604482015290519081900360640190fd5b600081815260126020908152604090912089516117ca928b01906139f3565b506000818152601260205260409020600281018890556003810187905560078101869055600801805485919060ff19166001838181111561180757fe5b02179055506000818152601260205260409020600881018054610100600160a81b0319166101006001600160a01b038716021790556001908101805460ff19169091179055611857601382613121565b60168054600181810183556000929092527fd833147d7dc355ba459fc788f669e58cfaf9dc25ddcd0702e87d69c7b5124289018290557f665d1d006c6253aaaea35061cb23bca87e46289812605e066def7c765fa0542a9082908a908a908a9089908111156118c257fe5b8860405180878152602001806020018681526020018581526020018460ff1660ff168152602001836001600160a01b03166001600160a01b03168152602001828103825287818151815260200191508051906020019080838360005b8381101561193657818101518382015260200161191e565b50505050905090810190601f1680156119635780820380516001836020036101000a031916815260200191505b5097505050505050505060405180910390a1979650505050505050565b6119b5336040518060400160405280601381526020017236b2b6b132b92fb537b4b72fb6b0b730b3b2b960691b815250611640565b611a01576040805162461bcd60e51b815260206004820152601860248201527727b7363c9036b2b6b132b9103537b4b71036b0b730b3b2b960411b604482015290519081900360640190fd5b611a0b8282612d44565b604080513381526001600160a01b038416602082015280820183905290517fba5fe7468094ee0772588103af3bff67a6a41f671684a5081caf6cbb7c6c4b859181900360600190a15050565b6001600160a01b0383166000908152600c60209081526040808320858452825280832060129092528220815460ff16611ad7576040805162461bcd60e51b815260206004820152601c60248201527f546172696666207061796d656e74206973206e6f742061637469766500000000604482015290519081900360640190fd5b600181015460ff16611b27576040805162461bcd60e51b8152602060048201526014602482015273546172696666206973206e6f742061637469766560601b604482015290519081900360640190fd5b6002810154611b76576040805162461bcd60e51b815260206004820152601660248201527515185c9a5999881c185e5b595b9d081a5cc81b9d5b1b60521b604482015290519081900360640190fd5b6003810154611bcc576040805162461bcd60e51b815260206004820152601d60248201527f546172696666207061796d656e7420706572696f64206973206e756c6c000000604482015290519081900360640190fd5b6001600160a01b03861660009081526006602052604090205460ff16611c26576040805162461bcd60e51b815260206004820152600a6024820152694e6f742061637469766560b01b604482015290519081900360640190fd5b42848260030154028360010154011115611c72576040805162461bcd60e51b81526020600482015260086024820152672a37b79039b7b7b760c11b604482015290519081900360640190fd5b6001820154611c8657426001830155611c9a565b600381015460018301805491860290910190555b600281015460038301805491860290910190556000600882015460ff166001811115611cc257fe5b1415611d095760028101546040516001600160a01b03881691860280156108fc02916000818181858888f19350505050158015611d03573d6000803e3d6000fd5b50611e62565b600881015460028201546040805163a9059cbb60e01b81526001600160a01b038a81166004830152928802602482015290516101009093049091169163a9059cbb916044808201926020929091908290030181600087803b158015611d6d57600080fd5b505af1158015611d81573d6000803e3d6000fd5b505050506040513d6020811015611d9757600080fd5b5050600781015415801590611db457508160020154826003015410155b15611e6257600281015460078201546008830154604080516340c10f1960e01b8152306004820152929093026024830181905292516101009091046001600160a01b0316916340c10f199160448083019260209291908290030181600087803b158015611e2057600080fd5b505af1158015611e34573d6000803e3d6000fd5b505050506040513d6020811015611e4a57600080fd5b50506002830180548201905560058201805490910190555b600281015460048201805491860291909101905560030154600191909101540190509392505050565b611eb9336040518060400160405280600c81526020016b3930ba32afb6b0b730b3b2b960a11b815250611640565b611efe576040805162461bcd60e51b815260206004820152601160248201527027b7363c903930ba329036b0b730b3b2b960791b604482015290519081900360640190fd5b60008781526012602090815260409091208751611f1d928901906139f3565b506000878152601260205260409020600281018690556003810185905560078101849055600801805483919060ff191660018381811115611f5a57fe5b021790555060008781526012602052604090206008018054610100600160a81b0319166101006001600160a01b038416021790557ffdc8ac7f63e39d6ab84a96a650333013eec6a444dd3aab4a9673742dcaee8e8787878787866001811115611fbf57fe5b8660405180878152602001806020018681526020018581526020018460ff1660ff168152602001836001600160a01b03166001600160a01b03168152602001828103825287818151815260200191508051906020019080838360005b8381101561203357818101518382015260200161201b565b50505050905090810190601f1680156120605780820380516001836020036101000a031916815260200191505b5097505050505050505060405180910390a150505050505050565b6001600160a01b03919091166000908152600c602090815260408083209383529290522080546003820154600283015460019093015460ff9092169390929190565b60055481565b6120cb612500565b61210a576040805162461bcd60e51b81526020600482018190526024820152600080516020613af3833981519152604482015290519081900360640190fd5b600455565b612117612500565b612156576040805162461bcd60e51b81526020600482018190526024820152600080516020613af3833981519152604482015290519081900360640190fd5b6001546040516000916001600160a01b0316907f8be0079c531659141344cd1fd0a4f28419497f9722a3daafe3b4186f6b6457e0908390a3600180546001600160a01b0319169055565b60008181526012602052604090206060906121bd90600901610eef565b80548060200260200160405190810160405280929190818152602001828054801561221157602002820191906000526020600020905b81546001600160a01b031681526001909101906020018083116121f3575b50505050509050919050565b6001600160a01b038116600090815260066020908152604080832054600b909252822060609160ff169061225090610eef565b80546040805160208084028201810190925282815291839183018282801561229757602002820191906000526020600020905b815481526020019060010190808311612283575b5050505050905091509150915091565b6040518060400160405280600c81526020016b3937b632afb6b0b730b3b2b960a11b81525061230133600083604051808280519060200190808383602083106113915780518252601f199092019160209182019101611372565b612341576040805162461bcd60e51b815260206004820152600c60248201526b496e76616c696420726f6c6560a01b604482015290519081900360640190fd5b61140f838361318a565b60606016805480602002602001604051908101604052809291908181526020018280548015610ee757602002820191906000526020600020905b815481526020019060010190808311612385575050505050905090565b6123d8336040518060400160405280601481526020017336b2b6b132b92fb632b0bb32afb6b0b730b3b2b960611b815250611640565b612425576040805162461bcd60e51b815260206004820152601960248201527827b7363c9036b2b6b132b9103632b0bb329036b0b730b3b2b960391b604482015290519081900360640190fd5b6001600160a01b03811660009081526006602052604090205460ff16612484576040805162461bcd60e51b815260206004820152600f60248201526e139bdd081c185c9d1a58da5c185b9d608a1b604482015290519081900360640190fd5b61248d81613259565b50565b3360009081526006602052604090205460ff166124e6576040805162461bcd60e51b815260206004820152600f60248201526e139bdd081c185c9d1a58da5c185b9d608a1b604482015290519081900360640190fd5b6124ef33613259565b565b6001546001600160a01b031690565b6001546000906001600160a01b0316612517613301565b6001600160a01b031614905090565b6001600160a01b031660009081526006602052604090205460ff1690565b6003805460408051602060026001851615610100026000190190941693909304601f81018490048402820184019092528181529291830182828015610fa55780601f10610f7a57610100808354040283529160200191610fa5565b60006125ab6007612bd6565b905090565b6040518060400160405280601381526020017236b2b6b132b92fb537b4b72fb6b0b730b3b2b960691b81525081565b3360009081526006602052604090205460ff16612635576040805162461bcd60e51b815260206004820152600f60248201526e139bdd081c185c9d1a58da5c185b9d608a1b604482015290519081900360640190fd5b61248d3382613305565b6040518060400160405280600c81526020016b3937b632afb6b0b730b3b2b960a11b81525081565b600081815260126020526040812061131b90600901612bd6565b6040518060400160405280600c81526020016b3930ba32afb6b0b730b3b2b960a11b81525081565b60606126b56013610eef565b805480602002602001604051908101604052809291908181526020018280548015610ee75760200282019190600052602060002090815481526020019060010190808311612385575050505050905090565b60045481565b6001600160a01b03919091166000908152600e60209081526040808320938352929052206001015490565b6060600080600080600080600080600080601260008d81526020019081526020016000209050806000018160010160009054906101000a900460ff168260020154836003015484600701548560050154866006015487600401548860080160009054906101000a900460ff168960080160019054906101000a90046001600160a01b0316898054600181600116156101000203166002900480601f0160208091040260200160405190810160405280929190818152602001828054600181600116156101000203166002900480156128515780601f1061282657610100808354040283529160200191612851565b820191906000526020600020905b81548152906001019060200180831161283457829003601f168201915b505050505099509a509a509a509a509a509a509a509a509a509a50509193959799509193959799565b6128b0336040518060400160405280601481526020017336b2b6b132b92fb632b0bb32afb6b0b730b3b2b960611b815250611640565b6128fd576040805162461bcd60e51b815260206004820152601960248201527827b7363c9036b2b6b132b9103632b0bb329036b0b730b3b2b960391b604482015290519081900360640190fd5b6001600160a01b03821660009081526006602052604090205460ff1661295c576040805162461bcd60e51b815260206004820152600f60248201526e139bdd081c185c9d1a58da5c185b9d608a1b604482015290519081900360640190fd5b6129668282613305565b5050565b612972612500565b6129b1576040805162461bcd60e51b81526020600482018190526024820152600080516020613af3833981519152604482015290519081900360640190fd5b61248d8161342c565b6129ef82600083604051808280519060200190808383602083106113915780518252601f199092019160209182019101611372565b612966576040805162461bcd60e51b815260206004820152600c60248201526b496e76616c696420726f6c6560a01b604482015290519081900360640190fd5b612a37612500565b612a76576040805162461bcd60e51b81526020600482018190526024820152600080516020613af3833981519152604482015290519081900360640190fd5b600555565b612aa9336040518060400160405280600c81526020016b3930ba32afb6b0b730b3b2b960a11b815250611640565b612aee576040805162461bcd60e51b815260206004820152601160248201527027b7363c903930ba329036b0b730b3b2b960791b604482015290519081900360640190fd5b60008281526012602052604090206001015460ff1615158115151415612b49576040805162461bcd60e51b815260206004820152600b60248201526a53616d652073746174757360a81b604482015290519081900360640190fd5b6000828152601260205260409020600101805460ff19168215801591909117909155612b8557612b8060138363ffffffff61312116565b612b96565b612b9660138363ffffffff612c9416565b60408051838152821515602082015281517fa468e8808de226695127eb52b091b945527354830cff5358eddf58444fe0e291929181900390910190a15050565b5490565b8154612c1e576040805162461bcd60e51b815260206004820152600e60248201526d417272617920697320656d70747960901b604482015290519081900360640190fd5b6001600160a01b038116600090815260028301602052604090205460ff161515600114612c8a576040805162461bcd60e51b8152602060048201526015602482015274115b195b595b9d08191bd95cdb89dd08195e1a5cdd605a1b604482015290519081900360640190fd5b61296682826134cd565b8154612cd8576040805162461bcd60e51b815260206004820152600e60248201526d417272617920697320656d70747960901b604482015290519081900360640190fd5b600081815260028301602052604090205460ff161515600114612d3a576040805162461bcd60e51b8152602060048201526015602482015274115b195b595b9d08191bd95cdb89dd08195e1a5cdd605a1b604482015290519081900360640190fd5b61296682826135d6565b6001600160a01b0382166000908152600c602090815260408083208484529091529020805460ff1615612db4576040805162461bcd60e51b815260206004820152601360248201527220b63932b0b23c903430bb32903a30b934b33360691b604482015290519081900360640190fd5b6001600160a01b0383166000908152600660205260409020805460ff19166001179055612de860078463ffffffff61368916565b506000828152601260205260409020612e0a906009018463ffffffff61371816565b600a805460018082019092557fc65a7bb8d6351c1cf70c95a316cc6a92839c986682d98bc35f958f4883f9d2a80180546001600160a01b0319166001600160a01b0386811691909117909155825460ff1916909117825560008381526012602052604090206008015461010090041615801590612e97575060008281526012602052604090206007015415155b15612f635760008281526012602090815260408083206002810154600782015460089092015483516340c10f1960e01b81523060048201529290910260248301819052925192946101009091046001600160a01b0316936340c10f1993604480850194929391928390030190829087803b158015612f1457600080fd5b505af1158015612f28573d6000803e3d6000fd5b505050506040513d6020811015612f3e57600080fd5b5050600282018054820190556000838152601260205260409020600501805490910190555b6001600160a01b0383166000908152600b60205260409020612f8b908363ffffffff61312116565b60009182526012602052604090912060030154420360019091015550565b60006001600160a01b038216612ff05760405162461bcd60e51b8152600401808060200182810382526022815260200180613b136022913960400191505060405180910390fd5b506001600160a01b03166000908152602091909152604090205460ff1690565b61307a826000836040518082805190602001908083835b602083106130465780518252601f199092019160209182019101613027565b51815160209384036101000a60001901801990921691161790529201948552506040519384900301909220929150506137dd565b816001600160a01b03167fd211483f91fc6eff862467f8de606587a30c8fc9981056f051b897a418df803a826040518080602001828103825283818151815260200191508051906020019080838360005b838110156130e35781810151838201526020016130cb565b50505050905090810190601f1680156131105780820380516001836020036101000a031916815260200191505b509250505060405180910390a25050565b600081815260028301602052604090205460ff1615613180576040805162461bcd60e51b8152602060048201526016602482015275456c656d656e7420616c72656164792065786973747360501b604482015290519081900360640190fd5b6129668282613844565b6131f4826000836040518082805190602001908083835b602083106131c05780518252601f1990920191602091820191016131a1565b51815160209384036101000a6000190180199092169116179052920194855250604051938490030190922092915050613882565b60408051602080825283518183015283516001600160a01b038616937fbfec83d64eaa953f2708271a023ab9ee82057f8f3578d548c1a4ba0b5b70048993869390928392830191850190808383600083156130e35781810151838201526020016130cb565b6001600160a01b0381166000908152600b6020526040902060609061327d90610eef565b8054806020026020016040519081016040528092919081815260200182805480156132c757602002820191906000526020600020905b8154815260200190600101908083116132b3575b50939450600093505050505b815181101561140f576132f9838383815181106132ec57fe5b6020026020010151613305565b6001016132d3565b3390565b6001600160a01b0382166000908152600c6020908152604080832084845290915290206133328383613903565b600060038201819055815460ff191682556001600160a01b0384168152600b60205260409020613368908363ffffffff612c9416565b6000828152601260205260409020613389906009018463ffffffff612bda16565b6001600160a01b0383166000908152600b602052604090206133aa90612bd6565b6133df576001600160a01b0383166000908152600660205260409020805460ff191690556133df60078463ffffffff612bda16565b604080513381526001600160a01b038516602082015280820184905290517fe7907e568a5c707f54e72a5d13cf22473e52e5a23be6a160d994255366c929ad9181900360600190a1505050565b6001600160a01b0381166134715760405162461bcd60e51b8152600401808060200182810382526026815260200180613aac6026913960400191505060405180910390fd5b6001546040516001600160a01b038084169216907f8be0079c531659141344cd1fd0a4f28419497f9722a3daafe3b4186f6b6457e090600090a3600180546001600160a01b0319166001600160a01b0392909216919091179055565b81546001600160a01b03821660009081526001840160205260408120546000198301929091908590849081106134ff57fe5b60009182526020909120015485546001600160a01b039091169150819086908490811061352857fe5b9060005260206000200160006101000a8154816001600160a01b0302191690836001600160a01b0316021790555084600001838154811061356557fe5b600091825260209091200180546001600160a01b031916905584546000190161358e8682613a71565b506001600160a01b039384166000908152600186016020818152604080842084905560029098018152878320805460ff19169055929095168152939052929091209190915550565b815460008281526001840160205260408120546000198301929091908590849081106135fe57fe5b906000526020600020015490508085600001838154811061361b57fe5b600091825260209091200155845485908490811061363557fe5b60009182526020822001558454600019016136508682613a71565b506000938452600185016020818152604080872087905560029097018152868620805460ff191690559185529052929091209190915550565b6001600160a01b038116600090815260028301602052604081205460ff161515600114156136b95750600061131b565b5081546001600160a01b0391909116600081815260018085016020908152604080842095909555600286018152938220805460ff1916821790558454808201865594825292902090920180546001600160a01b03191690921790915590565b6001600160a01b038116600090815260028301602052604090205460ff1615613781576040805162461bcd60e51b8152602060048201526016602482015275456c656d656e7420616c72656164792065786973747360501b604482015290519081900360640190fd5b81546001600160a01b03909116600081815260018085016020908152604080842095909555600286018152938220805460ff191682179055845490810185559381529190912090910180546001600160a01b0319169091179055565b6137e78282612fa9565b6138225760405162461bcd60e51b8152600401808060200182810382526021815260200180613ad26021913960400191505060405180910390fd5b6001600160a01b0316600090815260209190915260409020805460ff19169055565b8154600082815260018085016020908152604080842094909455600286018152928220805460ff191682179055845490810185559381522090910155565b61388c8282612fa9565b156138de576040805162461bcd60e51b815260206004820152601f60248201527f526f6c65733a206163636f756e7420616c72656164792068617320726f6c6500604482015290519081900360640190fd5b6001600160a01b0316600090815260209190915260409020805460ff19166001179055565b6001600160a01b0382166000908152600c6020908152604080832084845282528083206012909252909120600382015460028301541180156139495750600181015460ff165b156139ed576000826003015483600201540390508160080160019054906101000a90046001600160a01b03166001600160a01b03166342966c68826040518263ffffffff1660e01b815260040180828152602001915050600060405180830381600087803b1580156139ba57600080fd5b505af11580156139ce573d6000803e3d6000fd5b5050506006830180549092019091555060006002830181905560038301555b50505050565b828054600181600116156101000203166002900490600052602060002090601f016020900481019282601f10613a3457805160ff1916838001178555613a61565b82800160010185558215613a61579182015b82811115613a61578251825591602001919060010190613a46565b50613a6d929150613a91565b5090565b81548183558181111561140f5760008381526020902061140f9181019083015b610eef91905b80821115613a6d5760008155600101613a9756fe4f776e61626c653a206e6577206f776e657220697320746865207a65726f2061646472657373526f6c65733a206163636f756e7420646f6573206e6f74206861766520726f6c654f776e61626c653a2063616c6c6572206973206e6f7420746865206f776e6572526f6c65733a206163636f756e7420697320746865207a65726f2061646472657373a265627a7a723158205c1d21bb839959b8197b9e7d7d50f9cb0025b41cac58e0783b1855545d4eddb664736f6c63430005100032526f6c65733a206163636f756e7420697320746865207a65726f2061646472657373",
  "source": "/*\n * Copyright  2018 GaltProject Society Construction and Terraforming Company\n * (Founded by [Nikolai Popeka](https://github.com/npopeka)\n * \n * Copyright  2018 GaltCore Blockchain Company\n * (Founded by [Nikolai Popeka](https://github.com/npopeka) by\n * [Basic Agreement](ipfs/QmaCiXUmSrP16Gz8Jdzq6AJESY1EAANmmwha15uR3c1bsS)).\n */\n\npragma solidity ^0.5.13;\n\nimport \"@openzeppelin/contracts/token/ERC20/ERC20.sol\";\nimport \"@openzeppelin/contracts/token/ERC20/ERC20Mintable.sol\";\nimport \"@openzeppelin/contracts/token/ERC20/ERC20Burnable.sol\";\nimport \"@openzeppelin/contracts/ownership/Ownable.sol\";\n\nimport \"@galtproject/libs/contracts/collections/ArraySet.sol\";\nimport \"@galtproject/libs/contracts/traits/Permissionable.sol\";\n\nimport \"./interfaces/ICoinToken.sol\";\nimport \"./CityLibrary.sol\";\n\n\ncontract City is Permissionable, Ownable {\n    using ArraySet for ArraySet.AddressSet;\n    using ArraySet for ArraySet.Bytes32Set;\n\n    string public constant RATE_MANAGER_ROLE = \"rate_manager\";\n    string public constant MEMBER_JOIN_MANAGER_ROLE = \"member_join_manager\";\n    string public constant MEMBER_LEAVE_MANAGER_ROLE = \"member_leave_manager\";\n    \n    string public name;\n    string public symbol;\n    uint256 public maxSupply;\n    uint256 public confirmsToParticipation;\n\n    event TariffCreated(bytes32 id, string title, uint256 payment, uint256 paymentPeriod, uint8 currency, address currencyAddress);\n    event TariffEdited(bytes32 id, string title, uint256 payment, uint256 paymentPeriod, uint8 currency, address currencyAddress);\n    event TariffActiveChanged(bytes32 id, bool active);\n    event ParticipationRequest(address requested);\n    event ParticipationConfirm(address requested, address confirmed, bool fully);\n    event ParticipationAdded(address cityManager, address member, bytes32 tariff);\n    event ParticipationTariffRemoved(address cityManager, address member, bytes32 tariff);\n\n    mapping (address => bool) public participants;\n    ArraySet.AddressSet activeParticipants;\n    address[] allParticipants;\n\n    mapping (address => ArraySet.Bytes32Set) activeMemberTariffs;\n    mapping (address => mapping(bytes32 => CityLibrary.MemberTariff)) private memberTariffs;\n    mapping (address => ArraySet.Bytes32Set) activeMemberRequests;\n    mapping (address => mapping(bytes32 => CityLibrary.ParticipationRequest)) private participationRequests;\n    ArraySet.AddressSet activeRequests;\n\n    mapping (bytes32 => CityLibrary.Tariff) private tariffs;\n    ArraySet.Bytes32Set activeTariffs;\n    bytes32[] allTariffs;\n\n    constructor(uint256 _maxSupply, string memory _name, string memory _symbol) public {\n        maxSupply = _maxSupply;\n        name = _name;\n        symbol = _symbol;\n\n        confirmsToParticipation = 1;\n\n        _addRoleTo(msg.sender, RATE_MANAGER_ROLE);\n        _addRoleTo(msg.sender, MEMBER_JOIN_MANAGER_ROLE);\n        _addRoleTo(msg.sender, MEMBER_LEAVE_MANAGER_ROLE);\n    }\n\n    function() external payable { }\n\n    modifier onlyRateManager() {\n        require(hasRole(msg.sender, RATE_MANAGER_ROLE), \"Only rate manager\");\n        _;\n    }\n\n    modifier onlyMemberJoinManager() {\n        require(hasRole(msg.sender, MEMBER_JOIN_MANAGER_ROLE), \"Only member join manager\");\n        _;\n    }\n\n    modifier onlyMemberLeaveManager() {\n        require(hasRole(msg.sender, MEMBER_LEAVE_MANAGER_ROLE), \"Only member leave manager\");\n        _;\n    }\n    \n    function createTariff(\n        string memory _title,\n        uint256 _payment,\n        uint256 _paymentPeriod,\n        uint256 _mintForPeriods,\n        CityLibrary.TariffCurrency _currency,\n        address _currencyAddress\n    )\n        public\n        onlyRateManager\n        returns(bytes32)\n    {\n        bytes32 _id = keccak256(\n            abi.encodePacked(\n                msg.sender,\n                block.timestamp,\n                _payment,\n                _paymentPeriod,\n                _currencyAddress\n            )\n        );\n        require(!tariffs[_id].active, \"Tariff already created\");\n        \n        tariffs[_id].title = _title;\n        tariffs[_id].payment = _payment;\n        tariffs[_id].paymentPeriod = _paymentPeriod;\n        tariffs[_id].mintForPeriods = _mintForPeriods;\n        tariffs[_id].currency = _currency;\n        tariffs[_id].currencyAddress = _currencyAddress;\n        tariffs[_id].active = true;\n\n        activeTariffs.add(_id);\n        allTariffs.push(_id);\n        \n        emit TariffCreated(_id, _title, _payment, _paymentPeriod, uint8(_currency), _currencyAddress);\n        return _id;\n    }\n    \n    function setTariffActive(bytes32 _id, bool _active) public onlyRateManager {\n        require(tariffs[_id].active != _active, \"Same status\");\n        \n        tariffs[_id].active = _active;\n        \n        if(_active) {\n            activeTariffs.add(_id);\n        } else {\n            activeTariffs.remove(_id);\n        }\n        \n        emit TariffActiveChanged(_id, _active);\n    }\n    \n    function editTariff(bytes32 _id, string memory _title, uint256 _payment, uint256 _paymentPeriod, uint256 _mintForPeriods, CityLibrary.TariffCurrency _currency, address _currencyAddress) public onlyRateManager {\n        tariffs[_id].title = _title;\n        tariffs[_id].payment = _payment;\n        tariffs[_id].paymentPeriod = _paymentPeriod;\n        tariffs[_id].mintForPeriods = _mintForPeriods;\n        tariffs[_id].currency = _currency;\n        tariffs[_id].currencyAddress = _currencyAddress;\n        \n        emit TariffEdited(_id, _title, _payment, _paymentPeriod, uint8(_currency), _currencyAddress);\n    }\n\n    function setMaxSupply(uint256 _maxSupply) public onlyOwner {\n        maxSupply = _maxSupply;\n    }\n\n    function setConfirmsToParticipation(uint256 _confirmsToParticipation) public onlyOwner {\n        confirmsToParticipation = _confirmsToParticipation;\n    }\n\n    function claimPayment(address payable _claimFor, bytes32 _tariffId, uint256 _periodsNumber) public returns (uint256 nextDate) {\n        CityLibrary.MemberTariff storage _memberTariff = memberTariffs[_claimFor][_tariffId];\n        CityLibrary.Tariff storage _tariff = tariffs[_tariffId];\n        require(_memberTariff.active, \"Tariff payment is not active\"); // REVERT\n        require(_tariff.active, \"Tariff is not active\");\n        require(_tariff.payment != 0, \"Tariff payment is null\");\n        require(_tariff.paymentPeriod != 0, \"Tariff payment period is null\");\n\n        require(participants[_claimFor], \"Not active\");\n        require(_memberTariff.lastTimestamp + (_tariff.paymentPeriod * _periodsNumber) <= now, \"Too soon\");\n\n        if(_memberTariff.lastTimestamp == 0) {\n            _memberTariff.lastTimestamp = now;\n        } else {\n            _memberTariff.lastTimestamp += _tariff.paymentPeriod * _periodsNumber;\n        }\n\n        _memberTariff.claimed += _tariff.payment * _periodsNumber;\n\n        if(_tariff.currency == CityLibrary.TariffCurrency.ETH) {\n            _claimFor.transfer(_tariff.payment * _periodsNumber);\n        } else {\n            ERC20(_tariff.currencyAddress).transfer(_claimFor, _tariff.payment * _periodsNumber);\n\n            if(_tariff.mintForPeriods > 0 && _memberTariff.claimed >= _memberTariff.minted) {\n                uint256 mintAmount = _tariff.mintForPeriods * _tariff.payment;\n                ICoinToken(_tariff.currencyAddress).mint(address(this), mintAmount);\n                _memberTariff.minted += mintAmount;\n                _tariff.totalMinted += mintAmount;\n            }\n        }\n\n        _tariff.paymentSent += _tariff.payment * _periodsNumber;\n\n        return _memberTariff.lastTimestamp + _tariff.paymentPeriod;\n    }\n    \n    function addParticipation(address _address, bytes32 _tariff) public onlyMemberJoinManager {\n        addParticipationUnsafe(_address, _tariff);\n\n        emit ParticipationAdded(msg.sender, _address, _tariff);\n    }\n    \n    function addParticipationUnsafe(address _address, bytes32 _tariffId) internal {\n        CityLibrary.MemberTariff storage _memberTariff = memberTariffs[_address][_tariffId];\n        require(!_memberTariff.active, \"Already have tariff\");\n        participants[_address] = true;\n        activeParticipants.addSilent(_address);\n        tariffs[_tariffId].activeParticipants.add(_address);\n        allParticipants.push(_address);\n        _memberTariff.active = true;\n        \n        if(tariffs[_tariffId].currencyAddress != address(0) && tariffs[_tariffId].mintForPeriods > 0) {\n            uint256 mintAmount = tariffs[_tariffId].mintForPeriods * tariffs[_tariffId].payment;\n            ICoinToken(tariffs[_tariffId].currencyAddress).mint(address(this), mintAmount);\n            _memberTariff.minted += mintAmount;\n            tariffs[_tariffId].totalMinted += mintAmount;\n        }\n\n        activeMemberTariffs[_address].add(_tariffId);\n        _memberTariff.lastTimestamp = now - tariffs[_tariffId].paymentPeriod;\n    }\n\n    function requestParticipation(bytes32 _tariffId) public {\n        require(activeParticipants.size() < maxSupply, \"Not enough supply\");\n        require(!participants[msg.sender], \"Already participant\");\n        require(!participationRequests[msg.sender][_tariffId].sent, \"Already sent\");\n\n        participationRequests[msg.sender][_tariffId] = CityLibrary.ParticipationRequest({ sent: true, confirmed: false, confirmationsCount: 0 });\n        activeMemberRequests[msg.sender].add(_tariffId);\n        activeRequests.remove(msg.sender);\n        \n        emit ParticipationRequest(msg.sender);\n    }\n\n    function confirmParticipation(address _requested, bytes32 _tariffId) public onlyMemberJoinManager returns (uint256 count) {\n        require(activeParticipants.size() < maxSupply, \"Not enough supply\");\n        require(!participants[_requested], \"Already participant\");\n\n        CityLibrary.ParticipationRequest storage _request = participationRequests[_requested][_tariffId];\n        require(_request.sent, \"Not sent\");\n        require(!_request.confirmed, \"Already confirmed\");\n\n        require(_request.confirmations[msg.sender] == false, \"You cant confirm twice\");\n\n        _request.confirmations[msg.sender] = true;\n        _request.confirmationsCount += 1;\n\n        if(_request.confirmationsCount >= confirmsToParticipation){\n            _request.confirmed = true;\n            activeRequests.remove(_requested);\n            activeMemberRequests[_requested].remove(_tariffId);\n            addParticipationUnsafe(_requested, _tariffId);\n            emit ParticipationConfirm(_requested, msg.sender, true);\n        } else {\n            emit ParticipationConfirm(_requested, msg.sender, false);\n        }\n\n        return _request.confirmationsCount;\n    }\n\n    function confirmsOf(address _requested, bytes32 _tariffId) public view returns (uint256) {\n        return participationRequests[_requested][_tariffId].confirmationsCount;\n    }\n\n    function removeTariffParticipationUnsafe(address _member, bytes32 _tariffId) internal {\n        CityLibrary.MemberTariff storage _memberTariff = memberTariffs[_member][_tariffId];\n\n        burnRemainingFor(_member, _tariffId);\n\n        _memberTariff.claimed = 0;\n        _memberTariff.active = false;\n        activeMemberTariffs[_member].remove(_tariffId);\n        tariffs[_tariffId].activeParticipants.remove(_member);\n        \n        if(activeMemberTariffs[_member].size() == 0) {\n            participants[_member] = false;\n            activeParticipants.remove(_member);\n        }\n\n        emit ParticipationTariffRemoved(msg.sender, _member, _tariffId);\n    }\n\n    function removeAllParticipationUnsafe(address _member) internal {\n        bytes32[] memory _memberTariffs = activeMemberTariffs[_member].elements();\n        for(uint256 i = 0; i < _memberTariffs.length; i++) {\n            removeTariffParticipationUnsafe(_member, _memberTariffs[i]);\n        }\n    }\n\n    function kickAllParticipation(address _member) public onlyMemberLeaveManager {\n        require(participants[_member], \"Not participant\");\n        removeAllParticipationUnsafe(_member);\n    }\n    function leaveAllParticipation() public {\n        require(participants[msg.sender], \"Not participant\");\n        removeAllParticipationUnsafe(msg.sender);\n    }\n\n    function kickTariffParticipation(address _member, bytes32 _tariffId) public onlyMemberLeaveManager {\n        require(participants[_member], \"Not participant\");\n        removeTariffParticipationUnsafe(_member, _tariffId);\n    }\n    function leaveAllParticipation(bytes32 _tariffId) public {\n        require(participants[msg.sender], \"Not participant\");\n        removeTariffParticipationUnsafe(msg.sender, _tariffId);\n    }\n\n    function burnRemainingFor(address _member, bytes32 _tariffId) internal {\n        CityLibrary.MemberTariff storage _memberTariff = memberTariffs[_member][_tariffId];\n        CityLibrary.Tariff storage _tariff = tariffs[_tariffId];\n\n        if(_memberTariff.minted > _memberTariff.claimed && _tariff.active) {\n            uint256 burnAmount = _memberTariff.minted - _memberTariff.claimed;\n            ERC20Burnable(_tariff.currencyAddress).burn(burnAmount);\n            _tariff.totalBurned += burnAmount;\n            _memberTariff.minted = 0;\n            _memberTariff.claimed = 0;\n        }\n    }\n\n    // GETTERS\n\n    function getAllTariffs() public view returns(bytes32[] memory) {\n        return allTariffs;\n    }\n\n    function getActiveTariffs() public view returns(bytes32[] memory) {\n        return activeTariffs.elements();\n    }\n    \n    function getTariff(bytes32 _id) public view returns(\n        string memory title,\n        bool active,\n        uint256 payment,\n        uint256 paymentPeriod,\n        uint256 mintForPeriods,\n        uint256 totalMinted,\n        uint256 totalBurned,\n        uint256 paymentSent,\n        CityLibrary.TariffCurrency currency,\n        address currencyAddress\n    )\n    {\n        CityLibrary.Tariff storage t = tariffs[_id];\n        return (\n            t.title,\n            t.active,\n            t.payment,\n            t.paymentPeriod,\n            t.mintForPeriods,\n            t.totalMinted,\n            t.totalBurned,\n            t.paymentSent,\n            t.currency,\n            t.currencyAddress\n        );\n    }\n    \n    function getAllParticipants() public view returns(address[] memory) {\n        return allParticipants;\n    }\n\n    function getActiveParticipants() public view returns(address[] memory) {\n        return activeParticipants.elements();\n    }\n\n    function getActiveParticipantsCount() public view returns(uint256) {\n        return activeParticipants.size();\n    }\n    \n    function getTariffActiveParticipants(bytes32 _tariffId) public view returns(address[] memory) {\n        return tariffs[_tariffId].activeParticipants.elements();\n    }\n\n    function getTariffActiveParticipantsCount(bytes32 _tariffId) public view returns(uint256) {\n        return tariffs[_tariffId].activeParticipants.size();\n    }\n\n    function isParticipant(address _address) public view returns (bool) {\n        return participants[_address];\n    }\n    \n    function getParticipantInfo(address _member) public view returns\n    (\n        bool active, \n        bytes32[] memory tariffs\n    ) {\n        return (\n            participants[_member],\n            activeMemberTariffs[_member].elements()\n        );\n    }\n\n    function getParticipantTariffInfo(address _member, bytes32 _tariff) public view returns\n    (\n        bool active,\n        uint256 claimed,\n        uint256 minted,\n        uint256 lastTimestamp\n    ) {\n        CityLibrary.MemberTariff storage _mt = memberTariffs[_member][_tariff];\n        return (\n            _mt.active,\n            _mt.claimed,\n            _mt.minted,\n            _mt.lastTimestamp\n        );\n    }\n    \n//    function mintTokens(address tokenAddress, uint256 mintAmount) public onlyOwner {\n//        MintableToken(tokenAddress).mint(address(this), mintAmount);\n//    }\n}\n",
  "sourcePath": "/Users/jonybang/workspace/dcity/contracts/City.sol",
  "compiler": {
    "name": "solc",
    "version": "0.5.16+commit.9c3226ce.Emscripten.clang"
  },
  "schemaVersion": "3.0.20",
  "updatedAt": "2020-03-30T10:04:35.152Z",
  "devdoc": {
    "methods": {
      "isOwner()": {
        "details": "Returns true if the caller is the current owner."
      },
      "owner()": {
        "details": "Returns the address of the current owner."
      },
      "renounceOwnership()": {
        "details": "Leaves the contract without owner. It will not be possible to call `onlyOwner` functions anymore. Can only be called by the current owner.     * NOTE: Renouncing ownership will leave the contract without an owner, thereby removing any functionality that is only available to the owner."
      },
      "transferOwnership(address)": {
        "details": "Transfers ownership of the contract to a new account (`newOwner`). Can only be called by the current owner."
      }
    }
  },
  "userdoc": {
    "methods": {}
  }
}