{
  "contractName": "City",
  "abi": [
    {
      "constant": true,
      "inputs": [],
      "name": "name",
      "outputs": [
        {
          "name": "",
          "type": "string"
        }
      ],
      "payable": false,
      "stateMutability": "view",
      "type": "function"
    },
    {
      "constant": true,
      "inputs": [
        {
          "name": "_operator",
          "type": "address"
        },
        {
          "name": "_role",
          "type": "string"
        }
      ],
      "name": "checkRole",
      "outputs": [],
      "payable": false,
      "stateMutability": "view",
      "type": "function"
    },
    {
      "constant": true,
      "inputs": [
        {
          "name": "",
          "type": "address"
        }
      ],
      "name": "participants",
      "outputs": [
        {
          "name": "",
          "type": "bool"
        }
      ],
      "payable": false,
      "stateMutability": "view",
      "type": "function"
    },
    {
      "constant": true,
      "inputs": [
        {
          "name": "_operator",
          "type": "address"
        },
        {
          "name": "_role",
          "type": "string"
        }
      ],
      "name": "hasRole",
      "outputs": [
        {
          "name": "",
          "type": "bool"
        }
      ],
      "payable": false,
      "stateMutability": "view",
      "type": "function"
    },
    {
      "constant": true,
      "inputs": [],
      "name": "confirmsToParticipation",
      "outputs": [
        {
          "name": "",
          "type": "uint256"
        }
      ],
      "payable": false,
      "stateMutability": "view",
      "type": "function"
    },
    {
      "constant": true,
      "inputs": [],
      "name": "symbol",
      "outputs": [
        {
          "name": "",
          "type": "string"
        }
      ],
      "payable": false,
      "stateMutability": "view",
      "type": "function"
    },
    {
      "constant": true,
      "inputs": [],
      "name": "CITY_MANAGER_ROLE",
      "outputs": [
        {
          "name": "",
          "type": "string"
        }
      ],
      "payable": false,
      "stateMutability": "view",
      "type": "function"
    },
    {
      "constant": true,
      "inputs": [],
      "name": "maxSupply",
      "outputs": [
        {
          "name": "",
          "type": "uint256"
        }
      ],
      "payable": false,
      "stateMutability": "view",
      "type": "function"
    },
    {
      "inputs": [
        {
          "name": "_maxSupply",
          "type": "uint256"
        },
        {
          "name": "_name",
          "type": "string"
        },
        {
          "name": "_symbol",
          "type": "string"
        }
      ],
      "payable": false,
      "stateMutability": "nonpayable",
      "type": "constructor"
    },
    {
      "payable": true,
      "stateMutability": "payable",
      "type": "fallback"
    },
    {
      "anonymous": false,
      "inputs": [
        {
          "indexed": false,
          "name": "id",
          "type": "bytes32"
        },
        {
          "indexed": false,
          "name": "title",
          "type": "string"
        },
        {
          "indexed": false,
          "name": "payment",
          "type": "uint256"
        },
        {
          "indexed": false,
          "name": "paymentPeriod",
          "type": "uint256"
        },
        {
          "indexed": false,
          "name": "currency",
          "type": "uint8"
        },
        {
          "indexed": false,
          "name": "currencyAddress",
          "type": "address"
        }
      ],
      "name": "TariffCreated",
      "type": "event"
    },
    {
      "anonymous": false,
      "inputs": [
        {
          "indexed": false,
          "name": "id",
          "type": "bytes32"
        },
        {
          "indexed": false,
          "name": "title",
          "type": "string"
        },
        {
          "indexed": false,
          "name": "payment",
          "type": "uint256"
        },
        {
          "indexed": false,
          "name": "paymentPeriod",
          "type": "uint256"
        },
        {
          "indexed": false,
          "name": "currency",
          "type": "uint8"
        },
        {
          "indexed": false,
          "name": "currencyAddress",
          "type": "address"
        }
      ],
      "name": "TariffEdited",
      "type": "event"
    },
    {
      "anonymous": false,
      "inputs": [
        {
          "indexed": false,
          "name": "id",
          "type": "bytes32"
        },
        {
          "indexed": false,
          "name": "active",
          "type": "bool"
        }
      ],
      "name": "TariffActiveChanged",
      "type": "event"
    },
    {
      "anonymous": false,
      "inputs": [
        {
          "indexed": false,
          "name": "requested",
          "type": "address"
        }
      ],
      "name": "ParticipationRequest",
      "type": "event"
    },
    {
      "anonymous": false,
      "inputs": [
        {
          "indexed": false,
          "name": "requested",
          "type": "address"
        },
        {
          "indexed": false,
          "name": "confirmed",
          "type": "address"
        },
        {
          "indexed": false,
          "name": "fully",
          "type": "bool"
        }
      ],
      "name": "ParticipationConfirm",
      "type": "event"
    },
    {
      "anonymous": false,
      "inputs": [
        {
          "indexed": false,
          "name": "cityManager",
          "type": "address"
        },
        {
          "indexed": false,
          "name": "member",
          "type": "address"
        },
        {
          "indexed": false,
          "name": "tariff",
          "type": "bytes32"
        }
      ],
      "name": "ParticipationAdded",
      "type": "event"
    },
    {
      "anonymous": false,
      "inputs": [
        {
          "indexed": false,
          "name": "cityManager",
          "type": "address"
        },
        {
          "indexed": false,
          "name": "member",
          "type": "address"
        },
        {
          "indexed": false,
          "name": "tariff",
          "type": "bytes32"
        }
      ],
      "name": "ParticipationTariffChanged",
      "type": "event"
    },
    {
      "anonymous": false,
      "inputs": [
        {
          "indexed": true,
          "name": "operator",
          "type": "address"
        },
        {
          "indexed": false,
          "name": "role",
          "type": "string"
        }
      ],
      "name": "RoleAdded",
      "type": "event"
    },
    {
      "anonymous": false,
      "inputs": [
        {
          "indexed": true,
          "name": "operator",
          "type": "address"
        },
        {
          "indexed": false,
          "name": "role",
          "type": "string"
        }
      ],
      "name": "RoleRemoved",
      "type": "event"
    },
    {
      "constant": false,
      "inputs": [
        {
          "name": "_title",
          "type": "string"
        },
        {
          "name": "_payment",
          "type": "uint256"
        },
        {
          "name": "_paymentPeriod",
          "type": "uint256"
        },
        {
          "name": "_currency",
          "type": "uint8"
        },
        {
          "name": "_currencyAddress",
          "type": "address"
        }
      ],
      "name": "createTariff",
      "outputs": [
        {
          "name": "",
          "type": "bytes32"
        }
      ],
      "payable": false,
      "stateMutability": "nonpayable",
      "type": "function"
    },
    {
      "constant": false,
      "inputs": [
        {
          "name": "_id",
          "type": "bytes32"
        },
        {
          "name": "_active",
          "type": "bool"
        }
      ],
      "name": "setTariffActive",
      "outputs": [],
      "payable": false,
      "stateMutability": "nonpayable",
      "type": "function"
    },
    {
      "constant": false,
      "inputs": [
        {
          "name": "_id",
          "type": "bytes32"
        },
        {
          "name": "_title",
          "type": "string"
        },
        {
          "name": "_payment",
          "type": "uint256"
        },
        {
          "name": "_paymentPeriod",
          "type": "uint256"
        },
        {
          "name": "_currency",
          "type": "uint8"
        },
        {
          "name": "_currencyAddress",
          "type": "address"
        }
      ],
      "name": "editTariff",
      "outputs": [],
      "payable": false,
      "stateMutability": "nonpayable",
      "type": "function"
    },
    {
      "constant": false,
      "inputs": [
        {
          "name": "_maxSupply",
          "type": "uint256"
        }
      ],
      "name": "setMaxSupply",
      "outputs": [],
      "payable": false,
      "stateMutability": "nonpayable",
      "type": "function"
    },
    {
      "constant": false,
      "inputs": [
        {
          "name": "_confirmsToParticipation",
          "type": "uint256"
        }
      ],
      "name": "setConfirmsToParticipation",
      "outputs": [],
      "payable": false,
      "stateMutability": "nonpayable",
      "type": "function"
    },
    {
      "constant": false,
      "inputs": [
        {
          "name": "claimFor",
          "type": "address"
        },
        {
          "name": "periodsNumber",
          "type": "uint256"
        }
      ],
      "name": "claimPayment",
      "outputs": [
        {
          "name": "nextDate",
          "type": "uint256"
        }
      ],
      "payable": false,
      "stateMutability": "nonpayable",
      "type": "function"
    },
    {
      "constant": true,
      "inputs": [
        {
          "name": "_address",
          "type": "address"
        }
      ],
      "name": "isParticipant",
      "outputs": [
        {
          "name": "",
          "type": "bool"
        }
      ],
      "payable": false,
      "stateMutability": "view",
      "type": "function"
    },
    {
      "constant": false,
      "inputs": [
        {
          "name": "_address",
          "type": "address"
        },
        {
          "name": "_tariff",
          "type": "bytes32"
        }
      ],
      "name": "addParticipation",
      "outputs": [],
      "payable": false,
      "stateMutability": "nonpayable",
      "type": "function"
    },
    {
      "constant": false,
      "inputs": [
        {
          "name": "_address",
          "type": "address"
        },
        {
          "name": "_tariff",
          "type": "bytes32"
        }
      ],
      "name": "changeParticipationTariff",
      "outputs": [],
      "payable": false,
      "stateMutability": "nonpayable",
      "type": "function"
    },
    {
      "constant": false,
      "inputs": [
        {
          "name": "_tariff",
          "type": "bytes32"
        }
      ],
      "name": "requestParticipation",
      "outputs": [],
      "payable": false,
      "stateMutability": "nonpayable",
      "type": "function"
    },
    {
      "constant": false,
      "inputs": [
        {
          "name": "_requested",
          "type": "address"
        }
      ],
      "name": "confirmParticipation",
      "outputs": [
        {
          "name": "count",
          "type": "uint256"
        }
      ],
      "payable": false,
      "stateMutability": "nonpayable",
      "type": "function"
    },
    {
      "constant": true,
      "inputs": [
        {
          "name": "_requested",
          "type": "address"
        }
      ],
      "name": "confirmsOf",
      "outputs": [
        {
          "name": "",
          "type": "uint256"
        }
      ],
      "payable": false,
      "stateMutability": "view",
      "type": "function"
    },
    {
      "constant": false,
      "inputs": [
        {
          "name": "_participant",
          "type": "address"
        }
      ],
      "name": "kickParticipation",
      "outputs": [],
      "payable": false,
      "stateMutability": "nonpayable",
      "type": "function"
    },
    {
      "constant": false,
      "inputs": [],
      "name": "leaveParticipation",
      "outputs": [],
      "payable": false,
      "stateMutability": "nonpayable",
      "type": "function"
    },
    {
      "constant": false,
      "inputs": [
        {
          "name": "_operator",
          "type": "address"
        },
        {
          "name": "_role",
          "type": "string"
        }
      ],
      "name": "addRoleTo",
      "outputs": [],
      "payable": false,
      "stateMutability": "nonpayable",
      "type": "function"
    },
    {
      "constant": false,
      "inputs": [
        {
          "name": "_operator",
          "type": "address"
        },
        {
          "name": "_role",
          "type": "string"
        }
      ],
      "name": "removeRoleFrom",
      "outputs": [],
      "payable": false,
      "stateMutability": "nonpayable",
      "type": "function"
    },
    {
      "constant": true,
      "inputs": [],
      "name": "getAllTariffs",
      "outputs": [
        {
          "name": "",
          "type": "bytes32[]"
        }
      ],
      "payable": false,
      "stateMutability": "view",
      "type": "function"
    },
    {
      "constant": true,
      "inputs": [],
      "name": "getActiveTariffs",
      "outputs": [
        {
          "name": "",
          "type": "bytes32[]"
        }
      ],
      "payable": false,
      "stateMutability": "view",
      "type": "function"
    },
    {
      "constant": true,
      "inputs": [
        {
          "name": "_id",
          "type": "bytes32"
        }
      ],
      "name": "getTariff",
      "outputs": [
        {
          "name": "title",
          "type": "string"
        },
        {
          "name": "active",
          "type": "bool"
        },
        {
          "name": "payment",
          "type": "uint256"
        },
        {
          "name": "paymentPeriod",
          "type": "uint256"
        },
        {
          "name": "paymentSent",
          "type": "uint256"
        },
        {
          "name": "currency",
          "type": "uint8"
        },
        {
          "name": "currencyAddress",
          "type": "address"
        }
      ],
      "payable": false,
      "stateMutability": "view",
      "type": "function"
    },
    {
      "constant": true,
      "inputs": [],
      "name": "getAllParticipants",
      "outputs": [
        {
          "name": "",
          "type": "address[]"
        }
      ],
      "payable": false,
      "stateMutability": "view",
      "type": "function"
    },
    {
      "constant": true,
      "inputs": [],
      "name": "getActiveParticipants",
      "outputs": [
        {
          "name": "",
          "type": "address[]"
        }
      ],
      "payable": false,
      "stateMutability": "view",
      "type": "function"
    },
    {
      "constant": true,
      "inputs": [],
      "name": "getActiveParticipantsCount",
      "outputs": [
        {
          "name": "",
          "type": "uint256"
        }
      ],
      "payable": false,
      "stateMutability": "view",
      "type": "function"
    },
    {
      "constant": true,
      "inputs": [
        {
          "name": "_participant",
          "type": "address"
        }
      ],
      "name": "getParticipantInfo",
      "outputs": [
        {
          "name": "active",
          "type": "bool"
        },
        {
          "name": "tariff",
          "type": "bytes32"
        },
        {
          "name": "totalAmount",
          "type": "uint256"
        },
        {
          "name": "lastTimestamp",
          "type": "uint256"
        }
      ],
      "payable": false,
      "stateMutability": "view",
      "type": "function"
    },
    {
      "constant": false,
      "inputs": [
        {
          "name": "tokenAddress",
          "type": "address"
        },
        {
          "name": "mintAmount",
          "type": "uint256"
        }
      ],
      "name": "mintTokens",
      "outputs": [],
      "payable": false,
      "stateMutability": "nonpayable",
      "type": "function"
    }
  ],
  "bytecode": "0x60806040523480156200001157600080fd5b50604051620052be380380620052be83398101806040528101908080519060200190929190805182019291906020018051820192919050505082600381905550816001908051906020019062000069929190620004ea565b50806002908051906020019062000082929190620004ea565b506001600481905550620000e0336040805190810160405280600c81526020017f636974795f6d616e6167657200000000000000000000000000000000000000008152506200016564010000000002620045d4176401000000009004565b6001600560003373ffffffffffffffffffffffffffffffffffffffff1673ffffffffffffffffffffffffffffffffffffffff16815260200190815260200160002060006101000a81548160ff0219169083151502179055506200015c336006620002ae640100000000026200439e179091906401000000009004565b50505062000599565b620001f4826000836040518082805190602001908083835b602083101515620001a457805182526020820191506020810190506020830392506200017d565b6001836020036101000a03801982511681845116808217855250505050505090500191505090815260200160405180910390206200048c64010000000002620049ad179091906401000000009004565b8173ffffffffffffffffffffffffffffffffffffffff167fbfec83d64eaa953f2708271a023ab9ee82057f8f3578d548c1a4ba0b5b700489826040518080602001828103825283818151815260200191508051906020019080838360005b838110156200026f57808201518184015260208101905062000252565b50505050905090810190601f1680156200029d5780820380516001836020036101000a031916815260200191505b509250505060405180910390a25050565b600015158260020160008373ffffffffffffffffffffffffffffffffffffffff1673ffffffffffffffffffffffffffffffffffffffff16815260200190815260200160002060009054906101000a900460ff16151514151562000379576040517f08c379a00000000000000000000000000000000000000000000000000000000081526004018080602001828103825260168152602001807f456c656d656e7420616c7265616479206578697374730000000000000000000081525060200191505060405180910390fd5b81600001805490508260010160008373ffffffffffffffffffffffffffffffffffffffff1673ffffffffffffffffffffffffffffffffffffffff1681526020019081526020016000208190555060018260020160008373ffffffffffffffffffffffffffffffffffffffff1673ffffffffffffffffffffffffffffffffffffffff16815260200190815260200160002060006101000a81548160ff021916908315150217905550816000018190806001815401808255809150509060018203906000526020600020016000909192909190916101000a81548173ffffffffffffffffffffffffffffffffffffffff021916908373ffffffffffffffffffffffffffffffffffffffff160217905550505050565b60018260000160008373ffffffffffffffffffffffffffffffffffffffff1673ffffffffffffffffffffffffffffffffffffffff16815260200190815260200160002060006101000a81548160ff0219169083151502179055505050565b828054600181600116156101000203166002900490600052602060002090601f016020900481019282601f106200052d57805160ff19168380011785556200055e565b828001600101855582156200055e579182015b828111156200055d57825182559160200191906001019062000540565b5b5090506200056d919062000571565b5090565b6200059691905b808211156200059257600081600090555060010162000578565b5090565b90565b614d1580620005a96000396000f300608060405260043610610196576000357c0100000000000000000000000000000000000000000000000000000000900463ffffffff168063066d7e641461019857806306fdde03146102045780630988ca8c1461029457806309e69ede1461031d5780630cd7947b146103785780630d31e2ea146103cf5780630fb0d1e514610458578063195ec9ee14610489578063217fe6c6146104f5578063361ec9aa14610596578063430d07b0146105ed5780635a09a8db1461063e5780636e0f5ec1146106555780636f8b44b01461068057806371bdce55146106ad578063726661c314610725578063790c7316146107ae578063929066f51461081a57806395d89b41146108755780639ca42fe314610905578063b1cc366b14610930578063bb748681146109e8578063bcc73d5d14610a39578063c4e158aa14610a7c578063d376ed2f14610b0c578063d42d14cd14610b78578063d5abeb0114610c3e578063e97c41d914610c69578063f0dda65c14610d7b578063fab4bdf814610dc8578063fb1dc11714610df5578063ff264b1614610e32575b005b3480156101a457600080fd5b506101ad610e93565b6040518080602001828103825283818151815260200191508051906020019060200280838360005b838110156101f05780820151818401526020810190506101d5565b505050509050019250505060405180910390f35b34801561021057600080fd5b50610219610ea4565b6040518080602001828103825283818151815260200191508051906020019080838360005b8381101561025957808201518184015260208101905061023e565b50505050905090810190601f1680156102865780820380516001836020036101000a031916815260200191505b509250505060405180910390f35b3480156102a057600080fd5b5061031b600480360381019080803573ffffffffffffffffffffffffffffffffffffffff169060200190929190803590602001908201803590602001908080601f0160208091040260200160405190810160405280939291908181526020018383808284378201915050505050509192919290505050610f42565b005b34801561032957600080fd5b5061035e600480360381019080803573ffffffffffffffffffffffffffffffffffffffff169060200190929190505050610fc3565b604051808215151515815260200191505060405180910390f35b34801561038457600080fd5b506103b9600480360381019080803573ffffffffffffffffffffffffffffffffffffffff169060200190929190505050610fe3565b6040518082815260200191505060405180910390f35b3480156103db57600080fd5b50610456600480360381019080803573ffffffffffffffffffffffffffffffffffffffff169060200190929190803590602001908201803590602001908080601f01602080910402602001604051908101604052809392919081815260200183838082843782019150505050505091929192905050506117f6565b005b34801561046457600080fd5b5061048760048036038101908080356000191690602001909291905050506118b7565b005b34801561049557600080fd5b5061049e611c03565b6040518080602001828103825283818151815260200191508051906020019060200280838360005b838110156104e15780820151818401526020810190506104c6565b505050509050019250505060405180910390f35b34801561050157600080fd5b5061057c600480360381019080803573ffffffffffffffffffffffffffffffffffffffff169060200190929190803590602001908201803590602001908080601f0160208091040260200160405190810160405280939291908181526020018383808284378201915050505050509192919290505050611c91565b604051808215151515815260200191505060405180910390f35b3480156105a257600080fd5b506105d7600480360381019080803573ffffffffffffffffffffffffffffffffffffffff169060200190929190505050611d18565b6040518082815260200191505060405180910390f35b3480156105f957600080fd5b5061063c600480360381019080803573ffffffffffffffffffffffffffffffffffffffff1690602001909291908035600019169060200190929190505050611d64565b005b34801561064a57600080fd5b50610653611f8e565b005b34801561066157600080fd5b5061066a6120bd565b6040518082815260200191505060405180910390f35b34801561068c57600080fd5b506106ab600480360381019080803590602001909291905050506120c3565b005b3480156106b957600080fd5b506106ee600480360381019080803573ffffffffffffffffffffffffffffffffffffffff169060200190929190505050612180565b6040518085151515158152602001846000191660001916815260200183815260200182815260200194505050505060405180910390f35b34801561073157600080fd5b506107ac600480360381019080803573ffffffffffffffffffffffffffffffffffffffff169060200190929190803590602001908201803590602001908080601f0160208091040260200160405190810160405280939291908181526020018383808284378201915050505050509192919290505050612235565b005b3480156107ba57600080fd5b506107c36122f6565b6040518080602001828103825283818151815260200191508051906020019060200280838360005b838110156108065780820151818401526020810190506107eb565b505050509050019250505060405180910390f35b34801561082657600080fd5b5061085b600480360381019080803573ffffffffffffffffffffffffffffffffffffffff169060200190929190505050612352565b604051808215151515815260200191505060405180910390f35b34801561088157600080fd5b5061088a6123a8565b6040518080602001828103825283818151815260200191508051906020019080838360005b838110156108ca5780820151818401526020810190506108af565b50505050905090810190601f1680156108f75780820380516001836020036101000a031916815260200191505b509250505060405180910390f35b34801561091157600080fd5b5061091a612446565b6040518082815260200191505060405180910390f35b34801561093c57600080fd5b506109e66004803603810190808035600019169060200190929190803590602001908201803590602001908080601f01602080910402602001604051908101604052809392919081815260200183838082843782019150505050505091929192908035906020019092919080359060200190929190803560ff169060200190929190803573ffffffffffffffffffffffffffffffffffffffff169060200190929190505050612457565b005b3480156109f457600080fd5b50610a37600480360381019080803573ffffffffffffffffffffffffffffffffffffffff1690602001909291908035600019169060200190929190505050612730565b005b348015610a4557600080fd5b50610a7a600480360381019080803573ffffffffffffffffffffffffffffffffffffffff169060200190929190505050612921565b005b348015610a8857600080fd5b50610a91612b04565b6040518080602001828103825283818151815260200191508051906020019080838360005b83811015610ad1578082015181840152602081019050610ab6565b50505050905090810190601f168015610afe5780820380516001836020036101000a031916815260200191505b509250505060405180910390f35b348015610b1857600080fd5b50610b21612b3d565b6040518080602001828103825283818151815260200191508051906020019060200280838360005b83811015610b64578082015181840152602081019050610b49565b505050509050019250505060405180910390f35b348015610b8457600080fd5b50610c20600480360381019080803590602001908201803590602001908080601f01602080910402602001604051908101604052809392919081815260200183838082843782019150505050505091929192908035906020019092919080359060200190929190803560ff169060200190929190803573ffffffffffffffffffffffffffffffffffffffff169060200190929190505050612b4e565b60405180826000191660001916815260200191505060405180910390f35b348015610c4a57600080fd5b50610c53613067565b6040518082815260200191505060405180910390f35b348015610c7557600080fd5b50610c98600480360381019080803560001916906020019092919050505061306d565b604051808060200188151515158152602001878152602001868152602001858152602001846001811115610cc857fe5b60ff1681526020018373ffffffffffffffffffffffffffffffffffffffff1673ffffffffffffffffffffffffffffffffffffffff168152602001828103825289818151815260200191508051906020019080838360005b83811015610d3a578082015181840152602081019050610d1f565b50505050905090810190601f168015610d675780820380516001836020036101000a031916815260200191505b509850505050505050505060405180910390f35b348015610d8757600080fd5b50610dc6600480360381019080803573ffffffffffffffffffffffffffffffffffffffff169060200190929190803590602001909291905050506131a9565b005b348015610dd457600080fd5b50610df36004803603810190808035906020019092919050505061333f565b005b348015610e0157600080fd5b50610e3060048036038101908080356000191690602001909291908035151590602001909291905050506133fc565b005b348015610e3e57600080fd5b50610e7d600480360381019080803573ffffffffffffffffffffffffffffffffffffffff1690602001909291908035906020019092919050505061360f565b6040518082815260200191505060405180910390f35b6060610e9f6006613cb4565b905090565b60018054600181600116156101000203166002900480601f016020809104026020016040519081016040528092919081815260200182805460018160011615610100020316600290048015610f3a5780601f10610f0f57610100808354040283529160200191610f3a565b820191906000526020600020905b815481529060010190602001808311610f1d57829003601f168201915b505050505081565b610fbf826000836040518082805190602001908083835b602083101515610f7e5780518252602082019150602081019050602083039250610f59565b6001836020036101000a0380198251168184511680821785525050505050509050019150509081526020016040518091039020613d4690919063ffffffff16565b5050565b60056020528060005260406000206000915054906101000a900460ff1681565b6000611024336040805190810160405280600c81526020017f636974795f6d616e616765720000000000000000000000000000000000000000815250611c91565b1515611098576040517f08c379a00000000000000000000000000000000000000000000000000000000081526004018080602001828103825260118152602001807f4f6e6c792063697479206d616e6167657200000000000000000000000000000081525060200191505060405180910390fd5b6003546110a56006613d5f565b10151561111a576040517f08c379a00000000000000000000000000000000000000000000000000000000081526004018080602001828103825260118152602001807f4e6f7420656e6f75676820737570706c7900000000000000000000000000000081525060200191505060405180910390fd5b600560008373ffffffffffffffffffffffffffffffffffffffff1673ffffffffffffffffffffffffffffffffffffffff16815260200190815260200160002060009054906101000a900460ff161515156111dc576040517f08c379a00000000000000000000000000000000000000000000000000000000081526004018080602001828103825260138152602001807f416c7265616479207061727469636970616e740000000000000000000000000081525060200191505060405180910390fd5b600b60008373ffffffffffffffffffffffffffffffffffffffff1673ffffffffffffffffffffffffffffffffffffffff16815260200190815260200160002060010160009054906101000a900460ff1615156112a0576040517f08c379a00000000000000000000000000000000000000000000000000000000081526004018080602001828103825260088152602001807f4e6f742073656e7400000000000000000000000000000000000000000000000081525060200191505060405180910390fd5b600b60008373ffffffffffffffffffffffffffffffffffffffff1673ffffffffffffffffffffffffffffffffffffffff16815260200190815260200160002060010160019054906101000a900460ff16151515611365576040517f08c379a00000000000000000000000000000000000000000000000000000000081526004018080602001828103825260118152602001807f416c726561647920636f6e6669726d656400000000000000000000000000000081525060200191505060405180910390fd5b60001515600b60008473ffffffffffffffffffffffffffffffffffffffff1673ffffffffffffffffffffffffffffffffffffffff16815260200190815260200160002060030160003373ffffffffffffffffffffffffffffffffffffffff1673ffffffffffffffffffffffffffffffffffffffff16815260200190815260200160002060009054906101000a900460ff16151514151561146d576040517f08c379a00000000000000000000000000000000000000000000000000000000081526004018080602001828103825260168152602001807f596f752063616e7420636f6e6669726d2074776963650000000000000000000081525060200191505060405180910390fd5b6001600b60008473ffffffffffffffffffffffffffffffffffffffff1673ffffffffffffffffffffffffffffffffffffffff16815260200190815260200160002060030160003373ffffffffffffffffffffffffffffffffffffffff1673ffffffffffffffffffffffffffffffffffffffff16815260200190815260200160002060006101000a81548160ff0219169083151502179055506001600b60008473ffffffffffffffffffffffffffffffffffffffff1673ffffffffffffffffffffffffffffffffffffffff16815260200190815260200160002060020160008282540192505081905550600454600b60008473ffffffffffffffffffffffffffffffffffffffff1673ffffffffffffffffffffffffffffffffffffffff16815260200190815260200160002060020154101515611707576001600b60008473ffffffffffffffffffffffffffffffffffffffff1673ffffffffffffffffffffffffffffffffffffffff16815260200190815260200160002060010160016101000a81548160ff02191690831515021790555061161282600c613d7090919063ffffffff16565b61165e82600b60008573ffffffffffffffffffffffffffffffffffffffff1673ffffffffffffffffffffffffffffffffffffffff168152602001908152602001600020600001546140e2565b7f1c770a93731be70342e4d215a67c2d277f8c1ca326da36fa3ec3c6e022706a4682336001604051808473ffffffffffffffffffffffffffffffffffffffff1673ffffffffffffffffffffffffffffffffffffffff1681526020018373ffffffffffffffffffffffffffffffffffffffff1673ffffffffffffffffffffffffffffffffffffffff16815260200182151515158152602001935050505060405180910390a16117ac565b7f1c770a93731be70342e4d215a67c2d277f8c1ca326da36fa3ec3c6e022706a4682336000604051808473ffffffffffffffffffffffffffffffffffffffff1673ffffffffffffffffffffffffffffffffffffffff1681526020018373ffffffffffffffffffffffffffffffffffffffff1673ffffffffffffffffffffffffffffffffffffffff16815260200182151515158152602001935050505060405180910390a15b600b60008373ffffffffffffffffffffffffffffffffffffffff1673ffffffffffffffffffffffffffffffffffffffff168152602001908152602001600020600201549050919050565b611835336040805190810160405280600c81526020017f636974795f6d616e616765720000000000000000000000000000000000000000815250611c91565b15156118a9576040517f08c379a00000000000000000000000000000000000000000000000000000000081526004018080602001828103825260118152602001807f4f6e6c792063697479206d616e6167657200000000000000000000000000000081525060200191505060405180910390fd5b6118b3828261426a565b5050565b6003546118c46006613d5f565b101515611939576040517f08c379a00000000000000000000000000000000000000000000000000000000081526004018080602001828103825260118152602001807f4e6f7420656e6f75676820737570706c7900000000000000000000000000000081525060200191505060405180910390fd5b600560003373ffffffffffffffffffffffffffffffffffffffff1673ffffffffffffffffffffffffffffffffffffffff16815260200190815260200160002060009054906101000a900460ff161515156119fb576040517f08c379a00000000000000000000000000000000000000000000000000000000081526004018080602001828103825260138152602001807f416c7265616479207061727469636970616e740000000000000000000000000081525060200191505060405180910390fd5b600b60003373ffffffffffffffffffffffffffffffffffffffff1673ffffffffffffffffffffffffffffffffffffffff16815260200190815260200160002060010160009054906101000a900460ff16151515611ac0576040517f08c379a000000000000000000000000000000000000000000000000000000000815260040180806020018281038252600c8152602001807f416c72656164792073656e74000000000000000000000000000000000000000081525060200191505060405180910390fd5b608060405190810160405280826000191681526020016001151581526020016000151581526020016000815250600b60003373ffffffffffffffffffffffffffffffffffffffff1673ffffffffffffffffffffffffffffffffffffffff1681526020019081526020016000206000820151816000019060001916905560208201518160010160006101000a81548160ff02191690831515021790555060408201518160010160016101000a81548160ff02191690831515021790555060608201518160020155905050611b9d33600c61439e90919063ffffffff16565b7f1397ce7201c0e8ab68be45be2eac362cd7fbbb9a82a909bbc6bb49a1e4545ca633604051808273ffffffffffffffffffffffffffffffffffffffff1673ffffffffffffffffffffffffffffffffffffffff16815260200191505060405180910390a150565b60606009805480602002602001604051908101604052809291908181526020018280548015611c8757602002820191906000526020600020905b8160009054906101000a900473ffffffffffffffffffffffffffffffffffffffff1673ffffffffffffffffffffffffffffffffffffffff1681526020019060010190808311611c3d575b5050505050905090565b6000611d10836000846040518082805190602001908083835b602083101515611ccf5780518252602082019150602081019050602083039250611caa565b6001836020036101000a038019825116818451168082178552505050505050905001915050908152602001604051809103902061457b90919063ffffffff16565b905092915050565b6000600b60008373ffffffffffffffffffffffffffffffffffffffff1673ffffffffffffffffffffffffffffffffffffffff168152602001908152602001600020600201549050919050565b611da3336040805190810160405280600c81526020017f636974795f6d616e616765720000000000000000000000000000000000000000815250611c91565b1515611e17576040517f08c379a00000000000000000000000000000000000000000000000000000000081526004018080602001828103825260118152602001807f4f6e6c792063697479206d616e6167657200000000000000000000000000000081525060200191505060405180910390fd5b600560008373ffffffffffffffffffffffffffffffffffffffff1673ffffffffffffffffffffffffffffffffffffffff16815260200190815260200160002060009054906101000a900460ff16151515611ed9576040517f08c379a00000000000000000000000000000000000000000000000000000000081526004018080602001828103825260138152602001807f416c7265616479207061727469636970616e740000000000000000000000000081525060200191505060405180910390fd5b611ee382826140e2565b7fba5fe7468094ee0772588103af3bff67a6a41f671684a5081caf6cbb7c6c4b85338383604051808473ffffffffffffffffffffffffffffffffffffffff1673ffffffffffffffffffffffffffffffffffffffff1681526020018373ffffffffffffffffffffffffffffffffffffffff1673ffffffffffffffffffffffffffffffffffffffff1681526020018260001916600019168152602001935050505060405180910390a15050565b600560003373ffffffffffffffffffffffffffffffffffffffff1673ffffffffffffffffffffffffffffffffffffffff16815260200190815260200160002060009054906101000a900460ff16151561204f576040517f08c379a000000000000000000000000000000000000000000000000000000000815260040180806020018281038252600f8152602001807f4e6f74207061727469636970616e74000000000000000000000000000000000081525060200191505060405180910390fd5b6000600560003373ffffffffffffffffffffffffffffffffffffffff1673ffffffffffffffffffffffffffffffffffffffff16815260200190815260200160002060006101000a81548160ff0219169083151502179055506120bb336006613d7090919063ffffffff16565b565b60045481565b612102336040805190810160405280600c81526020017f636974795f6d616e616765720000000000000000000000000000000000000000815250611c91565b1515612176576040517f08c379a00000000000000000000000000000000000000000000000000000000081526004018080602001828103825260118152602001807f4f6e6c792063697479206d616e6167657200000000000000000000000000000081525060200191505060405180910390fd5b8060038190555050565b6000806000806000600a60008773ffffffffffffffffffffffffffffffffffffffff1673ffffffffffffffffffffffffffffffffffffffff1681526020019081526020016000209050600560008773ffffffffffffffffffffffffffffffffffffffff1673ffffffffffffffffffffffffffffffffffffffff16815260200190815260200160002060009054906101000a900460ff168160000154826002015483600101549450945094509450509193509193565b612274336040805190810160405280600c81526020017f636974795f6d616e616765720000000000000000000000000000000000000000815250611c91565b15156122e8576040517f08c379a00000000000000000000000000000000000000000000000000000000081526004018080602001828103825260118152602001807f4f6e6c792063697479206d616e6167657200000000000000000000000000000081525060200191505060405180910390fd5b6122f282826145d4565b5050565b6060601380548060200260200160405190810160405280929190818152602001828054801561234857602002820191906000526020600020905b81546000191681526020019060010190808311612330575b5050505050905090565b6000600560008373ffffffffffffffffffffffffffffffffffffffff1673ffffffffffffffffffffffffffffffffffffffff16815260200190815260200160002060009054906101000a900460ff169050919050565b60028054600181600116156101000203166002900480601f01602080910402602001604051908101604052809291908181526020018280546001816001161561010002031660029004801561243e5780601f106124135761010080835404028352916020019161243e565b820191906000526020600020905b81548152906001019060200180831161242157829003601f168201915b505050505081565b60006124526006613d5f565b905090565b612496336040805190810160405280600c81526020017f636974795f6d616e616765720000000000000000000000000000000000000000815250611c91565b151561250a576040517f08c379a00000000000000000000000000000000000000000000000000000000081526004018080602001828103825260118152602001807f4f6e6c792063697479206d616e6167657200000000000000000000000000000081525060200191505060405180910390fd5b84600f60008860001916600019168152602001908152602001600020600001908051906020019061253c929190614bc7565b5083600f600088600019166000191681526020019081526020016000206002018190555082600f600088600019166000191681526020019081526020016000206003018190555081600f6000886000191660001916815260200190815260200160002060050160006101000a81548160ff021916908360018111156125bd57fe5b021790555080600f6000886000191660001916815260200190815260200160002060050160016101000a81548173ffffffffffffffffffffffffffffffffffffffff021916908373ffffffffffffffffffffffffffffffffffffffff1602179055507ffdc8ac7f63e39d6ab84a96a650333013eec6a444dd3aab4a9673742dcaee8e878686868686600181111561265057fe5b86604051808760001916600019168152602001806020018681526020018581526020018460ff1660ff1681526020018373ffffffffffffffffffffffffffffffffffffffff1673ffffffffffffffffffffffffffffffffffffffff168152602001828103825287818151815260200191508051906020019080838360005b838110156126e95780820151818401526020810190506126ce565b50505050905090810190601f1680156127165780820380516001836020036101000a031916815260200191505b5097505050505050505060405180910390a1505050505050565b61276f336040805190810160405280600c81526020017f636974795f6d616e616765720000000000000000000000000000000000000000815250611c91565b15156127e3576040517f08c379a00000000000000000000000000000000000000000000000000000000081526004018080602001828103825260118152602001807f4f6e6c792063697479206d616e6167657200000000000000000000000000000081525060200191505060405180910390fd5b80600a60008473ffffffffffffffffffffffffffffffffffffffff1673ffffffffffffffffffffffffffffffffffffffff16815260200190815260200160002060000181600019169055506000600a60008473ffffffffffffffffffffffffffffffffffffffff1673ffffffffffffffffffffffffffffffffffffffff168152602001908152602001600020600201819055507f2ae11b2542b9c52a503600c53dbd51085a55ff4d85b5678f3684f04e4607bcb4338383604051808473ffffffffffffffffffffffffffffffffffffffff1673ffffffffffffffffffffffffffffffffffffffff1681526020018373ffffffffffffffffffffffffffffffffffffffff1673ffffffffffffffffffffffffffffffffffffffff1681526020018260001916600019168152602001935050505060405180910390a15050565b612960336040805190810160405280600c81526020017f636974795f6d616e616765720000000000000000000000000000000000000000815250611c91565b15156129d4576040517f08c379a00000000000000000000000000000000000000000000000000000000081526004018080602001828103825260118152602001807f4f6e6c792063697479206d616e6167657200000000000000000000000000000081525060200191505060405180910390fd5b600560008273ffffffffffffffffffffffffffffffffffffffff1673ffffffffffffffffffffffffffffffffffffffff16815260200190815260200160002060009054906101000a900460ff161515612a95576040517f08c379a000000000000000000000000000000000000000000000000000000000815260040180806020018281038252600f8152602001807f4e6f74207061727469636970616e74000000000000000000000000000000000081525060200191505060405180910390fd5b6000600560008373ffffffffffffffffffffffffffffffffffffffff1673ffffffffffffffffffffffffffffffffffffffff16815260200190815260200160002060006101000a81548160ff021916908315150217905550612b01816006613d7090919063ffffffff16565b50565b6040805190810160405280600c81526020017f636974795f6d616e61676572000000000000000000000000000000000000000081525081565b6060612b496010614708565b905090565b600080612b90336040805190810160405280600c81526020017f636974795f6d616e616765720000000000000000000000000000000000000000815250611c91565b1515612c04576040517f08c379a00000000000000000000000000000000000000000000000000000000081526004018080602001828103825260118152602001807f4f6e6c792063697479206d616e6167657200000000000000000000000000000081525060200191505060405180910390fd5b3342878786604051602001808673ffffffffffffffffffffffffffffffffffffffff1673ffffffffffffffffffffffffffffffffffffffff166c010000000000000000000000000281526014018581526020018481526020018381526020018273ffffffffffffffffffffffffffffffffffffffff1673ffffffffffffffffffffffffffffffffffffffff166c01000000000000000000000000028152601401955050505050506040516020818303038152906040526040518082805190602001908083835b602083101515612cef5780518252602082019150602081019050602083039250612cca565b6001836020036101000a03801982511681845116808217855250505050505090500191505060405180910390209050600f6000826000191660001916815260200190815260200160002060010160009054906101000a900460ff16151515612dbf576040517f08c379a00000000000000000000000000000000000000000000000000000000081526004018080602001828103825260168152602001807f54617269666620616c726561647920637265617465640000000000000000000081525060200191505060405180910390fd5b86600f600083600019166000191681526020019081526020016000206000019080519060200190612df1929190614bc7565b5085600f600083600019166000191681526020019081526020016000206002018190555084600f600083600019166000191681526020019081526020016000206003018190555083600f6000836000191660001916815260200190815260200160002060050160006101000a81548160ff02191690836001811115612e7257fe5b021790555082600f6000836000191660001916815260200190815260200160002060050160016101000a81548173ffffffffffffffffffffffffffffffffffffffff021916908373ffffffffffffffffffffffffffffffffffffffff1602179055506001600f6000836000191660001916815260200190815260200160002060010160006101000a81548160ff021916908315150217905550612f1f81601061476890919063ffffffff16565b60138190806001815401808255809150509060018203906000526020600020016000909192909190915090600019169055507f665d1d006c6253aaaea35061cb23bca87e46289812605e066def7c765fa0542a81888888886001811115612f8257fe5b88604051808760001916600019168152602001806020018681526020018581526020018460ff1660ff1681526020018373ffffffffffffffffffffffffffffffffffffffff1673ffffffffffffffffffffffffffffffffffffffff168152602001828103825287818151815260200191508051906020019080838360005b8381101561301b578082015181840152602081019050613000565b50505050905090810190601f1680156130485780820380516001836020036101000a031916815260200191505b5097505050505050505060405180910390a18091505095945050505050565b60035481565b60606000806000806000806000600f60008a600019166000191681526020019081526020016000209050806000018160010160009054906101000a900460ff168260020154836003015484600401548560050160009054906101000a900460ff168660050160019054906101000a900473ffffffffffffffffffffffffffffffffffffffff16868054600181600116156101000203166002900480601f0160208091040260200160405190810160405280929190818152602001828054600181600116156101000203166002900480156131885780601f1061315d57610100808354040283529160200191613188565b820191906000526020600020905b81548152906001019060200180831161316b57829003601f168201915b50505050509650975097509750975097509750975050919395979092949650565b6131e8336040805190810160405280600c81526020017f636974795f6d616e616765720000000000000000000000000000000000000000815250611c91565b151561325c576040517f08c379a00000000000000000000000000000000000000000000000000000000081526004018080602001828103825260118152602001807f4f6e6c792063697479206d616e6167657200000000000000000000000000000081525060200191505060405180910390fd5b8173ffffffffffffffffffffffffffffffffffffffff166340c10f1930836040518363ffffffff167c0100000000000000000000000000000000000000000000000000000000028152600401808373ffffffffffffffffffffffffffffffffffffffff1673ffffffffffffffffffffffffffffffffffffffff16815260200182815260200192505050602060405180830381600087803b1580156132ff57600080fd5b505af1158015613313573d6000803e3d6000fd5b505050506040513d602081101561332957600080fd5b8101908080519060200190929190505050505050565b61337e336040805190810160405280600c81526020017f636974795f6d616e616765720000000000000000000000000000000000000000815250611c91565b15156133f2576040517f08c379a00000000000000000000000000000000000000000000000000000000081526004018080602001828103825260118152602001807f4f6e6c792063697479206d616e6167657200000000000000000000000000000081525060200191505060405180910390fd5b8060048190555050565b61343b336040805190810160405280600c81526020017f636974795f6d616e616765720000000000000000000000000000000000000000815250611c91565b15156134af576040517f08c379a00000000000000000000000000000000000000000000000000000000081526004018080602001828103825260118152602001807f4f6e6c792063697479206d616e6167657200000000000000000000000000000081525060200191505060405180910390fd5b801515600f6000846000191660001916815260200190815260200160002060010160009054906101000a900460ff16151514151515613556576040517f08c379a000000000000000000000000000000000000000000000000000000000815260040180806020018281038252600b8152602001807f53616d652073746174757300000000000000000000000000000000000000000081525060200191505060405180910390fd5b80600f6000846000191660001916815260200190815260200160002060010160006101000a81548160ff02191690831515021790555080156135ab576135a682601061476890919063ffffffff16565b6135c0565b6135bf82601061481c90919063ffffffff16565b5b7fa468e8808de226695127eb52b091b945527354830cff5358eddf58444fe0e2918282604051808360001916600019168152602001821515151581526020019250505060405180910390a15050565b6000806000600a60008673ffffffffffffffffffffffffffffffffffffffff1673ffffffffffffffffffffffffffffffffffffffff1681526020019081526020016000209150600f600083600001546000191660001916815260200190815260200160002090508060010160009054906101000a900460ff1615156136fc576040517f08c379a00000000000000000000000000000000000000000000000000000000081526004018080602001828103825260118152602001807f546172696666206e6f742061637469766500000000000000000000000000000081525060200191505060405180910390fd5b6000816002015414151515613779576040517f08c379a00000000000000000000000000000000000000000000000000000000081526004018080602001828103825260168152602001807f546172696666207061796d656e74206973206e756c6c0000000000000000000081525060200191505060405180910390fd5b60008160030154141515156137f6576040517f08c379a000000000000000000000000000000000000000000000000000000000815260040180806020018281038252601d8152602001807f546172696666207061796d656e7420706572696f64206973206e756c6c00000081525060200191505060405180910390fd5b600560008673ffffffffffffffffffffffffffffffffffffffff1673ffffffffffffffffffffffffffffffffffffffff16815260200190815260200160002060009054906101000a900460ff1615156138b7576040517f08c379a000000000000000000000000000000000000000000000000000000000815260040180806020018281038252600a8152602001807f4e6f74206163746976650000000000000000000000000000000000000000000081525060200191505060405180910390fd5b4284826003015402600a60008873ffffffffffffffffffffffffffffffffffffffff1673ffffffffffffffffffffffffffffffffffffffff168152602001908152602001600020600101540111151515613979576040517f08c379a00000000000000000000000000000000000000000000000000000000081526004018080602001828103825260088152602001807f546f6f20736f6f6e00000000000000000000000000000000000000000000000081525060200191505060405180910390fd5b6000600a60008773ffffffffffffffffffffffffffffffffffffffff1673ffffffffffffffffffffffffffffffffffffffff168152602001908152602001600020600101541415613a105742600a60008773ffffffffffffffffffffffffffffffffffffffff1673ffffffffffffffffffffffffffffffffffffffff16815260200190815260200160002060010181905550613a67565b83816003015402600a60008773ffffffffffffffffffffffffffffffffffffffff1673ffffffffffffffffffffffffffffffffffffffff168152602001908152602001600020600101600082825401925050819055505b83816002015402600a60008773ffffffffffffffffffffffffffffffffffffffff1673ffffffffffffffffffffffffffffffffffffffff1681526020019081526020016000206002016000828254019250508190555060006001811115613aca57fe5b8160050160009054906101000a900460ff166001811115613ae757fe5b1415613b3f578473ffffffffffffffffffffffffffffffffffffffff166108fc858360020154029081150290604051600060405180830381858888f19350505050158015613b39573d6000803e3d6000fd5b50613c49565b8060050160019054906101000a900473ffffffffffffffffffffffffffffffffffffffff1673ffffffffffffffffffffffffffffffffffffffff1663a9059cbb86868460020154026040518363ffffffff167c0100000000000000000000000000000000000000000000000000000000028152600401808373ffffffffffffffffffffffffffffffffffffffff1673ffffffffffffffffffffffffffffffffffffffff16815260200182815260200192505050602060405180830381600087803b158015613c0c57600080fd5b505af1158015613c20573d6000803e3d6000fd5b505050506040513d6020811015613c3657600080fd5b8101908080519060200190929190505050505b8381600201540281600401600082825401925050819055508060030154600a60008773ffffffffffffffffffffffffffffffffffffffff1673ffffffffffffffffffffffffffffffffffffffff16815260200190815260200160002060010154019250505092915050565b606081600001805480602002602001604051908101604052809291908181526020018280548015613d3a57602002820191906000526020600020905b8160009054906101000a900473ffffffffffffffffffffffffffffffffffffffff1673ffffffffffffffffffffffffffffffffffffffff1681526020019060010190808311613cf0575b50505050509050919050565b613d50828261457b565b1515613d5b57600080fd5b5050565b600081600001805490509050919050565b6000806000808560000180549050111515613df3576040517f08c379a000000000000000000000000000000000000000000000000000000000815260040180806020018281038252600e8152602001807f417272617920697320656d70747900000000000000000000000000000000000081525060200191505060405180910390fd5b600115158560020160008673ffffffffffffffffffffffffffffffffffffffff1673ffffffffffffffffffffffffffffffffffffffff16815260200190815260200160002060009054906101000a900460ff161515141515613ebd576040517f08c379a00000000000000000000000000000000000000000000000000000000081526004018080602001828103825260158152602001807f456c656d656e7420646f65736e2774206578697374000000000000000000000081525060200191505060405180910390fd5b600185600001805490500392508460010160008573ffffffffffffffffffffffffffffffffffffffff1673ffffffffffffffffffffffffffffffffffffffff1681526020019081526020016000205491508460000183815481101515613f1f57fe5b9060005260206000200160009054906101000a900473ffffffffffffffffffffffffffffffffffffffff169050808560000183815481101515613f5e57fe5b9060005260206000200160006101000a81548173ffffffffffffffffffffffffffffffffffffffff021916908373ffffffffffffffffffffffffffffffffffffffff1602179055508460000183815481101515613fb757fe5b9060005260206000200160006101000a81549073ffffffffffffffffffffffffffffffffffffffff021916905560018560000180549050038560000181613ffe9190614c47565b508460010160008573ffffffffffffffffffffffffffffffffffffffff1673ffffffffffffffffffffffffffffffffffffffff168152602001908152602001600020600090558460020160008573ffffffffffffffffffffffffffffffffffffffff1673ffffffffffffffffffffffffffffffffffffffff16815260200190815260200160002060006101000a81549060ff0219169055818560010160008373ffffffffffffffffffffffffffffffffffffffff1673ffffffffffffffffffffffffffffffffffffffff168152602001908152602001600020819055505050505050565b6001600560008473ffffffffffffffffffffffffffffffffffffffff1673ffffffffffffffffffffffffffffffffffffffff16815260200190815260200160002060006101000a81548160ff02191690831515021790555061414e82600661439e90919063ffffffff16565b60098290806001815401808255809150509060018203906000526020600020016000909192909190916101000a81548173ffffffffffffffffffffffffffffffffffffffff021916908373ffffffffffffffffffffffffffffffffffffffff1602179055505080600a60008473ffffffffffffffffffffffffffffffffffffffff1673ffffffffffffffffffffffffffffffffffffffff1681526020019081526020016000206000018160001916905550600f60008260001916600019168152602001908152602001600020600301544203600a60008473ffffffffffffffffffffffffffffffffffffffff1673ffffffffffffffffffffffffffffffffffffffff168152602001908152602001600020600101819055505050565b6142e7826000836040518082805190602001908083835b6020831015156142a65780518252602082019150602081019050602083039250614281565b6001836020036101000a038019825116818451168082178552505050505050905001915050908152602001604051809103902061494f90919063ffffffff16565b8173ffffffffffffffffffffffffffffffffffffffff167fd211483f91fc6eff862467f8de606587a30c8fc9981056f051b897a418df803a826040518080602001828103825283818151815260200191508051906020019080838360005b83811015614360578082015181840152602081019050614345565b50505050905090810190601f16801561438d5780820380516001836020036101000a031916815260200191505b509250505060405180910390a25050565b600015158260020160008373ffffffffffffffffffffffffffffffffffffffff1673ffffffffffffffffffffffffffffffffffffffff16815260200190815260200160002060009054906101000a900460ff161515141515614468576040517f08c379a00000000000000000000000000000000000000000000000000000000081526004018080602001828103825260168152602001807f456c656d656e7420616c7265616479206578697374730000000000000000000081525060200191505060405180910390fd5b81600001805490508260010160008373ffffffffffffffffffffffffffffffffffffffff1673ffffffffffffffffffffffffffffffffffffffff1681526020019081526020016000208190555060018260020160008373ffffffffffffffffffffffffffffffffffffffff1673ffffffffffffffffffffffffffffffffffffffff16815260200190815260200160002060006101000a81548160ff021916908315150217905550816000018190806001815401808255809150509060018203906000526020600020016000909192909190916101000a81548173ffffffffffffffffffffffffffffffffffffffff021916908373ffffffffffffffffffffffffffffffffffffffff160217905550505050565b60008260000160008373ffffffffffffffffffffffffffffffffffffffff1673ffffffffffffffffffffffffffffffffffffffff16815260200190815260200160002060009054906101000a900460ff16905092915050565b614651826000836040518082805190602001908083835b60208310151561461057805182526020820191506020810190506020830392506145eb565b6001836020036101000a03801982511681845116808217855250505050505090500191505090815260200160405180910390206149ad90919063ffffffff16565b8173ffffffffffffffffffffffffffffffffffffffff167fbfec83d64eaa953f2708271a023ab9ee82057f8f3578d548c1a4ba0b5b700489826040518080602001828103825283818151815260200191508051906020019080838360005b838110156146ca5780820151818401526020810190506146af565b50505050905090810190601f1680156146f75780820380516001836020036101000a031916815260200191505b509250505060405180910390a25050565b60608160000180548060200260200160405190810160405280929190818152602001828054801561475c57602002820191906000526020600020905b81546000191681526020019060010190808311614744575b50505050509050919050565b60001515826002016000836000191660001916815260200190815260200160002060009054906101000a900460ff16151514151561480e576040517f08c379a00000000000000000000000000000000000000000000000000000000081526004018080602001828103825260168152602001807f456c656d656e7420616c7265616479206578697374730000000000000000000081525060200191505060405180910390fd5b6148188282614a0b565b5050565b6000826000018054905011151561489b576040517f08c379a000000000000000000000000000000000000000000000000000000000815260040180806020018281038252600e8152602001807f417272617920697320656d70747900000000000000000000000000000000000081525060200191505060405180910390fd5b60011515826002016000836000191660001916815260200190815260200160002060009054906101000a900460ff161515141515614941576040517f08c379a00000000000000000000000000000000000000000000000000000000081526004018080602001828103825260158152602001807f456c656d656e7420646f65736e2774206578697374000000000000000000000081525060200191505060405180910390fd5b61494b8282614aa2565b5050565b60008260000160008373ffffffffffffffffffffffffffffffffffffffff1673ffffffffffffffffffffffffffffffffffffffff16815260200190815260200160002060006101000a81548160ff0219169083151502179055505050565b60018260000160008373ffffffffffffffffffffffffffffffffffffffff1673ffffffffffffffffffffffffffffffffffffffff16815260200190815260200160002060006101000a81548160ff0219169083151502179055505050565b81600001805490508260010160008360001916600019168152602001908152602001600020819055506001826002016000836000191660001916815260200190815260200160002060006101000a81548160ff021916908315150217905550816000018190806001815401808255809150509060018203906000526020600020016000909192909190915090600019169055505050565b60008060006001856000018054905003925084600101600085600019166000191681526020019081526020016000205491508460000183815481101515614ae557fe5b90600052602060002001549050808560000183815481101515614b0457fe5b9060005260206000200181600019169055508460000183815481101515614b2757fe5b906000526020600020016000905560018560000180549050038560000181614b4f9190614c73565b50846001016000856000191660001916815260200190815260200160002060009055846002016000856000191660001916815260200190815260200160002060006101000a81549060ff0219169055818560010160008360001916600019168152602001908152602001600020819055505050505050565b828054600181600116156101000203166002900490600052602060002090601f016020900481019282601f10614c0857805160ff1916838001178555614c36565b82800160010185558215614c36579182015b82811115614c35578251825591602001919060010190614c1a565b5b509050614c439190614c9f565b5090565b815481835581811115614c6e57818360005260206000209182019101614c6d9190614c9f565b5b505050565b815481835581811115614c9a57818360005260206000209182019101614c999190614cc4565b5b505050565b614cc191905b80821115614cbd576000816000905550600101614ca5565b5090565b90565b614ce691905b80821115614ce2576000816000905550600101614cca565b5090565b905600a165627a7a7230582051f7a4847d3a18f59851f3fbf62e271b091ab248986ecb0d6b7480d193115c1e0029",
  "source": "/*\n * Copyright  2018 GaltSpace Society Construction and Terraforming Company\n * (Founded by [Nikolai Popeka](https://github.com/npopeka),\n * [Dima Starodubcev](https://github.com/xhipster),\n * [Valery Litvin](https://github.com/litvintech) by\n * [Basic Agreement](http://cyb.ai/QmSAWEG5u5aSsUyMNYuX2A2Eaz4kEuoYWUkVBRdmu9qmct:ipfs)).\n *\n * Copyright  2018 GaltCore Blockchain Company\n * (Founded by [Nikolai Popeka](https://github.com/npopeka) and\n * GaltSpace Society Construction and Terraforming Company by\n * [Basic Agreement](http://cyb.ai/QmaCiXUmSrP16Gz8Jdzq6AJESY1EAANmmwha15uR3c1bsS:ipfs)).\n */\n\npragma solidity 0.4.24;\npragma experimental \"v0.5.0\";\n\nimport \"openzeppelin-solidity/contracts/token/ERC20/MintableToken.sol\";\nimport \"openzeppelin-solidity/contracts/token/ERC20/ERC20.sol\";\nimport \"openzeppelin-solidity/contracts/ownership/rbac/RBAC.sol\";\nimport \"./utils/ArraySet.sol\";\n\nlibrary CityLibrary {\n    struct Payment {\n        bytes32 tariff;\n        uint256 lastTimestamp;\n        uint256 totalAmount;\n    }\n    struct ParticipationRequest {\n        bytes32 tariff;\n        bool sent;\n        bool confirmed;\n        uint256 confirmationsCount;\n        mapping (address => bool) confirmations;\n    }\n    struct Tariff {\n        string title;\n        bool active;\n        uint256 payment;\n        uint256 paymentPeriod;\n        uint256 paymentSent;\n        TariffCurrency currency;\n        address currencyAddress;\n        ArraySet.AddressSet activeParticipants;\n    }\n    enum TariffCurrency {\n        ETH,\n        ERC20\n    }\n}\n\ncontract City is RBAC {\n//    using CityLibrary for CityLibrary.payment;\n//    using CityLibrary for CityLibrary.participationRequest;\n    \n    using ArraySet for ArraySet.AddressSet;\n    using ArraySet for ArraySet.Bytes32Set;\n\n    string public constant CITY_MANAGER_ROLE = \"city_manager\";\n    \n    string public name;\n    string public symbol;\n    uint256 public maxSupply;\n    uint256 public confirmsToParticipation;\n\n    event TariffCreated(bytes32 id, string title, uint256 payment, uint256 paymentPeriod, uint8 currency, address currencyAddress);\n    event TariffEdited(bytes32 id, string title, uint256 payment, uint256 paymentPeriod, uint8 currency, address currencyAddress);\n    event TariffActiveChanged(bytes32 id, bool active);\n    event ParticipationRequest(address requested);\n    event ParticipationConfirm(address requested, address confirmed, bool fully);\n    event ParticipationAdded(address cityManager, address member, bytes32 tariff);\n    event ParticipationTariffChanged(address cityManager, address member, bytes32 tariff);\n\n    mapping (address => bool) public participants;\n    ArraySet.AddressSet activeParticipants;\n    address[] allParticipants;\n\n    mapping (address => CityLibrary.Payment) private payments;\n    mapping (address => CityLibrary.ParticipationRequest) private participationRequests;\n    ArraySet.AddressSet activeRequests;\n\n    mapping (bytes32 => CityLibrary.Tariff) private tariffs;\n    ArraySet.Bytes32Set activeTariffs;\n    bytes32[] allTariffs;\n\n    constructor(uint256 _maxSupply, string _name, string _symbol) public {\n        maxSupply = _maxSupply;\n        name = _name;\n        symbol = _symbol;\n\n        confirmsToParticipation = 1;\n\n        super.addRole(msg.sender, CITY_MANAGER_ROLE);\n        participants[msg.sender] = true;\n        activeParticipants.add(msg.sender);\n    }\n\n    function() external payable { }\n\n    modifier onlyCityManager() {\n        require(hasRole(msg.sender, CITY_MANAGER_ROLE), \"Only city manager\");\n        _;\n    }\n    \n    function createTariff(string _title, uint256 _payment, uint256 _paymentPeriod, CityLibrary.TariffCurrency _currency, address _currencyAddress) public onlyCityManager returns(bytes32) {\n        bytes32 _id = keccak256(\n            abi.encodePacked(\n                msg.sender,\n                block.timestamp,\n                _payment,\n                _paymentPeriod,\n                _currencyAddress\n            )\n        );\n        require(!tariffs[_id].active, \"Tariff already created\");\n        \n        tariffs[_id].title = _title;\n        tariffs[_id].payment = _payment;\n        tariffs[_id].paymentPeriod = _paymentPeriod;\n        tariffs[_id].currency = _currency;\n        tariffs[_id].currencyAddress = _currencyAddress;\n        tariffs[_id].active = true;\n\n        activeTariffs.add(_id);\n        allTariffs.push(_id);\n        \n        emit TariffCreated(_id, _title, _payment, _paymentPeriod, uint8(_currency), _currencyAddress);\n        return _id;\n    }\n    \n    function setTariffActive(bytes32 _id, bool _active) public onlyCityManager {\n        require(tariffs[_id].active != _active, \"Same status\");\n        \n        tariffs[_id].active = _active;\n        \n        if(_active) {\n            activeTariffs.add(_id);\n        } else {\n            activeTariffs.remove(_id);\n        }\n        \n        emit TariffActiveChanged(_id, _active);\n    }\n    \n    function editTariff(bytes32 _id, string _title, uint256 _payment, uint256 _paymentPeriod, CityLibrary.TariffCurrency _currency, address _currencyAddress) public onlyCityManager {\n        tariffs[_id].title = _title;\n        tariffs[_id].payment = _payment;\n        tariffs[_id].paymentPeriod = _paymentPeriod;\n        tariffs[_id].currency = _currency;\n        tariffs[_id].currencyAddress = _currencyAddress;\n        \n        emit TariffEdited(_id, _title, _payment, _paymentPeriod, uint8(_currency), _currencyAddress);\n    }\n\n    function setMaxSupply(uint256 _maxSupply) public onlyCityManager {\n        maxSupply = _maxSupply;\n    }\n\n    function setConfirmsToParticipation(uint256 _confirmsToParticipation) public onlyCityManager {\n        confirmsToParticipation = _confirmsToParticipation;\n    }\n\n    function claimPayment(address claimFor, uint256 periodsNumber) public returns (uint256 nextDate) {\n        CityLibrary.Payment storage payment = payments[claimFor];\n        CityLibrary.Tariff storage tariff = tariffs[payment.tariff];\n        require(tariff.active, \"Tariff not active\");\n        require(tariff.payment != 0, \"Tariff payment is null\");\n        require(tariff.paymentPeriod != 0, \"Tariff payment period is null\");\n\n        require(participants[claimFor], \"Not active\");\n        require(payments[claimFor].lastTimestamp + (tariff.paymentPeriod * periodsNumber) <= now, \"Too soon\");\n        \n        if(payments[claimFor].lastTimestamp == 0) {\n            payments[claimFor].lastTimestamp = now;\n        } else {\n            payments[claimFor].lastTimestamp += tariff.paymentPeriod * periodsNumber;\n        }\n        payments[claimFor].totalAmount += tariff.payment * periodsNumber;\n//\n        if(tariff.currency == CityLibrary.TariffCurrency.ETH) {\n            claimFor.transfer(tariff.payment * periodsNumber);\n        } else {\n            ERC20(tariff.currencyAddress).transfer(claimFor, tariff.payment * periodsNumber);\n        }\n\n        tariff.paymentSent += tariff.payment * periodsNumber;\n\n        return payments[claimFor].lastTimestamp + tariff.paymentPeriod;\n    }\n\n    function isParticipant(address _address) public view returns (bool) {\n        return participants[_address];\n    }\n    \n    function addParticipation(address _address, bytes32 _tariff) public onlyCityManager {\n        require(!participants[_address], \"Already participant\");\n\n        addParticipationUnsafe(_address, _tariff);\n\n        emit ParticipationAdded(msg.sender, _address, _tariff);\n    }\n    \n    function addParticipationUnsafe(address _address, bytes32 _tariff) private {\n        participants[_address] = true;\n        activeParticipants.add(_address);\n        allParticipants.push(_address);\n        payments[_address].tariff = _tariff;\n        payments[_address].lastTimestamp = now - tariffs[_tariff].paymentPeriod;\n    }\n    \n    function changeParticipationTariff(address _address, bytes32 _tariff) public onlyCityManager {\n        payments[_address].tariff = _tariff;\n        payments[_address].totalAmount = 0;\n        \n        emit ParticipationTariffChanged(msg.sender, _address, _tariff);\n    }\n\n    function requestParticipation(bytes32 _tariff) public {\n        require(activeParticipants.size() < maxSupply, \"Not enough supply\");\n        require(!participants[msg.sender], \"Already participant\");\n        require(!participationRequests[msg.sender].sent, \"Already sent\");\n\n        participationRequests[msg.sender] = CityLibrary.ParticipationRequest({ sent: true, confirmed: false, confirmationsCount: 0, tariff: _tariff });\n        activeRequests.add(msg.sender);\n        \n        emit ParticipationRequest(msg.sender);\n    }\n\n    function confirmParticipation(address _requested) public onlyCityManager returns (uint256 count) {\n        require(activeParticipants.size() < maxSupply, \"Not enough supply\");\n        require(!participants[_requested], \"Already participant\");\n        require(participationRequests[_requested].sent, \"Not sent\");\n        require(!participationRequests[_requested].confirmed, \"Already confirmed\");\n\n        require(participationRequests[_requested].confirmations[msg.sender] == false, \"You cant confirm twice\");\n\n        participationRequests[_requested].confirmations[msg.sender] = true;\n        participationRequests[_requested].confirmationsCount += 1;\n\n        if(participationRequests[_requested].confirmationsCount >= confirmsToParticipation){\n            participationRequests[_requested].confirmed = true;\n            activeRequests.remove(_requested);\n            addParticipationUnsafe(_requested, participationRequests[_requested].tariff);\n            emit ParticipationConfirm(_requested, msg.sender, true);\n        } else {\n            emit ParticipationConfirm(_requested, msg.sender, false);\n        }\n\n        return participationRequests[_requested].confirmationsCount;\n    }\n\n    function confirmsOf(address _requested) public view returns (uint256) {\n        return participationRequests[_requested].confirmationsCount;\n    }\n\n    function kickParticipation(address _participant) public onlyCityManager {\n        require(participants[_participant], \"Not participant\");\n\n        participants[_participant] = false;\n        activeParticipants.remove(_participant);\n    }\n\n    function leaveParticipation() public {\n        require(participants[msg.sender], \"Not participant\");\n\n        participants[msg.sender] = false;\n        activeParticipants.remove(msg.sender);\n    }\n\n    function addRoleTo(address _operator, string _role) public onlyCityManager {\n        super.addRole(_operator, _role);\n    }\n\n    function removeRoleFrom(address _operator, string _role) public onlyCityManager {\n        super.removeRole(_operator, _role);\n    }\n    \n    function getAllTariffs() public view returns(bytes32[]) {\n        return allTariffs;\n    }\n\n    function getActiveTariffs() public view returns(bytes32[]) {\n        return activeTariffs.elements();\n    }\n    \n    function getTariff(bytes32 _id) public view returns(\n        string title,\n        bool active,\n        uint256 payment,\n        uint256 paymentPeriod,\n        uint256 paymentSent,\n        CityLibrary.TariffCurrency currency,\n        address currencyAddress\n    )\n    {\n        CityLibrary.Tariff storage t = tariffs[_id];\n        return (\n            t.title,\n            t.active,\n            t.payment,\n            t.paymentPeriod,\n            t.paymentSent,\n            t.currency,\n            t.currencyAddress\n        );\n    }\n    \n    function getAllParticipants() public view returns(address[]) {\n        return allParticipants;\n    }\n\n    function getActiveParticipants() public view returns(address[]) {\n        return activeParticipants.elements();\n    }\n\n    function getActiveParticipantsCount() public view returns(uint256) {\n        return activeParticipants.size();\n    }\n    \n    function getParticipantInfo(address _participant) public view returns\n    (\n        bool active, \n        bytes32 tariff, \n        uint256 totalAmount, \n        uint256 lastTimestamp\n    ) {\n        CityLibrary.Payment storage p = payments[_participant];\n        return (\n            participants[_participant],\n            p.tariff,\n            p.totalAmount,\n            p.lastTimestamp\n        );\n    }\n    \n    function mintTokens(address tokenAddress, uint256 mintAmount) public onlyCityManager {\n        MintableToken(tokenAddress).mint(address(this), mintAmount);\n    }\n}\n",
  "sourcePath": "/Users/jonybang/workspace/dcity/contracts/City.sol",
  "compiler": {
    "name": "solc",
    "version": "0.4.24+commit.e67f0147.Emscripten.clang"
  },
  "schemaVersion": "2.0.1",
  "updatedAt": "2018-12-09T21:50:40.788Z"
}