{
  "contractName": "City",
  "abi": [
    {
      "constant": true,
      "inputs": [],
      "name": "name",
      "outputs": [
        {
          "name": "",
          "type": "string"
        }
      ],
      "payable": false,
      "stateMutability": "view",
      "type": "function"
    },
    {
      "constant": true,
      "inputs": [
        {
          "name": "_operator",
          "type": "address"
        },
        {
          "name": "_role",
          "type": "string"
        }
      ],
      "name": "checkRole",
      "outputs": [],
      "payable": false,
      "stateMutability": "view",
      "type": "function"
    },
    {
      "constant": true,
      "inputs": [
        {
          "name": "",
          "type": "address"
        }
      ],
      "name": "participants",
      "outputs": [
        {
          "name": "",
          "type": "bool"
        }
      ],
      "payable": false,
      "stateMutability": "view",
      "type": "function"
    },
    {
      "constant": true,
      "inputs": [
        {
          "name": "_operator",
          "type": "address"
        },
        {
          "name": "_role",
          "type": "string"
        }
      ],
      "name": "hasRole",
      "outputs": [
        {
          "name": "",
          "type": "bool"
        }
      ],
      "payable": false,
      "stateMutability": "view",
      "type": "function"
    },
    {
      "constant": true,
      "inputs": [],
      "name": "confirmsToParticipation",
      "outputs": [
        {
          "name": "",
          "type": "uint256"
        }
      ],
      "payable": false,
      "stateMutability": "view",
      "type": "function"
    },
    {
      "constant": true,
      "inputs": [],
      "name": "symbol",
      "outputs": [
        {
          "name": "",
          "type": "string"
        }
      ],
      "payable": false,
      "stateMutability": "view",
      "type": "function"
    },
    {
      "constant": true,
      "inputs": [],
      "name": "CITY_MANAGER_ROLE",
      "outputs": [
        {
          "name": "",
          "type": "string"
        }
      ],
      "payable": false,
      "stateMutability": "view",
      "type": "function"
    },
    {
      "constant": true,
      "inputs": [],
      "name": "maxSupply",
      "outputs": [
        {
          "name": "",
          "type": "uint256"
        }
      ],
      "payable": false,
      "stateMutability": "view",
      "type": "function"
    },
    {
      "inputs": [
        {
          "name": "_maxSupply",
          "type": "uint256"
        },
        {
          "name": "_name",
          "type": "string"
        },
        {
          "name": "_symbol",
          "type": "string"
        }
      ],
      "payable": false,
      "stateMutability": "nonpayable",
      "type": "constructor"
    },
    {
      "payable": true,
      "stateMutability": "payable",
      "type": "fallback"
    },
    {
      "anonymous": false,
      "inputs": [
        {
          "indexed": false,
          "name": "id",
          "type": "bytes32"
        },
        {
          "indexed": false,
          "name": "title",
          "type": "string"
        },
        {
          "indexed": false,
          "name": "payment",
          "type": "uint256"
        },
        {
          "indexed": false,
          "name": "paymentPeriod",
          "type": "uint256"
        },
        {
          "indexed": false,
          "name": "currency",
          "type": "uint8"
        },
        {
          "indexed": false,
          "name": "currencyAddress",
          "type": "address"
        }
      ],
      "name": "TariffCreated",
      "type": "event"
    },
    {
      "anonymous": false,
      "inputs": [
        {
          "indexed": false,
          "name": "id",
          "type": "bytes32"
        },
        {
          "indexed": false,
          "name": "title",
          "type": "string"
        },
        {
          "indexed": false,
          "name": "payment",
          "type": "uint256"
        },
        {
          "indexed": false,
          "name": "paymentPeriod",
          "type": "uint256"
        },
        {
          "indexed": false,
          "name": "currency",
          "type": "uint8"
        },
        {
          "indexed": false,
          "name": "currencyAddress",
          "type": "address"
        }
      ],
      "name": "TariffEdited",
      "type": "event"
    },
    {
      "anonymous": false,
      "inputs": [
        {
          "indexed": false,
          "name": "id",
          "type": "bytes32"
        },
        {
          "indexed": false,
          "name": "active",
          "type": "bool"
        }
      ],
      "name": "TariffActiveChanged",
      "type": "event"
    },
    {
      "anonymous": false,
      "inputs": [
        {
          "indexed": false,
          "name": "requested",
          "type": "address"
        }
      ],
      "name": "ParticipationRequest",
      "type": "event"
    },
    {
      "anonymous": false,
      "inputs": [
        {
          "indexed": false,
          "name": "requested",
          "type": "address"
        },
        {
          "indexed": false,
          "name": "confirmed",
          "type": "address"
        },
        {
          "indexed": false,
          "name": "fully",
          "type": "bool"
        }
      ],
      "name": "ParticipationConfirm",
      "type": "event"
    },
    {
      "anonymous": false,
      "inputs": [
        {
          "indexed": false,
          "name": "cityManager",
          "type": "address"
        },
        {
          "indexed": false,
          "name": "member",
          "type": "address"
        },
        {
          "indexed": false,
          "name": "tariff",
          "type": "bytes32"
        }
      ],
      "name": "ParticipationAdded",
      "type": "event"
    },
    {
      "anonymous": false,
      "inputs": [
        {
          "indexed": false,
          "name": "cityManager",
          "type": "address"
        },
        {
          "indexed": false,
          "name": "member",
          "type": "address"
        },
        {
          "indexed": false,
          "name": "tariff",
          "type": "bytes32"
        }
      ],
      "name": "ParticipationTariffChanged",
      "type": "event"
    },
    {
      "anonymous": false,
      "inputs": [
        {
          "indexed": true,
          "name": "operator",
          "type": "address"
        },
        {
          "indexed": false,
          "name": "role",
          "type": "string"
        }
      ],
      "name": "RoleAdded",
      "type": "event"
    },
    {
      "anonymous": false,
      "inputs": [
        {
          "indexed": true,
          "name": "operator",
          "type": "address"
        },
        {
          "indexed": false,
          "name": "role",
          "type": "string"
        }
      ],
      "name": "RoleRemoved",
      "type": "event"
    },
    {
      "constant": false,
      "inputs": [
        {
          "name": "_title",
          "type": "string"
        },
        {
          "name": "_payment",
          "type": "uint256"
        },
        {
          "name": "_paymentPeriod",
          "type": "uint256"
        },
        {
          "name": "_currency",
          "type": "uint8"
        },
        {
          "name": "_currencyAddress",
          "type": "address"
        }
      ],
      "name": "createTariff",
      "outputs": [
        {
          "name": "",
          "type": "bytes32"
        }
      ],
      "payable": false,
      "stateMutability": "nonpayable",
      "type": "function"
    },
    {
      "constant": false,
      "inputs": [
        {
          "name": "_id",
          "type": "bytes32"
        },
        {
          "name": "_active",
          "type": "bool"
        }
      ],
      "name": "setTariffActive",
      "outputs": [],
      "payable": false,
      "stateMutability": "nonpayable",
      "type": "function"
    },
    {
      "constant": false,
      "inputs": [
        {
          "name": "_id",
          "type": "bytes32"
        },
        {
          "name": "_title",
          "type": "string"
        },
        {
          "name": "_payment",
          "type": "uint256"
        },
        {
          "name": "_paymentPeriod",
          "type": "uint256"
        },
        {
          "name": "_currency",
          "type": "uint8"
        },
        {
          "name": "_currencyAddress",
          "type": "address"
        }
      ],
      "name": "editTariff",
      "outputs": [],
      "payable": false,
      "stateMutability": "nonpayable",
      "type": "function"
    },
    {
      "constant": false,
      "inputs": [
        {
          "name": "_maxSupply",
          "type": "uint256"
        }
      ],
      "name": "setMaxSupply",
      "outputs": [],
      "payable": false,
      "stateMutability": "nonpayable",
      "type": "function"
    },
    {
      "constant": false,
      "inputs": [
        {
          "name": "_confirmsToParticipation",
          "type": "uint256"
        }
      ],
      "name": "setConfirmsToParticipation",
      "outputs": [],
      "payable": false,
      "stateMutability": "nonpayable",
      "type": "function"
    },
    {
      "constant": false,
      "inputs": [
        {
          "name": "claimFor",
          "type": "address"
        }
      ],
      "name": "claimPayment",
      "outputs": [
        {
          "name": "nextDate",
          "type": "uint256"
        }
      ],
      "payable": false,
      "stateMutability": "nonpayable",
      "type": "function"
    },
    {
      "constant": true,
      "inputs": [
        {
          "name": "_address",
          "type": "address"
        }
      ],
      "name": "isParticipant",
      "outputs": [
        {
          "name": "",
          "type": "bool"
        }
      ],
      "payable": false,
      "stateMutability": "view",
      "type": "function"
    },
    {
      "constant": false,
      "inputs": [
        {
          "name": "_address",
          "type": "address"
        },
        {
          "name": "_tariff",
          "type": "bytes32"
        }
      ],
      "name": "addParticipation",
      "outputs": [],
      "payable": false,
      "stateMutability": "nonpayable",
      "type": "function"
    },
    {
      "constant": false,
      "inputs": [
        {
          "name": "_address",
          "type": "address"
        },
        {
          "name": "_tariff",
          "type": "bytes32"
        }
      ],
      "name": "changeParticipationTariff",
      "outputs": [],
      "payable": false,
      "stateMutability": "nonpayable",
      "type": "function"
    },
    {
      "constant": false,
      "inputs": [
        {
          "name": "_tariff",
          "type": "bytes32"
        }
      ],
      "name": "requestParticipation",
      "outputs": [],
      "payable": false,
      "stateMutability": "nonpayable",
      "type": "function"
    },
    {
      "constant": false,
      "inputs": [
        {
          "name": "_requested",
          "type": "address"
        }
      ],
      "name": "confirmParticipation",
      "outputs": [
        {
          "name": "count",
          "type": "uint256"
        }
      ],
      "payable": false,
      "stateMutability": "nonpayable",
      "type": "function"
    },
    {
      "constant": true,
      "inputs": [
        {
          "name": "_requested",
          "type": "address"
        }
      ],
      "name": "confirmsOf",
      "outputs": [
        {
          "name": "",
          "type": "uint256"
        }
      ],
      "payable": false,
      "stateMutability": "view",
      "type": "function"
    },
    {
      "constant": false,
      "inputs": [
        {
          "name": "_participant",
          "type": "address"
        }
      ],
      "name": "kickParticipation",
      "outputs": [],
      "payable": false,
      "stateMutability": "nonpayable",
      "type": "function"
    },
    {
      "constant": false,
      "inputs": [],
      "name": "leaveParticipation",
      "outputs": [],
      "payable": false,
      "stateMutability": "nonpayable",
      "type": "function"
    },
    {
      "constant": false,
      "inputs": [
        {
          "name": "_operator",
          "type": "address"
        },
        {
          "name": "_role",
          "type": "string"
        }
      ],
      "name": "addRoleTo",
      "outputs": [],
      "payable": false,
      "stateMutability": "nonpayable",
      "type": "function"
    },
    {
      "constant": false,
      "inputs": [
        {
          "name": "_operator",
          "type": "address"
        },
        {
          "name": "_role",
          "type": "string"
        }
      ],
      "name": "removeRoleFrom",
      "outputs": [],
      "payable": false,
      "stateMutability": "nonpayable",
      "type": "function"
    },
    {
      "constant": true,
      "inputs": [],
      "name": "getAllTariffs",
      "outputs": [
        {
          "name": "",
          "type": "bytes32[]"
        }
      ],
      "payable": false,
      "stateMutability": "view",
      "type": "function"
    },
    {
      "constant": true,
      "inputs": [],
      "name": "getActiveTariffs",
      "outputs": [
        {
          "name": "",
          "type": "bytes32[]"
        }
      ],
      "payable": false,
      "stateMutability": "view",
      "type": "function"
    },
    {
      "constant": true,
      "inputs": [
        {
          "name": "_id",
          "type": "bytes32"
        }
      ],
      "name": "getTariff",
      "outputs": [
        {
          "name": "title",
          "type": "string"
        },
        {
          "name": "active",
          "type": "bool"
        },
        {
          "name": "payment",
          "type": "uint256"
        },
        {
          "name": "paymentPeriod",
          "type": "uint256"
        },
        {
          "name": "paymentSent",
          "type": "uint256"
        },
        {
          "name": "currency",
          "type": "uint8"
        },
        {
          "name": "currencyAddress",
          "type": "address"
        }
      ],
      "payable": false,
      "stateMutability": "view",
      "type": "function"
    },
    {
      "constant": true,
      "inputs": [],
      "name": "getAllParticipants",
      "outputs": [
        {
          "name": "",
          "type": "address[]"
        }
      ],
      "payable": false,
      "stateMutability": "view",
      "type": "function"
    },
    {
      "constant": true,
      "inputs": [],
      "name": "getActiveParticipants",
      "outputs": [
        {
          "name": "",
          "type": "address[]"
        }
      ],
      "payable": false,
      "stateMutability": "view",
      "type": "function"
    },
    {
      "constant": true,
      "inputs": [
        {
          "name": "_participant",
          "type": "address"
        }
      ],
      "name": "getParticipantInfo",
      "outputs": [
        {
          "name": "active",
          "type": "bool"
        },
        {
          "name": "tariff",
          "type": "bytes32"
        },
        {
          "name": "totalAmount",
          "type": "uint256"
        },
        {
          "name": "lastTimestamp",
          "type": "uint256"
        }
      ],
      "payable": false,
      "stateMutability": "view",
      "type": "function"
    }
  ],
  "bytecode": "0x60806040523480156200001157600080fd5b5060405162004fa738038062004fa783398101806040528101908080519060200190929190805182019291906020018051820192919050505082600381905550816001908051906020019062000069929190620004ea565b50806002908051906020019062000082929190620004ea565b506001600481905550620000e0336040805190810160405280600c81526020017f636974795f6d616e6167657200000000000000000000000000000000000000008152506200016564010000000002620042bd176401000000009004565b6001600560003373ffffffffffffffffffffffffffffffffffffffff1673ffffffffffffffffffffffffffffffffffffffff16815260200190815260200160002060006101000a81548160ff0219169083151502179055506200015c336006620002ae6401000000000262004087179091906401000000009004565b50505062000599565b620001f4826000836040518082805190602001908083835b602083101515620001a457805182526020820191506020810190506020830392506200017d565b6001836020036101000a03801982511681845116808217855250505050505090500191505090815260200160405180910390206200048c6401000000000262004696179091906401000000009004565b8173ffffffffffffffffffffffffffffffffffffffff167fbfec83d64eaa953f2708271a023ab9ee82057f8f3578d548c1a4ba0b5b700489826040518080602001828103825283818151815260200191508051906020019080838360005b838110156200026f57808201518184015260208101905062000252565b50505050905090810190601f1680156200029d5780820380516001836020036101000a031916815260200191505b509250505060405180910390a25050565b600015158260020160008373ffffffffffffffffffffffffffffffffffffffff1673ffffffffffffffffffffffffffffffffffffffff16815260200190815260200160002060009054906101000a900460ff16151514151562000379576040517f08c379a00000000000000000000000000000000000000000000000000000000081526004018080602001828103825260168152602001807f456c656d656e7420616c7265616479206578697374730000000000000000000081525060200191505060405180910390fd5b81600001805490508260010160008373ffffffffffffffffffffffffffffffffffffffff1673ffffffffffffffffffffffffffffffffffffffff1681526020019081526020016000208190555060018260020160008373ffffffffffffffffffffffffffffffffffffffff1673ffffffffffffffffffffffffffffffffffffffff16815260200190815260200160002060006101000a81548160ff021916908315150217905550816000018190806001815401808255809150509060018203906000526020600020016000909192909190916101000a81548173ffffffffffffffffffffffffffffffffffffffff021916908373ffffffffffffffffffffffffffffffffffffffff160217905550505050565b60018260000160008373ffffffffffffffffffffffffffffffffffffffff1673ffffffffffffffffffffffffffffffffffffffff16815260200190815260200160002060006101000a81548160ff0219169083151502179055505050565b828054600181600116156101000203166002900490600052602060002090601f016020900481019282601f106200052d57805160ff19168380011785556200055e565b828001600101855582156200055e579182015b828111156200055d57825182559160200191906001019062000540565b5b5090506200056d919062000571565b5090565b6200059691905b808211156200059257600081600090555060010162000578565b5090565b90565b6149fe80620005a96000396000f300608060405260043610610180576000357c0100000000000000000000000000000000000000000000000000000000900463ffffffff168063066d7e641461018257806306fdde03146101ee5780630988ca8c1461027e57806309e69ede146103075780630cd7947b146103625780630d31e2ea146103b95780630fb0d1e514610442578063195ec9ee14610473578063217fe6c6146104df57806331b0459f14610580578063361ec9aa146105d7578063430d07b01461062e5780635a09a8db1461067f5780636e0f5ec1146106965780636f8b44b0146106c157806371bdce55146106ee578063726661c314610766578063790c7316146107ef578063929066f51461085b57806395d89b41146108b6578063b1cc366b14610946578063bb748681146109fe578063bcc73d5d14610a4f578063c4e158aa14610a92578063d376ed2f14610b22578063d42d14cd14610b8e578063d5abeb0114610c54578063e97c41d914610c7f578063fab4bdf814610d91578063fb1dc11714610dbe575b005b34801561018e57600080fd5b50610197610dfb565b6040518080602001828103825283818151815260200191508051906020019060200280838360005b838110156101da5780820151818401526020810190506101bf565b505050509050019250505060405180910390f35b3480156101fa57600080fd5b50610203610e0c565b6040518080602001828103825283818151815260200191508051906020019080838360005b83811015610243578082015181840152602081019050610228565b50505050905090810190601f1680156102705780820380516001836020036101000a031916815260200191505b509250505060405180910390f35b34801561028a57600080fd5b50610305600480360381019080803573ffffffffffffffffffffffffffffffffffffffff169060200190929190803590602001908201803590602001908080601f0160208091040260200160405190810160405280939291908181526020018383808284378201915050505050509192919290505050610eaa565b005b34801561031357600080fd5b50610348600480360381019080803573ffffffffffffffffffffffffffffffffffffffff169060200190929190505050610f2b565b604051808215151515815260200191505060405180910390f35b34801561036e57600080fd5b506103a3600480360381019080803573ffffffffffffffffffffffffffffffffffffffff169060200190929190505050610f4b565b6040518082815260200191505060405180910390f35b3480156103c557600080fd5b50610440600480360381019080803573ffffffffffffffffffffffffffffffffffffffff169060200190929190803590602001908201803590602001908080601f016020809104026020016040519081016040528093929190818152602001838380828437820191505050505050919291929050505061175e565b005b34801561044e57600080fd5b50610471600480360381019080803560001916906020019092919050505061181f565b005b34801561047f57600080fd5b50610488611b6b565b6040518080602001828103825283818151815260200191508051906020019060200280838360005b838110156104cb5780820151818401526020810190506104b0565b505050509050019250505060405180910390f35b3480156104eb57600080fd5b50610566600480360381019080803573ffffffffffffffffffffffffffffffffffffffff169060200190929190803590602001908201803590602001908080601f0160208091040260200160405190810160405280939291908181526020018383808284378201915050505050509192919290505050611bf9565b604051808215151515815260200191505060405180910390f35b34801561058c57600080fd5b506105c1600480360381019080803573ffffffffffffffffffffffffffffffffffffffff169060200190929190505050611c80565b6040518082815260200191505060405180910390f35b3480156105e357600080fd5b50610618600480360381019080803573ffffffffffffffffffffffffffffffffffffffff1690602001909291905050506122b4565b6040518082815260200191505060405180910390f35b34801561063a57600080fd5b5061067d600480360381019080803573ffffffffffffffffffffffffffffffffffffffff1690602001909291908035600019169060200190929190505050612300565b005b34801561068b57600080fd5b5061069461252a565b005b3480156106a257600080fd5b506106ab612659565b6040518082815260200191505060405180910390f35b3480156106cd57600080fd5b506106ec6004803603810190808035906020019092919050505061265f565b005b3480156106fa57600080fd5b5061072f600480360381019080803573ffffffffffffffffffffffffffffffffffffffff16906020019092919050505061271c565b6040518085151515158152602001846000191660001916815260200183815260200182815260200194505050505060405180910390f35b34801561077257600080fd5b506107ed600480360381019080803573ffffffffffffffffffffffffffffffffffffffff169060200190929190803590602001908201803590602001908080601f01602080910402602001604051908101604052809392919081815260200183838082843782019150505050505091929192905050506127d1565b005b3480156107fb57600080fd5b50610804612892565b6040518080602001828103825283818151815260200191508051906020019060200280838360005b8381101561084757808201518184015260208101905061082c565b505050509050019250505060405180910390f35b34801561086757600080fd5b5061089c600480360381019080803573ffffffffffffffffffffffffffffffffffffffff1690602001909291905050506128ee565b604051808215151515815260200191505060405180910390f35b3480156108c257600080fd5b506108cb612944565b6040518080602001828103825283818151815260200191508051906020019080838360005b8381101561090b5780820151818401526020810190506108f0565b50505050905090810190601f1680156109385780820380516001836020036101000a031916815260200191505b509250505060405180910390f35b34801561095257600080fd5b506109fc6004803603810190808035600019169060200190929190803590602001908201803590602001908080601f01602080910402602001604051908101604052809392919081815260200183838082843782019150505050505091929192908035906020019092919080359060200190929190803560ff169060200190929190803573ffffffffffffffffffffffffffffffffffffffff1690602001909291905050506129e2565b005b348015610a0a57600080fd5b50610a4d600480360381019080803573ffffffffffffffffffffffffffffffffffffffff1690602001909291908035600019169060200190929190505050612cbb565b005b348015610a5b57600080fd5b50610a90600480360381019080803573ffffffffffffffffffffffffffffffffffffffff169060200190929190505050612eac565b005b348015610a9e57600080fd5b50610aa761308f565b6040518080602001828103825283818151815260200191508051906020019080838360005b83811015610ae7578082015181840152602081019050610acc565b50505050905090810190601f168015610b145780820380516001836020036101000a031916815260200191505b509250505060405180910390f35b348015610b2e57600080fd5b50610b376130c8565b6040518080602001828103825283818151815260200191508051906020019060200280838360005b83811015610b7a578082015181840152602081019050610b5f565b505050509050019250505060405180910390f35b348015610b9a57600080fd5b50610c36600480360381019080803590602001908201803590602001908080601f01602080910402602001604051908101604052809392919081815260200183838082843782019150505050505091929192908035906020019092919080359060200190929190803560ff169060200190929190803573ffffffffffffffffffffffffffffffffffffffff1690602001909291905050506130d9565b60405180826000191660001916815260200191505060405180910390f35b348015610c6057600080fd5b50610c696135f2565b6040518082815260200191505060405180910390f35b348015610c8b57600080fd5b50610cae60048036038101908080356000191690602001909291905050506135f8565b604051808060200188151515158152602001878152602001868152602001858152602001846001811115610cde57fe5b60ff1681526020018373ffffffffffffffffffffffffffffffffffffffff1673ffffffffffffffffffffffffffffffffffffffff168152602001828103825289818151815260200191508051906020019080838360005b83811015610d50578082015181840152602081019050610d35565b50505050905090810190601f168015610d7d5780820380516001836020036101000a031916815260200191505b509850505050505050505060405180910390f35b348015610d9d57600080fd5b50610dbc60048036038101908080359060200190929190505050613734565b005b348015610dca57600080fd5b50610df960048036038101908080356000191690602001909291908035151590602001909291905050506137f1565b005b6060610e076006613a04565b905090565b60018054600181600116156101000203166002900480601f016020809104026020016040519081016040528092919081815260200182805460018160011615610100020316600290048015610ea25780601f10610e7757610100808354040283529160200191610ea2565b820191906000526020600020905b815481529060010190602001808311610e8557829003601f168201915b505050505081565b610f27826000836040518082805190602001908083835b602083101515610ee65780518252602082019150602081019050602083039250610ec1565b6001836020036101000a0380198251168184511680821785525050505050509050019150509081526020016040518091039020613a9690919063ffffffff16565b5050565b60056020528060005260406000206000915054906101000a900460ff1681565b6000610f8c336040805190810160405280600c81526020017f636974795f6d616e616765720000000000000000000000000000000000000000815250611bf9565b1515611000576040517f08c379a00000000000000000000000000000000000000000000000000000000081526004018080602001828103825260118152602001807f4f6e6c792063697479206d616e6167657200000000000000000000000000000081525060200191505060405180910390fd5b60035461100d6006613aaf565b101515611082576040517f08c379a00000000000000000000000000000000000000000000000000000000081526004018080602001828103825260118152602001807f4e6f7420656e6f75676820737570706c7900000000000000000000000000000081525060200191505060405180910390fd5b600560008373ffffffffffffffffffffffffffffffffffffffff1673ffffffffffffffffffffffffffffffffffffffff16815260200190815260200160002060009054906101000a900460ff16151515611144576040517f08c379a00000000000000000000000000000000000000000000000000000000081526004018080602001828103825260138152602001807f416c7265616479207061727469636970616e740000000000000000000000000081525060200191505060405180910390fd5b600b60008373ffffffffffffffffffffffffffffffffffffffff1673ffffffffffffffffffffffffffffffffffffffff16815260200190815260200160002060010160009054906101000a900460ff161515611208576040517f08c379a00000000000000000000000000000000000000000000000000000000081526004018080602001828103825260088152602001807f4e6f742073656e7400000000000000000000000000000000000000000000000081525060200191505060405180910390fd5b600b60008373ffffffffffffffffffffffffffffffffffffffff1673ffffffffffffffffffffffffffffffffffffffff16815260200190815260200160002060010160019054906101000a900460ff161515156112cd576040517f08c379a00000000000000000000000000000000000000000000000000000000081526004018080602001828103825260118152602001807f416c726561647920636f6e6669726d656400000000000000000000000000000081525060200191505060405180910390fd5b60001515600b60008473ffffffffffffffffffffffffffffffffffffffff1673ffffffffffffffffffffffffffffffffffffffff16815260200190815260200160002060030160003373ffffffffffffffffffffffffffffffffffffffff1673ffffffffffffffffffffffffffffffffffffffff16815260200190815260200160002060009054906101000a900460ff1615151415156113d5576040517f08c379a00000000000000000000000000000000000000000000000000000000081526004018080602001828103825260168152602001807f596f752063616e7420636f6e6669726d2074776963650000000000000000000081525060200191505060405180910390fd5b6001600b60008473ffffffffffffffffffffffffffffffffffffffff1673ffffffffffffffffffffffffffffffffffffffff16815260200190815260200160002060030160003373ffffffffffffffffffffffffffffffffffffffff1673ffffffffffffffffffffffffffffffffffffffff16815260200190815260200160002060006101000a81548160ff0219169083151502179055506001600b60008473ffffffffffffffffffffffffffffffffffffffff1673ffffffffffffffffffffffffffffffffffffffff16815260200190815260200160002060020160008282540192505081905550600454600b60008473ffffffffffffffffffffffffffffffffffffffff1673ffffffffffffffffffffffffffffffffffffffff1681526020019081526020016000206002015410151561166f576001600b60008473ffffffffffffffffffffffffffffffffffffffff1673ffffffffffffffffffffffffffffffffffffffff16815260200190815260200160002060010160016101000a81548160ff02191690831515021790555061157a82600c613ac090919063ffffffff16565b6115c682600b60008573ffffffffffffffffffffffffffffffffffffffff1673ffffffffffffffffffffffffffffffffffffffff16815260200190815260200160002060000154613e32565b7f1c770a93731be70342e4d215a67c2d277f8c1ca326da36fa3ec3c6e022706a4682336001604051808473ffffffffffffffffffffffffffffffffffffffff1673ffffffffffffffffffffffffffffffffffffffff1681526020018373ffffffffffffffffffffffffffffffffffffffff1673ffffffffffffffffffffffffffffffffffffffff16815260200182151515158152602001935050505060405180910390a1611714565b7f1c770a93731be70342e4d215a67c2d277f8c1ca326da36fa3ec3c6e022706a4682336000604051808473ffffffffffffffffffffffffffffffffffffffff1673ffffffffffffffffffffffffffffffffffffffff1681526020018373ffffffffffffffffffffffffffffffffffffffff1673ffffffffffffffffffffffffffffffffffffffff16815260200182151515158152602001935050505060405180910390a15b600b60008373ffffffffffffffffffffffffffffffffffffffff1673ffffffffffffffffffffffffffffffffffffffff168152602001908152602001600020600201549050919050565b61179d336040805190810160405280600c81526020017f636974795f6d616e616765720000000000000000000000000000000000000000815250611bf9565b1515611811576040517f08c379a00000000000000000000000000000000000000000000000000000000081526004018080602001828103825260118152602001807f4f6e6c792063697479206d616e6167657200000000000000000000000000000081525060200191505060405180910390fd5b61181b8282613f53565b5050565b60035461182c6006613aaf565b1015156118a1576040517f08c379a00000000000000000000000000000000000000000000000000000000081526004018080602001828103825260118152602001807f4e6f7420656e6f75676820737570706c7900000000000000000000000000000081525060200191505060405180910390fd5b600560003373ffffffffffffffffffffffffffffffffffffffff1673ffffffffffffffffffffffffffffffffffffffff16815260200190815260200160002060009054906101000a900460ff16151515611963576040517f08c379a00000000000000000000000000000000000000000000000000000000081526004018080602001828103825260138152602001807f416c7265616479207061727469636970616e740000000000000000000000000081525060200191505060405180910390fd5b600b60003373ffffffffffffffffffffffffffffffffffffffff1673ffffffffffffffffffffffffffffffffffffffff16815260200190815260200160002060010160009054906101000a900460ff16151515611a28576040517f08c379a000000000000000000000000000000000000000000000000000000000815260040180806020018281038252600c8152602001807f416c72656164792073656e74000000000000000000000000000000000000000081525060200191505060405180910390fd5b608060405190810160405280826000191681526020016001151581526020016000151581526020016000815250600b60003373ffffffffffffffffffffffffffffffffffffffff1673ffffffffffffffffffffffffffffffffffffffff1681526020019081526020016000206000820151816000019060001916905560208201518160010160006101000a81548160ff02191690831515021790555060408201518160010160016101000a81548160ff02191690831515021790555060608201518160020155905050611b0533600c61408790919063ffffffff16565b7f1397ce7201c0e8ab68be45be2eac362cd7fbbb9a82a909bbc6bb49a1e4545ca633604051808273ffffffffffffffffffffffffffffffffffffffff1673ffffffffffffffffffffffffffffffffffffffff16815260200191505060405180910390a150565b60606009805480602002602001604051908101604052809291908181526020018280548015611bef57602002820191906000526020600020905b8160009054906101000a900473ffffffffffffffffffffffffffffffffffffffff1673ffffffffffffffffffffffffffffffffffffffff1681526020019060010190808311611ba5575b5050505050905090565b6000611c78836000846040518082805190602001908083835b602083101515611c375780518252602082019150602081019050602083039250611c12565b6001836020036101000a038019825116818451168082178552505050505050905001915050908152602001604051809103902061426490919063ffffffff16565b905092915050565b6000806000600a60008573ffffffffffffffffffffffffffffffffffffffff1673ffffffffffffffffffffffffffffffffffffffff1681526020019081526020016000209150600f600083600001546000191660001916815260200190815260200160002090508060010160009054906101000a900460ff161515611d6d576040517f08c379a00000000000000000000000000000000000000000000000000000000081526004018080602001828103825260118152602001807f546172696666206e6f742061637469766500000000000000000000000000000081525060200191505060405180910390fd5b6000816002015414151515611dea576040517f08c379a00000000000000000000000000000000000000000000000000000000081526004018080602001828103825260168152602001807f546172696666207061796d656e74206973206e756c6c0000000000000000000081525060200191505060405180910390fd5b6000816003015414151515611e67576040517f08c379a000000000000000000000000000000000000000000000000000000000815260040180806020018281038252601d8152602001807f546172696666207061796d656e7420706572696f64206973206e756c6c00000081525060200191505060405180910390fd5b600560008573ffffffffffffffffffffffffffffffffffffffff1673ffffffffffffffffffffffffffffffffffffffff16815260200190815260200160002060009054906101000a900460ff161515611f28576040517f08c379a000000000000000000000000000000000000000000000000000000000815260040180806020018281038252600a8152602001807f4e6f74206163746976650000000000000000000000000000000000000000000081525060200191505060405180910390fd5b600a60008573ffffffffffffffffffffffffffffffffffffffff1673ffffffffffffffffffffffffffffffffffffffff168152602001908152602001600020600101548160030154420310151515611fe8576040517f08c379a00000000000000000000000000000000000000000000000000000000081526004018080602001828103825260088152602001807f546f6f20736f6f6e00000000000000000000000000000000000000000000000081525060200191505060405180910390fd5b8060030154600a60008673ffffffffffffffffffffffffffffffffffffffff1673ffffffffffffffffffffffffffffffffffffffff168152602001908152602001600020600101600082825401925050819055508060020154600a60008673ffffffffffffffffffffffffffffffffffffffff1673ffffffffffffffffffffffffffffffffffffffff168152602001908152602001600020600201600082825401925050819055506000600181111561209d57fe5b8160050160009054906101000a900460ff1660018111156120ba57fe5b1415612110578373ffffffffffffffffffffffffffffffffffffffff166108fc82600201549081150290604051600060405180830381858888f1935050505015801561210a573d6000803e3d6000fd5b5061224c565b8060050160019054906101000a900473ffffffffffffffffffffffffffffffffffffffff1673ffffffffffffffffffffffffffffffffffffffff166323b872dd308684600201546040518463ffffffff167c0100000000000000000000000000000000000000000000000000000000028152600401808473ffffffffffffffffffffffffffffffffffffffff1673ffffffffffffffffffffffffffffffffffffffff1681526020018373ffffffffffffffffffffffffffffffffffffffff1673ffffffffffffffffffffffffffffffffffffffff1681526020018281526020019350505050602060405180830381600087803b15801561220f57600080fd5b505af1158015612223573d6000803e3d6000fd5b505050506040513d602081101561223957600080fd5b8101908080519060200190929190505050505b806002015481600401600082825401925050819055508060030154600a60008673ffffffffffffffffffffffffffffffffffffffff1673ffffffffffffffffffffffffffffffffffffffff168152602001908152602001600020600101540192505050919050565b6000600b60008373ffffffffffffffffffffffffffffffffffffffff1673ffffffffffffffffffffffffffffffffffffffff168152602001908152602001600020600201549050919050565b61233f336040805190810160405280600c81526020017f636974795f6d616e616765720000000000000000000000000000000000000000815250611bf9565b15156123b3576040517f08c379a00000000000000000000000000000000000000000000000000000000081526004018080602001828103825260118152602001807f4f6e6c792063697479206d616e6167657200000000000000000000000000000081525060200191505060405180910390fd5b600560008373ffffffffffffffffffffffffffffffffffffffff1673ffffffffffffffffffffffffffffffffffffffff16815260200190815260200160002060009054906101000a900460ff16151515612475576040517f08c379a00000000000000000000000000000000000000000000000000000000081526004018080602001828103825260138152602001807f416c7265616479207061727469636970616e740000000000000000000000000081525060200191505060405180910390fd5b61247f8282613e32565b7fba5fe7468094ee0772588103af3bff67a6a41f671684a5081caf6cbb7c6c4b85338383604051808473ffffffffffffffffffffffffffffffffffffffff1673ffffffffffffffffffffffffffffffffffffffff1681526020018373ffffffffffffffffffffffffffffffffffffffff1673ffffffffffffffffffffffffffffffffffffffff1681526020018260001916600019168152602001935050505060405180910390a15050565b600560003373ffffffffffffffffffffffffffffffffffffffff1673ffffffffffffffffffffffffffffffffffffffff16815260200190815260200160002060009054906101000a900460ff1615156125eb576040517f08c379a000000000000000000000000000000000000000000000000000000000815260040180806020018281038252600f8152602001807f4e6f74207061727469636970616e74000000000000000000000000000000000081525060200191505060405180910390fd5b6000600560003373ffffffffffffffffffffffffffffffffffffffff1673ffffffffffffffffffffffffffffffffffffffff16815260200190815260200160002060006101000a81548160ff021916908315150217905550612657336006613ac090919063ffffffff16565b565b60045481565b61269e336040805190810160405280600c81526020017f636974795f6d616e616765720000000000000000000000000000000000000000815250611bf9565b1515612712576040517f08c379a00000000000000000000000000000000000000000000000000000000081526004018080602001828103825260118152602001807f4f6e6c792063697479206d616e6167657200000000000000000000000000000081525060200191505060405180910390fd5b8060038190555050565b6000806000806000600a60008773ffffffffffffffffffffffffffffffffffffffff1673ffffffffffffffffffffffffffffffffffffffff1681526020019081526020016000209050600560008773ffffffffffffffffffffffffffffffffffffffff1673ffffffffffffffffffffffffffffffffffffffff16815260200190815260200160002060009054906101000a900460ff168160000154826002015483600101549450945094509450509193509193565b612810336040805190810160405280600c81526020017f636974795f6d616e616765720000000000000000000000000000000000000000815250611bf9565b1515612884576040517f08c379a00000000000000000000000000000000000000000000000000000000081526004018080602001828103825260118152602001807f4f6e6c792063697479206d616e6167657200000000000000000000000000000081525060200191505060405180910390fd5b61288e82826142bd565b5050565b606060138054806020026020016040519081016040528092919081815260200182805480156128e457602002820191906000526020600020905b815460001916815260200190600101908083116128cc575b5050505050905090565b6000600560008373ffffffffffffffffffffffffffffffffffffffff1673ffffffffffffffffffffffffffffffffffffffff16815260200190815260200160002060009054906101000a900460ff169050919050565b60028054600181600116156101000203166002900480601f0160208091040260200160405190810160405280929190818152602001828054600181600116156101000203166002900480156129da5780601f106129af576101008083540402835291602001916129da565b820191906000526020600020905b8154815290600101906020018083116129bd57829003601f168201915b505050505081565b612a21336040805190810160405280600c81526020017f636974795f6d616e616765720000000000000000000000000000000000000000815250611bf9565b1515612a95576040517f08c379a00000000000000000000000000000000000000000000000000000000081526004018080602001828103825260118152602001807f4f6e6c792063697479206d616e6167657200000000000000000000000000000081525060200191505060405180910390fd5b84600f600088600019166000191681526020019081526020016000206000019080519060200190612ac79291906148b0565b5083600f600088600019166000191681526020019081526020016000206002018190555082600f600088600019166000191681526020019081526020016000206003018190555081600f6000886000191660001916815260200190815260200160002060050160006101000a81548160ff02191690836001811115612b4857fe5b021790555080600f6000886000191660001916815260200190815260200160002060050160016101000a81548173ffffffffffffffffffffffffffffffffffffffff021916908373ffffffffffffffffffffffffffffffffffffffff1602179055507ffdc8ac7f63e39d6ab84a96a650333013eec6a444dd3aab4a9673742dcaee8e8786868686866001811115612bdb57fe5b86604051808760001916600019168152602001806020018681526020018581526020018460ff1660ff1681526020018373ffffffffffffffffffffffffffffffffffffffff1673ffffffffffffffffffffffffffffffffffffffff168152602001828103825287818151815260200191508051906020019080838360005b83811015612c74578082015181840152602081019050612c59565b50505050905090810190601f168015612ca15780820380516001836020036101000a031916815260200191505b5097505050505050505060405180910390a1505050505050565b612cfa336040805190810160405280600c81526020017f636974795f6d616e616765720000000000000000000000000000000000000000815250611bf9565b1515612d6e576040517f08c379a00000000000000000000000000000000000000000000000000000000081526004018080602001828103825260118152602001807f4f6e6c792063697479206d616e6167657200000000000000000000000000000081525060200191505060405180910390fd5b80600a60008473ffffffffffffffffffffffffffffffffffffffff1673ffffffffffffffffffffffffffffffffffffffff16815260200190815260200160002060000181600019169055506000600a60008473ffffffffffffffffffffffffffffffffffffffff1673ffffffffffffffffffffffffffffffffffffffff168152602001908152602001600020600201819055507f2ae11b2542b9c52a503600c53dbd51085a55ff4d85b5678f3684f04e4607bcb4338383604051808473ffffffffffffffffffffffffffffffffffffffff1673ffffffffffffffffffffffffffffffffffffffff1681526020018373ffffffffffffffffffffffffffffffffffffffff1673ffffffffffffffffffffffffffffffffffffffff1681526020018260001916600019168152602001935050505060405180910390a15050565b612eeb336040805190810160405280600c81526020017f636974795f6d616e616765720000000000000000000000000000000000000000815250611bf9565b1515612f5f576040517f08c379a00000000000000000000000000000000000000000000000000000000081526004018080602001828103825260118152602001807f4f6e6c792063697479206d616e6167657200000000000000000000000000000081525060200191505060405180910390fd5b600560008273ffffffffffffffffffffffffffffffffffffffff1673ffffffffffffffffffffffffffffffffffffffff16815260200190815260200160002060009054906101000a900460ff161515613020576040517f08c379a000000000000000000000000000000000000000000000000000000000815260040180806020018281038252600f8152602001807f4e6f74207061727469636970616e74000000000000000000000000000000000081525060200191505060405180910390fd5b6000600560008373ffffffffffffffffffffffffffffffffffffffff1673ffffffffffffffffffffffffffffffffffffffff16815260200190815260200160002060006101000a81548160ff02191690831515021790555061308c816006613ac090919063ffffffff16565b50565b6040805190810160405280600c81526020017f636974795f6d616e61676572000000000000000000000000000000000000000081525081565b60606130d460106143f1565b905090565b60008061311b336040805190810160405280600c81526020017f636974795f6d616e616765720000000000000000000000000000000000000000815250611bf9565b151561318f576040517f08c379a00000000000000000000000000000000000000000000000000000000081526004018080602001828103825260118152602001807f4f6e6c792063697479206d616e6167657200000000000000000000000000000081525060200191505060405180910390fd5b3342878786604051602001808673ffffffffffffffffffffffffffffffffffffffff1673ffffffffffffffffffffffffffffffffffffffff166c010000000000000000000000000281526014018581526020018481526020018381526020018273ffffffffffffffffffffffffffffffffffffffff1673ffffffffffffffffffffffffffffffffffffffff166c01000000000000000000000000028152601401955050505050506040516020818303038152906040526040518082805190602001908083835b60208310151561327a5780518252602082019150602081019050602083039250613255565b6001836020036101000a03801982511681845116808217855250505050505090500191505060405180910390209050600f6000826000191660001916815260200190815260200160002060010160009054906101000a900460ff1615151561334a576040517f08c379a00000000000000000000000000000000000000000000000000000000081526004018080602001828103825260168152602001807f54617269666620616c726561647920637265617465640000000000000000000081525060200191505060405180910390fd5b86600f60008360001916600019168152602001908152602001600020600001908051906020019061337c9291906148b0565b5085600f600083600019166000191681526020019081526020016000206002018190555084600f600083600019166000191681526020019081526020016000206003018190555083600f6000836000191660001916815260200190815260200160002060050160006101000a81548160ff021916908360018111156133fd57fe5b021790555082600f6000836000191660001916815260200190815260200160002060050160016101000a81548173ffffffffffffffffffffffffffffffffffffffff021916908373ffffffffffffffffffffffffffffffffffffffff1602179055506001600f6000836000191660001916815260200190815260200160002060010160006101000a81548160ff0219169083151502179055506134aa81601061445190919063ffffffff16565b60138190806001815401808255809150509060018203906000526020600020016000909192909190915090600019169055507f665d1d006c6253aaaea35061cb23bca87e46289812605e066def7c765fa0542a8188888888600181111561350d57fe5b88604051808760001916600019168152602001806020018681526020018581526020018460ff1660ff1681526020018373ffffffffffffffffffffffffffffffffffffffff1673ffffffffffffffffffffffffffffffffffffffff168152602001828103825287818151815260200191508051906020019080838360005b838110156135a657808201518184015260208101905061358b565b50505050905090810190601f1680156135d35780820380516001836020036101000a031916815260200191505b5097505050505050505060405180910390a18091505095945050505050565b60035481565b60606000806000806000806000600f60008a600019166000191681526020019081526020016000209050806000018160010160009054906101000a900460ff168260020154836003015484600401548560050160009054906101000a900460ff168660050160019054906101000a900473ffffffffffffffffffffffffffffffffffffffff16868054600181600116156101000203166002900480601f0160208091040260200160405190810160405280929190818152602001828054600181600116156101000203166002900480156137135780601f106136e857610100808354040283529160200191613713565b820191906000526020600020905b8154815290600101906020018083116136f657829003601f168201915b50505050509650975097509750975097509750975050919395979092949650565b613773336040805190810160405280600c81526020017f636974795f6d616e616765720000000000000000000000000000000000000000815250611bf9565b15156137e7576040517f08c379a00000000000000000000000000000000000000000000000000000000081526004018080602001828103825260118152602001807f4f6e6c792063697479206d616e6167657200000000000000000000000000000081525060200191505060405180910390fd5b8060048190555050565b613830336040805190810160405280600c81526020017f636974795f6d616e616765720000000000000000000000000000000000000000815250611bf9565b15156138a4576040517f08c379a00000000000000000000000000000000000000000000000000000000081526004018080602001828103825260118152602001807f4f6e6c792063697479206d616e6167657200000000000000000000000000000081525060200191505060405180910390fd5b801515600f6000846000191660001916815260200190815260200160002060010160009054906101000a900460ff1615151415151561394b576040517f08c379a000000000000000000000000000000000000000000000000000000000815260040180806020018281038252600b8152602001807f53616d652073746174757300000000000000000000000000000000000000000081525060200191505060405180910390fd5b80600f6000846000191660001916815260200190815260200160002060010160006101000a81548160ff02191690831515021790555080156139a05761399b82601061445190919063ffffffff16565b6139b5565b6139b482601061450590919063ffffffff16565b5b7fa468e8808de226695127eb52b091b945527354830cff5358eddf58444fe0e2918282604051808360001916600019168152602001821515151581526020019250505060405180910390a15050565b606081600001805480602002602001604051908101604052809291908181526020018280548015613a8a57602002820191906000526020600020905b8160009054906101000a900473ffffffffffffffffffffffffffffffffffffffff1673ffffffffffffffffffffffffffffffffffffffff1681526020019060010190808311613a40575b50505050509050919050565b613aa08282614264565b1515613aab57600080fd5b5050565b600081600001805490509050919050565b6000806000808560000180549050111515613b43576040517f08c379a000000000000000000000000000000000000000000000000000000000815260040180806020018281038252600e8152602001807f417272617920697320656d70747900000000000000000000000000000000000081525060200191505060405180910390fd5b600115158560020160008673ffffffffffffffffffffffffffffffffffffffff1673ffffffffffffffffffffffffffffffffffffffff16815260200190815260200160002060009054906101000a900460ff161515141515613c0d576040517f08c379a00000000000000000000000000000000000000000000000000000000081526004018080602001828103825260158152602001807f456c656d656e7420646f65736e2774206578697374000000000000000000000081525060200191505060405180910390fd5b600185600001805490500392508460010160008573ffffffffffffffffffffffffffffffffffffffff1673ffffffffffffffffffffffffffffffffffffffff1681526020019081526020016000205491508460000183815481101515613c6f57fe5b9060005260206000200160009054906101000a900473ffffffffffffffffffffffffffffffffffffffff169050808560000183815481101515613cae57fe5b9060005260206000200160006101000a81548173ffffffffffffffffffffffffffffffffffffffff021916908373ffffffffffffffffffffffffffffffffffffffff1602179055508460000183815481101515613d0757fe5b9060005260206000200160006101000a81549073ffffffffffffffffffffffffffffffffffffffff021916905560018560000180549050038560000181613d4e9190614930565b508460010160008573ffffffffffffffffffffffffffffffffffffffff1673ffffffffffffffffffffffffffffffffffffffff168152602001908152602001600020600090558460020160008573ffffffffffffffffffffffffffffffffffffffff1673ffffffffffffffffffffffffffffffffffffffff16815260200190815260200160002060006101000a81549060ff0219169055818560010160008373ffffffffffffffffffffffffffffffffffffffff1673ffffffffffffffffffffffffffffffffffffffff168152602001908152602001600020819055505050505050565b6001600560008473ffffffffffffffffffffffffffffffffffffffff1673ffffffffffffffffffffffffffffffffffffffff16815260200190815260200160002060006101000a81548160ff021916908315150217905550613e9e82600661408790919063ffffffff16565b60098290806001815401808255809150509060018203906000526020600020016000909192909190916101000a81548173ffffffffffffffffffffffffffffffffffffffff021916908373ffffffffffffffffffffffffffffffffffffffff1602179055505080600a60008473ffffffffffffffffffffffffffffffffffffffff1673ffffffffffffffffffffffffffffffffffffffff16815260200190815260200160002060000181600019169055505050565b613fd0826000836040518082805190602001908083835b602083101515613f8f5780518252602082019150602081019050602083039250613f6a565b6001836020036101000a038019825116818451168082178552505050505050905001915050908152602001604051809103902061463890919063ffffffff16565b8173ffffffffffffffffffffffffffffffffffffffff167fd211483f91fc6eff862467f8de606587a30c8fc9981056f051b897a418df803a826040518080602001828103825283818151815260200191508051906020019080838360005b8381101561404957808201518184015260208101905061402e565b50505050905090810190601f1680156140765780820380516001836020036101000a031916815260200191505b509250505060405180910390a25050565b600015158260020160008373ffffffffffffffffffffffffffffffffffffffff1673ffffffffffffffffffffffffffffffffffffffff16815260200190815260200160002060009054906101000a900460ff161515141515614151576040517f08c379a00000000000000000000000000000000000000000000000000000000081526004018080602001828103825260168152602001807f456c656d656e7420616c7265616479206578697374730000000000000000000081525060200191505060405180910390fd5b81600001805490508260010160008373ffffffffffffffffffffffffffffffffffffffff1673ffffffffffffffffffffffffffffffffffffffff1681526020019081526020016000208190555060018260020160008373ffffffffffffffffffffffffffffffffffffffff1673ffffffffffffffffffffffffffffffffffffffff16815260200190815260200160002060006101000a81548160ff021916908315150217905550816000018190806001815401808255809150509060018203906000526020600020016000909192909190916101000a81548173ffffffffffffffffffffffffffffffffffffffff021916908373ffffffffffffffffffffffffffffffffffffffff160217905550505050565b60008260000160008373ffffffffffffffffffffffffffffffffffffffff1673ffffffffffffffffffffffffffffffffffffffff16815260200190815260200160002060009054906101000a900460ff16905092915050565b61433a826000836040518082805190602001908083835b6020831015156142f957805182526020820191506020810190506020830392506142d4565b6001836020036101000a038019825116818451168082178552505050505050905001915050908152602001604051809103902061469690919063ffffffff16565b8173ffffffffffffffffffffffffffffffffffffffff167fbfec83d64eaa953f2708271a023ab9ee82057f8f3578d548c1a4ba0b5b700489826040518080602001828103825283818151815260200191508051906020019080838360005b838110156143b3578082015181840152602081019050614398565b50505050905090810190601f1680156143e05780820380516001836020036101000a031916815260200191505b509250505060405180910390a25050565b60608160000180548060200260200160405190810160405280929190818152602001828054801561444557602002820191906000526020600020905b8154600019168152602001906001019080831161442d575b50505050509050919050565b60001515826002016000836000191660001916815260200190815260200160002060009054906101000a900460ff1615151415156144f7576040517f08c379a00000000000000000000000000000000000000000000000000000000081526004018080602001828103825260168152602001807f456c656d656e7420616c7265616479206578697374730000000000000000000081525060200191505060405180910390fd5b61450182826146f4565b5050565b60008260000180549050111515614584576040517f08c379a000000000000000000000000000000000000000000000000000000000815260040180806020018281038252600e8152602001807f417272617920697320656d70747900000000000000000000000000000000000081525060200191505060405180910390fd5b60011515826002016000836000191660001916815260200190815260200160002060009054906101000a900460ff16151514151561462a576040517f08c379a00000000000000000000000000000000000000000000000000000000081526004018080602001828103825260158152602001807f456c656d656e7420646f65736e2774206578697374000000000000000000000081525060200191505060405180910390fd5b614634828261478b565b5050565b60008260000160008373ffffffffffffffffffffffffffffffffffffffff1673ffffffffffffffffffffffffffffffffffffffff16815260200190815260200160002060006101000a81548160ff0219169083151502179055505050565b60018260000160008373ffffffffffffffffffffffffffffffffffffffff1673ffffffffffffffffffffffffffffffffffffffff16815260200190815260200160002060006101000a81548160ff0219169083151502179055505050565b81600001805490508260010160008360001916600019168152602001908152602001600020819055506001826002016000836000191660001916815260200190815260200160002060006101000a81548160ff021916908315150217905550816000018190806001815401808255809150509060018203906000526020600020016000909192909190915090600019169055505050565b600080600060018560000180549050039250846001016000856000191660001916815260200190815260200160002054915084600001838154811015156147ce57fe5b906000526020600020015490508085600001838154811015156147ed57fe5b906000526020600020018160001916905550846000018381548110151561481057fe5b906000526020600020016000905560018560000180549050038560000181614838919061495c565b50846001016000856000191660001916815260200190815260200160002060009055846002016000856000191660001916815260200190815260200160002060006101000a81549060ff0219169055818560010160008360001916600019168152602001908152602001600020819055505050505050565b828054600181600116156101000203166002900490600052602060002090601f016020900481019282601f106148f157805160ff191683800117855561491f565b8280016001018555821561491f579182015b8281111561491e578251825591602001919060010190614903565b5b50905061492c9190614988565b5090565b815481835581811115614957578183600052602060002091820191016149569190614988565b5b505050565b8154818355818111156149835781836000526020600020918201910161498291906149ad565b5b505050565b6149aa91905b808211156149a657600081600090555060010161498e565b5090565b90565b6149cf91905b808211156149cb5760008160009055506001016149b3565b5090565b905600a165627a7a72305820d4d34fc48fdcb569ddb283b40c76c520136dd0c087371f743638c4b26766d3d10029",
  "source": "/*\n * Copyright  2018 GaltSpace Society Construction and Terraforming Company\n * (Founded by [Nikolai Popeka](https://github.com/npopeka),\n * [Dima Starodubcev](https://github.com/xhipster),\n * [Valery Litvin](https://github.com/litvintech) by\n * [Basic Agreement](http://cyb.ai/QmSAWEG5u5aSsUyMNYuX2A2Eaz4kEuoYWUkVBRdmu9qmct:ipfs)).\n *\n * Copyright  2018 GaltCore Blockchain Company\n * (Founded by [Nikolai Popeka](https://github.com/npopeka) and\n * GaltSpace Society Construction and Terraforming Company by\n * [Basic Agreement](http://cyb.ai/QmaCiXUmSrP16Gz8Jdzq6AJESY1EAANmmwha15uR3c1bsS:ipfs)).\n */\n\npragma solidity 0.4.24;\npragma experimental \"v0.5.0\";\n\nimport \"openzeppelin-solidity/contracts/token/ERC20/ERC20.sol\";\nimport \"openzeppelin-solidity/contracts/ownership/rbac/RBAC.sol\";\nimport \"./utils/ArraySet.sol\";\n\nlibrary CityLibrary {\n    struct Payment {\n        bytes32 tariff;\n        uint256 lastTimestamp;\n        uint256 totalAmount;\n    }\n    struct ParticipationRequest {\n        bytes32 tariff;\n        bool sent;\n        bool confirmed;\n        uint256 confirmationsCount;\n        mapping (address => bool) confirmations;\n    }\n    struct Tariff {\n        string title;\n        bool active;\n        uint256 payment;\n        uint256 paymentPeriod;\n        uint256 paymentSent;\n        TariffCurrency currency;\n        address currencyAddress;\n        ArraySet.AddressSet activeParticipants;\n    }\n    enum TariffCurrency {\n        ETH,\n        ERC20\n    }\n}\n\ncontract City is RBAC {\n//    using CityLibrary for CityLibrary.payment;\n//    using CityLibrary for CityLibrary.participationRequest;\n    \n    using ArraySet for ArraySet.AddressSet;\n    using ArraySet for ArraySet.Bytes32Set;\n\n    string public constant CITY_MANAGER_ROLE = \"city_manager\";\n    \n    string public name;\n    string public symbol;\n    uint256 public maxSupply;\n    uint256 public confirmsToParticipation;\n\n    event TariffCreated(bytes32 id, string title, uint256 payment, uint256 paymentPeriod, uint8 currency, address currencyAddress);\n    event TariffEdited(bytes32 id, string title, uint256 payment, uint256 paymentPeriod, uint8 currency, address currencyAddress);\n    event TariffActiveChanged(bytes32 id, bool active);\n    event ParticipationRequest(address requested);\n    event ParticipationConfirm(address requested, address confirmed, bool fully);\n    event ParticipationAdded(address cityManager, address member, bytes32 tariff);\n    event ParticipationTariffChanged(address cityManager, address member, bytes32 tariff);\n\n    mapping (address => bool) public participants;\n    ArraySet.AddressSet activeParticipants;\n    address[] allParticipants;\n\n    mapping (address => CityLibrary.Payment) private payments;\n    mapping (address => CityLibrary.ParticipationRequest) private participationRequests;\n    ArraySet.AddressSet activeRequests;\n\n    mapping (bytes32 => CityLibrary.Tariff) private tariffs;\n    ArraySet.Bytes32Set activeTariffs;\n    bytes32[] allTariffs;\n\n    constructor(uint256 _maxSupply, string _name, string _symbol) public {\n        maxSupply = _maxSupply;\n        name = _name;\n        symbol = _symbol;\n\n        confirmsToParticipation = 1;\n\n        super.addRole(msg.sender, CITY_MANAGER_ROLE);\n        participants[msg.sender] = true;\n        activeParticipants.add(msg.sender);\n    }\n\n    function() external payable { }\n\n    modifier onlyCityManager() {\n        require(hasRole(msg.sender, CITY_MANAGER_ROLE), \"Only city manager\");\n        _;\n    }\n    \n    function createTariff(string _title, uint256 _payment, uint256 _paymentPeriod, CityLibrary.TariffCurrency _currency, address _currencyAddress) public onlyCityManager returns(bytes32) {\n        bytes32 _id = keccak256(\n            abi.encodePacked(\n                msg.sender,\n                block.timestamp,\n                _payment,\n                _paymentPeriod,\n                _currencyAddress\n            )\n        );\n        require(!tariffs[_id].active, \"Tariff already created\");\n        \n        tariffs[_id].title = _title;\n        tariffs[_id].payment = _payment;\n        tariffs[_id].paymentPeriod = _paymentPeriod;\n        tariffs[_id].currency = _currency;\n        tariffs[_id].currencyAddress = _currencyAddress;\n        tariffs[_id].active = true;\n\n        activeTariffs.add(_id);\n        allTariffs.push(_id);\n        \n        emit TariffCreated(_id, _title, _payment, _paymentPeriod, uint8(_currency), _currencyAddress);\n        return _id;\n    }\n    \n    function setTariffActive(bytes32 _id, bool _active) public onlyCityManager {\n        require(tariffs[_id].active != _active, \"Same status\");\n        \n        tariffs[_id].active = _active;\n        \n        if(_active) {\n            activeTariffs.add(_id);\n        } else {\n            activeTariffs.remove(_id);\n        }\n        \n        emit TariffActiveChanged(_id, _active);\n    }\n    \n    function editTariff(bytes32 _id, string _title, uint256 _payment, uint256 _paymentPeriod, CityLibrary.TariffCurrency _currency, address _currencyAddress) public onlyCityManager {\n        tariffs[_id].title = _title;\n        tariffs[_id].payment = _payment;\n        tariffs[_id].paymentPeriod = _paymentPeriod;\n        tariffs[_id].currency = _currency;\n        tariffs[_id].currencyAddress = _currencyAddress;\n        \n        emit TariffEdited(_id, _title, _payment, _paymentPeriod, uint8(_currency), _currencyAddress);\n    }\n\n    function setMaxSupply(uint256 _maxSupply) public onlyCityManager {\n        maxSupply = _maxSupply;\n    }\n\n    function setConfirmsToParticipation(uint256 _confirmsToParticipation) public onlyCityManager {\n        confirmsToParticipation = _confirmsToParticipation;\n    }\n\n    function claimPayment(address claimFor) public returns (uint256 nextDate) {\n        CityLibrary.Payment storage payment = payments[claimFor];\n        CityLibrary.Tariff storage tariff = tariffs[payment.tariff];\n        require(tariff.active, \"Tariff not active\");\n        require(tariff.payment != 0, \"Tariff payment is null\");\n        require(tariff.paymentPeriod != 0, \"Tariff payment period is null\");\n\n        require(participants[claimFor], \"Not active\");\n        require(now - tariff.paymentPeriod >= payments[claimFor].lastTimestamp, \"Too soon\");\n\n        payments[claimFor].lastTimestamp += tariff.paymentPeriod;\n        payments[claimFor].totalAmount += tariff.payment;\n\n        if(tariff.currency == CityLibrary.TariffCurrency.ETH) {\n            claimFor.transfer(tariff.payment);\n        } else {\n            ERC20(tariff.currencyAddress).transferFrom(address(this), claimFor, tariff.payment);\n        }\n\n        tariff.paymentSent += tariff.payment;\n\n        return payments[claimFor].lastTimestamp + tariff.paymentPeriod;\n    }\n\n    function isParticipant(address _address) public view returns (bool) {\n        return participants[_address];\n    }\n    \n    function addParticipation(address _address, bytes32 _tariff) public onlyCityManager {\n        require(!participants[_address], \"Already participant\");\n\n        addParticipationUnsafe(_address, _tariff);\n\n        emit ParticipationAdded(msg.sender, _address, _tariff);\n    }\n    \n    function addParticipationUnsafe(address _address, bytes32 _tariff) private {\n        participants[_address] = true;\n        activeParticipants.add(_address);\n        allParticipants.push(_address);\n        payments[_address].tariff = _tariff;\n    }\n    \n    function changeParticipationTariff(address _address, bytes32 _tariff) public onlyCityManager {\n        payments[_address].tariff = _tariff;\n        payments[_address].totalAmount = 0;\n        \n        emit ParticipationTariffChanged(msg.sender, _address, _tariff);\n    }\n\n    function requestParticipation(bytes32 _tariff) public {\n        require(activeParticipants.size() < maxSupply, \"Not enough supply\");\n        require(!participants[msg.sender], \"Already participant\");\n        require(!participationRequests[msg.sender].sent, \"Already sent\");\n\n        participationRequests[msg.sender] = CityLibrary.ParticipationRequest({ sent: true, confirmed: false, confirmationsCount: 0, tariff: _tariff });\n        activeRequests.add(msg.sender);\n        \n        emit ParticipationRequest(msg.sender);\n    }\n\n    function confirmParticipation(address _requested) public onlyCityManager returns (uint256 count) {\n        require(activeParticipants.size() < maxSupply, \"Not enough supply\");\n        require(!participants[_requested], \"Already participant\");\n        require(participationRequests[_requested].sent, \"Not sent\");\n        require(!participationRequests[_requested].confirmed, \"Already confirmed\");\n\n        require(participationRequests[_requested].confirmations[msg.sender] == false, \"You cant confirm twice\");\n\n        participationRequests[_requested].confirmations[msg.sender] = true;\n        participationRequests[_requested].confirmationsCount += 1;\n\n        if(participationRequests[_requested].confirmationsCount >= confirmsToParticipation){\n            participationRequests[_requested].confirmed = true;\n            activeRequests.remove(_requested);\n            addParticipationUnsafe(_requested, participationRequests[_requested].tariff);\n            emit ParticipationConfirm(_requested, msg.sender, true);\n        } else {\n            emit ParticipationConfirm(_requested, msg.sender, false);\n        }\n\n        return participationRequests[_requested].confirmationsCount;\n    }\n\n    function confirmsOf(address _requested) public view returns (uint256) {\n        return participationRequests[_requested].confirmationsCount;\n    }\n\n    function kickParticipation(address _participant) public onlyCityManager {\n        require(participants[_participant], \"Not participant\");\n\n        participants[_participant] = false;\n        activeParticipants.remove(_participant);\n    }\n\n    function leaveParticipation() public {\n        require(participants[msg.sender], \"Not participant\");\n\n        participants[msg.sender] = false;\n        activeParticipants.remove(msg.sender);\n    }\n\n    function addRoleTo(address _operator, string _role) public onlyCityManager {\n        super.addRole(_operator, _role);\n    }\n\n    function removeRoleFrom(address _operator, string _role) public onlyCityManager {\n        super.removeRole(_operator, _role);\n    }\n    \n    function getAllTariffs() public view returns(bytes32[]) {\n        return allTariffs;\n    }\n\n    function getActiveTariffs() public view returns(bytes32[]) {\n        return activeTariffs.elements();\n    }\n    \n    function getTariff(bytes32 _id) public view returns(\n        string title,\n        bool active,\n        uint256 payment,\n        uint256 paymentPeriod,\n        uint256 paymentSent,\n        CityLibrary.TariffCurrency currency,\n        address currencyAddress\n    )\n    {\n        CityLibrary.Tariff storage t = tariffs[_id];\n        return (\n            t.title,\n            t.active,\n            t.payment,\n            t.paymentPeriod,\n            t.paymentSent,\n            t.currency,\n            t.currencyAddress\n        );\n    }\n    \n    function getAllParticipants() public view returns(address[]) {\n        return allParticipants;\n    }\n\n    function getActiveParticipants() public view returns(address[]) {\n        return activeParticipants.elements();\n    }\n    \n    function getParticipantInfo(address _participant) public view returns\n    (\n        bool active, \n        bytes32 tariff, \n        uint256 totalAmount, \n        uint256 lastTimestamp\n    ) {\n        CityLibrary.Payment storage p = payments[_participant];\n        return (\n            participants[_participant],\n            p.tariff,\n            p.totalAmount,\n            p.lastTimestamp\n        );\n    }\n}\n",
  "sourcePath": "/Users/jonybang/workspace/dcity/contracts/City.sol",
  "compiler": {
    "name": "solc",
    "version": "0.4.24+commit.e67f0147.Emscripten.clang"
  },
  "schemaVersion": "2.0.1",
  "updatedAt": "2018-11-25T22:27:11.372Z"
}