{
  "contractName": "City",
  "abi": [
    {
      "constant": true,
      "inputs": [],
      "name": "MEMBER_LEAVE_MANAGER_ROLE",
      "outputs": [
        {
          "name": "",
          "type": "string"
        }
      ],
      "payable": false,
      "stateMutability": "view",
      "type": "function"
    },
    {
      "constant": true,
      "inputs": [],
      "name": "name",
      "outputs": [
        {
          "name": "",
          "type": "string"
        }
      ],
      "payable": false,
      "stateMutability": "view",
      "type": "function"
    },
    {
      "constant": true,
      "inputs": [
        {
          "name": "_operator",
          "type": "address"
        },
        {
          "name": "_role",
          "type": "string"
        }
      ],
      "name": "checkRole",
      "outputs": [],
      "payable": false,
      "stateMutability": "view",
      "type": "function"
    },
    {
      "constant": true,
      "inputs": [
        {
          "name": "",
          "type": "address"
        }
      ],
      "name": "participants",
      "outputs": [
        {
          "name": "",
          "type": "bool"
        }
      ],
      "payable": false,
      "stateMutability": "view",
      "type": "function"
    },
    {
      "constant": true,
      "inputs": [
        {
          "name": "_operator",
          "type": "address"
        },
        {
          "name": "_role",
          "type": "string"
        }
      ],
      "name": "hasRole",
      "outputs": [
        {
          "name": "",
          "type": "bool"
        }
      ],
      "payable": false,
      "stateMutability": "view",
      "type": "function"
    },
    {
      "constant": true,
      "inputs": [],
      "name": "confirmsToParticipation",
      "outputs": [
        {
          "name": "",
          "type": "uint256"
        }
      ],
      "payable": false,
      "stateMutability": "view",
      "type": "function"
    },
    {
      "constant": false,
      "inputs": [],
      "name": "renounceOwnership",
      "outputs": [],
      "payable": false,
      "stateMutability": "nonpayable",
      "type": "function"
    },
    {
      "constant": true,
      "inputs": [],
      "name": "owner",
      "outputs": [
        {
          "name": "",
          "type": "address"
        }
      ],
      "payable": false,
      "stateMutability": "view",
      "type": "function"
    },
    {
      "constant": true,
      "inputs": [],
      "name": "symbol",
      "outputs": [
        {
          "name": "",
          "type": "string"
        }
      ],
      "payable": false,
      "stateMutability": "view",
      "type": "function"
    },
    {
      "constant": true,
      "inputs": [],
      "name": "MEMBER_JOIN_MANAGER_ROLE",
      "outputs": [
        {
          "name": "",
          "type": "string"
        }
      ],
      "payable": false,
      "stateMutability": "view",
      "type": "function"
    },
    {
      "constant": true,
      "inputs": [],
      "name": "RATE_MANAGER_ROLE",
      "outputs": [
        {
          "name": "",
          "type": "string"
        }
      ],
      "payable": false,
      "stateMutability": "view",
      "type": "function"
    },
    {
      "constant": true,
      "inputs": [],
      "name": "maxSupply",
      "outputs": [
        {
          "name": "",
          "type": "uint256"
        }
      ],
      "payable": false,
      "stateMutability": "view",
      "type": "function"
    },
    {
      "constant": false,
      "inputs": [
        {
          "name": "_newOwner",
          "type": "address"
        }
      ],
      "name": "transferOwnership",
      "outputs": [],
      "payable": false,
      "stateMutability": "nonpayable",
      "type": "function"
    },
    {
      "inputs": [
        {
          "name": "_maxSupply",
          "type": "uint256"
        },
        {
          "name": "_name",
          "type": "string"
        },
        {
          "name": "_symbol",
          "type": "string"
        }
      ],
      "payable": false,
      "stateMutability": "nonpayable",
      "type": "constructor"
    },
    {
      "payable": true,
      "stateMutability": "payable",
      "type": "fallback"
    },
    {
      "anonymous": false,
      "inputs": [
        {
          "indexed": false,
          "name": "id",
          "type": "bytes32"
        },
        {
          "indexed": false,
          "name": "title",
          "type": "string"
        },
        {
          "indexed": false,
          "name": "payment",
          "type": "uint256"
        },
        {
          "indexed": false,
          "name": "paymentPeriod",
          "type": "uint256"
        },
        {
          "indexed": false,
          "name": "currency",
          "type": "uint8"
        },
        {
          "indexed": false,
          "name": "currencyAddress",
          "type": "address"
        }
      ],
      "name": "TariffCreated",
      "type": "event"
    },
    {
      "anonymous": false,
      "inputs": [
        {
          "indexed": false,
          "name": "id",
          "type": "bytes32"
        },
        {
          "indexed": false,
          "name": "title",
          "type": "string"
        },
        {
          "indexed": false,
          "name": "payment",
          "type": "uint256"
        },
        {
          "indexed": false,
          "name": "paymentPeriod",
          "type": "uint256"
        },
        {
          "indexed": false,
          "name": "currency",
          "type": "uint8"
        },
        {
          "indexed": false,
          "name": "currencyAddress",
          "type": "address"
        }
      ],
      "name": "TariffEdited",
      "type": "event"
    },
    {
      "anonymous": false,
      "inputs": [
        {
          "indexed": false,
          "name": "id",
          "type": "bytes32"
        },
        {
          "indexed": false,
          "name": "active",
          "type": "bool"
        }
      ],
      "name": "TariffActiveChanged",
      "type": "event"
    },
    {
      "anonymous": false,
      "inputs": [
        {
          "indexed": false,
          "name": "requested",
          "type": "address"
        }
      ],
      "name": "ParticipationRequest",
      "type": "event"
    },
    {
      "anonymous": false,
      "inputs": [
        {
          "indexed": false,
          "name": "requested",
          "type": "address"
        },
        {
          "indexed": false,
          "name": "confirmed",
          "type": "address"
        },
        {
          "indexed": false,
          "name": "fully",
          "type": "bool"
        }
      ],
      "name": "ParticipationConfirm",
      "type": "event"
    },
    {
      "anonymous": false,
      "inputs": [
        {
          "indexed": false,
          "name": "cityManager",
          "type": "address"
        },
        {
          "indexed": false,
          "name": "member",
          "type": "address"
        },
        {
          "indexed": false,
          "name": "tariff",
          "type": "bytes32"
        }
      ],
      "name": "ParticipationAdded",
      "type": "event"
    },
    {
      "anonymous": false,
      "inputs": [
        {
          "indexed": false,
          "name": "cityManager",
          "type": "address"
        },
        {
          "indexed": false,
          "name": "member",
          "type": "address"
        },
        {
          "indexed": false,
          "name": "tariff",
          "type": "bytes32"
        }
      ],
      "name": "ParticipationTariffRemoved",
      "type": "event"
    },
    {
      "anonymous": false,
      "inputs": [
        {
          "indexed": true,
          "name": "previousOwner",
          "type": "address"
        }
      ],
      "name": "OwnershipRenounced",
      "type": "event"
    },
    {
      "anonymous": false,
      "inputs": [
        {
          "indexed": true,
          "name": "previousOwner",
          "type": "address"
        },
        {
          "indexed": true,
          "name": "newOwner",
          "type": "address"
        }
      ],
      "name": "OwnershipTransferred",
      "type": "event"
    },
    {
      "anonymous": false,
      "inputs": [
        {
          "indexed": true,
          "name": "operator",
          "type": "address"
        },
        {
          "indexed": false,
          "name": "role",
          "type": "string"
        }
      ],
      "name": "RoleAdded",
      "type": "event"
    },
    {
      "anonymous": false,
      "inputs": [
        {
          "indexed": true,
          "name": "operator",
          "type": "address"
        },
        {
          "indexed": false,
          "name": "role",
          "type": "string"
        }
      ],
      "name": "RoleRemoved",
      "type": "event"
    },
    {
      "constant": false,
      "inputs": [
        {
          "name": "_title",
          "type": "string"
        },
        {
          "name": "_payment",
          "type": "uint256"
        },
        {
          "name": "_paymentPeriod",
          "type": "uint256"
        },
        {
          "name": "_mintForPeriods",
          "type": "uint256"
        },
        {
          "name": "_currency",
          "type": "uint8"
        },
        {
          "name": "_currencyAddress",
          "type": "address"
        }
      ],
      "name": "createTariff",
      "outputs": [
        {
          "name": "",
          "type": "bytes32"
        }
      ],
      "payable": false,
      "stateMutability": "nonpayable",
      "type": "function"
    },
    {
      "constant": false,
      "inputs": [
        {
          "name": "_id",
          "type": "bytes32"
        },
        {
          "name": "_active",
          "type": "bool"
        }
      ],
      "name": "setTariffActive",
      "outputs": [],
      "payable": false,
      "stateMutability": "nonpayable",
      "type": "function"
    },
    {
      "constant": false,
      "inputs": [
        {
          "name": "_id",
          "type": "bytes32"
        },
        {
          "name": "_title",
          "type": "string"
        },
        {
          "name": "_payment",
          "type": "uint256"
        },
        {
          "name": "_paymentPeriod",
          "type": "uint256"
        },
        {
          "name": "_mintForPeriods",
          "type": "uint256"
        },
        {
          "name": "_currency",
          "type": "uint8"
        },
        {
          "name": "_currencyAddress",
          "type": "address"
        }
      ],
      "name": "editTariff",
      "outputs": [],
      "payable": false,
      "stateMutability": "nonpayable",
      "type": "function"
    },
    {
      "constant": false,
      "inputs": [
        {
          "name": "_maxSupply",
          "type": "uint256"
        }
      ],
      "name": "setMaxSupply",
      "outputs": [],
      "payable": false,
      "stateMutability": "nonpayable",
      "type": "function"
    },
    {
      "constant": false,
      "inputs": [
        {
          "name": "_confirmsToParticipation",
          "type": "uint256"
        }
      ],
      "name": "setConfirmsToParticipation",
      "outputs": [],
      "payable": false,
      "stateMutability": "nonpayable",
      "type": "function"
    },
    {
      "constant": false,
      "inputs": [
        {
          "name": "_claimFor",
          "type": "address"
        },
        {
          "name": "_tariffId",
          "type": "bytes32"
        },
        {
          "name": "_periodsNumber",
          "type": "uint256"
        }
      ],
      "name": "claimPayment",
      "outputs": [
        {
          "name": "nextDate",
          "type": "uint256"
        }
      ],
      "payable": false,
      "stateMutability": "nonpayable",
      "type": "function"
    },
    {
      "constant": false,
      "inputs": [
        {
          "name": "_address",
          "type": "address"
        },
        {
          "name": "_tariff",
          "type": "bytes32"
        }
      ],
      "name": "addParticipation",
      "outputs": [],
      "payable": false,
      "stateMutability": "nonpayable",
      "type": "function"
    },
    {
      "constant": false,
      "inputs": [
        {
          "name": "_tariffId",
          "type": "bytes32"
        }
      ],
      "name": "requestParticipation",
      "outputs": [],
      "payable": false,
      "stateMutability": "nonpayable",
      "type": "function"
    },
    {
      "constant": false,
      "inputs": [
        {
          "name": "_requested",
          "type": "address"
        },
        {
          "name": "_tariffId",
          "type": "bytes32"
        }
      ],
      "name": "confirmParticipation",
      "outputs": [
        {
          "name": "count",
          "type": "uint256"
        }
      ],
      "payable": false,
      "stateMutability": "nonpayable",
      "type": "function"
    },
    {
      "constant": true,
      "inputs": [
        {
          "name": "_requested",
          "type": "address"
        },
        {
          "name": "_tariffId",
          "type": "bytes32"
        }
      ],
      "name": "confirmsOf",
      "outputs": [
        {
          "name": "",
          "type": "uint256"
        }
      ],
      "payable": false,
      "stateMutability": "view",
      "type": "function"
    },
    {
      "constant": false,
      "inputs": [
        {
          "name": "_member",
          "type": "address"
        }
      ],
      "name": "kickAllParticipation",
      "outputs": [],
      "payable": false,
      "stateMutability": "nonpayable",
      "type": "function"
    },
    {
      "constant": false,
      "inputs": [
        {
          "name": "_member",
          "type": "address"
        },
        {
          "name": "_tariffId",
          "type": "bytes32"
        }
      ],
      "name": "kickTariffParticipation",
      "outputs": [],
      "payable": false,
      "stateMutability": "nonpayable",
      "type": "function"
    },
    {
      "constant": false,
      "inputs": [],
      "name": "leaveAllParticipation",
      "outputs": [],
      "payable": false,
      "stateMutability": "nonpayable",
      "type": "function"
    },
    {
      "constant": false,
      "inputs": [
        {
          "name": "_tariffId",
          "type": "bytes32"
        }
      ],
      "name": "leaveAllParticipation",
      "outputs": [],
      "payable": false,
      "stateMutability": "nonpayable",
      "type": "function"
    },
    {
      "constant": false,
      "inputs": [
        {
          "name": "_operator",
          "type": "address"
        },
        {
          "name": "_role",
          "type": "string"
        }
      ],
      "name": "addRoleTo",
      "outputs": [],
      "payable": false,
      "stateMutability": "nonpayable",
      "type": "function"
    },
    {
      "constant": false,
      "inputs": [
        {
          "name": "_operator",
          "type": "address"
        },
        {
          "name": "_role",
          "type": "string"
        }
      ],
      "name": "removeRoleFrom",
      "outputs": [],
      "payable": false,
      "stateMutability": "nonpayable",
      "type": "function"
    },
    {
      "constant": true,
      "inputs": [],
      "name": "getAllTariffs",
      "outputs": [
        {
          "name": "",
          "type": "bytes32[]"
        }
      ],
      "payable": false,
      "stateMutability": "view",
      "type": "function"
    },
    {
      "constant": true,
      "inputs": [],
      "name": "getActiveTariffs",
      "outputs": [
        {
          "name": "",
          "type": "bytes32[]"
        }
      ],
      "payable": false,
      "stateMutability": "view",
      "type": "function"
    },
    {
      "constant": true,
      "inputs": [
        {
          "name": "_id",
          "type": "bytes32"
        }
      ],
      "name": "getTariff",
      "outputs": [
        {
          "name": "title",
          "type": "string"
        },
        {
          "name": "active",
          "type": "bool"
        },
        {
          "name": "payment",
          "type": "uint256"
        },
        {
          "name": "paymentPeriod",
          "type": "uint256"
        },
        {
          "name": "mintForPeriods",
          "type": "uint256"
        },
        {
          "name": "totalMinted",
          "type": "uint256"
        },
        {
          "name": "totalBurned",
          "type": "uint256"
        },
        {
          "name": "paymentSent",
          "type": "uint256"
        },
        {
          "name": "currency",
          "type": "uint8"
        },
        {
          "name": "currencyAddress",
          "type": "address"
        }
      ],
      "payable": false,
      "stateMutability": "view",
      "type": "function"
    },
    {
      "constant": true,
      "inputs": [],
      "name": "getAllParticipants",
      "outputs": [
        {
          "name": "",
          "type": "address[]"
        }
      ],
      "payable": false,
      "stateMutability": "view",
      "type": "function"
    },
    {
      "constant": true,
      "inputs": [],
      "name": "getActiveParticipants",
      "outputs": [
        {
          "name": "",
          "type": "address[]"
        }
      ],
      "payable": false,
      "stateMutability": "view",
      "type": "function"
    },
    {
      "constant": true,
      "inputs": [],
      "name": "getActiveParticipantsCount",
      "outputs": [
        {
          "name": "",
          "type": "uint256"
        }
      ],
      "payable": false,
      "stateMutability": "view",
      "type": "function"
    },
    {
      "constant": true,
      "inputs": [
        {
          "name": "_tariffId",
          "type": "bytes32"
        }
      ],
      "name": "getTariffActiveParticipants",
      "outputs": [
        {
          "name": "",
          "type": "address[]"
        }
      ],
      "payable": false,
      "stateMutability": "view",
      "type": "function"
    },
    {
      "constant": true,
      "inputs": [
        {
          "name": "_tariffId",
          "type": "bytes32"
        }
      ],
      "name": "getTariffActiveParticipantsCount",
      "outputs": [
        {
          "name": "",
          "type": "uint256"
        }
      ],
      "payable": false,
      "stateMutability": "view",
      "type": "function"
    },
    {
      "constant": true,
      "inputs": [
        {
          "name": "_address",
          "type": "address"
        }
      ],
      "name": "isParticipant",
      "outputs": [
        {
          "name": "",
          "type": "bool"
        }
      ],
      "payable": false,
      "stateMutability": "view",
      "type": "function"
    },
    {
      "constant": true,
      "inputs": [
        {
          "name": "_member",
          "type": "address"
        }
      ],
      "name": "getParticipantInfo",
      "outputs": [
        {
          "name": "active",
          "type": "bool"
        },
        {
          "name": "tariffs",
          "type": "bytes32[]"
        }
      ],
      "payable": false,
      "stateMutability": "view",
      "type": "function"
    },
    {
      "constant": true,
      "inputs": [
        {
          "name": "_member",
          "type": "address"
        },
        {
          "name": "_tariff",
          "type": "bytes32"
        }
      ],
      "name": "getParticipantTariffInfo",
      "outputs": [
        {
          "name": "active",
          "type": "bool"
        },
        {
          "name": "claimed",
          "type": "uint256"
        },
        {
          "name": "minted",
          "type": "uint256"
        },
        {
          "name": "lastTimestamp",
          "type": "uint256"
        }
      ],
      "payable": false,
      "stateMutability": "view",
      "type": "function"
    }
  ],
  "bytecode": "0x60806040523480156200001157600080fd5b5060405162005e2238038062005e2283398101806040528101908080519060200190929190805182019291906020018051820192919050505033600160006101000a81548173ffffffffffffffffffffffffffffffffffffffff021916908373ffffffffffffffffffffffffffffffffffffffff160217905550826004819055508160029080519060200190620000aa9291906200037b565b508060039080519060200190620000c39291906200037b565b50600160058190555062000121336040805190810160405280600c81526020017f726174655f6d616e616765720000000000000000000000000000000000000000815250620001d46401000000000262004bf4176401000000009004565b62000176336040805190810160405280601381526020017f6d656d6265725f6a6f696e5f6d616e6167657200000000000000000000000000815250620001d46401000000000262004bf4176401000000009004565b620001cb336040805190810160405280601481526020017f6d656d6265725f6c656176655f6d616e61676572000000000000000000000000815250620001d46401000000000262004bf4176401000000009004565b5050506200042a565b62000263826000836040518082805190602001908083835b602083101515620002135780518252602082019150602081019050602083039250620001ec565b6001836020036101000a03801982511681845116808217855250505050505090500191505090815260200160405180910390206200031d640100000000026200569f179091906401000000009004565b8173ffffffffffffffffffffffffffffffffffffffff167fbfec83d64eaa953f2708271a023ab9ee82057f8f3578d548c1a4ba0b5b700489826040518080602001828103825283818151815260200191508051906020019080838360005b83811015620002de578082015181840152602081019050620002c1565b50505050905090810190601f1680156200030c5780820380516001836020036101000a031916815260200191505b509250505060405180910390a25050565b60018260000160008373ffffffffffffffffffffffffffffffffffffffff1673ffffffffffffffffffffffffffffffffffffffff16815260200190815260200160002060006101000a81548160ff0219169083151502179055505050565b828054600181600116156101000203166002900490600052602060002090601f016020900481019282601f10620003be57805160ff1916838001178555620003ef565b82800160010185558215620003ef579182015b82811115620003ee578251825591602001919060010190620003d1565b5b509050620003fe919062000402565b5090565b6200042791905b808211156200042357600081600090555060010162000409565b5090565b90565b6159e8806200043a6000396000f3006080604052600436106101ee576000357c0100000000000000000000000000000000000000000000000000000000900463ffffffff168063066d7e64146101f057806306bfcf4e1461025c57806306fdde03146102ec578063073886081461037c5780630988ca8c146103e157806309e69ede1461046a5780630d31e2ea146104c55780630fb0d1e51461054e578063195ec9ee1461057f578063217fe6c6146105eb5780632c3b48101461068c578063430d07b01461075c5780634edd6b1a146107ad57806356c4490a1461081c5780636c2b532c146108de5780636e0f5ec11461095c5780636f8b44b014610987578063715018a6146109b4578063716b3ce5146109cb57806371bdce5514610a51578063726661c314610af4578063790c731614610b7d57806388ffc75d14610be95780638cd666cd14610c2c5780638da5cb5b14610c43578063929066f514610c9a57806395d89b4114610cf55780639ca42fe314610d85578063a3ffc1dc14610db0578063a5d362c914610e40578063be287afa14610e71578063cb327b8b14610eb6578063d376ed2f14610f46578063d5abeb0114610fb2578063e01d5f5d14610fdd578063e97c41d914611042578063f1ad38e214611169578063f2fde38b146111ba578063fab4bdf8146111fd578063fb1dc1171461122a575b005b3480156101fc57600080fd5b50610205611267565b6040518080602001828103825283818151815260200191508051906020019060200280838360005b8381101561024857808201518184015260208101905061022d565b505050509050019250505060405180910390f35b34801561026857600080fd5b50610271611278565b6040518080602001828103825283818151815260200191508051906020019080838360005b838110156102b1578082015181840152602081019050610296565b50505050905090810190601f1680156102de5780820380516001836020036101000a031916815260200191505b509250505060405180910390f35b3480156102f857600080fd5b506103016112b1565b6040518080602001828103825283818151815260200191508051906020019080838360005b83811015610341578082015181840152602081019050610326565b50505050905090810190601f16801561036e5780820380516001836020036101000a031916815260200191505b509250505060405180910390f35b34801561038857600080fd5b506103cb600480360381019080803573ffffffffffffffffffffffffffffffffffffffff169060200190929190803560001916906020019092919050505061134f565b6040518082815260200191505060405180910390f35b3480156103ed57600080fd5b50610468600480360381019080803573ffffffffffffffffffffffffffffffffffffffff169060200190929190803590602001908201803590602001908080601f01602080910402602001604051908101604052809392919081815260200183838082843782019150505050505091929192905050506119de565b005b34801561047657600080fd5b506104ab600480360381019080803573ffffffffffffffffffffffffffffffffffffffff169060200190929190505050611a5f565b604051808215151515815260200191505060405180910390f35b3480156104d157600080fd5b5061054c600480360381019080803573ffffffffffffffffffffffffffffffffffffffff169060200190929190803590602001908201803590602001908080601f0160208091040260200160405190810160405280939291908181526020018383808284378201915050505050509192919290505050611a7f565b005b34801561055a57600080fd5b5061057d6004803603810190808035600019169060200190929190505050611ae9565b005b34801561058b57600080fd5b50610594611e9e565b6040518080602001828103825283818151815260200191508051906020019060200280838360005b838110156105d75780820151818401526020810190506105bc565b505050509050019250505060405180910390f35b3480156105f757600080fd5b50610672600480360381019080803573ffffffffffffffffffffffffffffffffffffffff169060200190929190803590602001908201803590602001908080601f0160208091040260200160405190810160405280939291908181526020018383808284378201915050505050509192919290505050611f2c565b604051808215151515815260200191505060405180910390f35b34801561069857600080fd5b5061073e600480360381019080803590602001908201803590602001908080601f0160208091040260200160405190810160405280939291908181526020018383808284378201915050505050509192919290803590602001909291908035906020019092919080359060200190929190803560ff169060200190929190803573ffffffffffffffffffffffffffffffffffffffff169060200190929190505050611fb3565b60405180826000191660001916815260200191505060405180910390f35b34801561076857600080fd5b506107ab600480360381019080803573ffffffffffffffffffffffffffffffffffffffff16906020019092919080356000191690602001909291905050506124f0565b005b3480156107b957600080fd5b50610806600480360381019080803573ffffffffffffffffffffffffffffffffffffffff169060200190929190803560001916906020019092919080359060200190929190505050612658565b6040518082815260200191505060405180910390f35b34801561082857600080fd5b506108dc6004803603810190808035600019169060200190929190803590602001908201803590602001908080601f0160208091040260200160405190810160405280939291908181526020018383808284378201915050505050509192919290803590602001909291908035906020019092919080359060200190929190803560ff169060200190929190803573ffffffffffffffffffffffffffffffffffffffff169060200190929190505050612d7d565b005b3480156108ea57600080fd5b5061092d600480360381019080803573ffffffffffffffffffffffffffffffffffffffff169060200190929190803560001916906020019092919050505061307a565b604051808515151515815260200184815260200183815260200182815260200194505050505060405180910390f35b34801561096857600080fd5b5061097161310f565b6040518082815260200191505060405180910390f35b34801561099357600080fd5b506109b260048036038101908080359060200190929190505050613115565b005b3480156109c057600080fd5b506109c961317b565b005b3480156109d757600080fd5b506109fa6004803603810190808035600019169060200190929190505050613280565b6040518080602001828103825283818151815260200191508051906020019060200280838360005b83811015610a3d578082015181840152602081019050610a22565b505050509050019250505060405180910390f35b348015610a5d57600080fd5b50610a92600480360381019080803573ffffffffffffffffffffffffffffffffffffffff1690602001909291905050506132af565b604051808315151515815260200180602001828103825283818151815260200191508051906020019060200280838360005b83811015610adf578082015181840152602081019050610ac4565b50505050905001935050505060405180910390f35b348015610b0057600080fd5b50610b7b600480360381019080803573ffffffffffffffffffffffffffffffffffffffff169060200190929190803590602001908201803590602001908080601f0160208091040260200160405190810160405280939291908181526020018383808284378201915050505050509192919290505050613350565b005b348015610b8957600080fd5b50610b926133ba565b6040518080602001828103825283818151815260200191508051906020019060200280838360005b83811015610bd5578082015181840152602081019050610bba565b505050509050019250505060405180910390f35b348015610bf557600080fd5b50610c2a600480360381019080803573ffffffffffffffffffffffffffffffffffffffff169060200190929190505050613416565b005b348015610c3857600080fd5b50610c41613596565b005b348015610c4f57600080fd5b50610c58613662565b604051808273ffffffffffffffffffffffffffffffffffffffff1673ffffffffffffffffffffffffffffffffffffffff16815260200191505060405180910390f35b348015610ca657600080fd5b50610cdb600480360381019080803573ffffffffffffffffffffffffffffffffffffffff169060200190929190505050613688565b604051808215151515815260200191505060405180910390f35b348015610d0157600080fd5b50610d0a6136de565b6040518080602001828103825283818151815260200191508051906020019080838360005b83811015610d4a578082015181840152602081019050610d2f565b50505050905090810190601f168015610d775780820380516001836020036101000a031916815260200191505b509250505060405180910390f35b348015610d9157600080fd5b50610d9a61377c565b6040518082815260200191505060405180910390f35b348015610dbc57600080fd5b50610dc561378d565b6040518080602001828103825283818151815260200191508051906020019080838360005b83811015610e05578082015181840152602081019050610dea565b50505050905090810190601f168015610e325780820380516001836020036101000a031916815260200191505b509250505060405180910390f35b348015610e4c57600080fd5b50610e6f60048036038101908080356000191690602001909291905050506137c6565b005b348015610e7d57600080fd5b50610ea06004803603810190808035600019169060200190929190505050613894565b6040518082815260200191505060405180910390f35b348015610ec257600080fd5b50610ecb6138c3565b6040518080602001828103825283818151815260200191508051906020019080838360005b83811015610f0b578082015181840152602081019050610ef0565b50505050905090810190601f168015610f385780820380516001836020036101000a031916815260200191505b509250505060405180910390f35b348015610f5257600080fd5b50610f5b6138fc565b6040518080602001828103825283818151815260200191508051906020019060200280838360005b83811015610f9e578082015181840152602081019050610f83565b505050509050019250505060405180910390f35b348015610fbe57600080fd5b50610fc761390d565b6040518082815260200191505060405180910390f35b348015610fe957600080fd5b5061102c600480360381019080803573ffffffffffffffffffffffffffffffffffffffff1690602001909291908035600019169060200190929190505050613913565b6040518082815260200191505060405180910390f35b34801561104e57600080fd5b506110716004803603810190808035600019169060200190929190505050613979565b60405180806020018b1515151581526020018a81526020018981526020018881526020018781526020018681526020018581526020018460018111156110b357fe5b60ff1681526020018373ffffffffffffffffffffffffffffffffffffffff1673ffffffffffffffffffffffffffffffffffffffff16815260200182810382528c818151815260200191508051906020019080838360005b8381101561112557808201518184015260208101905061110a565b50505050905090810190601f1680156111525780820380516001836020036101000a031916815260200191505b509b50505050505050505050505060405180910390f35b34801561117557600080fd5b506111b8600480360381019080803573ffffffffffffffffffffffffffffffffffffffff1690602001909291908035600019169060200190929190505050613ad0565b005b3480156111c657600080fd5b506111fb600480360381019080803573ffffffffffffffffffffffffffffffffffffffff169060200190929190505050613c52565b005b34801561120957600080fd5b5061122860048036038101908080359060200190929190505050613cba565b005b34801561123657600080fd5b506112656004803603810190808035600019169060200190929190803515159060200190929190505050613d20565b005b60606112736007613f33565b905090565b6040805190810160405280601481526020017f6d656d6265725f6c656176655f6d616e6167657200000000000000000000000081525081565b60028054600181600116156101000203166002900480601f0160208091040260200160405190810160405280929190818152602001828054600181600116156101000203166002900480156113475780601f1061131c57610100808354040283529160200191611347565b820191906000526020600020905b81548152906001019060200180831161132a57829003601f168201915b505050505081565b600080611391336040805190810160405280601381526020017f6d656d6265725f6a6f696e5f6d616e6167657200000000000000000000000000815250611f2c565b1515611405576040517f08c379a00000000000000000000000000000000000000000000000000000000081526004018080602001828103825260188152602001807f4f6e6c79206d656d626572206a6f696e206d616e61676572000000000000000081525060200191505060405180910390fd5b6004546114126007613fc5565b101515611487576040517f08c379a00000000000000000000000000000000000000000000000000000000081526004018080602001828103825260118152602001807f4e6f7420656e6f75676820737570706c7900000000000000000000000000000081525060200191505060405180910390fd5b600660008573ffffffffffffffffffffffffffffffffffffffff1673ffffffffffffffffffffffffffffffffffffffff16815260200190815260200160002060009054906101000a900460ff16151515611549576040517f08c379a00000000000000000000000000000000000000000000000000000000081526004018080602001828103825260138152602001807f416c7265616479207061727469636970616e740000000000000000000000000081525060200191505060405180910390fd5b600e60008573ffffffffffffffffffffffffffffffffffffffff1673ffffffffffffffffffffffffffffffffffffffff1681526020019081526020016000206000846000191660001916815260200190815260200160002090508060000160009054906101000a900460ff161515611629576040517f08c379a00000000000000000000000000000000000000000000000000000000081526004018080602001828103825260088152602001807f4e6f742073656e7400000000000000000000000000000000000000000000000081525060200191505060405180910390fd5b8060000160019054906101000a900460ff161515156116b0576040517f08c379a00000000000000000000000000000000000000000000000000000000081526004018080602001828103825260118152602001807f416c726561647920636f6e6669726d656400000000000000000000000000000081525060200191505060405180910390fd5b600015158160020160003373ffffffffffffffffffffffffffffffffffffffff1673ffffffffffffffffffffffffffffffffffffffff16815260200190815260200160002060009054906101000a900460ff16151514151561177a576040517f08c379a00000000000000000000000000000000000000000000000000000000081526004018080602001828103825260168152602001807f596f752063616e7420636f6e6669726d2074776963650000000000000000000081525060200191505060405180910390fd5b60018160020160003373ffffffffffffffffffffffffffffffffffffffff1673ffffffffffffffffffffffffffffffffffffffff16815260200190815260200160002060006101000a81548160ff02191690831515021790555060018160010160008282540192505081905550600554816001015410151561192b5760018160000160016101000a81548160ff02191690831515021790555061182784600f613fd690919063ffffffff16565b61187883600d60008773ffffffffffffffffffffffffffffffffffffffff1673ffffffffffffffffffffffffffffffffffffffff16815260200190815260200160002061434890919063ffffffff16565b611882848461447b565b7f1c770a93731be70342e4d215a67c2d277f8c1ca326da36fa3ec3c6e022706a4684336001604051808473ffffffffffffffffffffffffffffffffffffffff1673ffffffffffffffffffffffffffffffffffffffff1681526020018373ffffffffffffffffffffffffffffffffffffffff1673ffffffffffffffffffffffffffffffffffffffff16815260200182151515158152602001935050505060405180910390a16119d0565b7f1c770a93731be70342e4d215a67c2d277f8c1ca326da36fa3ec3c6e022706a4684336000604051808473ffffffffffffffffffffffffffffffffffffffff1673ffffffffffffffffffffffffffffffffffffffff1681526020018373ffffffffffffffffffffffffffffffffffffffff1673ffffffffffffffffffffffffffffffffffffffff16815260200182151515158152602001935050505060405180910390a15b806001015491505092915050565b611a5b826000836040518082805190602001908083835b602083101515611a1a57805182526020820191506020810190506020830392506119f5565b6001836020036101000a038019825116818451168082178552505050505050905001915050908152602001604051809103902061493a90919063ffffffff16565b5050565b60066020528060005260406000206000915054906101000a900460ff1681565b600160009054906101000a900473ffffffffffffffffffffffffffffffffffffffff1673ffffffffffffffffffffffffffffffffffffffff163373ffffffffffffffffffffffffffffffffffffffff16141515611adb57600080fd5b611ae58282614953565b5050565b600454611af66007613fc5565b101515611b6b576040517f08c379a00000000000000000000000000000000000000000000000000000000081526004018080602001828103825260118152602001807f4e6f7420656e6f75676820737570706c7900000000000000000000000000000081525060200191505060405180910390fd5b600660003373ffffffffffffffffffffffffffffffffffffffff1673ffffffffffffffffffffffffffffffffffffffff16815260200190815260200160002060009054906101000a900460ff16151515611c2d576040517f08c379a00000000000000000000000000000000000000000000000000000000081526004018080602001828103825260138152602001807f416c7265616479207061727469636970616e740000000000000000000000000081525060200191505060405180910390fd5b600e60003373ffffffffffffffffffffffffffffffffffffffff1673ffffffffffffffffffffffffffffffffffffffff1681526020019081526020016000206000826000191660001916815260200190815260200160002060000160009054906101000a900460ff16151515611d0b576040517f08c379a000000000000000000000000000000000000000000000000000000000815260040180806020018281038252600c8152602001807f416c72656164792073656e74000000000000000000000000000000000000000081525060200191505060405180910390fd5b6060604051908101604052806001151581526020016000151581526020016000815250600e60003373ffffffffffffffffffffffffffffffffffffffff1673ffffffffffffffffffffffffffffffffffffffff1681526020019081526020016000206000836000191660001916815260200190815260200160002060008201518160000160006101000a81548160ff02191690831515021790555060208201518160000160016101000a81548160ff02191690831515021790555060408201518160010155905050611e2481600d60003373ffffffffffffffffffffffffffffffffffffffff1673ffffffffffffffffffffffffffffffffffffffff168152602001908152602001600020614a8790919063ffffffff16565b611e3833600f613fd690919063ffffffff16565b7f1397ce7201c0e8ab68be45be2eac362cd7fbbb9a82a909bbc6bb49a1e4545ca633604051808273ffffffffffffffffffffffffffffffffffffffff1673ffffffffffffffffffffffffffffffffffffffff16815260200191505060405180910390a150565b6060600a805480602002602001604051908101604052809291908181526020018280548015611f2257602002820191906000526020600020905b8160009054906101000a900473ffffffffffffffffffffffffffffffffffffffff1673ffffffffffffffffffffffffffffffffffffffff1681526020019060010190808311611ed8575b5050505050905090565b6000611fab836000846040518082805190602001908083835b602083101515611f6a5780518252602082019150602081019050602083039250611f45565b6001836020036101000a0380198251168184511680821785525050505050509050019150509081526020016040518091039020614b3b90919063ffffffff16565b905092915050565b600080611ff5336040805190810160405280600c81526020017f726174655f6d616e616765720000000000000000000000000000000000000000815250611f2c565b1515612069576040517f08c379a00000000000000000000000000000000000000000000000000000000081526004018080602001828103825260118152602001807f4f6e6c792072617465206d616e6167657200000000000000000000000000000081525060200191505060405180910390fd5b3342888886604051602001808673ffffffffffffffffffffffffffffffffffffffff1673ffffffffffffffffffffffffffffffffffffffff166c010000000000000000000000000281526014018581526020018481526020018381526020018273ffffffffffffffffffffffffffffffffffffffff1673ffffffffffffffffffffffffffffffffffffffff166c01000000000000000000000000028152601401955050505050506040516020818303038152906040526040518082805190602001908083835b602083101515612154578051825260208201915060208101905060208303925061212f565b6001836020036101000a0380198251168184511680821785525050505050509050019150506040518091039020905060126000826000191660001916815260200190815260200160002060010160009054906101000a900460ff16151515612224576040517f08c379a00000000000000000000000000000000000000000000000000000000081526004018080602001828103825260168152602001807f54617269666620616c726561647920637265617465640000000000000000000081525060200191505060405180910390fd5b87601260008360001916600019168152602001908152602001600020600001908051906020019061225692919061589a565b508660126000836000191660001916815260200190815260200160002060020181905550856012600083600019166000191681526020019081526020016000206003018190555084601260008360001916600019168152602001908152602001600020600701819055508360126000836000191660001916815260200190815260200160002060080160006101000a81548160ff021916908360018111156122fa57fe5b02179055508260126000836000191660001916815260200190815260200160002060080160016101000a81548173ffffffffffffffffffffffffffffffffffffffff021916908373ffffffffffffffffffffffffffffffffffffffff160217905550600160126000836000191660001916815260200190815260200160002060010160006101000a81548160ff0219169083151502179055506123a7816013614a8790919063ffffffff16565b60168190806001815401808255809150509060018203906000526020600020016000909192909190915090600019169055507f665d1d006c6253aaaea35061cb23bca87e46289812605e066def7c765fa0542a8189898988600181111561240a57fe5b88604051808760001916600019168152602001806020018681526020018581526020018460ff1660ff1681526020018373ffffffffffffffffffffffffffffffffffffffff1673ffffffffffffffffffffffffffffffffffffffff168152602001828103825287818151815260200191508051906020019080838360005b838110156124a3578082015181840152602081019050612488565b50505050905090810190601f1680156124d05780820380516001836020036101000a031916815260200191505b5097505050505050505060405180910390a1809150509695505050505050565b61252f336040805190810160405280601381526020017f6d656d6265725f6a6f696e5f6d616e6167657200000000000000000000000000815250611f2c565b15156125a3576040517f08c379a00000000000000000000000000000000000000000000000000000000081526004018080602001828103825260188152602001807f4f6e6c79206d656d626572206a6f696e206d616e61676572000000000000000081525060200191505060405180910390fd5b6125ad828261447b565b7fba5fe7468094ee0772588103af3bff67a6a41f671684a5081caf6cbb7c6c4b85338383604051808473ffffffffffffffffffffffffffffffffffffffff1673ffffffffffffffffffffffffffffffffffffffff1681526020018373ffffffffffffffffffffffffffffffffffffffff1673ffffffffffffffffffffffffffffffffffffffff1681526020018260001916600019168152602001935050505060405180910390a15050565b600080600080600c60008873ffffffffffffffffffffffffffffffffffffffff1673ffffffffffffffffffffffffffffffffffffffff16815260200190815260200160002060008760001916600019168152602001908152602001600020925060126000876000191660001916815260200190815260200160002091508260000160009054906101000a900460ff16151561275b576040517f08c379a000000000000000000000000000000000000000000000000000000000815260040180806020018281038252601c8152602001807f546172696666207061796d656e74206973206e6f74206163746976650000000081525060200191505060405180910390fd5b8160010160009054906101000a900460ff1615156127e1576040517f08c379a00000000000000000000000000000000000000000000000000000000081526004018080602001828103825260148152602001807f546172696666206973206e6f742061637469766500000000000000000000000081525060200191505060405180910390fd5b600082600201541415151561285e576040517f08c379a00000000000000000000000000000000000000000000000000000000081526004018080602001828103825260168152602001807f546172696666207061796d656e74206973206e756c6c0000000000000000000081525060200191505060405180910390fd5b60008260030154141515156128db576040517f08c379a000000000000000000000000000000000000000000000000000000000815260040180806020018281038252601d8152602001807f546172696666207061796d656e7420706572696f64206973206e756c6c00000081525060200191505060405180910390fd5b600660008873ffffffffffffffffffffffffffffffffffffffff1673ffffffffffffffffffffffffffffffffffffffff16815260200190815260200160002060009054906101000a900460ff16151561299c576040517f08c379a000000000000000000000000000000000000000000000000000000000815260040180806020018281038252600a8152602001807f4e6f74206163746976650000000000000000000000000000000000000000000081525060200191505060405180910390fd5b428583600301540284600101540111151515612a20576040517f08c379a00000000000000000000000000000000000000000000000000000000081526004018080602001828103825260088152602001807f546f6f20736f6f6e00000000000000000000000000000000000000000000000081525060200191505060405180910390fd5b600083600101541415612a3b57428360010181905550612a54565b8482600301540283600101600082825401925050819055505b84826002015402836003016000828254019250508190555060006001811115612a7957fe5b8260080160009054906101000a900460ff166001811115612a9657fe5b1415612aee578673ffffffffffffffffffffffffffffffffffffffff166108fc868460020154029081150290604051600060405180830381858888f19350505050158015612ae8573d6000803e3d6000fd5b50612d4e565b8160080160019054906101000a900473ffffffffffffffffffffffffffffffffffffffff1673ffffffffffffffffffffffffffffffffffffffff1663a9059cbb88878560020154026040518363ffffffff167c0100000000000000000000000000000000000000000000000000000000028152600401808373ffffffffffffffffffffffffffffffffffffffff1673ffffffffffffffffffffffffffffffffffffffff16815260200182815260200192505050602060405180830381600087803b158015612bbb57600080fd5b505af1158015612bcf573d6000803e3d6000fd5b505050506040513d6020811015612be557600080fd5b81019080805190602001909291905050505060008260070154118015612c1357508260020154836003015410155b15612d4d57816002015482600701540290508160080160019054906101000a900473ffffffffffffffffffffffffffffffffffffffff1673ffffffffffffffffffffffffffffffffffffffff166340c10f1930836040518363ffffffff167c0100000000000000000000000000000000000000000000000000000000028152600401808373ffffffffffffffffffffffffffffffffffffffff1673ffffffffffffffffffffffffffffffffffffffff16815260200182815260200192505050602060405180830381600087803b158015612cec57600080fd5b505af1158015612d00573d6000803e3d6000fd5b505050506040513d6020811015612d1657600080fd5b8101908080519060200190929190505050508083600201600082825401925050819055508082600501600082825401925050819055505b5b848260020154028260040160008282540192505081905550816003015483600101540193505050509392505050565b612dbc336040805190810160405280600c81526020017f726174655f6d616e616765720000000000000000000000000000000000000000815250611f2c565b1515612e30576040517f08c379a00000000000000000000000000000000000000000000000000000000081526004018080602001828103825260118152602001807f4f6e6c792072617465206d616e6167657200000000000000000000000000000081525060200191505060405180910390fd5b856012600089600019166000191681526020019081526020016000206000019080519060200190612e6292919061589a565b508460126000896000191660001916815260200190815260200160002060020181905550836012600089600019166000191681526020019081526020016000206003018190555082601260008960001916600019168152602001908152602001600020600701819055508160126000896000191660001916815260200190815260200160002060080160006101000a81548160ff02191690836001811115612f0657fe5b02179055508060126000896000191660001916815260200190815260200160002060080160016101000a81548173ffffffffffffffffffffffffffffffffffffffff021916908373ffffffffffffffffffffffffffffffffffffffff1602179055507ffdc8ac7f63e39d6ab84a96a650333013eec6a444dd3aab4a9673742dcaee8e8787878787866001811115612f9957fe5b86604051808760001916600019168152602001806020018681526020018581526020018460ff1660ff1681526020018373ffffffffffffffffffffffffffffffffffffffff1673ffffffffffffffffffffffffffffffffffffffff168152602001828103825287818151815260200191508051906020019080838360005b83811015613032578082015181840152602081019050613017565b50505050905090810190601f16801561305f5780820380516001836020036101000a031916815260200191505b5097505050505050505060405180910390a150505050505050565b6000806000806000600c60008873ffffffffffffffffffffffffffffffffffffffff1673ffffffffffffffffffffffffffffffffffffffff1681526020019081526020016000206000876000191660001916815260200190815260200160002090508060000160009054906101000a900460ff1681600301548260020154836001015494509450945094505092959194509250565b60055481565b600160009054906101000a900473ffffffffffffffffffffffffffffffffffffffff1673ffffffffffffffffffffffffffffffffffffffff163373ffffffffffffffffffffffffffffffffffffffff1614151561317157600080fd5b8060048190555050565b600160009054906101000a900473ffffffffffffffffffffffffffffffffffffffff1673ffffffffffffffffffffffffffffffffffffffff163373ffffffffffffffffffffffffffffffffffffffff161415156131d757600080fd5b600160009054906101000a900473ffffffffffffffffffffffffffffffffffffffff1673ffffffffffffffffffffffffffffffffffffffff167ff8df31144d9c2f0f6b59d69b8b98abd5459d07f2742c4df920b25aae33c6482060405160405180910390a26000600160006101000a81548173ffffffffffffffffffffffffffffffffffffffff021916908373ffffffffffffffffffffffffffffffffffffffff160217905550565b60606132a8601260008460001916600019168152602001908152602001600020600901613f33565b9050919050565b60006060600660008473ffffffffffffffffffffffffffffffffffffffff1673ffffffffffffffffffffffffffffffffffffffff16815260200190815260200160002060009054906101000a900460ff16613347600b60008673ffffffffffffffffffffffffffffffffffffffff1673ffffffffffffffffffffffffffffffffffffffff168152602001908152602001600020614b94565b91509150915091565b600160009054906101000a900473ffffffffffffffffffffffffffffffffffffffff1673ffffffffffffffffffffffffffffffffffffffff163373ffffffffffffffffffffffffffffffffffffffff161415156133ac57600080fd5b6133b68282614bf4565b5050565b6060601680548060200260200160405190810160405280929190818152602001828054801561340c57602002820191906000526020600020905b815460001916815260200190600101908083116133f4575b5050505050905090565b613455336040805190810160405280601481526020017f6d656d6265725f6c656176655f6d616e61676572000000000000000000000000815250611f2c565b15156134c9576040517f08c379a00000000000000000000000000000000000000000000000000000000081526004018080602001828103825260198152602001807f4f6e6c79206d656d626572206c65617665206d616e616765720000000000000081525060200191505060405180910390fd5b600660008273ffffffffffffffffffffffffffffffffffffffff1673ffffffffffffffffffffffffffffffffffffffff16815260200190815260200160002060009054906101000a900460ff16151561358a576040517f08c379a000000000000000000000000000000000000000000000000000000000815260040180806020018281038252600f8152602001807f4e6f74207061727469636970616e74000000000000000000000000000000000081525060200191505060405180910390fd5b61359381614d28565b50565b600660003373ffffffffffffffffffffffffffffffffffffffff1673ffffffffffffffffffffffffffffffffffffffff16815260200190815260200160002060009054906101000a900460ff161515613657576040517f08c379a000000000000000000000000000000000000000000000000000000000815260040180806020018281038252600f8152602001807f4e6f74207061727469636970616e74000000000000000000000000000000000081525060200191505060405180910390fd5b61366033614d28565b565b600160009054906101000a900473ffffffffffffffffffffffffffffffffffffffff1681565b6000600660008373ffffffffffffffffffffffffffffffffffffffff1673ffffffffffffffffffffffffffffffffffffffff16815260200190815260200160002060009054906101000a900460ff169050919050565b60038054600181600116156101000203166002900480601f0160208091040260200160405190810160405280929190818152602001828054600181600116156101000203166002900480156137745780601f1061374957610100808354040283529160200191613774565b820191906000526020600020905b81548152906001019060200180831161375757829003601f168201915b505050505081565b60006137886007613fc5565b905090565b6040805190810160405280601381526020017f6d656d6265725f6a6f696e5f6d616e616765720000000000000000000000000081525081565b600660003373ffffffffffffffffffffffffffffffffffffffff1673ffffffffffffffffffffffffffffffffffffffff16815260200190815260200160002060009054906101000a900460ff161515613887576040517f08c379a000000000000000000000000000000000000000000000000000000000815260040180806020018281038252600f8152602001807f4e6f74207061727469636970616e74000000000000000000000000000000000081525060200191505060405180910390fd5b6138913382614db6565b50565b60006138bc601260008460001916600019168152602001908152602001600020600901613fc5565b9050919050565b6040805190810160405280600c81526020017f726174655f6d616e61676572000000000000000000000000000000000000000081525081565b60606139086013614b94565b905090565b60045481565b6000600e60008473ffffffffffffffffffffffffffffffffffffffff1673ffffffffffffffffffffffffffffffffffffffff1681526020019081526020016000206000836000191660001916815260200190815260200160002060010154905092915050565b6060600080600080600080600080600080601260008d600019166000191681526020019081526020016000209050806000018160010160009054906101000a900460ff168260020154836003015484600701548560050154866006015487600401548860080160009054906101000a900460ff168960080160019054906101000a900473ffffffffffffffffffffffffffffffffffffffff16898054600181600116156101000203166002900480601f016020809104026020016040519081016040528092919081815260200182805460018160011615610100020316600290048015613aa75780601f10613a7c57610100808354040283529160200191613aa7565b820191906000526020600020905b815481529060010190602001808311613a8a57829003601f168201915b505050505099509a509a509a509a509a509a509a509a509a509a50509193959799509193959799565b613b0f336040805190810160405280601481526020017f6d656d6265725f6c656176655f6d616e61676572000000000000000000000000815250611f2c565b1515613b83576040517f08c379a00000000000000000000000000000000000000000000000000000000081526004018080602001828103825260198152602001807f4f6e6c79206d656d626572206c65617665206d616e616765720000000000000081525060200191505060405180910390fd5b600660008373ffffffffffffffffffffffffffffffffffffffff1673ffffffffffffffffffffffffffffffffffffffff16815260200190815260200160002060009054906101000a900460ff161515613c44576040517f08c379a000000000000000000000000000000000000000000000000000000000815260040180806020018281038252600f8152602001807f4e6f74207061727469636970616e74000000000000000000000000000000000081525060200191505060405180910390fd5b613c4e8282614db6565b5050565b600160009054906101000a900473ffffffffffffffffffffffffffffffffffffffff1673ffffffffffffffffffffffffffffffffffffffff163373ffffffffffffffffffffffffffffffffffffffff16141515613cae57600080fd5b613cb78161502c565b50565b600160009054906101000a900473ffffffffffffffffffffffffffffffffffffffff1673ffffffffffffffffffffffffffffffffffffffff163373ffffffffffffffffffffffffffffffffffffffff16141515613d1657600080fd5b8060058190555050565b613d5f336040805190810160405280600c81526020017f726174655f6d616e616765720000000000000000000000000000000000000000815250611f2c565b1515613dd3576040517f08c379a00000000000000000000000000000000000000000000000000000000081526004018080602001828103825260118152602001807f4f6e6c792072617465206d616e6167657200000000000000000000000000000081525060200191505060405180910390fd5b80151560126000846000191660001916815260200190815260200160002060010160009054906101000a900460ff16151514151515613e7a576040517f08c379a000000000000000000000000000000000000000000000000000000000815260040180806020018281038252600b8152602001807f53616d652073746174757300000000000000000000000000000000000000000081525060200191505060405180910390fd5b8060126000846000191660001916815260200190815260200160002060010160006101000a81548160ff0219169083151502179055508015613ecf57613eca826013614a8790919063ffffffff16565b613ee4565b613ee382601361434890919063ffffffff16565b5b7fa468e8808de226695127eb52b091b945527354830cff5358eddf58444fe0e2918282604051808360001916600019168152602001821515151581526020019250505060405180910390a15050565b606081600001805480602002602001604051908101604052809291908181526020018280548015613fb957602002820191906000526020600020905b8160009054906101000a900473ffffffffffffffffffffffffffffffffffffffff1673ffffffffffffffffffffffffffffffffffffffff1681526020019060010190808311613f6f575b50505050509050919050565b600081600001805490509050919050565b6000806000808560000180549050111515614059576040517f08c379a000000000000000000000000000000000000000000000000000000000815260040180806020018281038252600e8152602001807f417272617920697320656d70747900000000000000000000000000000000000081525060200191505060405180910390fd5b600115158560020160008673ffffffffffffffffffffffffffffffffffffffff1673ffffffffffffffffffffffffffffffffffffffff16815260200190815260200160002060009054906101000a900460ff161515141515614123576040517f08c379a00000000000000000000000000000000000000000000000000000000081526004018080602001828103825260158152602001807f456c656d656e7420646f65736e2774206578697374000000000000000000000081525060200191505060405180910390fd5b600185600001805490500392508460010160008573ffffffffffffffffffffffffffffffffffffffff1673ffffffffffffffffffffffffffffffffffffffff168152602001908152602001600020549150846000018381548110151561418557fe5b9060005260206000200160009054906101000a900473ffffffffffffffffffffffffffffffffffffffff1690508085600001838154811015156141c457fe5b9060005260206000200160006101000a81548173ffffffffffffffffffffffffffffffffffffffff021916908373ffffffffffffffffffffffffffffffffffffffff160217905550846000018381548110151561421d57fe5b9060005260206000200160006101000a81549073ffffffffffffffffffffffffffffffffffffffff021916905560018560000180549050038560000181614264919061591a565b508460010160008573ffffffffffffffffffffffffffffffffffffffff1673ffffffffffffffffffffffffffffffffffffffff168152602001908152602001600020600090558460020160008573ffffffffffffffffffffffffffffffffffffffff1673ffffffffffffffffffffffffffffffffffffffff16815260200190815260200160002060006101000a81549060ff0219169055818560010160008373ffffffffffffffffffffffffffffffffffffffff1673ffffffffffffffffffffffffffffffffffffffff168152602001908152602001600020819055505050505050565b600082600001805490501115156143c7576040517f08c379a000000000000000000000000000000000000000000000000000000000815260040180806020018281038252600e8152602001807f417272617920697320656d70747900000000000000000000000000000000000081525060200191505060405180910390fd5b60011515826002016000836000191660001916815260200190815260200160002060009054906101000a900460ff16151514151561446d576040517f08c379a00000000000000000000000000000000000000000000000000000000081526004018080602001828103825260158152602001807f456c656d656e7420646f65736e2774206578697374000000000000000000000081525060200191505060405180910390fd5b6144778282615128565b5050565b600080600c60008573ffffffffffffffffffffffffffffffffffffffff1673ffffffffffffffffffffffffffffffffffffffff1681526020019081526020016000206000846000191660001916815260200190815260200160002091508160000160009054906101000a900460ff1615151561455f576040517f08c379a00000000000000000000000000000000000000000000000000000000081526004018080602001828103825260138152602001807f416c72656164792068617665207461726966660000000000000000000000000081525060200191505060405180910390fd5b6001600660008673ffffffffffffffffffffffffffffffffffffffff1673ffffffffffffffffffffffffffffffffffffffff16815260200190815260200160002060006101000a81548160ff0219169083151502179055506145cb84600761524d90919063ffffffff16565b506145fc846012600086600019166000191681526020019081526020016000206009016153cd90919063ffffffff16565b600a8490806001815401808255809150509060018203906000526020600020016000909192909190916101000a81548173ffffffffffffffffffffffffffffffffffffffff021916908373ffffffffffffffffffffffffffffffffffffffff1602179055505060018260000160006101000a81548160ff021916908315150217905550600073ffffffffffffffffffffffffffffffffffffffff1660126000856000191660001916815260200190815260200160002060080160019054906101000a900473ffffffffffffffffffffffffffffffffffffffff1673ffffffffffffffffffffffffffffffffffffffff16141580156147185750600060126000856000191660001916815260200190815260200160002060070154115b156148ba57601260008460001916600019168152602001908152602001600020600201546012600085600019166000191681526020019081526020016000206007015402905060126000846000191660001916815260200190815260200160002060080160019054906101000a900473ffffffffffffffffffffffffffffffffffffffff1673ffffffffffffffffffffffffffffffffffffffff166340c10f1930836040518363ffffffff167c0100000000000000000000000000000000000000000000000000000000028152600401808373ffffffffffffffffffffffffffffffffffffffff1673ffffffffffffffffffffffffffffffffffffffff16815260200182815260200192505050602060405180830381600087803b15801561483f57600080fd5b505af1158015614853573d6000803e3d6000fd5b505050506040513d602081101561486957600080fd5b81019080805190602001909291905050505080826002016000828254019250508190555080601260008560001916600019168152602001908152602001600020600501600082825401925050819055505b61490b83600b60008773ffffffffffffffffffffffffffffffffffffffff1673ffffffffffffffffffffffffffffffffffffffff168152602001908152602001600020614a8790919063ffffffff16565b601260008460001916600019168152602001908152602001600020600301544203826001018190555050505050565b6149448282614b3b565b151561494f57600080fd5b5050565b6149d0826000836040518082805190602001908083835b60208310151561498f578051825260208201915060208101905060208303925061496a565b6001836020036101000a03801982511681845116808217855250505050505090500191505090815260200160405180910390206155aa90919063ffffffff16565b8173ffffffffffffffffffffffffffffffffffffffff167fd211483f91fc6eff862467f8de606587a30c8fc9981056f051b897a418df803a826040518080602001828103825283818151815260200191508051906020019080838360005b83811015614a49578082015181840152602081019050614a2e565b50505050905090810190601f168015614a765780820380516001836020036101000a031916815260200191505b509250505060405180910390a25050565b60001515826002016000836000191660001916815260200190815260200160002060009054906101000a900460ff161515141515614b2d576040517f08c379a00000000000000000000000000000000000000000000000000000000081526004018080602001828103825260168152602001807f456c656d656e7420616c7265616479206578697374730000000000000000000081525060200191505060405180910390fd5b614b378282615608565b5050565b60008260000160008373ffffffffffffffffffffffffffffffffffffffff1673ffffffffffffffffffffffffffffffffffffffff16815260200190815260200160002060009054906101000a900460ff16905092915050565b606081600001805480602002602001604051908101604052809291908181526020018280548015614be857602002820191906000526020600020905b81546000191681526020019060010190808311614bd0575b50505050509050919050565b614c71826000836040518082805190602001908083835b602083101515614c305780518252602082019150602081019050602083039250614c0b565b6001836020036101000a038019825116818451168082178552505050505050905001915050908152602001604051809103902061569f90919063ffffffff16565b8173ffffffffffffffffffffffffffffffffffffffff167fbfec83d64eaa953f2708271a023ab9ee82057f8f3578d548c1a4ba0b5b700489826040518080602001828103825283818151815260200191508051906020019080838360005b83811015614cea578082015181840152602081019050614ccf565b50505050905090810190601f168015614d175780820380516001836020036101000a031916815260200191505b509250505060405180910390a25050565b60606000614d73600b60008573ffffffffffffffffffffffffffffffffffffffff1673ffffffffffffffffffffffffffffffffffffffff168152602001908152602001600020614b94565b9150600090505b8151811015614db157614da4838383815181101515614d9557fe5b90602001906020020151614db6565b8080600101915050614d7a565b505050565b6000600c60008473ffffffffffffffffffffffffffffffffffffffff1673ffffffffffffffffffffffffffffffffffffffff168152602001908152602001600020600083600019166000191681526020019081526020016000209050614e1c83836156fd565b6000816003018190555060008160000160006101000a81548160ff021916908315150217905550614e9482600b60008673ffffffffffffffffffffffffffffffffffffffff1673ffffffffffffffffffffffffffffffffffffffff16815260200190815260200160002061434890919063ffffffff16565b614ec483601260008560001916600019168152602001908152602001600020600901613fd690919063ffffffff16565b6000614f0d600b60008673ffffffffffffffffffffffffffffffffffffffff1673ffffffffffffffffffffffffffffffffffffffff168152602001908152602001600020615889565b1415614f80576000600660008573ffffffffffffffffffffffffffffffffffffffff1673ffffffffffffffffffffffffffffffffffffffff16815260200190815260200160002060006101000a81548160ff021916908315150217905550614f7f836007613fd690919063ffffffff16565b5b7fe7907e568a5c707f54e72a5d13cf22473e52e5a23be6a160d994255366c929ad338484604051808473ffffffffffffffffffffffffffffffffffffffff1673ffffffffffffffffffffffffffffffffffffffff1681526020018373ffffffffffffffffffffffffffffffffffffffff1673ffffffffffffffffffffffffffffffffffffffff1681526020018260001916600019168152602001935050505060405180910390a1505050565b600073ffffffffffffffffffffffffffffffffffffffff168173ffffffffffffffffffffffffffffffffffffffff161415151561506857600080fd5b8073ffffffffffffffffffffffffffffffffffffffff16600160009054906101000a900473ffffffffffffffffffffffffffffffffffffffff1673ffffffffffffffffffffffffffffffffffffffff167f8be0079c531659141344cd1fd0a4f28419497f9722a3daafe3b4186f6b6457e060405160405180910390a380600160006101000a81548173ffffffffffffffffffffffffffffffffffffffff021916908373ffffffffffffffffffffffffffffffffffffffff16021790555050565b6000806000600185600001805490500392508460010160008560001916600019168152602001908152602001600020549150846000018381548110151561516b57fe5b9060005260206000200154905080856000018381548110151561518a57fe5b90600052602060002001816000191690555084600001838154811015156151ad57fe5b9060005260206000200160009055600185600001805490500385600001816151d59190615946565b50846001016000856000191660001916815260200190815260200160002060009055846002016000856000191660001916815260200190815260200160002060006101000a81549060ff0219169055818560010160008360001916600019168152602001908152602001600020819055505050505050565b6000600115158360020160008473ffffffffffffffffffffffffffffffffffffffff1673ffffffffffffffffffffffffffffffffffffffff16815260200190815260200160002060009054906101000a900460ff16151514156152b357600090506153c7565b82600001805490508360010160008473ffffffffffffffffffffffffffffffffffffffff1673ffffffffffffffffffffffffffffffffffffffff1681526020019081526020016000208190555060018360020160008473ffffffffffffffffffffffffffffffffffffffff1673ffffffffffffffffffffffffffffffffffffffff16815260200190815260200160002060006101000a81548160ff021916908315150217905550826000018290806001815401808255809150509060018203906000526020600020016000909192909190916101000a81548173ffffffffffffffffffffffffffffffffffffffff021916908373ffffffffffffffffffffffffffffffffffffffff16021790555050600190505b92915050565b600015158260020160008373ffffffffffffffffffffffffffffffffffffffff1673ffffffffffffffffffffffffffffffffffffffff16815260200190815260200160002060009054906101000a900460ff161515141515615497576040517f08c379a00000000000000000000000000000000000000000000000000000000081526004018080602001828103825260168152602001807f456c656d656e7420616c7265616479206578697374730000000000000000000081525060200191505060405180910390fd5b81600001805490508260010160008373ffffffffffffffffffffffffffffffffffffffff1673ffffffffffffffffffffffffffffffffffffffff1681526020019081526020016000208190555060018260020160008373ffffffffffffffffffffffffffffffffffffffff1673ffffffffffffffffffffffffffffffffffffffff16815260200190815260200160002060006101000a81548160ff021916908315150217905550816000018190806001815401808255809150509060018203906000526020600020016000909192909190916101000a81548173ffffffffffffffffffffffffffffffffffffffff021916908373ffffffffffffffffffffffffffffffffffffffff160217905550505050565b60008260000160008373ffffffffffffffffffffffffffffffffffffffff1673ffffffffffffffffffffffffffffffffffffffff16815260200190815260200160002060006101000a81548160ff0219169083151502179055505050565b81600001805490508260010160008360001916600019168152602001908152602001600020819055506001826002016000836000191660001916815260200190815260200160002060006101000a81548160ff021916908315150217905550816000018190806001815401808255809150509060018203906000526020600020016000909192909190915090600019169055505050565b60018260000160008373ffffffffffffffffffffffffffffffffffffffff1673ffffffffffffffffffffffffffffffffffffffff16815260200190815260200160002060006101000a81548160ff0219169083151502179055505050565b6000806000600c60008673ffffffffffffffffffffffffffffffffffffffff1673ffffffffffffffffffffffffffffffffffffffff16815260200190815260200160002060008560001916600019168152602001908152602001600020925060126000856000191660001916815260200190815260200160002091508260030154836002015411801561579e57508160010160009054906101000a900460ff165b1561588257826003015483600201540390508160080160019054906101000a900473ffffffffffffffffffffffffffffffffffffffff1673ffffffffffffffffffffffffffffffffffffffff166342966c68826040518263ffffffff167c010000000000000000000000000000000000000000000000000000000002815260040180828152602001915050600060405180830381600087803b15801561584357600080fd5b505af1158015615857573d6000803e3d6000fd5b5050505080826006016000828254019250508190555060008360020181905550600083600301819055505b5050505050565b600081600001805490509050919050565b828054600181600116156101000203166002900490600052602060002090601f016020900481019282601f106158db57805160ff1916838001178555615909565b82800160010185558215615909579182015b828111156159085782518255916020019190600101906158ed565b5b5090506159169190615972565b5090565b815481835581811115615941578183600052602060002091820191016159409190615972565b5b505050565b81548183558181111561596d5781836000526020600020918201910161596c9190615997565b5b505050565b61599491905b80821115615990576000816000905550600101615978565b5090565b90565b6159b991905b808211156159b557600081600090555060010161599d565b5090565b905600a165627a7a72305820fa6d4370d7220f478f0d173e782c4e889782701b182e523ea3ec19ddb723e4cf0029",
  "source": "/*\n * Copyright  2018 GaltSpace Society Construction and Terraforming Company\n * (Founded by [Nikolai Popeka](https://github.com/npopeka),\n * [Dima Starodubcev](https://github.com/xhipster),\n * [Valery Litvin](https://github.com/litvintech) by\n * [Basic Agreement](http://cyb.ai/QmSAWEG5u5aSsUyMNYuX2A2Eaz4kEuoYWUkVBRdmu9qmct:ipfs)).\n *\n * Copyright  2018 GaltCore Blockchain Company\n * (Founded by [Nikolai Popeka](https://github.com/npopeka) and\n * GaltSpace Society Construction and Terraforming Company by\n * [Basic Agreement](http://cyb.ai/QmaCiXUmSrP16Gz8Jdzq6AJESY1EAANmmwha15uR3c1bsS:ipfs)).\n */\n\npragma solidity 0.4.24;\npragma experimental \"v0.5.0\";\n\nimport \"openzeppelin-solidity/contracts/token/ERC20/MintableToken.sol\";\nimport \"openzeppelin-solidity/contracts/token/ERC20/BurnableToken.sol\";\nimport \"openzeppelin-solidity/contracts/token/ERC20/ERC20.sol\";\nimport \"openzeppelin-solidity/contracts/ownership/rbac/RBAC.sol\";\nimport \"./utils/ArraySet.sol\";\n\nlibrary CityLibrary {\n    struct MemberTariff {\n        bool active;\n        uint256 lastTimestamp;\n        uint256 minted;\n        uint256 claimed;\n    }\n    struct ParticipationRequest {\n        bool sent;\n        bool confirmed;\n        uint256 confirmationsCount;\n        mapping (address => bool) confirmations;\n    }\n    struct Tariff {\n        string title;\n        bool active;\n        uint256 payment;\n        uint256 paymentPeriod;\n        uint256 paymentSent;\n        uint256 totalMinted;\n        uint256 totalBurned;\n        uint256 mintForPeriods;\n        TariffCurrency currency;\n        address currencyAddress;\n        ArraySet.AddressSet activeParticipants;\n    }\n    enum TariffCurrency {\n        ETH,\n        ERC20\n    }\n}\n\ncontract City is RBAC, Ownable {\n    using ArraySet for ArraySet.AddressSet;\n    using ArraySet for ArraySet.Bytes32Set;\n\n    string public constant RATE_MANAGER_ROLE = \"rate_manager\";\n    string public constant MEMBER_JOIN_MANAGER_ROLE = \"member_join_manager\";\n    string public constant MEMBER_LEAVE_MANAGER_ROLE = \"member_leave_manager\";\n    \n    string public name;\n    string public symbol;\n    uint256 public maxSupply;\n    uint256 public confirmsToParticipation;\n\n    event TariffCreated(bytes32 id, string title, uint256 payment, uint256 paymentPeriod, uint8 currency, address currencyAddress);\n    event TariffEdited(bytes32 id, string title, uint256 payment, uint256 paymentPeriod, uint8 currency, address currencyAddress);\n    event TariffActiveChanged(bytes32 id, bool active);\n    event ParticipationRequest(address requested);\n    event ParticipationConfirm(address requested, address confirmed, bool fully);\n    event ParticipationAdded(address cityManager, address member, bytes32 tariff);\n    event ParticipationTariffRemoved(address cityManager, address member, bytes32 tariff);\n\n    mapping (address => bool) public participants;\n    ArraySet.AddressSet activeParticipants;\n    address[] allParticipants;\n\n    mapping (address => ArraySet.Bytes32Set) activeMemberTariffs;\n    mapping (address => mapping(bytes32 => CityLibrary.MemberTariff)) private memberTariffs;\n    mapping (address => ArraySet.Bytes32Set) activeMemberRequests;\n    mapping (address => mapping(bytes32 => CityLibrary.ParticipationRequest)) private participationRequests;\n    ArraySet.AddressSet activeRequests;\n\n    mapping (bytes32 => CityLibrary.Tariff) private tariffs;\n    ArraySet.Bytes32Set activeTariffs;\n    bytes32[] allTariffs;\n\n    constructor(uint256 _maxSupply, string _name, string _symbol) public {\n        maxSupply = _maxSupply;\n        name = _name;\n        symbol = _symbol;\n\n        confirmsToParticipation = 1;\n\n        super.addRole(msg.sender, RATE_MANAGER_ROLE);\n        super.addRole(msg.sender, MEMBER_JOIN_MANAGER_ROLE);\n        super.addRole(msg.sender, MEMBER_LEAVE_MANAGER_ROLE);\n    }\n\n    function() external payable { }\n\n    modifier onlyRateManager() {\n        require(hasRole(msg.sender, RATE_MANAGER_ROLE), \"Only rate manager\");\n        _;\n    }\n\n    modifier onlyMemberJoinManager() {\n        require(hasRole(msg.sender, MEMBER_JOIN_MANAGER_ROLE), \"Only member join manager\");\n        _;\n    }\n\n    modifier onlyMemberLeaveManager() {\n        require(hasRole(msg.sender, MEMBER_LEAVE_MANAGER_ROLE), \"Only member leave manager\");\n        _;\n    }\n    \n    function createTariff(string _title, uint256 _payment, uint256 _paymentPeriod, uint256 _mintForPeriods, CityLibrary.TariffCurrency _currency, address _currencyAddress) public onlyRateManager returns(bytes32) {\n        bytes32 _id = keccak256(\n            abi.encodePacked(\n                msg.sender,\n                block.timestamp,\n                _payment,\n                _paymentPeriod,\n                _currencyAddress\n            )\n        );\n        require(!tariffs[_id].active, \"Tariff already created\");\n        \n        tariffs[_id].title = _title;\n        tariffs[_id].payment = _payment;\n        tariffs[_id].paymentPeriod = _paymentPeriod;\n        tariffs[_id].mintForPeriods = _mintForPeriods;\n        tariffs[_id].currency = _currency;\n        tariffs[_id].currencyAddress = _currencyAddress;\n        tariffs[_id].active = true;\n\n        activeTariffs.add(_id);\n        allTariffs.push(_id);\n        \n        emit TariffCreated(_id, _title, _payment, _paymentPeriod, uint8(_currency), _currencyAddress);\n        return _id;\n    }\n    \n    function setTariffActive(bytes32 _id, bool _active) public onlyRateManager {\n        require(tariffs[_id].active != _active, \"Same status\");\n        \n        tariffs[_id].active = _active;\n        \n        if(_active) {\n            activeTariffs.add(_id);\n        } else {\n            activeTariffs.remove(_id);\n        }\n        \n        emit TariffActiveChanged(_id, _active);\n    }\n    \n    function editTariff(bytes32 _id, string _title, uint256 _payment, uint256 _paymentPeriod, uint256 _mintForPeriods, CityLibrary.TariffCurrency _currency, address _currencyAddress) public onlyRateManager {\n        tariffs[_id].title = _title;\n        tariffs[_id].payment = _payment;\n        tariffs[_id].paymentPeriod = _paymentPeriod;\n        tariffs[_id].mintForPeriods = _mintForPeriods;\n        tariffs[_id].currency = _currency;\n        tariffs[_id].currencyAddress = _currencyAddress;\n        \n        emit TariffEdited(_id, _title, _payment, _paymentPeriod, uint8(_currency), _currencyAddress);\n    }\n\n    function setMaxSupply(uint256 _maxSupply) public onlyOwner {\n        maxSupply = _maxSupply;\n    }\n\n    function setConfirmsToParticipation(uint256 _confirmsToParticipation) public onlyOwner {\n        confirmsToParticipation = _confirmsToParticipation;\n    }\n\n    function claimPayment(address _claimFor, bytes32 _tariffId, uint256 _periodsNumber) public returns (uint256 nextDate) {\n        CityLibrary.MemberTariff storage _memberTariff = memberTariffs[_claimFor][_tariffId];\n        CityLibrary.Tariff storage _tariff = tariffs[_tariffId];\n        require(_memberTariff.active, \"Tariff payment is not active\"); // REVERT\n        require(_tariff.active, \"Tariff is not active\");\n        require(_tariff.payment != 0, \"Tariff payment is null\");\n        require(_tariff.paymentPeriod != 0, \"Tariff payment period is null\");\n\n        require(participants[_claimFor], \"Not active\");\n        require(_memberTariff.lastTimestamp + (_tariff.paymentPeriod * _periodsNumber) <= now, \"Too soon\");\n\n        if(_memberTariff.lastTimestamp == 0) {\n            _memberTariff.lastTimestamp = now;\n        } else {\n            _memberTariff.lastTimestamp += _tariff.paymentPeriod * _periodsNumber;\n        }\n\n        _memberTariff.claimed += _tariff.payment * _periodsNumber;\n\n        if(_tariff.currency == CityLibrary.TariffCurrency.ETH) {\n            _claimFor.transfer(_tariff.payment * _periodsNumber);\n        } else {\n            ERC20(_tariff.currencyAddress).transfer(_claimFor, _tariff.payment * _periodsNumber);\n\n            if(_tariff.mintForPeriods > 0 && _memberTariff.claimed >= _memberTariff.minted) {\n                uint256 mintAmount = _tariff.mintForPeriods * _tariff.payment;\n                MintableToken(_tariff.currencyAddress).mint(address(this), mintAmount);\n                _memberTariff.minted += mintAmount;\n                _tariff.totalMinted += mintAmount;\n            }\n        }\n\n        _tariff.paymentSent += _tariff.payment * _periodsNumber;\n\n        return _memberTariff.lastTimestamp + _tariff.paymentPeriod;\n    }\n    \n    function addParticipation(address _address, bytes32 _tariff) public onlyMemberJoinManager {\n        addParticipationUnsafe(_address, _tariff);\n\n        emit ParticipationAdded(msg.sender, _address, _tariff);\n    }\n    \n    function addParticipationUnsafe(address _address, bytes32 _tariffId) internal {\n        CityLibrary.MemberTariff storage _memberTariff = memberTariffs[_address][_tariffId];\n        require(!_memberTariff.active, \"Already have tariff\");\n        participants[_address] = true;\n        activeParticipants.addSilent(_address);\n        tariffs[_tariffId].activeParticipants.add(_address);\n        allParticipants.push(_address);\n        _memberTariff.active = true;\n        \n        if(tariffs[_tariffId].currencyAddress != address(0) && tariffs[_tariffId].mintForPeriods > 0) {\n            uint256 mintAmount = tariffs[_tariffId].mintForPeriods * tariffs[_tariffId].payment;\n            MintableToken(tariffs[_tariffId].currencyAddress).mint(address(this), mintAmount);\n            _memberTariff.minted += mintAmount;\n            tariffs[_tariffId].totalMinted += mintAmount;\n        }\n\n        activeMemberTariffs[_address].add(_tariffId);\n        _memberTariff.lastTimestamp = now - tariffs[_tariffId].paymentPeriod;\n    }\n\n    function requestParticipation(bytes32 _tariffId) public {\n        require(activeParticipants.size() < maxSupply, \"Not enough supply\");\n        require(!participants[msg.sender], \"Already participant\");\n        require(!participationRequests[msg.sender][_tariffId].sent, \"Already sent\");\n\n        participationRequests[msg.sender][_tariffId] = CityLibrary.ParticipationRequest({ sent: true, confirmed: false, confirmationsCount: 0 });\n        activeMemberRequests[msg.sender].add(_tariffId);\n        activeRequests.remove(msg.sender);\n        \n        emit ParticipationRequest(msg.sender);\n    }\n\n    function confirmParticipation(address _requested, bytes32 _tariffId) public onlyMemberJoinManager returns (uint256 count) {\n        require(activeParticipants.size() < maxSupply, \"Not enough supply\");\n        require(!participants[_requested], \"Already participant\");\n\n        CityLibrary.ParticipationRequest storage _request = participationRequests[_requested][_tariffId];\n        require(_request.sent, \"Not sent\");\n        require(!_request.confirmed, \"Already confirmed\");\n\n        require(_request.confirmations[msg.sender] == false, \"You cant confirm twice\");\n\n        _request.confirmations[msg.sender] = true;\n        _request.confirmationsCount += 1;\n\n        if(_request.confirmationsCount >= confirmsToParticipation){\n            _request.confirmed = true;\n            activeRequests.remove(_requested);\n            activeMemberRequests[_requested].remove(_tariffId);\n            addParticipationUnsafe(_requested, _tariffId);\n            emit ParticipationConfirm(_requested, msg.sender, true);\n        } else {\n            emit ParticipationConfirm(_requested, msg.sender, false);\n        }\n\n        return _request.confirmationsCount;\n    }\n\n    function confirmsOf(address _requested, bytes32 _tariffId) public view returns (uint256) {\n        return participationRequests[_requested][_tariffId].confirmationsCount;\n    }\n\n    function removeTariffParticipationUnsafe(address _member, bytes32 _tariffId) internal {\n        CityLibrary.MemberTariff storage _memberTariff = memberTariffs[_member][_tariffId];\n\n        burnRemainingFor(_member, _tariffId);\n\n        _memberTariff.claimed = 0;\n        _memberTariff.active = false;\n        activeMemberTariffs[_member].remove(_tariffId);\n        tariffs[_tariffId].activeParticipants.remove(_member);\n        \n        if(activeMemberTariffs[_member].size() == 0) {\n            participants[_member] = false;\n            activeParticipants.remove(_member);\n        }\n\n        emit ParticipationTariffRemoved(msg.sender, _member, _tariffId);\n    }\n\n    function removeAllParticipationUnsafe(address _member) internal {\n        bytes32[] memory _memberTariffs = activeMemberTariffs[_member].elements();\n        for(uint256 i = 0; i < _memberTariffs.length; i++) {\n            removeTariffParticipationUnsafe(_member, _memberTariffs[i]);\n        }\n    }\n\n    function kickAllParticipation(address _member) public onlyMemberLeaveManager {\n        require(participants[_member], \"Not participant\");\n        removeAllParticipationUnsafe(_member);\n    }\n    function leaveAllParticipation() public {\n        require(participants[msg.sender], \"Not participant\");\n        removeAllParticipationUnsafe(msg.sender);\n    }\n\n    function kickTariffParticipation(address _member, bytes32 _tariffId) public onlyMemberLeaveManager {\n        require(participants[_member], \"Not participant\");\n        removeTariffParticipationUnsafe(_member, _tariffId);\n    }\n    function leaveAllParticipation(bytes32 _tariffId) public {\n        require(participants[msg.sender], \"Not participant\");\n        removeTariffParticipationUnsafe(msg.sender, _tariffId);\n    }\n\n    function burnRemainingFor(address _member, bytes32 _tariffId) internal {\n        CityLibrary.MemberTariff storage _memberTariff = memberTariffs[_member][_tariffId];\n        CityLibrary.Tariff storage _tariff = tariffs[_tariffId];\n\n        if(_memberTariff.minted > _memberTariff.claimed && _tariff.active) {\n            uint256 burnAmount = _memberTariff.minted - _memberTariff.claimed;\n            BurnableToken(_tariff.currencyAddress).burn(burnAmount);\n            _tariff.totalBurned += burnAmount;\n            _memberTariff.minted = 0;\n            _memberTariff.claimed = 0;\n        }\n    }\n\n    function addRoleTo(address _operator, string _role) public onlyOwner {\n        super.addRole(_operator, _role);\n    }\n\n    function removeRoleFrom(address _operator, string _role) public onlyOwner {\n        super.removeRole(_operator, _role);\n    }\n    \n    function getAllTariffs() public view returns(bytes32[]) {\n        return allTariffs;\n    }\n\n    function getActiveTariffs() public view returns(bytes32[]) {\n        return activeTariffs.elements();\n    }\n    \n    function getTariff(bytes32 _id) public view returns(\n        string title,\n        bool active,\n        uint256 payment,\n        uint256 paymentPeriod,\n        uint256 mintForPeriods,\n        uint256 totalMinted,\n        uint256 totalBurned,\n        uint256 paymentSent,\n        CityLibrary.TariffCurrency currency,\n        address currencyAddress\n    )\n    {\n        CityLibrary.Tariff storage t = tariffs[_id];\n        return (\n            t.title,\n            t.active,\n            t.payment,\n            t.paymentPeriod,\n            t.mintForPeriods,\n            t.totalMinted,\n            t.totalBurned,\n            t.paymentSent,\n            t.currency,\n            t.currencyAddress\n        );\n    }\n    \n    function getAllParticipants() public view returns(address[]) {\n        return allParticipants;\n    }\n\n    function getActiveParticipants() public view returns(address[]) {\n        return activeParticipants.elements();\n    }\n\n    function getActiveParticipantsCount() public view returns(uint256) {\n        return activeParticipants.size();\n    }\n    \n    function getTariffActiveParticipants(bytes32 _tariffId) public view returns(address[]) {\n        return tariffs[_tariffId].activeParticipants.elements();\n    }\n\n    function getTariffActiveParticipantsCount(bytes32 _tariffId) public view returns(uint256) {\n        return tariffs[_tariffId].activeParticipants.size();\n    }\n\n    function isParticipant(address _address) public view returns (bool) {\n        return participants[_address];\n    }\n    \n    function getParticipantInfo(address _member) public view returns\n    (\n        bool active, \n        bytes32[] tariffs\n    ) {\n        return (\n            participants[_member],\n            activeMemberTariffs[_member].elements()\n        );\n    }\n\n    function getParticipantTariffInfo(address _member, bytes32 _tariff) public view returns\n    (\n        bool active,\n        uint256 claimed,\n        uint256 minted,\n        uint256 lastTimestamp\n    ) {\n        CityLibrary.MemberTariff storage _mt = memberTariffs[_member][_tariff];\n        return (\n            _mt.active,\n            _mt.claimed,\n            _mt.minted,\n            _mt.lastTimestamp\n        );\n    }\n    \n//    function mintTokens(address tokenAddress, uint256 mintAmount) public onlyOwner {\n//        MintableToken(tokenAddress).mint(address(this), mintAmount);\n//    }\n}\n",
  "sourcePath": "/Users/jonybang/workspace/dcity/contracts/City.sol",
  "compiler": {
    "name": "solc",
    "version": "0.4.24+commit.e67f0147.Emscripten.clang"
  },
  "schemaVersion": "2.0.1",
  "updatedAt": "2019-03-20T19:15:46.963Z"
}