{
  "contractName": "CoinToken",
  "abi": [
    {
      "inputs": [
        {
          "internalType": "string",
          "name": "_name",
          "type": "string"
        },
        {
          "internalType": "string",
          "name": "_symbol",
          "type": "string"
        },
        {
          "internalType": "uint8",
          "name": "_decimals",
          "type": "uint8"
        }
      ],
      "payable": false,
      "stateMutability": "nonpayable",
      "type": "constructor"
    },
    {
      "anonymous": false,
      "inputs": [
        {
          "indexed": true,
          "internalType": "address",
          "name": "owner",
          "type": "address"
        },
        {
          "indexed": true,
          "internalType": "address",
          "name": "spender",
          "type": "address"
        },
        {
          "indexed": false,
          "internalType": "uint256",
          "name": "value",
          "type": "uint256"
        }
      ],
      "name": "Approval",
      "type": "event"
    },
    {
      "anonymous": false,
      "inputs": [
        {
          "indexed": false,
          "internalType": "address",
          "name": "account",
          "type": "address"
        }
      ],
      "name": "Paused",
      "type": "event"
    },
    {
      "anonymous": false,
      "inputs": [
        {
          "indexed": true,
          "internalType": "address",
          "name": "account",
          "type": "address"
        }
      ],
      "name": "PauserAdded",
      "type": "event"
    },
    {
      "anonymous": false,
      "inputs": [
        {
          "indexed": true,
          "internalType": "address",
          "name": "account",
          "type": "address"
        }
      ],
      "name": "PauserRemoved",
      "type": "event"
    },
    {
      "anonymous": false,
      "inputs": [
        {
          "indexed": true,
          "internalType": "address",
          "name": "oldRelayHub",
          "type": "address"
        },
        {
          "indexed": true,
          "internalType": "address",
          "name": "newRelayHub",
          "type": "address"
        }
      ],
      "name": "RelayHubChanged",
      "type": "event"
    },
    {
      "anonymous": false,
      "inputs": [
        {
          "indexed": true,
          "internalType": "address",
          "name": "account",
          "type": "address"
        },
        {
          "indexed": false,
          "internalType": "string",
          "name": "role",
          "type": "string"
        }
      ],
      "name": "RoleAdded",
      "type": "event"
    },
    {
      "anonymous": false,
      "inputs": [
        {
          "indexed": true,
          "internalType": "address",
          "name": "account",
          "type": "address"
        },
        {
          "indexed": false,
          "internalType": "string",
          "name": "role",
          "type": "string"
        }
      ],
      "name": "RoleRemoved",
      "type": "event"
    },
    {
      "anonymous": false,
      "inputs": [
        {
          "indexed": true,
          "internalType": "address",
          "name": "from",
          "type": "address"
        },
        {
          "indexed": true,
          "internalType": "address",
          "name": "to",
          "type": "address"
        },
        {
          "indexed": false,
          "internalType": "uint256",
          "name": "value",
          "type": "uint256"
        }
      ],
      "name": "Transfer",
      "type": "event"
    },
    {
      "anonymous": false,
      "inputs": [
        {
          "indexed": false,
          "internalType": "address",
          "name": "account",
          "type": "address"
        }
      ],
      "name": "Unpaused",
      "type": "event"
    },
    {
      "constant": true,
      "inputs": [],
      "name": "BURNER_ROLE",
      "outputs": [
        {
          "internalType": "string",
          "name": "",
          "type": "string"
        }
      ],
      "payable": false,
      "stateMutability": "view",
      "type": "function"
    },
    {
      "constant": true,
      "inputs": [],
      "name": "FEE_MANAGER_ROLE",
      "outputs": [
        {
          "internalType": "string",
          "name": "",
          "type": "string"
        }
      ],
      "payable": false,
      "stateMutability": "view",
      "type": "function"
    },
    {
      "constant": true,
      "inputs": [],
      "name": "INITIAL_SUPPLY",
      "outputs": [
        {
          "internalType": "uint256",
          "name": "",
          "type": "uint256"
        }
      ],
      "payable": false,
      "stateMutability": "view",
      "type": "function"
    },
    {
      "constant": true,
      "inputs": [],
      "name": "MINTER_ROLE",
      "outputs": [
        {
          "internalType": "string",
          "name": "",
          "type": "string"
        }
      ],
      "payable": false,
      "stateMutability": "view",
      "type": "function"
    },
    {
      "constant": true,
      "inputs": [],
      "name": "PAUSER_ROLE",
      "outputs": [
        {
          "internalType": "string",
          "name": "",
          "type": "string"
        }
      ],
      "payable": false,
      "stateMutability": "view",
      "type": "function"
    },
    {
      "constant": true,
      "inputs": [],
      "name": "ROLE_ROLE_MANAGER",
      "outputs": [
        {
          "internalType": "string",
          "name": "",
          "type": "string"
        }
      ],
      "payable": false,
      "stateMutability": "view",
      "type": "function"
    },
    {
      "constant": true,
      "inputs": [
        {
          "internalType": "address",
          "name": "relay",
          "type": "address"
        },
        {
          "internalType": "address",
          "name": "from",
          "type": "address"
        },
        {
          "internalType": "bytes",
          "name": "encodedFunction",
          "type": "bytes"
        },
        {
          "internalType": "uint256",
          "name": "transactionFee",
          "type": "uint256"
        },
        {
          "internalType": "uint256",
          "name": "gasPrice",
          "type": "uint256"
        },
        {
          "internalType": "uint256",
          "name": "gasLimit",
          "type": "uint256"
        },
        {
          "internalType": "uint256",
          "name": "nonce",
          "type": "uint256"
        },
        {
          "internalType": "bytes",
          "name": "approvalData",
          "type": "bytes"
        },
        {
          "internalType": "uint256",
          "name": "",
          "type": "uint256"
        }
      ],
      "name": "acceptRelayedCall",
      "outputs": [
        {
          "internalType": "uint256",
          "name": "",
          "type": "uint256"
        },
        {
          "internalType": "bytes",
          "name": "",
          "type": "bytes"
        }
      ],
      "payable": false,
      "stateMutability": "view",
      "type": "function"
    },
    {
      "constant": false,
      "inputs": [
        {
          "internalType": "address",
          "name": "account",
          "type": "address"
        }
      ],
      "name": "addPauser",
      "outputs": [],
      "payable": false,
      "stateMutability": "nonpayable",
      "type": "function"
    },
    {
      "constant": false,
      "inputs": [
        {
          "internalType": "address",
          "name": "_account",
          "type": "address"
        },
        {
          "internalType": "string",
          "name": "_role",
          "type": "string"
        }
      ],
      "name": "addRoleTo",
      "outputs": [],
      "payable": false,
      "stateMutability": "nonpayable",
      "type": "function"
    },
    {
      "constant": true,
      "inputs": [
        {
          "internalType": "address",
          "name": "owner",
          "type": "address"
        },
        {
          "internalType": "address",
          "name": "spender",
          "type": "address"
        }
      ],
      "name": "allowance",
      "outputs": [
        {
          "internalType": "uint256",
          "name": "",
          "type": "uint256"
        }
      ],
      "payable": false,
      "stateMutability": "view",
      "type": "function"
    },
    {
      "constant": false,
      "inputs": [
        {
          "internalType": "address",
          "name": "spender",
          "type": "address"
        },
        {
          "internalType": "uint256",
          "name": "value",
          "type": "uint256"
        }
      ],
      "name": "approve",
      "outputs": [
        {
          "internalType": "bool",
          "name": "",
          "type": "bool"
        }
      ],
      "payable": false,
      "stateMutability": "nonpayable",
      "type": "function"
    },
    {
      "constant": true,
      "inputs": [
        {
          "internalType": "address",
          "name": "account",
          "type": "address"
        }
      ],
      "name": "balanceOf",
      "outputs": [
        {
          "internalType": "uint256",
          "name": "",
          "type": "uint256"
        }
      ],
      "payable": false,
      "stateMutability": "view",
      "type": "function"
    },
    {
      "constant": false,
      "inputs": [
        {
          "internalType": "address",
          "name": "account",
          "type": "address"
        },
        {
          "internalType": "uint256",
          "name": "amount",
          "type": "uint256"
        }
      ],
      "name": "burnFrom",
      "outputs": [],
      "payable": false,
      "stateMutability": "nonpayable",
      "type": "function"
    },
    {
      "constant": true,
      "inputs": [],
      "name": "decimals",
      "outputs": [
        {
          "internalType": "uint8",
          "name": "",
          "type": "uint8"
        }
      ],
      "payable": false,
      "stateMutability": "view",
      "type": "function"
    },
    {
      "constant": false,
      "inputs": [
        {
          "internalType": "address",
          "name": "spender",
          "type": "address"
        },
        {
          "internalType": "uint256",
          "name": "subtractedValue",
          "type": "uint256"
        }
      ],
      "name": "decreaseAllowance",
      "outputs": [
        {
          "internalType": "bool",
          "name": "",
          "type": "bool"
        }
      ],
      "payable": false,
      "stateMutability": "nonpayable",
      "type": "function"
    },
    {
      "constant": true,
      "inputs": [],
      "name": "feePrecision",
      "outputs": [
        {
          "internalType": "uint256",
          "name": "",
          "type": "uint256"
        }
      ],
      "payable": false,
      "stateMutability": "view",
      "type": "function"
    },
    {
      "constant": true,
      "inputs": [],
      "name": "getHubAddr",
      "outputs": [
        {
          "internalType": "address",
          "name": "",
          "type": "address"
        }
      ],
      "payable": false,
      "stateMutability": "view",
      "type": "function"
    },
    {
      "constant": true,
      "inputs": [
        {
          "internalType": "address",
          "name": "_account",
          "type": "address"
        },
        {
          "internalType": "string",
          "name": "_role",
          "type": "string"
        }
      ],
      "name": "hasRole",
      "outputs": [
        {
          "internalType": "bool",
          "name": "",
          "type": "bool"
        }
      ],
      "payable": false,
      "stateMutability": "view",
      "type": "function"
    },
    {
      "constant": false,
      "inputs": [
        {
          "internalType": "address",
          "name": "spender",
          "type": "address"
        },
        {
          "internalType": "uint256",
          "name": "addedValue",
          "type": "uint256"
        }
      ],
      "name": "increaseAllowance",
      "outputs": [
        {
          "internalType": "bool",
          "name": "",
          "type": "bool"
        }
      ],
      "payable": false,
      "stateMutability": "nonpayable",
      "type": "function"
    },
    {
      "constant": true,
      "inputs": [
        {
          "internalType": "address",
          "name": "account",
          "type": "address"
        }
      ],
      "name": "isPauser",
      "outputs": [
        {
          "internalType": "bool",
          "name": "",
          "type": "bool"
        }
      ],
      "payable": false,
      "stateMutability": "view",
      "type": "function"
    },
    {
      "constant": true,
      "inputs": [],
      "name": "name",
      "outputs": [
        {
          "internalType": "string",
          "name": "",
          "type": "string"
        }
      ],
      "payable": false,
      "stateMutability": "view",
      "type": "function"
    },
    {
      "constant": false,
      "inputs": [],
      "name": "pause",
      "outputs": [],
      "payable": false,
      "stateMutability": "nonpayable",
      "type": "function"
    },
    {
      "constant": true,
      "inputs": [],
      "name": "paused",
      "outputs": [
        {
          "internalType": "bool",
          "name": "",
          "type": "bool"
        }
      ],
      "payable": false,
      "stateMutability": "view",
      "type": "function"
    },
    {
      "constant": false,
      "inputs": [
        {
          "internalType": "bytes",
          "name": "context",
          "type": "bytes"
        },
        {
          "internalType": "bool",
          "name": "success",
          "type": "bool"
        },
        {
          "internalType": "uint256",
          "name": "actualCharge",
          "type": "uint256"
        },
        {
          "internalType": "bytes32",
          "name": "preRetVal",
          "type": "bytes32"
        }
      ],
      "name": "postRelayedCall",
      "outputs": [],
      "payable": false,
      "stateMutability": "nonpayable",
      "type": "function"
    },
    {
      "constant": false,
      "inputs": [
        {
          "internalType": "bytes",
          "name": "context",
          "type": "bytes"
        }
      ],
      "name": "preRelayedCall",
      "outputs": [
        {
          "internalType": "bytes32",
          "name": "",
          "type": "bytes32"
        }
      ],
      "payable": false,
      "stateMutability": "nonpayable",
      "type": "function"
    },
    {
      "constant": true,
      "inputs": [],
      "name": "relayHubVersion",
      "outputs": [
        {
          "internalType": "string",
          "name": "",
          "type": "string"
        }
      ],
      "payable": false,
      "stateMutability": "view",
      "type": "function"
    },
    {
      "constant": false,
      "inputs": [
        {
          "internalType": "address",
          "name": "_account",
          "type": "address"
        },
        {
          "internalType": "string",
          "name": "_role",
          "type": "string"
        }
      ],
      "name": "removeRoleFrom",
      "outputs": [],
      "payable": false,
      "stateMutability": "nonpayable",
      "type": "function"
    },
    {
      "constant": false,
      "inputs": [],
      "name": "renouncePauser",
      "outputs": [],
      "payable": false,
      "stateMutability": "nonpayable",
      "type": "function"
    },
    {
      "constant": true,
      "inputs": [
        {
          "internalType": "address",
          "name": "_account",
          "type": "address"
        },
        {
          "internalType": "string",
          "name": "_role",
          "type": "string"
        }
      ],
      "name": "requireRole",
      "outputs": [],
      "payable": false,
      "stateMutability": "view",
      "type": "function"
    },
    {
      "constant": true,
      "inputs": [],
      "name": "symbol",
      "outputs": [
        {
          "internalType": "string",
          "name": "",
          "type": "string"
        }
      ],
      "payable": false,
      "stateMutability": "view",
      "type": "function"
    },
    {
      "constant": true,
      "inputs": [],
      "name": "totalSupply",
      "outputs": [
        {
          "internalType": "uint256",
          "name": "",
          "type": "uint256"
        }
      ],
      "payable": false,
      "stateMutability": "view",
      "type": "function"
    },
    {
      "constant": true,
      "inputs": [],
      "name": "transferFee",
      "outputs": [
        {
          "internalType": "uint256",
          "name": "",
          "type": "uint256"
        }
      ],
      "payable": false,
      "stateMutability": "view",
      "type": "function"
    },
    {
      "constant": false,
      "inputs": [],
      "name": "unpause",
      "outputs": [],
      "payable": false,
      "stateMutability": "nonpayable",
      "type": "function"
    },
    {
      "constant": false,
      "inputs": [
        {
          "internalType": "address",
          "name": "account",
          "type": "address"
        },
        {
          "internalType": "uint256",
          "name": "amount",
          "type": "uint256"
        }
      ],
      "name": "mint",
      "outputs": [
        {
          "internalType": "bool",
          "name": "",
          "type": "bool"
        }
      ],
      "payable": false,
      "stateMutability": "nonpayable",
      "type": "function"
    },
    {
      "constant": false,
      "inputs": [
        {
          "internalType": "uint256",
          "name": "amount",
          "type": "uint256"
        }
      ],
      "name": "burn",
      "outputs": [],
      "payable": false,
      "stateMutability": "nonpayable",
      "type": "function"
    },
    {
      "constant": false,
      "inputs": [
        {
          "internalType": "address",
          "name": "account",
          "type": "address"
        },
        {
          "internalType": "uint256",
          "name": "amount",
          "type": "uint256"
        }
      ],
      "name": "burn",
      "outputs": [],
      "payable": false,
      "stateMutability": "nonpayable",
      "type": "function"
    },
    {
      "constant": false,
      "inputs": [
        {
          "internalType": "address",
          "name": "_to",
          "type": "address"
        },
        {
          "internalType": "uint256",
          "name": "_value",
          "type": "uint256"
        }
      ],
      "name": "transfer",
      "outputs": [
        {
          "internalType": "bool",
          "name": "",
          "type": "bool"
        }
      ],
      "payable": false,
      "stateMutability": "nonpayable",
      "type": "function"
    },
    {
      "constant": false,
      "inputs": [
        {
          "internalType": "address",
          "name": "_from",
          "type": "address"
        },
        {
          "internalType": "address",
          "name": "_to",
          "type": "address"
        },
        {
          "internalType": "uint256",
          "name": "_value",
          "type": "uint256"
        }
      ],
      "name": "transferFrom",
      "outputs": [
        {
          "internalType": "bool",
          "name": "",
          "type": "bool"
        }
      ],
      "payable": false,
      "stateMutability": "nonpayable",
      "type": "function"
    },
    {
      "constant": true,
      "inputs": [
        {
          "internalType": "uint256",
          "name": "amount",
          "type": "uint256"
        }
      ],
      "name": "getFeeForAmount",
      "outputs": [
        {
          "internalType": "uint256",
          "name": "",
          "type": "uint256"
        }
      ],
      "payable": false,
      "stateMutability": "view",
      "type": "function"
    },
    {
      "constant": false,
      "inputs": [
        {
          "internalType": "uint256",
          "name": "_transferFee",
          "type": "uint256"
        }
      ],
      "name": "setTransferFee",
      "outputs": [],
      "payable": false,
      "stateMutability": "nonpayable",
      "type": "function"
    },
    {
      "constant": false,
      "inputs": [],
      "name": "withdrawFee",
      "outputs": [],
      "payable": false,
      "stateMutability": "nonpayable",
      "type": "function"
    }
  ],
  "bytecode": "0x6080604052600980546001600160a01b03191673d216153c06e857cd7f72665e0af1d7d82172f4941790556000600a553480156200003c57600080fd5b506040516200315638038062003156833981810160405260608110156200006257600080fd5b81019080805160405193929190846401000000008211156200008357600080fd5b9083019060208201858111156200009957600080fd5b8251640100000000811182820188101715620000b457600080fd5b82525081516020918201929091019080838360005b83811015620000e3578181015183820152602001620000c9565b50505050905090810190601f168015620001115780820380516001836020036101000a031916815260200191505b50604052602001805160405193929190846401000000008211156200013557600080fd5b9083019060208201858111156200014b57600080fd5b82516401000000008111828201881017156200016657600080fd5b82525081516020918201929091019080838360005b83811015620001955781810151838201526020016200017b565b50505050905090810190601f168015620001c35780820380516001836020036101000a031916815260200191505b506040526020015191508390508282620001f8620001e96001600160e01b03620003aa16565b6001600160e01b03620003e116565b6004805460ff19169055825162000217906005906020860190620006cd565b5081516200022d906006906020850190620006cd565b506007805460ff191660ff92909216919091179055505060408051808201909152600c81527f726f6c655f6d616e61676572000000000000000000000000000000000000000060208201526200028590339062000433565b620002cc336040518060400160405280600681526020017f6d696e74657200000000000000000000000000000000000000000000000000008152506200043360201b60201c565b62000313336040518060400160405280600681526020017f6275726e657200000000000000000000000000000000000000000000000000008152506200043360201b60201c565b6200035a336040518060400160405280600681526020017f70617573657200000000000000000000000000000000000000000000000000008152506200043360201b60201c565b620003a1336040518060400160405280600b81526020017f6665655f6d616e616765720000000000000000000000000000000000000000008152506200043360201b60201c565b5050506200076f565b6009546000906001600160a01b03163314620003c8575033620003de565b620003db6001600160e01b036200055616565b90505b90565b620003fc816003620005a360201b620026f61790919060201c565b6040516001600160a01b038216907f6719d08c1888103bea251a4ed56406bd0c3e69723c8a1686e017e7bbe159b6f890600090a250565b620004ac826008836040518082805190602001908083835b602083106200046c5780518252601f1990920191602091820191016200044b565b51815160209384036101000a60001901801990921691161790529201948552506040519384900381019093209392620005a3811b620026f617901c915050565b816001600160a01b03167fbfec83d64eaa953f2708271a023ab9ee82057f8f3578d548c1a4ba0b5b700489826040518080602001828103825283818151815260200191508051906020019080838360005b8381101562000517578181015183820152602001620004fd565b50505050905090810190601f168015620005455780820380516001836020036101000a031916815260200191505b509250505060405180910390a25050565b600060606000368080601f0160208091040260200160405190810160405280939291908181526020018383808284376000920191909152505050503601516001600160a01b031692915050565b620005b882826001600160e01b036200064a16565b156200062557604080517f08c379a000000000000000000000000000000000000000000000000000000000815260206004820152601f60248201527f526f6c65733a206163636f756e7420616c72656164792068617320726f6c6500604482015290519081900360640190fd5b6001600160a01b0316600090815260209190915260409020805460ff19166001179055565b60006001600160a01b038216620006ad576040517f08c379a0000000000000000000000000000000000000000000000000000000008152600401808060200182810382526022815260200180620031346022913960400191505060405180910390fd5b506001600160a01b03166000908152602091909152604090205460ff1690565b828054600181600116156101000203166002900490600052602060002090601f016020900481019282601f106200071057805160ff191683800117855562000740565b8280016001018555821562000740579182015b828111156200074057825182559160200191906001019062000723565b506200074e92915062000752565b5090565b620003de91905b808211156200074e576000815560010162000759565b6129b5806200077f6000396000f3fe608060405234801561001057600080fd5b50600436106102535760003560e01c8063726661c311610146578063a457c2d7116100c3578063d539139311610087578063d5391393146109d1578063dd62ed3e146109d9578063e06e0e2214610a07578063e63ab1e914610a83578063e941fa7814610a8b578063f3c6eb0a14610a9357610253565b8063a457c2d714610961578063a670cb2d1461098d578063a9059cbb14610995578063acb2ad6f146109c1578063ad61ccd5146109c957610253565b806383947ea01161010a57806383947ea01461079b5780638456cb59146109085780638f02bb5b1461091057806395d89b411461092d5780639dc29fac1461093557610253565b8063726661c31461060357806374e861d6146106b757806379cc6790146106db57806380274db71461070757806382dc1ec41461077557610253565b8063313ce567116101d457806342966c681161019857806342966c681461058a57806346fbf68e146105a75780635c975abb146105cd5780636ef8d66d146105d557806370a08231146105dd57610253565b8063313ce5671461050457806335ff1e2814610522578063395093511461052a5780633f4ba83a1461055657806340c10f191461055e57610253565b8063217fe6c61161021b578063217fe6c6146103ed57806323b872dd146104a1578063282c51f3146104d75780632ff2e9dc146104df578063309e7319146104e757610253565b806305db2f411461025857806306fdde03146102d5578063095ea7b3146102dd5780630d31e2ea1461031d57806318160ddd146103d3575b600080fd5b610260610b47565b6040805160208082528351818301528351919283929083019185019080838360005b8381101561029a578181015183820152602001610282565b50505050905090810190601f1680156102c75780820380516001836020036101000a031916815260200191505b509250505060405180910390f35b610260610b6e565b610309600480360360408110156102f357600080fd5b506001600160a01b038135169060200135610c05565b604080519115158252519081900360200190f35b6103d16004803603604081101561033357600080fd5b6001600160a01b038235169190810190604081016020820135600160201b81111561035d57600080fd5b82018360208201111561036f57600080fd5b803590602001918460018302840111600160201b8311171561039057600080fd5b91908080601f016020809104026020016040519081016040528093929190818152602001838380828437600092019190915250929550610c66945050505050565b005b6103db610d44565b60408051918252519081900360200190f35b6103096004803603604081101561040357600080fd5b6001600160a01b038235169190810190604081016020820135600160201b81111561042d57600080fd5b82018360208201111561043f57600080fd5b803590602001918460018302840111600160201b8311171561046057600080fd5b91908080601f016020809104026020016040519081016040528093929190818152602001838380828437600092019190915250929550610d4a945050505050565b610309600480360360608110156104b757600080fd5b506001600160a01b03813581169160208101359091169060400135610d81565b610260610e3f565b6103db610e61565b6103db600480360360208110156104fd57600080fd5b5035610e66565b61050c610ebc565b6040805160ff9092168252519081900360200190f35b6103db610ec5565b6103096004803603604081101561054057600080fd5b506001600160a01b038135169060200135610ece565b6103d1610f26565b6103096004803603604081101561057457600080fd5b506001600160a01b03813516906020013561103a565b6103d1600480360360208110156105a057600080fd5b50356110c5565b610309600480360360208110156105bd57600080fd5b50356001600160a01b03166110d9565b6103096110ec565b6103d16110f5565b6103db600480360360208110156105f357600080fd5b50356001600160a01b0316611107565b6103d16004803603604081101561061957600080fd5b6001600160a01b038235169190810190604081016020820135600160201b81111561064357600080fd5b82018360208201111561065557600080fd5b803590602001918460018302840111600160201b8311171561067657600080fd5b91908080601f016020809104026020016040519081016040528093929190818152602001838380828437600092019190915250929550611122945050505050565b6106bf6111c6565b604080516001600160a01b039092168252519081900360200190f35b6103d1600480360360408110156106f157600080fd5b506001600160a01b0381351690602001356111d5565b6103db6004803603602081101561071d57600080fd5b810190602081018135600160201b81111561073757600080fd5b82018360208201111561074957600080fd5b803590602001918460018302840111600160201b8311171561076a57600080fd5b5090925090506111e3565b6103d16004803603602081101561078b57600080fd5b50356001600160a01b031661127b565b61088960048036036101208110156107b257600080fd5b6001600160a01b038235811692602081013590911691810190606081016040820135600160201b8111156107e557600080fd5b8201836020820111156107f757600080fd5b803590602001918460018302840111600160201b8311171561081857600080fd5b9193909282359260208101359260408201359260608301359260a081019060800135600160201b81111561084b57600080fd5b82018360208201111561085d57600080fd5b803590602001918460018302840111600160201b8311171561087e57600080fd5b9193509150356112d6565b6040518083815260200180602001828103825283818151815260200191508051906020019080838360005b838110156108cc5781810151838201526020016108b4565b50505050905090810190601f1680156108f95780820380516001836020036101000a031916815260200191505b50935050505060405180910390f35b6103d1611419565b6103d16004803603602081101561092657600080fd5b50356114ec565b610260611571565b6103d16004803603604081101561094b57600080fd5b506001600160a01b0381351690602001356115d2565b6103096004803603604081101561097757600080fd5b506001600160a01b038135169060200135611652565b6102606116aa565b610309600480360360408110156109ab57600080fd5b506001600160a01b0381351690602001356116d2565b6103db6116fa565b610260611700565b61026061171f565b6103db600480360360408110156109ef57600080fd5b506001600160a01b0381358116916020013516611741565b6103d160048036036080811015610a1d57600080fd5b810190602081018135600160201b811115610a3757600080fd5b820183602082011115610a4957600080fd5b803590602001918460018302840111600160201b83111715610a6a57600080fd5b919350915080351515906020810135906040013561176c565b61026061180e565b6103d1611830565b6103d160048036036040811015610aa957600080fd5b6001600160a01b038235169190810190604081016020820135600160201b811115610ad357600080fd5b820183602082011115610ae557600080fd5b803590602001918460018302840111600160201b83111715610b0657600080fd5b91908080601f0160208091040260200160405190810160405280939291908181526020018383808284376000920191909152509295506118f2945050505050565b6040518060400160405280600b81526020016a3332b2afb6b0b730b3b2b960a91b81525081565b60058054604080516020601f6002600019610100600188161502019095169490940493840181900481028201810190925282815260609390929091830182828015610bfa5780601f10610bcf57610100808354040283529160200191610bfa565b820191906000526020600020905b815481529060010190602001808311610bdd57829003601f168201915b505050505090505b90565b60045460009060ff1615610c53576040805162461bcd60e51b815260206004820152601060248201526f14185d5cd8589b194e881c185d5cd95960821b604482015290519081900360640190fd5b610c5d8383611967565b90505b92915050565b6040518060400160405280600c81526020016b3937b632afb6b0b730b3b2b960a11b815250610cf5336008836040518082805190602001908083835b60208310610cc15780518252601f199092019160209182019101610ca2565b51815160209384036101000a600019018019909216911617905292019485525060405193849003019092209291505061197b565b610d35576040805162461bcd60e51b815260206004820152600c60248201526b496e76616c696420726f6c6560a01b604482015290519081900360640190fd5b610d3f83836119e2565b505050565b60025490565b6000610c5d8360088460405180828051906020019080838360208310610cc15780518252601f199092019160209182019101610ca2565b60045460009060ff1615610dcf576040805162461bcd60e51b815260206004820152601060248201526f14185d5cd8589b194e881c185d5cd95960821b604482015290519081900360640190fd5b6000610ddb8584611af3565b9050610de8858583611b22565b610e3485610df4611c7e565b610e2f8660405180606001604052806028815260200161286060289139610e228b610e1d611c7e565b611741565b919063ffffffff611ca916565b611d40565b506001949350505050565b60405180604001604052806006815260200165313ab93732b960d11b81525081565b600081565b600a5460009015610eb357610eac64e8d4a51000610ea0600a54610e94606487611e2c90919063ffffffff16565b9063ffffffff611e6e16565b9063ffffffff611e2c16565b9050610eb7565b5060005b919050565b60075460ff1690565b64e8d4a5100081565b60045460009060ff1615610f1c576040805162461bcd60e51b815260206004820152601060248201526f14185d5cd8589b194e881c185d5cd95960821b604482015290519081900360640190fd5b610c5d8383611ec7565b610f55610f31611c7e565b604051806040016040528060068152602001653830bab9b2b960d11b815250610d4a565b610f9c576040805162461bcd60e51b815260206004820152601360248201527213db9b1e481c185d5cd95c88185b1b1bddd959606a1b604482015290519081900360640190fd5b60045460ff16610fea576040805162461bcd60e51b815260206004820152601460248201527314185d5cd8589b194e881b9bdd081c185d5cd95960621b604482015290519081900360640190fd5b6004805460ff191690557f5db9ee0a495bf2e6ff9c91a7834c1ba4fdd244a5e8aa4e537bd38aeae4b073aa61101d611c7e565b604080516001600160a01b039092168252519081900360200190a1565b600061106b611047611c7e565b6040518060400160405280600681526020016536b4b73a32b960d11b815250610d4a565b6110b2576040805162461bcd60e51b815260206004820152601360248201527213db9b1e481b5a5b9d195c88185b1b1bddd959606a1b604482015290519081900360640190fd5b6110bc8383611f1b565b50600192915050565b6110d66110d0611c7e565b8261200b565b50565b6000610c6060038363ffffffff61197b16565b60045460ff1690565b611105611100611c7e565b612107565b565b6001600160a01b031660009081526020819052604090205490565b6040518060400160405280600c81526020016b3937b632afb6b0b730b3b2b960a11b81525061117c3360088360405180828051906020019080838360208310610cc15780518252601f199092019160209182019101610ca2565b6111bc576040805162461bcd60e51b815260206004820152600c60248201526b496e76616c696420726f6c6560a01b604482015290519081900360640190fd5b610d3f838361214f565b6009546001600160a01b031690565b6111df828261221e565b5050565b60006111ed6111c6565b6001600160a01b0316336001600160a01b03161461123c5760405162461bcd60e51b81526004018080602001828103825260248152602001806129146024913960400191505060405180910390fd5b610c5d83838080601f01602080910402602001604051908101604052809392919081815260200183838082843760009201919091525061229992505050565b611286610f31611c7e565b6112cd576040805162461bcd60e51b815260206004820152601360248201527213db9b1e481c185d5cd95c88185b1b1bddd959606a1b604482015290519081900360640190fd5b6110d68161229f565b60006060808d8d8d8d8d8d8d8d6112eb6111c6565b30604051602001808b6001600160a01b03166001600160a01b031660601b81526014018a6001600160a01b03166001600160a01b031660601b81526014018989808284379190910197885250506020808701959095526040808701949094526060808701939093526bffffffffffffffffffffffff1991831b8216608087015290911b1660948401528051608881850301815260c8601f8e018490049093028401830190915260a883018c81529097506113e396506113de955093508b92508a9182910183828082843760009201919091525050855160208701206113d2925090506122e7565b9063ffffffff61233816565b612426565b1515600114156113ff576113f5612439565b9250925050611409565b6113f5600061245d565b9b509b9950505050505050505050565b611424610f31611c7e565b61146b576040805162461bcd60e51b815260206004820152601360248201527213db9b1e481c185d5cd95c88185b1b1bddd959606a1b604482015290519081900360640190fd5b60045460ff16156114b6576040805162461bcd60e51b815260206004820152601060248201526f14185d5cd8589b194e881c185d5cd95960821b604482015290519081900360640190fd5b6004805460ff191660011790557f62e78cea01bee320cd4e420270b5ea74000d11b0c9f74754ebdbfc544b05a25861101d611c7e565b6115206114f7611c7e565b6040518060400160405280600b81526020016a3332b2afb6b0b730b3b2b960a91b815250610d4a565b61156c576040805162461bcd60e51b815260206004820152601860248201527713db9b1e48199959481b585b9859d95c88185b1b1bddd95960421b604482015290519081900360640190fd5b600a55565b60068054604080516020601f6002600019610100600188161502019095169490940493840181900481028201810190925282815260609390929091830182828015610bfa5780601f10610bcf57610100808354040283529160200191610bfa565b6116016115dd611c7e565b60405180604001604052806006815260200165313ab93732b960d11b815250610d4a565b611648576040805162461bcd60e51b815260206004820152601360248201527213db9b1e48189d5c9b995c88185b1b1bddd959606a1b604482015290519081900360640190fd5b6111df828261200b565b60045460009060ff16156116a0576040805162461bcd60e51b815260206004820152601060248201526f14185d5cd8589b194e881c185d5cd95960821b604482015290519081900360640190fd5b610c5d8383612475565b6040518060400160405280600c81526020016b3937b632afb6b0b730b3b2b960a11b81525081565b6000806116e66116e0611c7e565b84611af3565b90506116f284826124e3565b949350505050565b600a5481565b6040805180820190915260058152640312e302e360dc1b602082015290565b6040518060400160405280600681526020016536b4b73a32b960d11b81525081565b6001600160a01b03918216600090815260016020908152604080832093909416825291909152205490565b6117746111c6565b6001600160a01b0316336001600160a01b0316146117c35760405162461bcd60e51b81526004018080602001828103825260248152602001806129146024913960400191505060405180910390fd5b61180785858080601f01602080910402602001604051908101604052809392919081815260200183838082843760009201919091525087925086915085905061253b565b5050505050565b604051806040016040528060068152602001653830bab9b2b960d11b81525081565b61183b6114f7611c7e565b611887576040805162461bcd60e51b815260206004820152601860248201527713db9b1e48199959481b585b9859d95c88185b1b1bddd95960421b604482015290519081900360640190fd5b30600061189382611107565b9050600081116118e0576040805162461bcd60e51b81526020600482015260136024820152724e6f7468696e6720746f20776974686472617760681b604482015290519081900360640190fd5b6111df826118ec611c7e565b83611b22565b6119278260088360405180828051906020019080838360208310610cc15780518252601f199092019160209182019101610ca2565b6111df576040805162461bcd60e51b815260206004820152600c60248201526b496e76616c696420726f6c6560a01b604482015290519081900360640190fd5b60006110bc611974611c7e565b8484611d40565b60006001600160a01b0382166119c25760405162461bcd60e51b81526004018080602001828103825260228152602001806128886022913960400191505060405180910390fd5b506001600160a01b03166000908152602091909152604090205460ff1690565b611a4c826008836040518082805190602001908083835b60208310611a185780518252601f1990920191602091820191016119f9565b51815160209384036101000a6000190180199092169116179052920194855250604051938490030190922092915050612541565b816001600160a01b03167fd211483f91fc6eff862467f8de606587a30c8fc9981056f051b897a418df803a826040518080602001828103825283818151815260200191508051906020019080838360005b83811015611ab5578181015183820152602001611a9d565b50505050905090810190601f168015611ae25780820380516001836020036101000a031916815260200191505b509250505060405180910390a25050565b600080611aff83610e66565b90508015611b1257611b12843083611b22565b6116f2838263ffffffff6125a816565b6001600160a01b038316611b675760405162461bcd60e51b81526004018080602001828103825260258152602001806128ef6025913960400191505060405180910390fd5b6001600160a01b038216611bac5760405162461bcd60e51b81526004018080602001828103825260238152602001806127916023913960400191505060405180910390fd5b611bef816040518060600160405280602681526020016127f8602691396001600160a01b038616600090815260208190526040902054919063ffffffff611ca916565b6001600160a01b038085166000908152602081905260408082209390935590841681522054611c24908263ffffffff6125ea16565b6001600160a01b038084166000818152602081815260409182902094909455805185815290519193928716927fddf252ad1be2c89b69c2b068fc378daa952ba7f163c4a11628f55a4df523b3ef92918290030190a3505050565b6009546000906001600160a01b03163314611c9a575033610c02565b611ca2612644565b9050610c02565b60008184841115611d385760405162461bcd60e51b81526004018080602001828103825283818151815260200191508051906020019080838360005b83811015611cfd578181015183820152602001611ce5565b50505050905090810190601f168015611d2a5780820380516001836020036101000a031916815260200191505b509250505060405180910390fd5b505050900390565b6001600160a01b038316611d855760405162461bcd60e51b81526004018080602001828103825260248152602001806129386024913960400191505060405180910390fd5b6001600160a01b038216611dca5760405162461bcd60e51b81526004018080602001828103825260228152602001806127d66022913960400191505060405180910390fd5b6001600160a01b03808416600081815260016020908152604080832094871680845294825291829020859055815185815291517f8c5be1e5ebec7d5bd14f71427d1e84f3dd0314c0f7b2291e5b200ac8c7c3b9259281900390910190a3505050565b6000610c5d83836040518060400160405280601a81526020017f536166654d6174683a206469766973696f6e206279207a65726f000000000000815250612691565b600082611e7d57506000610c60565b82820282848281611e8a57fe5b0414610c5d5760405162461bcd60e51b815260040180806020018281038252602181526020018061283f6021913960400191505060405180910390fd5b60006110bc611ed4611c7e565b84610e2f8560016000611ee5611c7e565b6001600160a01b03908116825260208083019390935260409182016000908120918c16815292529020549063ffffffff6125ea16565b6001600160a01b038216611f76576040805162461bcd60e51b815260206004820152601f60248201527f45524332303a206d696e7420746f20746865207a65726f206164647265737300604482015290519081900360640190fd5b600254611f89908263ffffffff6125ea16565b6002556001600160a01b038216600090815260208190526040902054611fb5908263ffffffff6125ea16565b6001600160a01b0383166000818152602081815260408083209490945583518581529351929391927fddf252ad1be2c89b69c2b068fc378daa952ba7f163c4a11628f55a4df523b3ef9281900390910190a35050565b6001600160a01b0382166120505760405162461bcd60e51b81526004018080602001828103825260218152602001806128ce6021913960400191505060405180910390fd5b612093816040518060600160405280602281526020016127b4602291396001600160a01b038516600090815260208190526040902054919063ffffffff611ca916565b6001600160a01b0383166000908152602081905260409020556002546120bf908263ffffffff6125a816565b6002556040805182815290516000916001600160a01b038516917fddf252ad1be2c89b69c2b068fc378daa952ba7f163c4a11628f55a4df523b3ef9181900360200190a35050565b61211860038263ffffffff61254116565b6040516001600160a01b038216907fcd265ebaf09df2871cc7bd4133404a235ba12eff2041bb89d9c714a2621c7c7e90600090a250565b6121b9826008836040518082805190602001908083835b602083106121855780518252601f199092019160209182019101612166565b51815160209384036101000a60001901801990921691161790529201948552506040519384900301909220929150506126f6565b60408051602080825283518183015283516001600160a01b038616937fbfec83d64eaa953f2708271a023ab9ee82057f8f3578d548c1a4ba0b5b7004899386939092839283019185019080838360008315611ab5578181015183820152602001611a9d565b612228828261200b565b6111df82612234611c7e565b610e2f846040518060600160405280602481526020016128aa602491396001600160a01b038816600090815260016020526040812090612272611c7e565b6001600160a01b03168152602081019190915260400160002054919063ffffffff611ca916565b50600090565b6122b060038263ffffffff6126f616565b6040516001600160a01b038216907f6719d08c1888103bea251a4ed56406bd0c3e69723c8a1686e017e7bbe159b6f890600090a250565b604080517f19457468657265756d205369676e6564204d6573736167653a0a333200000000602080830191909152603c8083019490945282518083039094018452605c909101909152815191012090565b6000815160411461234b57506000610c60565b60208201516040830151606084015160001a7f7fffffffffffffffffffffffffffffff5d576e7357a4501ddfe92f46681b20a08211156123915760009350505050610c60565b8060ff16601b141580156123a957508060ff16601c14155b156123ba5760009350505050610c60565b6040805160008152602080820180845289905260ff8416828401526060820186905260808201859052915160019260a0808401939192601f1981019281900390910190855afa158015612411573d6000803e3d6000fd5b5050604051601f190151979650505050505050565b60008061243283611107565b1192915050565b6000606061245560405180602001604052806000815250612777565b915091509091565b604080516020810190915260008152600b9190910191565b60006110bc612482611c7e565b84610e2f8560405180606001604052806025815260200161295c60259139600160006124ac611c7e565b6001600160a01b03908116825260208083019390935260409182016000908120918d1681529252902054919063ffffffff611ca916565b60045460009060ff1615612531576040805162461bcd60e51b815260206004820152601060248201526f14185d5cd8589b194e881c185d5cd95960821b604482015290519081900360640190fd5b610c5d838361277c565b50505050565b61254b828261197b565b6125865760405162461bcd60e51b815260040180806020018281038252602181526020018061281e6021913960400191505060405180910390fd5b6001600160a01b0316600090815260209190915260409020805460ff19169055565b6000610c5d83836040518060400160405280601e81526020017f536166654d6174683a207375627472616374696f6e206f766572666c6f770000815250611ca9565b600082820183811015610c5d576040805162461bcd60e51b815260206004820152601b60248201527f536166654d6174683a206164646974696f6e206f766572666c6f770000000000604482015290519081900360640190fd5b600060606000368080601f0160208091040260200160405190810160405280939291908181526020018383808284376000920191909152505050503601516001600160a01b031692915050565b600081836126e05760405162461bcd60e51b8152602060048201818152835160248401528351909283926044909101919085019080838360008315611cfd578181015183820152602001611ce5565b5060008385816126ec57fe5b0495945050505050565b612700828261197b565b15612752576040805162461bcd60e51b815260206004820152601f60248201527f526f6c65733a206163636f756e7420616c72656164792068617320726f6c6500604482015290519081900360640190fd5b6001600160a01b0316600090815260209190915260409020805460ff19166001179055565b600091565b60006110bc612789611c7e565b8484611b2256fe45524332303a207472616e7366657220746f20746865207a65726f206164647265737345524332303a206275726e20616d6f756e7420657863656564732062616c616e636545524332303a20617070726f766520746f20746865207a65726f206164647265737345524332303a207472616e7366657220616d6f756e7420657863656564732062616c616e6365526f6c65733a206163636f756e7420646f6573206e6f74206861766520726f6c65536166654d6174683a206d756c7469706c69636174696f6e206f766572666c6f7745524332303a207472616e7366657220616d6f756e74206578636565647320616c6c6f77616e6365526f6c65733a206163636f756e7420697320746865207a65726f206164647265737345524332303a206275726e20616d6f756e74206578636565647320616c6c6f77616e636545524332303a206275726e2066726f6d20746865207a65726f206164647265737345524332303a207472616e736665722066726f6d20746865207a65726f206164647265737347534e526563697069656e743a2063616c6c6572206973206e6f742052656c617948756245524332303a20617070726f76652066726f6d20746865207a65726f206164647265737345524332303a2064656372656173656420616c6c6f77616e63652062656c6f77207a65726fa265627a7a7231582026a6bea9a10e18fa622c044cc3e062a6cf2458eea9c7c0e4fcd79c5e48ebfffe64736f6c63430005100032526f6c65733a206163636f756e7420697320746865207a65726f2061646472657373",
  "source": "/*\n * Copyright  2018 GaltProject Society Construction and Terraforming Company\n * (Founded by [Nikolai Popeka](https://github.com/npopeka)\n * \n * Copyright  2018 GaltCore Blockchain Company\n * (Founded by [Nikolai Popeka](https://github.com/npopeka) by\n * [Basic Agreement](ipfs/QmaCiXUmSrP16Gz8Jdzq6AJESY1EAANmmwha15uR3c1bsS)).\n */\n\npragma solidity ^0.5.13;\n\nimport \"@openzeppelin/contracts/token/ERC20/ERC20.sol\";\nimport \"@openzeppelin/contracts/token/ERC20/ERC20Burnable.sol\";\nimport \"@openzeppelin/contracts/token/ERC20/ERC20Pausable.sol\";\nimport \"@openzeppelin/contracts/token/ERC20/ERC20Detailed.sol\";\nimport \"@galtproject/libs/contracts/traits/Permissionable.sol\";\nimport \"./interfaces/ICoinToken.sol\";\nimport \"./GSNRecipientSigned.sol\";\n\n\ncontract CoinToken is ICoinToken, ERC20, ERC20Pausable, ERC20Burnable, ERC20Detailed, Permissionable, GSNRecipientSigned {\n  uint256 public constant INITIAL_SUPPLY = 0;\n\n  string public constant MINTER_ROLE = \"minter\";\n  string public constant BURNER_ROLE = \"burner\";\n  string public constant PAUSER_ROLE = \"pauser\";\n  string public constant FEE_MANAGER_ROLE = \"fee_manager\";\n\n  uint256 public constant feePrecision = 1 szabo;\n  // in percents\n  uint256 public transferFee = 0;\n\n  constructor(\n    string memory _name,\n    string memory _symbol,\n    uint8 _decimals\n  )\n    public\n    ERC20Detailed(_name, _symbol, _decimals)\n    Permissionable()\n  {\n    _addRoleTo(msg.sender, MINTER_ROLE);\n    _addRoleTo(msg.sender, BURNER_ROLE);\n    _addRoleTo(msg.sender, PAUSER_ROLE);\n    _addRoleTo(msg.sender, FEE_MANAGER_ROLE);\n    // ROLE_MANAGER is assigned to the msg.sender in Permissionable()\n  }\n\n  modifier hasMintPermission() {\n    require(hasRole(_msgSender(), MINTER_ROLE), \"Only minter allowed\");\n    _;\n  }\n  \n  modifier hasBurnPermission() {\n    require(hasRole(_msgSender(), BURNER_ROLE), \"Only burner allowed\");\n    _;\n  }\n\n  modifier hasFeeManagerPermission() {\n    require(hasRole(_msgSender(), FEE_MANAGER_ROLE), \"Only fee manager allowed\");\n    _;\n  }\n\n  // Uses Permissionable PAUSER_ROLE instead of PauserRole from OZ since\n  // the last one has no explicit removeRole method.\n  modifier onlyPauser() {\n    require(hasRole(_msgSender(), PAUSER_ROLE), \"Only pauser allowed\");\n    _;\n  }\n\n  function _canExecuteRelayedCall(address _caller) internal view returns (bool) {\n    return balanceOf(_caller) > 0;\n  }\n\n  // MANAGER INTERFACE\n\n  function mint(address account, uint256 amount) public hasMintPermission returns (bool) {\n    _mint(account, amount);\n    return true;\n  }\n\n  function burn(address account, uint256 amount) public hasBurnPermission {\n    _burn(account, amount);\n  }\n\n  // USER INTERFACE\n\n  function transfer(address _to, uint256 _value) public returns (bool) {\n    uint256 newValue = takeFee(_msgSender(), _value);\n    return super.transfer(_to, newValue);\n  }\n\n  function transferFrom(address _from, address _to, uint256 _value) public whenNotPaused returns (bool) {\n    uint256 newValue = takeFee(_from, _value);\n\n    _transfer(_from, _to, newValue);\n    _approve(_from, _msgSender(), allowance(_from, _msgSender()).sub(_value, \"ERC20: transfer amount exceeds allowance\"));\n    return true;\n  }\n\n  // INTERNAL\n\n  function takeFee(address from, uint256 _value) private returns(uint256) {\n    uint256 _fee = getFeeForAmount(_value);\n\n    if (_fee > 0) {\n      _transfer(from, address(this), _fee);\n    }\n\n    return _value.sub(_fee);\n  }\n\n  // GETTERS\n  \n  function getFeeForAmount(uint256 amount) public view returns(uint256) {\n    if (transferFee > 0) {\n      return amount.div(100).mul(transferFee).div(feePrecision);\n    } else {\n      return 0;\n    }\n  }\n\n  // OWNER INTERFACES\n\n  function setTransferFee(uint256 _transferFee) public hasFeeManagerPermission {\n    transferFee = _transferFee;\n  }\n\n  function withdrawFee() public hasFeeManagerPermission {\n    address _this = address(this);\n    uint256 _payout = balanceOf(_this);\n\n    require(_payout > 0, \"Nothing to withdraw\");\n\n    _transfer(_this, _msgSender(), _payout);\n  }\n}\n",
  "sourcePath": "/Users/jonybang/workspace/dcity/contracts/CoinToken.sol",
  "compiler": {
    "name": "solc",
    "version": "0.5.16+commit.9c3226ce.Emscripten.clang"
  },
  "schemaVersion": "3.0.20",
  "updatedAt": "2020-03-30T10:04:35.175Z",
  "devdoc": {
    "methods": {
      "acceptRelayedCall(address,address,bytes,uint256,uint256,uint256,uint256,bytes,uint256)": {
        "details": "Ensures that only transactions with a trusted signature can be relayed through the GSN."
      },
      "allowance(address,address)": {
        "details": "See {IERC20-allowance}."
      },
      "balanceOf(address)": {
        "details": "See {IERC20-balanceOf}."
      },
      "burn(uint256)": {
        "details": "Destroys `amount` tokens from the caller.     * See {ERC20-_burn}."
      },
      "burnFrom(address,uint256)": {
        "details": "See {ERC20-_burnFrom}."
      },
      "decimals()": {
        "details": "Returns the number of decimals used to get its user representation. For example, if `decimals` equals `2`, a balance of `505` tokens should be displayed to a user as `5,05` (`505 / 10 ** 2`).     * Tokens usually opt for a value of 18, imitating the relationship between Ether and Wei.     * NOTE: This information is only used for _display_ purposes: it in no way affects any of the arithmetic of the contract, including {IERC20-balanceOf} and {IERC20-transfer}."
      },
      "getHubAddr()": {
        "details": "Returns the address of the {IRelayHub} contract for this recipient."
      },
      "name()": {
        "details": "Returns the name of the token."
      },
      "pause()": {
        "details": "Called by a pauser to pause, triggers stopped state."
      },
      "paused()": {
        "details": "Returns true if the contract is paused, and false otherwise."
      },
      "postRelayedCall(bytes,bool,uint256,bytes32)": {
        "details": "See `IRelayRecipient.postRelayedCall`.     * This function should not be overriden directly, use `_postRelayedCall` instead.     * * Requirements:     * - the caller must be the `RelayHub` contract."
      },
      "preRelayedCall(bytes)": {
        "details": "See `IRelayRecipient.preRelayedCall`.     * This function should not be overriden directly, use `_preRelayedCall` instead.     * * Requirements:     * - the caller must be the `RelayHub` contract."
      },
      "relayHubVersion()": {
        "details": "Returns the version string of the {IRelayHub} for which this recipient implementation was built. If {_upgradeRelayHub} is used, the new {IRelayHub} instance should be compatible with this version."
      },
      "symbol()": {
        "details": "Returns the symbol of the token, usually a shorter version of the name."
      },
      "totalSupply()": {
        "details": "See {IERC20-totalSupply}."
      },
      "unpause()": {
        "details": "Called by a pauser to unpause, returns to normal state."
      }
    }
  },
  "userdoc": {
    "methods": {}
  }
}